{
  "_format": "hh-sol-artifact-1",
  "contractName": "AutoCoinageSnapshotProxy",
  "sourceName": "contracts/tokens/AutoCoinageSnapshotProxy.sol",
  "abi": [
    {
      "inputs": [],
      "stateMutability": "nonpayable",
      "type": "constructor"
    },
    {
      "anonymous": false,
      "inputs": [
        {
          "indexed": true,
          "internalType": "address",
          "name": "previousOwner",
          "type": "address"
        },
        {
          "indexed": true,
          "internalType": "address",
          "name": "newOwner",
          "type": "address"
        }
      ],
      "name": "OwnershipTransferred",
      "type": "event"
    },
    {
      "anonymous": false,
      "inputs": [
        {
          "indexed": true,
          "internalType": "bytes32",
          "name": "role",
          "type": "bytes32"
        },
        {
          "indexed": true,
          "internalType": "bytes32",
          "name": "previousAdminRole",
          "type": "bytes32"
        },
        {
          "indexed": true,
          "internalType": "bytes32",
          "name": "newAdminRole",
          "type": "bytes32"
        }
      ],
      "name": "RoleAdminChanged",
      "type": "event"
    },
    {
      "anonymous": false,
      "inputs": [
        {
          "indexed": true,
          "internalType": "bytes32",
          "name": "role",
          "type": "bytes32"
        },
        {
          "indexed": true,
          "internalType": "address",
          "name": "account",
          "type": "address"
        },
        {
          "indexed": true,
          "internalType": "address",
          "name": "sender",
          "type": "address"
        }
      ],
      "name": "RoleGranted",
      "type": "event"
    },
    {
      "anonymous": false,
      "inputs": [
        {
          "indexed": true,
          "internalType": "bytes32",
          "name": "role",
          "type": "bytes32"
        },
        {
          "indexed": true,
          "internalType": "address",
          "name": "account",
          "type": "address"
        },
        {
          "indexed": true,
          "internalType": "address",
          "name": "sender",
          "type": "address"
        }
      ],
      "name": "RoleRevoked",
      "type": "event"
    },
    {
      "anonymous": false,
      "inputs": [
        {
          "indexed": true,
          "internalType": "address",
          "name": "implementation",
          "type": "address"
        }
      ],
      "name": "Upgraded",
      "type": "event"
    },
    {
      "stateMutability": "payable",
      "type": "fallback"
    },
    {
      "inputs": [],
      "name": "ADMIN_ROLE",
      "outputs": [
        {
          "internalType": "bytes32",
          "name": "",
          "type": "bytes32"
        }
      ],
      "stateMutability": "view",
      "type": "function"
    },
    {
      "inputs": [],
      "name": "DEFAULT_ADMIN_ROLE",
      "outputs": [
        {
          "internalType": "bytes32",
          "name": "",
          "type": "bytes32"
        }
      ],
      "stateMutability": "view",
      "type": "function"
    },
    {
      "inputs": [],
      "name": "REFACTOR_BOUNDARY",
      "outputs": [
        {
          "internalType": "uint256",
          "name": "",
          "type": "uint256"
        }
      ],
      "stateMutability": "view",
      "type": "function"
    },
    {
      "inputs": [],
      "name": "REFACTOR_DIVIDER",
      "outputs": [
        {
          "internalType": "uint256",
          "name": "",
          "type": "uint256"
        }
      ],
      "stateMutability": "view",
      "type": "function"
    },
    {
      "inputs": [],
      "name": "SNAPSHOT_ROLE",
      "outputs": [
        {
          "internalType": "bytes32",
          "name": "",
          "type": "bytes32"
        }
      ],
      "stateMutability": "view",
      "type": "function"
    },
    {
      "inputs": [],
      "name": "UPDATE_ROLE",
      "outputs": [
        {
          "internalType": "bytes32",
          "name": "",
          "type": "bytes32"
        }
      ],
      "stateMutability": "view",
      "type": "function"
    },
    {
      "inputs": [
        {
          "internalType": "address",
          "name": "_owner",
          "type": "address"
        }
      ],
      "name": "addOwner",
      "outputs": [],
      "stateMutability": "nonpayable",
      "type": "function"
    },
    {
      "inputs": [
        {
          "internalType": "address",
          "name": "",
          "type": "address"
        }
      ],
      "name": "currentLayer2SnapshotId",
      "outputs": [
        {
          "internalType": "uint256",
          "name": "",
          "type": "uint256"
        }
      ],
      "stateMutability": "view",
      "type": "function"
    },
    {
      "inputs": [],
      "name": "decimals",
      "outputs": [
        {
          "internalType": "uint256",
          "name": "",
          "type": "uint256"
        }
      ],
      "stateMutability": "view",
      "type": "function"
    },
    {
      "inputs": [
        {
          "internalType": "bytes32",
          "name": "role",
          "type": "bytes32"
        }
      ],
      "name": "getRoleAdmin",
      "outputs": [
        {
          "internalType": "bytes32",
          "name": "",
          "type": "bytes32"
        }
      ],
      "stateMutability": "view",
      "type": "function"
    },
    {
      "inputs": [
        {
          "internalType": "bytes32",
          "name": "role",
          "type": "bytes32"
        },
        {
          "internalType": "address",
          "name": "account",
          "type": "address"
        }
      ],
      "name": "grantRole",
      "outputs": [],
      "stateMutability": "nonpayable",
      "type": "function"
    },
    {
      "inputs": [
        {
          "internalType": "bytes32",
          "name": "role",
          "type": "bytes32"
        },
        {
          "internalType": "address",
          "name": "account",
          "type": "address"
        }
      ],
      "name": "hasRole",
      "outputs": [
        {
          "internalType": "bool",
          "name": "",
          "type": "bool"
        }
      ],
      "stateMutability": "view",
      "type": "function"
    },
    {
      "inputs": [],
      "name": "implementation",
      "outputs": [
        {
          "internalType": "address",
          "name": "",
          "type": "address"
        }
      ],
      "stateMutability": "view",
      "type": "function"
    },
    {
      "inputs": [],
      "name": "layer2Lagistry",
      "outputs": [
        {
          "internalType": "address",
          "name": "",
          "type": "address"
        }
      ],
      "stateMutability": "view",
      "type": "function"
    },
    {
      "inputs": [],
      "name": "migratedL2",
      "outputs": [
        {
          "internalType": "bool",
          "name": "",
          "type": "bool"
        }
      ],
      "stateMutability": "view",
      "type": "function"
    },
    {
      "inputs": [],
      "name": "name",
      "outputs": [
        {
          "internalType": "string",
          "name": "",
          "type": "string"
        }
      ],
      "stateMutability": "view",
      "type": "function"
    },
    {
      "inputs": [],
      "name": "pauseProxy",
      "outputs": [
        {
          "internalType": "bool",
          "name": "",
          "type": "bool"
        }
      ],
      "stateMutability": "view",
      "type": "function"
    },
    {
      "inputs": [
        {
          "internalType": "bytes32",
          "name": "role",
          "type": "bytes32"
        },
        {
          "internalType": "address",
          "name": "account",
          "type": "address"
        }
      ],
      "name": "renounceRole",
      "outputs": [],
      "stateMutability": "nonpayable",
      "type": "function"
    },
    {
      "inputs": [
        {
          "internalType": "bytes32",
          "name": "role",
          "type": "bytes32"
        },
        {
          "internalType": "address",
          "name": "account",
          "type": "address"
        }
      ],
      "name": "revokeRole",
      "outputs": [],
      "stateMutability": "nonpayable",
      "type": "function"
    },
    {
      "inputs": [],
      "name": "seigManager",
      "outputs": [
        {
          "internalType": "address",
          "name": "",
          "type": "address"
        }
      ],
      "stateMutability": "view",
      "type": "function"
    },
    {
      "inputs": [
        {
          "internalType": "string",
          "name": "name_",
          "type": "string"
        },
        {
          "internalType": "string",
          "name": "symbol_",
          "type": "string"
        },
        {
          "internalType": "uint256",
          "name": "decimals_",
          "type": "uint256"
        }
      ],
      "name": "setNameSymbolDecimals",
      "outputs": [],
      "stateMutability": "nonpayable",
      "type": "function"
    },
    {
      "inputs": [
        {
          "internalType": "bool",
          "name": "_pause",
          "type": "bool"
        }
      ],
      "name": "setProxyPause",
      "outputs": [],
      "stateMutability": "nonpayable",
      "type": "function"
    },
    {
      "inputs": [],
      "name": "snashotAggregatorTotal",
      "outputs": [
        {
          "internalType": "uint256",
          "name": "",
          "type": "uint256"
        }
      ],
      "stateMutability": "view",
      "type": "function"
    },
    {
      "inputs": [
        {
          "internalType": "bytes4",
          "name": "interfaceId",
          "type": "bytes4"
        }
      ],
      "name": "supportsInterface",
      "outputs": [
        {
          "internalType": "bool",
          "name": "",
          "type": "bool"
        }
      ],
      "stateMutability": "view",
      "type": "function"
    },
    {
      "inputs": [],
      "name": "symbol",
      "outputs": [
        {
          "internalType": "string",
          "name": "",
          "type": "string"
        }
      ],
      "stateMutability": "view",
      "type": "function"
    },
    {
      "inputs": [
        {
          "internalType": "address",
          "name": "impl",
          "type": "address"
        }
      ],
      "name": "upgradeTo",
      "outputs": [],
      "stateMutability": "nonpayable",
      "type": "function"
    },
    {
      "stateMutability": "payable",
      "type": "receive"
    }
  ],
  "bytecode": "0x60806040526b204fce5e3e25026110000000600155600280553480156200002557600080fd5b506200005360017f360894a13ba1a3210667c828492db98dca3e2076cc3735a920a3ca505d382bbd620001e1565b7f360894a13ba1a3210667c828492db98dca3e2076cc3735a920a3ca505d382bbc146200009057634e487b7160e01b600052600160045260246000fd5b6200009d60003362000131565b620000c97fa49807205ce4d355092ef5a8a18f56e8913cf4a201fbe287825b095693c217753362000131565b620000f57f3ee192ac25847473237ced4bba57f848e1fd794930ff85b428232905809672053362000131565b620001217f5fdbd35e8da83ee755d5e62a539e5ed7f47126abede0b8b10f9ea43dc6eed07f3362000131565b6000600b55601b60125562000205565b6200013d828262000141565b5050565b6000828152602081815260408083206001600160a01b038516845290915290205460ff166200013d576000828152602081815260408083206001600160a01b03851684529091529020805460ff191660011790556200019d3390565b6001600160a01b0316816001600160a01b0316837f2f8788117e7eff1d82e926ec794901d17c78024a50270940304540a733656f0d60405160405180910390a45050565b6000828210156200020057634e487b7160e01b81526011600452602481fd5b500390565b6111be80620002156000396000f3fe6080604052600436106101625760003560e01c806363a8fd89116100c157806391d148541161007a57806391d148541461047457806395d89b4114610494578063a1f5f50e146104a9578063a217fddf146104c8578063addf9090146104dd578063b7c246d7146104f3578063d547741f14610509576101ab565b806363a8fd89146103a45780636fb7f558146103be5780637028e2cd146103de5780637065cb481461041257806375b238fc146104325780637cb00d2514610454576101ab565b80632026288b1161011e5780632026288b146102b1578063248a9ca3146102e95780632f2ff15d14610319578063313ce5671461033957806336568abe1461034f5780633659cfe61461036f5780635c60da1b1461038f576101ab565b8062497846146101b5578062d87a9c146101fc578062f08e461461021257806301ffc9a71461023f57806306fdde031461026f5780631e4d15f714610291576101ab565b366101ab5760405162461bcd60e51b815260206004820152601460248201527331b0b73737ba103932b1b2b4bb329022ba3432b960611b60448201526064015b60405180910390fd5b6101b3610529565b005b3480156101c157600080fd5b506101e97f3ee192ac25847473237ced4bba57f848e1fd794930ff85b4282329058096720581565b6040519081526020015b60405180910390f35b34801561020857600080fd5b506101e960025481565b34801561021e57600080fd5b506101e961022d366004610ed2565b60086020526000908152604090205481565b34801561024b57600080fd5b5061025f61025a366004610f4f565b6105be565b60405190151581526020016101f3565b34801561027b57600080fd5b506102846105f5565b6040516101f39190611050565b34801561029d57600080fd5b506101b36102ac366004610f77565b610683565b3480156102bd57600080fd5b506004546102d1906001600160a01b031681565b6040516001600160a01b0390911681526020016101f3565b3480156102f557600080fd5b506101e9610304366004610f0c565b60009081526020819052604090206001015490565b34801561032557600080fd5b506101b3610334366004610f24565b6106cc565b34801561034557600080fd5b506101e960125481565b34801561035b57600080fd5b506101b361036a366004610f24565b6106f2565b34801561037b57600080fd5b506101b361038a366004610ed2565b610770565b34801561039b57600080fd5b506102d1610862565b3480156103b057600080fd5b50600c5461025f9060ff1681565b3480156103ca57600080fd5b506003546102d1906001600160a01b031681565b3480156103ea57600080fd5b506101e97f5fdbd35e8da83ee755d5e62a539e5ed7f47126abede0b8b10f9ea43dc6eed07f81565b34801561041e57600080fd5b506101b361042d366004610ed2565b610871565b34801561043e57600080fd5b506101e960008051602061116983398151915281565b34801561046057600080fd5b506101b361046f366004610eec565b610901565b34801561048057600080fd5b5061025f61048f366004610f24565b61092e565b3480156104a057600080fd5b50610284610957565b3480156104b557600080fd5b50600c5461025f90610100900460ff1681565b3480156104d457600080fd5b506101e9600081565b3480156104e957600080fd5b506101e9600b5481565b3480156104ff57600080fd5b506101e960015481565b34801561051557600080fd5b506101b3610524366004610f24565b610964565b600061053361098a565b90506001600160a01b038116158015906105505750600c5460ff16155b6105955760405162461bcd60e51b8152602060048201526016602482015275696d706c204f522070726f78792069732066616c736560501b60448201526064016101a2565b3660008037600080366000845af43d6000803e8080156105b4573d6000f35b3d6000fd5b505050565b60006001600160e01b03198216637965db0b60e01b14806105ef57506301ffc9a760e01b6001600160e01b03198316145b92915050565b6010805461060290611101565b80601f016020809104026020016040519081016040528092919081815260200182805461062e90611101565b801561067b5780601f106106505761010080835404028352916020019161067b565b820191906000526020600020905b81548152906001019060200180831161065e57829003601f168201915b505050505081565b60008051602061116983398151915261069c81336109af565b83516106af906010906020870190610d96565b5082516106c3906011906020860190610d96565b50506012555050565b6000828152602081905260409020600101546106e881336109af565b6105b98383610a13565b6001600160a01b03811633146107625760405162461bcd60e51b815260206004820152602f60248201527f416363657373436f6e74726f6c3a2063616e206f6e6c792072656e6f756e636560448201526e103937b632b9903337b91039b2b63360891b60648201526084016101a2565b61076c8282610a97565b5050565b60008051602061116983398151915261078981336109af565b6001600160a01b0382166107cf5760405162461bcd60e51b815260206004820152600d60248201526c696e707574206973207a65726f60981b60448201526064016101a2565b816001600160a01b03166107e161098a565b6001600160a01b031614156108215760405162461bcd60e51b81526004016101a29060208082526004908201526373616d6560e01b604082015260600190565b61082a82610afc565b6040516001600160a01b038316907fbc7cd75a20ee27fd9adebab32041f755214dbc6bffa90cc0225b39da2e5c2d3b90600090a25050565b600061086c61098a565b905090565b60008051602061116983398151915261088a81336109af565b610895600083610ba3565b6108ad60008051602061116983398151915283610ba3565b6108d77f3ee192ac25847473237ced4bba57f848e1fd794930ff85b4282329058096720583610ba3565b61076c7f5fdbd35e8da83ee755d5e62a539e5ed7f47126abede0b8b10f9ea43dc6eed07f83610ba3565b60008051602061116983398151915261091a81336109af565b50600c805460ff1916911515919091179055565b6000918252602082815260408084206001600160a01b0393909316845291905290205460ff1690565b6011805461060290611101565b60008281526020819052604090206001015461098081336109af565b6105b98383610a97565b7f360894a13ba1a3210667c828492db98dca3e2076cc3735a920a3ca505d382bbc5490565b6109b9828261092e565b61076c576109d1816001600160a01b03166014610bad565b6109dc836020610bad565b6040516020016109ed929190610fe1565b60408051601f198184030181529082905262461bcd60e51b82526101a291600401611050565b610a1d828261092e565b61076c576000828152602081815260408083206001600160a01b03851684529091529020805460ff19166001179055610a533390565b6001600160a01b0316816001600160a01b0316837f2f8788117e7eff1d82e926ec794901d17c78024a50270940304540a733656f0d60405160405180910390a45050565b610aa1828261092e565b1561076c576000828152602081815260408083206001600160a01b0385168085529252808320805460ff1916905551339285917ff6391f5c32d9c69d2a47ea670b442974b53935d1edc7fd64eb21e047a839171b9190a45050565b803b610b7f5760405162461bcd60e51b815260206004820152604660248201527f50726f7879426173653a2043616e6e6f742073657420612070726f787920696d60448201527f706c656d656e746174696f6e20746f2061206e6f6e2d636f6e7472616374206160648201526564647265737360d01b608482015260a4016101a2565b7f360894a13ba1a3210667c828492db98dca3e2076cc3735a920a3ca505d382bbc55565b61076c8282610a13565b60606000610bbc83600261109b565b610bc7906002611083565b67ffffffffffffffff811115610bed57634e487b7160e01b600052604160045260246000fd5b6040519080825280601f01601f191660200182016040528015610c17576020820181803683370190505b509050600360fc1b81600081518110610c4057634e487b7160e01b600052603260045260246000fd5b60200101906001600160f81b031916908160001a905350600f60fb1b81600181518110610c7d57634e487b7160e01b600052603260045260246000fd5b60200101906001600160f81b031916908160001a9053506000610ca184600261109b565b610cac906001611083565b90505b6001811115610d40576f181899199a1a9b1b9c1cb0b131b232b360811b85600f1660108110610cee57634e487b7160e01b600052603260045260246000fd5b1a60f81b828281518110610d1257634e487b7160e01b600052603260045260246000fd5b60200101906001600160f81b031916908160001a90535060049490941c93610d39816110ea565b9050610caf565b508315610d8f5760405162461bcd60e51b815260206004820181905260248201527f537472696e67733a20686578206c656e67746820696e73756666696369656e7460448201526064016101a2565b9392505050565b828054610da290611101565b90600052602060002090601f016020900481019282610dc45760008555610e0a565b82601f10610ddd57805160ff1916838001178555610e0a565b82800160010185558215610e0a579182015b82811115610e0a578251825591602001919060010190610def565b50610e16929150610e1a565b5090565b5b80821115610e165760008155600101610e1b565b80356001600160a01b0381168114610e4657600080fd5b919050565b600082601f830112610e5b578081fd5b813567ffffffffffffffff80821115610e7657610e76611152565b604051601f8301601f19908116603f01168101908282118183101715610e9e57610e9e611152565b81604052838152866020858801011115610eb6578485fd5b8360208701602083013792830160200193909352509392505050565b600060208284031215610ee3578081fd5b610d8f82610e2f565b600060208284031215610efd578081fd5b81358015158114610d8f578182fd5b600060208284031215610f1d578081fd5b5035919050565b60008060408385031215610f36578081fd5b82359150610f4660208401610e2f565b90509250929050565b600060208284031215610f60578081fd5b81356001600160e01b031981168114610d8f578182fd5b600080600060608486031215610f8b578081fd5b833567ffffffffffffffff80821115610fa2578283fd5b610fae87838801610e4b565b94506020860135915080821115610fc3578283fd5b50610fd086828701610e4b565b925050604084013590509250925092565b76020b1b1b2b9b9a1b7b73a3937b61d1030b1b1b7bab73a1604d1b8152600083516110138160178501602088016110ba565b7001034b99036b4b9b9b4b733903937b6329607d1b60179184019182015283516110448160288401602088016110ba565b01602801949350505050565b602081526000825180602084015261106f8160408501602087016110ba565b601f01601f19169190910160400192915050565b600082198211156110965761109661113c565b500190565b60008160001904831182151516156110b5576110b561113c565b500290565b60005b838110156110d55781810151838201526020016110bd565b838111156110e4576000848401525b50505050565b6000816110f9576110f961113c565b506000190190565b600181811c9082168061111557607f821691505b6020821081141561113657634e487b7160e01b600052602260045260246000fd5b50919050565b634e487b7160e01b600052601160045260246000fd5b634e487b7160e01b600052604160045260246000fdfea49807205ce4d355092ef5a8a18f56e8913cf4a201fbe287825b095693c21775a2646970667358221220341b8e9ac6b4c97da537f22ea5f37eeb0034e076fc5342ece6f93c1dfe993cfe64736f6c63430008040033",
  "linkReferences": {},
  "deployedLinkReferences": {}
}