{
  "_format": "hh-sol-artifact-1",
  "contractName": "AutoCoinageSnapshot",
  "sourceName": "contracts/tokens/AutoCoinageSnapshot.sol",
  "abi": [
    {
      "inputs": [],
      "stateMutability": "nonpayable",
      "type": "constructor"
    },
    {
      "anonymous": false,
      "inputs": [
        {
          "indexed": true,
          "internalType": "bytes32",
          "name": "role",
          "type": "bytes32"
        },
        {
          "indexed": true,
          "internalType": "bytes32",
          "name": "previousAdminRole",
          "type": "bytes32"
        },
        {
          "indexed": true,
          "internalType": "bytes32",
          "name": "newAdminRole",
          "type": "bytes32"
        }
      ],
      "name": "RoleAdminChanged",
      "type": "event"
    },
    {
      "anonymous": false,
      "inputs": [
        {
          "indexed": true,
          "internalType": "bytes32",
          "name": "role",
          "type": "bytes32"
        },
        {
          "indexed": true,
          "internalType": "address",
          "name": "account",
          "type": "address"
        },
        {
          "indexed": true,
          "internalType": "address",
          "name": "sender",
          "type": "address"
        }
      ],
      "name": "RoleGranted",
      "type": "event"
    },
    {
      "anonymous": false,
      "inputs": [
        {
          "indexed": true,
          "internalType": "bytes32",
          "name": "role",
          "type": "bytes32"
        },
        {
          "indexed": true,
          "internalType": "address",
          "name": "account",
          "type": "address"
        },
        {
          "indexed": true,
          "internalType": "address",
          "name": "sender",
          "type": "address"
        }
      ],
      "name": "RoleRevoked",
      "type": "event"
    },
    {
      "anonymous": false,
      "inputs": [
        {
          "indexed": true,
          "internalType": "address",
          "name": "layer2",
          "type": "address"
        },
        {
          "indexed": false,
          "internalType": "uint256",
          "name": "id",
          "type": "uint256"
        }
      ],
      "name": "onSnapshot",
      "type": "event"
    },
    {
      "anonymous": false,
      "inputs": [
        {
          "indexed": true,
          "internalType": "address",
          "name": "layer2",
          "type": "address"
        },
        {
          "indexed": false,
          "internalType": "uint256",
          "name": "id",
          "type": "uint256"
        }
      ],
      "name": "onSyncLayer2",
      "type": "event"
    },
    {
      "anonymous": false,
      "inputs": [
        {
          "indexed": true,
          "internalType": "address",
          "name": "layer2",
          "type": "address"
        },
        {
          "indexed": false,
          "internalType": "address",
          "name": "account",
          "type": "address"
        },
        {
          "indexed": false,
          "internalType": "uint256",
          "name": "id",
          "type": "uint256"
        }
      ],
      "name": "onSyncLayer2Address",
      "type": "event"
    },
    {
      "anonymous": false,
      "inputs": [
        {
          "indexed": true,
          "internalType": "address",
          "name": "layer2",
          "type": "address"
        },
        {
          "indexed": false,
          "internalType": "uint256",
          "name": "id",
          "type": "uint256"
        }
      ],
      "name": "onSyncLayer2Batch",
      "type": "event"
    },
    {
      "inputs": [],
      "name": "ADMIN_ROLE",
      "outputs": [
        {
          "internalType": "bytes32",
          "name": "",
          "type": "bytes32"
        }
      ],
      "stateMutability": "view",
      "type": "function"
    },
    {
      "inputs": [],
      "name": "DEFAULT_ADMIN_ROLE",
      "outputs": [
        {
          "internalType": "bytes32",
          "name": "",
          "type": "bytes32"
        }
      ],
      "stateMutability": "view",
      "type": "function"
    },
    {
      "inputs": [],
      "name": "REFACTOR_BOUNDARY",
      "outputs": [
        {
          "internalType": "uint256",
          "name": "",
          "type": "uint256"
        }
      ],
      "stateMutability": "view",
      "type": "function"
    },
    {
      "inputs": [],
      "name": "REFACTOR_DIVIDER",
      "outputs": [
        {
          "internalType": "uint256",
          "name": "",
          "type": "uint256"
        }
      ],
      "stateMutability": "view",
      "type": "function"
    },
    {
      "inputs": [],
      "name": "SNAPSHOT_ROLE",
      "outputs": [
        {
          "internalType": "bytes32",
          "name": "",
          "type": "bytes32"
        }
      ],
      "stateMutability": "view",
      "type": "function"
    },
    {
      "inputs": [],
      "name": "UPDATE_ROLE",
      "outputs": [
        {
          "internalType": "bytes32",
          "name": "",
          "type": "bytes32"
        }
      ],
      "stateMutability": "view",
      "type": "function"
    },
    {
      "inputs": [
        {
          "internalType": "address",
          "name": "owner",
          "type": "address"
        },
        {
          "internalType": "address",
          "name": "spender",
          "type": "address"
        }
      ],
      "name": "allowance",
      "outputs": [
        {
          "internalType": "uint256",
          "name": "",
          "type": "uint256"
        }
      ],
      "stateMutability": "view",
      "type": "function"
    },
    {
      "inputs": [
        {
          "internalType": "uint256",
          "name": "v",
          "type": "uint256"
        },
        {
          "internalType": "uint256",
          "name": "refactoredCount",
          "type": "uint256"
        },
        {
          "internalType": "uint256",
          "name": "_factor",
          "type": "uint256"
        },
        {
          "internalType": "uint256",
          "name": "refactorCount",
          "type": "uint256"
        }
      ],
      "name": "applyFactor",
      "outputs": [
        {
          "internalType": "uint256",
          "name": "",
          "type": "uint256"
        }
      ],
      "stateMutability": "view",
      "type": "function"
    },
    {
      "inputs": [
        {
          "internalType": "address",
          "name": "account",
          "type": "address"
        }
      ],
      "name": "balanceOf",
      "outputs": [
        {
          "internalType": "uint256",
          "name": "",
          "type": "uint256"
        }
      ],
      "stateMutability": "view",
      "type": "function"
    },
    {
      "inputs": [
        {
          "internalType": "address",
          "name": "layer2",
          "type": "address"
        },
        {
          "internalType": "address",
          "name": "account",
          "type": "address"
        }
      ],
      "name": "balanceOf",
      "outputs": [
        {
          "internalType": "uint256",
          "name": "",
          "type": "uint256"
        }
      ],
      "stateMutability": "view",
      "type": "function"
    },
    {
      "inputs": [
        {
          "internalType": "address",
          "name": "account",
          "type": "address"
        },
        {
          "internalType": "uint256",
          "name": "snashotAggregatorId",
          "type": "uint256"
        }
      ],
      "name": "balanceOfAt",
      "outputs": [
        {
          "internalType": "uint256",
          "name": "accountStaked",
          "type": "uint256"
        }
      ],
      "stateMutability": "view",
      "type": "function"
    },
    {
      "inputs": [
        {
          "internalType": "address",
          "name": "layer2",
          "type": "address"
        },
        {
          "internalType": "address",
          "name": "account",
          "type": "address"
        },
        {
          "internalType": "uint256",
          "name": "snapshotId",
          "type": "uint256"
        }
      ],
      "name": "balanceOfAt",
      "outputs": [
        {
          "internalType": "uint256",
          "name": "",
          "type": "uint256"
        }
      ],
      "stateMutability": "view",
      "type": "function"
    },
    {
      "inputs": [
        {
          "internalType": "address",
          "name": "layer2",
          "type": "address"
        },
        {
          "internalType": "address",
          "name": "account",
          "type": "address"
        }
      ],
      "name": "currentAccountBalanceSnapshots",
      "outputs": [
        {
          "internalType": "bool",
          "name": "snapshotted",
          "type": "bool"
        },
        {
          "internalType": "uint256",
          "name": "snapShotBalance",
          "type": "uint256"
        },
        {
          "internalType": "uint256",
          "name": "snapShotRefactoredCount",
          "type": "uint256"
        },
        {
          "internalType": "uint256",
          "name": "snapShotRemain",
          "type": "uint256"
        },
        {
          "internalType": "uint256",
          "name": "currentBalanceOf",
          "type": "uint256"
        },
        {
          "internalType": "uint256",
          "name": "curBalances",
          "type": "uint256"
        },
        {
          "internalType": "uint256",
          "name": "curRefactoredCounts",
          "type": "uint256"
        },
        {
          "internalType": "uint256",
          "name": "curRemains",
          "type": "uint256"
        }
      ],
      "stateMutability": "view",
      "type": "function"
    },
    {
      "inputs": [
        {
          "internalType": "address",
          "name": "layer2",
          "type": "address"
        }
      ],
      "name": "currentFactorSnapshots",
      "outputs": [
        {
          "internalType": "bool",
          "name": "snapshotted",
          "type": "bool"
        },
        {
          "internalType": "uint256",
          "name": "snapShotFactor",
          "type": "uint256"
        },
        {
          "internalType": "uint256",
          "name": "snapShotRefactorCount",
          "type": "uint256"
        },
        {
          "internalType": "uint256",
          "name": "curFactorValue",
          "type": "uint256"
        },
        {
          "internalType": "uint256",
          "name": "curFactor",
          "type": "uint256"
        },
        {
          "internalType": "uint256",
          "name": "curRefactorCount",
          "type": "uint256"
        }
      ],
      "stateMutability": "view",
      "type": "function"
    },
    {
      "inputs": [
        {
          "internalType": "address",
          "name": "",
          "type": "address"
        }
      ],
      "name": "currentLayer2SnapshotId",
      "outputs": [
        {
          "internalType": "uint256",
          "name": "",
          "type": "uint256"
        }
      ],
      "stateMutability": "view",
      "type": "function"
    },
    {
      "inputs": [
        {
          "internalType": "address",
          "name": "layer2",
          "type": "address"
        }
      ],
      "name": "currentTotalSupplySnapshots",
      "outputs": [
        {
          "internalType": "bool",
          "name": "snapshotted",
          "type": "bool"
        },
        {
          "internalType": "uint256",
          "name": "snapShotBalance",
          "type": "uint256"
        },
        {
          "internalType": "uint256",
          "name": "snapShotRefactoredCount",
          "type": "uint256"
        },
        {
          "internalType": "uint256",
          "name": "snapShotRemain",
          "type": "uint256"
        },
        {
          "internalType": "uint256",
          "name": "currentTotalSupply",
          "type": "uint256"
        },
        {
          "internalType": "uint256",
          "name": "curBalances",
          "type": "uint256"
        },
        {
          "internalType": "uint256",
          "name": "curRefactoredCounts",
          "type": "uint256"
        },
        {
          "internalType": "uint256",
          "name": "curRemains",
          "type": "uint256"
        }
      ],
      "stateMutability": "view",
      "type": "function"
    },
    {
      "inputs": [],
      "name": "decimals",
      "outputs": [
        {
          "internalType": "uint256",
          "name": "",
          "type": "uint256"
        }
      ],
      "stateMutability": "view",
      "type": "function"
    },
    {
      "inputs": [
        {
          "internalType": "address",
          "name": "",
          "type": "address"
        }
      ],
      "name": "existAccounts",
      "outputs": [
        {
          "internalType": "bool",
          "name": "",
          "type": "bool"
        }
      ],
      "stateMutability": "view",
      "type": "function"
    },
    {
      "inputs": [
        {
          "internalType": "address",
          "name": "",
          "type": "address"
        }
      ],
      "name": "existLayer2s",
      "outputs": [
        {
          "internalType": "bool",
          "name": "",
          "type": "bool"
        }
      ],
      "stateMutability": "view",
      "type": "function"
    },
    {
      "inputs": [
        {
          "internalType": "uint256",
          "name": "id",
          "type": "uint256"
        },
        {
          "internalType": "address",
          "name": "layer2",
          "type": "address"
        },
        {
          "internalType": "address",
          "name": "account",
          "type": "address"
        }
      ],
      "name": "getAccountBalanceSnapsByIds",
      "outputs": [
        {
          "internalType": "uint256",
          "name": "",
          "type": "uint256"
        },
        {
          "internalType": "uint256",
          "name": "",
          "type": "uint256"
        },
        {
          "internalType": "uint256",
          "name": "",
          "type": "uint256"
        },
        {
          "internalType": "uint256",
          "name": "",
          "type": "uint256"
        }
      ],
      "stateMutability": "view",
      "type": "function"
    },
    {
      "inputs": [
        {
          "internalType": "uint256",
          "name": "snapshotId",
          "type": "uint256"
        },
        {
          "internalType": "address",
          "name": "layer2",
          "type": "address"
        },
        {
          "internalType": "address",
          "name": "account",
          "type": "address"
        }
      ],
      "name": "getAccountBalanceSnapsBySnapshotId",
      "outputs": [
        {
          "internalType": "uint256",
          "name": "",
          "type": "uint256"
        },
        {
          "internalType": "uint256",
          "name": "",
          "type": "uint256"
        },
        {
          "internalType": "uint256",
          "name": "",
          "type": "uint256"
        },
        {
          "internalType": "uint256",
          "name": "",
          "type": "uint256"
        }
      ],
      "stateMutability": "view",
      "type": "function"
    },
    {
      "inputs": [
        {
          "internalType": "address",
          "name": "account",
          "type": "address"
        }
      ],
      "name": "getBalanceOfInTokamak",
      "outputs": [
        {
          "internalType": "uint256",
          "name": "accountAmount",
          "type": "uint256"
        }
      ],
      "stateMutability": "view",
      "type": "function"
    },
    {
      "inputs": [
        {
          "internalType": "address",
          "name": "layer2",
          "type": "address"
        }
      ],
      "name": "getCurrentLayer2SnapshotId",
      "outputs": [
        {
          "internalType": "uint256",
          "name": "",
          "type": "uint256"
        }
      ],
      "stateMutability": "view",
      "type": "function"
    },
    {
      "inputs": [
        {
          "internalType": "address",
          "name": "layer2",
          "type": "address"
        },
        {
          "internalType": "address",
          "name": "user",
          "type": "address"
        }
      ],
      "name": "getLayer2BalanceOfInTokamak",
      "outputs": [
        {
          "internalType": "uint256",
          "name": "balanceOfLayer2Amount",
          "type": "uint256"
        },
        {
          "internalType": "uint256",
          "name": "balance",
          "type": "uint256"
        },
        {
          "internalType": "uint256",
          "name": "refactoredCount",
          "type": "uint256"
        },
        {
          "internalType": "uint256",
          "name": "remain",
          "type": "uint256"
        }
      ],
      "stateMutability": "view",
      "type": "function"
    },
    {
      "inputs": [
        {
          "internalType": "address",
          "name": "layer2",
          "type": "address"
        }
      ],
      "name": "getLayer2TotalSupplyInTokamak",
      "outputs": [
        {
          "internalType": "uint256",
          "name": "totalSupplyLayer2",
          "type": "uint256"
        },
        {
          "internalType": "uint256",
          "name": "balance",
          "type": "uint256"
        },
        {
          "internalType": "uint256",
          "name": "refactoredCount",
          "type": "uint256"
        },
        {
          "internalType": "uint256",
          "name": "remain",
          "type": "uint256"
        }
      ],
      "stateMutability": "view",
      "type": "function"
    },
    {
      "inputs": [
        {
          "internalType": "bytes32",
          "name": "role",
          "type": "bytes32"
        }
      ],
      "name": "getRoleAdmin",
      "outputs": [
        {
          "internalType": "bytes32",
          "name": "",
          "type": "bytes32"
        }
      ],
      "stateMutability": "view",
      "type": "function"
    },
    {
      "inputs": [],
      "name": "getTotalStakedInTokamak",
      "outputs": [
        {
          "internalType": "uint256",
          "name": "accountAmount",
          "type": "uint256"
        }
      ],
      "stateMutability": "view",
      "type": "function"
    },
    {
      "inputs": [
        {
          "internalType": "bytes32",
          "name": "role",
          "type": "bytes32"
        },
        {
          "internalType": "address",
          "name": "account",
          "type": "address"
        }
      ],
      "name": "grantRole",
      "outputs": [],
      "stateMutability": "nonpayable",
      "type": "function"
    },
    {
      "inputs": [
        {
          "internalType": "bytes32",
          "name": "role",
          "type": "bytes32"
        },
        {
          "internalType": "address",
          "name": "account",
          "type": "address"
        }
      ],
      "name": "hasRole",
      "outputs": [
        {
          "internalType": "bool",
          "name": "",
          "type": "bool"
        }
      ],
      "stateMutability": "view",
      "type": "function"
    },
    {
      "inputs": [
        {
          "internalType": "address",
          "name": "layer2",
          "type": "address"
        }
      ],
      "name": "lastSnapShotIndex",
      "outputs": [
        {
          "internalType": "uint256",
          "name": "",
          "type": "uint256"
        }
      ],
      "stateMutability": "view",
      "type": "function"
    },
    {
      "inputs": [],
      "name": "layer2Lagistry",
      "outputs": [
        {
          "internalType": "address",
          "name": "",
          "type": "address"
        }
      ],
      "stateMutability": "view",
      "type": "function"
    },
    {
      "inputs": [
        {
          "internalType": "uint256",
          "name": "",
          "type": "uint256"
        }
      ],
      "name": "layer2s",
      "outputs": [
        {
          "internalType": "address",
          "name": "",
          "type": "address"
        }
      ],
      "stateMutability": "view",
      "type": "function"
    },
    {
      "inputs": [],
      "name": "migratedL2",
      "outputs": [
        {
          "internalType": "bool",
          "name": "",
          "type": "bool"
        }
      ],
      "stateMutability": "view",
      "type": "function"
    },
    {
      "inputs": [],
      "name": "name",
      "outputs": [
        {
          "internalType": "string",
          "name": "",
          "type": "string"
        }
      ],
      "stateMutability": "view",
      "type": "function"
    },
    {
      "inputs": [],
      "name": "pauseProxy",
      "outputs": [
        {
          "internalType": "bool",
          "name": "",
          "type": "bool"
        }
      ],
      "stateMutability": "view",
      "type": "function"
    },
    {
      "inputs": [
        {
          "internalType": "bytes32",
          "name": "role",
          "type": "bytes32"
        },
        {
          "internalType": "address",
          "name": "account",
          "type": "address"
        }
      ],
      "name": "renounceRole",
      "outputs": [],
      "stateMutability": "nonpayable",
      "type": "function"
    },
    {
      "inputs": [
        {
          "internalType": "bytes32",
          "name": "role",
          "type": "bytes32"
        },
        {
          "internalType": "address",
          "name": "account",
          "type": "address"
        }
      ],
      "name": "revokeRole",
      "outputs": [],
      "stateMutability": "nonpayable",
      "type": "function"
    },
    {
      "inputs": [],
      "name": "seigManager",
      "outputs": [
        {
          "internalType": "address",
          "name": "",
          "type": "address"
        }
      ],
      "stateMutability": "view",
      "type": "function"
    },
    {
      "inputs": [
        {
          "internalType": "address",
          "name": "_seigManager",
          "type": "address"
        },
        {
          "internalType": "address",
          "name": "_layer2Lagistry",
          "type": "address"
        }
      ],
      "name": "setAddress",
      "outputs": [],
      "stateMutability": "nonpayable",
      "type": "function"
    },
    {
      "inputs": [
        {
          "internalType": "string",
          "name": "name_",
          "type": "string"
        },
        {
          "internalType": "string",
          "name": "symbol_",
          "type": "string"
        },
        {
          "internalType": "uint256",
          "name": "decimals_",
          "type": "uint256"
        }
      ],
      "name": "setNameSymbolDecimals",
      "outputs": [],
      "stateMutability": "nonpayable",
      "type": "function"
    },
    {
      "inputs": [
        {
          "internalType": "address",
          "name": "layer2",
          "type": "address"
        }
      ],
      "name": "snapshot",
      "outputs": [
        {
          "internalType": "uint256",
          "name": "",
          "type": "uint256"
        }
      ],
      "stateMutability": "nonpayable",
      "type": "function"
    },
    {
      "inputs": [],
      "name": "snapshot",
      "outputs": [
        {
          "internalType": "uint256",
          "name": "",
          "type": "uint256"
        }
      ],
      "stateMutability": "nonpayable",
      "type": "function"
    },
    {
      "inputs": [],
      "name": "snashotAggregatorTotal",
      "outputs": [
        {
          "internalType": "uint256",
          "name": "",
          "type": "uint256"
        }
      ],
      "stateMutability": "view",
      "type": "function"
    },
    {
      "inputs": [
        {
          "internalType": "address",
          "name": "account",
          "type": "address"
        },
        {
          "internalType": "uint256",
          "name": "snashotAggregatorId",
          "type": "uint256"
        }
      ],
      "name": "stakedAmountWithSnashotAggregator",
      "outputs": [
        {
          "internalType": "uint256",
          "name": "accountStaked",
          "type": "uint256"
        },
        {
          "internalType": "uint256",
          "name": "totalStaked",
          "type": "uint256"
        }
      ],
      "stateMutability": "view",
      "type": "function"
    },
    {
      "inputs": [
        {
          "internalType": "bytes4",
          "name": "interfaceId",
          "type": "bytes4"
        }
      ],
      "name": "supportsInterface",
      "outputs": [
        {
          "internalType": "bool",
          "name": "",
          "type": "bool"
        }
      ],
      "stateMutability": "view",
      "type": "function"
    },
    {
      "inputs": [],
      "name": "symbol",
      "outputs": [
        {
          "internalType": "string",
          "name": "",
          "type": "string"
        }
      ],
      "stateMutability": "view",
      "type": "function"
    },
    {
      "inputs": [
        {
          "internalType": "address",
          "name": "layer2",
          "type": "address"
        },
        {
          "internalType": "address",
          "name": "account",
          "type": "address"
        }
      ],
      "name": "sync",
      "outputs": [
        {
          "internalType": "uint256",
          "name": "",
          "type": "uint256"
        }
      ],
      "stateMutability": "nonpayable",
      "type": "function"
    },
    {
      "inputs": [
        {
          "internalType": "address",
          "name": "layer2",
          "type": "address"
        }
      ],
      "name": "sync",
      "outputs": [
        {
          "internalType": "uint256",
          "name": "",
          "type": "uint256"
        }
      ],
      "stateMutability": "nonpayable",
      "type": "function"
    },
    {
      "inputs": [
        {
          "internalType": "address",
          "name": "layer2",
          "type": "address"
        },
        {
          "internalType": "address[]",
          "name": "accounts",
          "type": "address[]"
        }
      ],
      "name": "syncBatch",
      "outputs": [
        {
          "internalType": "uint256",
          "name": "",
          "type": "uint256"
        }
      ],
      "stateMutability": "nonpayable",
      "type": "function"
    },
    {
      "inputs": [],
      "name": "totalSupply",
      "outputs": [
        {
          "internalType": "uint256",
          "name": "",
          "type": "uint256"
        }
      ],
      "stateMutability": "view",
      "type": "function"
    },
    {
      "inputs": [
        {
          "internalType": "address",
          "name": "layer2",
          "type": "address"
        }
      ],
      "name": "totalSupply",
      "outputs": [
        {
          "internalType": "uint256",
          "name": "",
          "type": "uint256"
        }
      ],
      "stateMutability": "view",
      "type": "function"
    },
    {
      "inputs": [
        {
          "internalType": "address",
          "name": "layer2",
          "type": "address"
        },
        {
          "internalType": "uint256",
          "name": "snapshotId",
          "type": "uint256"
        }
      ],
      "name": "totalSupplyAt",
      "outputs": [
        {
          "internalType": "uint256",
          "name": "",
          "type": "uint256"
        }
      ],
      "stateMutability": "view",
      "type": "function"
    },
    {
      "inputs": [
        {
          "internalType": "uint256",
          "name": "snashotAggregatorId",
          "type": "uint256"
        }
      ],
      "name": "totalSupplyAt",
      "outputs": [
        {
          "internalType": "uint256",
          "name": "totalStaked",
          "type": "uint256"
        }
      ],
      "stateMutability": "view",
      "type": "function"
    },
    {
      "inputs": [
        {
          "internalType": "address",
          "name": "recipient",
          "type": "address"
        },
        {
          "internalType": "uint256",
          "name": "amount",
          "type": "uint256"
        }
      ],
      "name": "transfer",
      "outputs": [
        {
          "internalType": "bool",
          "name": "",
          "type": "bool"
        }
      ],
      "stateMutability": "nonpayable",
      "type": "function"
    },
    {
      "inputs": [
        {
          "internalType": "address",
          "name": "sender",
          "type": "address"
        },
        {
          "internalType": "address",
          "name": "recipient",
          "type": "address"
        },
        {
          "internalType": "uint256",
          "name": "amount",
          "type": "uint256"
        }
      ],
      "name": "transferFrom",
      "outputs": [
        {
          "internalType": "bool",
          "name": "",
          "type": "bool"
        }
      ],
      "stateMutability": "nonpayable",
      "type": "function"
    },
    {
      "inputs": [
        {
          "internalType": "uint256",
          "name": "",
          "type": "uint256"
        }
      ],
      "name": "uniqAccounts",
      "outputs": [
        {
          "internalType": "address",
          "name": "",
          "type": "address"
        }
      ],
      "stateMutability": "view",
      "type": "function"
    }
  ],
  "bytecode": "0x60806040526b204fce5e3e25026110000000600155600280553480156200002557600080fd5b5062000033600033620000bd565b6200005f7fa49807205ce4d355092ef5a8a18f56e8913cf4a201fbe287825b095693c2177533620000bd565b6200008b7f3ee192ac25847473237ced4bba57f848e1fd794930ff85b4282329058096720533620000bd565b620000b77f5fdbd35e8da83ee755d5e62a539e5ed7f47126abede0b8b10f9ea43dc6eed07f33620000bd565b6200016d565b620000c98282620000cd565b5050565b6000828152602081815260408083206001600160a01b038516845290915290205460ff16620000c9576000828152602081815260408083206001600160a01b03851684529091529020805460ff19166001179055620001293390565b6001600160a01b0316816001600160a01b0316837f2f8788117e7eff1d82e926ec794901d17c78024a50270940304540a733656f0d60405160405180910390a45050565b61494f806200017d6000396000f3fe608060405234801561001057600080fd5b50600436106102f55760003560e01c80636ec0b7f211610193578063a5841194116100e4578063d0e0707b11610092578063d0e0707b14610781578063d547741f14610794578063dd62ed3e146107a7578063e4dc2aa4146107b5578063ec477a90146107c8578063f59e8bb9146107db578063f7888aec146107e357600080fd5b8063a58411941461070d578063a9059cbb14610720578063ac16cd2314610736578063addf909014610749578063b7c246d714610752578063bc5f87891461075b578063bfe64c661461076e57600080fd5b806382799e371161014157806382799e37146106aa57806391d14854146106bd57806395d89b41146106d05780639711715a146106d8578063981b24d0146106e0578063a1f5f50e146106f3578063a217fddf1461070557600080fd5b80636ec0b7f2146105e05780636fb7f558146105f35780637028e2cd1461060657806370a082311461062d57806373ba69881461064057806375b238fc146106825780637ae392631461069757600080fd5b8063265121601161024d578063313ce567116101fb578063313ce5671461055b57806336568abe146105645780633b58524d14610577578063407faa961461058a5780634ee2cd7e1461059d5780635cd3b6d7146105b057806363a8fd89146105d357600080fd5b806326512160146104c15780632bd1f948146104d45780632d119773146104e75780632f2ff15d1461050f5780632f5eddcb146105225780633041949b1461053557806330b90e991461054857600080fd5b80630d55c7ac116102aa5780630d55c7ac146103eb57806318160ddd1461043b5780631e3a0ddd146104435780631e4d15f7146104565780632026288b1461046b57806323b872dd1461048b578063248a9ca31461049e57600080fd5b8062497846146102fa578062d87a9c14610334578062f08e461461033d57806301ffc9a71461035d578063043cd82f1461038057806306fdde03146103b35780630bd4c339146103c8575b600080fd5b6103217f3ee192ac25847473237ced4bba57f848e1fd794930ff85b4282329058096720581565b6040519081526020015b60405180910390f35b61032160025481565b61032161034b36600461432f565b60086020526000908152604090205481565b61037061036b36600461450f565b6107f6565b604051901515815260200161032b565b61039361038e366004614367565b61082d565b60408051948552602085019390935291830152606082015260800161032b565b6103bb610a00565b60405161032b9190614709565b6103706103d636600461432f565b60166020526000908152604090205460ff1681565b6103fe6103f9366004614367565b610a8e565b6040805198151589526020890197909752958701949094526060860192909252608085015260a084015260c083015260e08201526101000161032b565b610321610cdd565b61032161045136600461432f565b610eaf565b610469610464366004614537565b610eca565b005b60045461047e906001600160a01b031681565b60405161032b91906146f5565b61037061049936600461439f565b610f13565b6103216104ac3660046144d3565b60009081526020819052604090206001015490565b6103216104cf36600461432f565b610f1d565b6103216104e23660046143df565b610f5c565b6104fa6104f53660046144a8565b6114c6565b6040805192835260208301919091520161032b565b61046961051d3660046144eb565b6116b7565b6103fe61053036600461432f565b6116e2565b610321610543366004614367565b6118e6565b61047e6105563660046144d3565b611d78565b61032160125481565b6104696105723660046144eb565b611da2565b610469610585366004614367565b611e20565b610393610598366004614614565b611ec3565b6103216105ab3660046144a8565b6121e1565b6103706105be36600461432f565b60146020526000908152604090205460ff1681565b600c546103709060ff1681565b6103216105ee36600461432f565b612351565b60035461047e906001600160a01b031681565b6103217f5fdbd35e8da83ee755d5e62a539e5ed7f47126abede0b8b10f9ea43dc6eed07f81565b61032161063b36600461432f565b612599565b61065361064e36600461432f565b61276d565b6040805196151587526020870195909552938501929092526060840152608083015260a082015260c00161032b565b6103216000805160206148fa83398151915281565b61047e6106a53660046144d3565b6129a7565b6103216106b83660046144a8565b6129b7565b6103706106cb3660046144eb565b612a3d565b6103bb612a66565b610321612a73565b6103216106ee3660046144d3565b612cb0565b600c5461037090610100900460ff1681565b610321600081565b61032161071b36600461432f565b612def565b61037061072e3660046144a8565b600092915050565b610321610744366004614655565b6130ff565b610321600b5481565b61032160015481565b61039361076936600461432f565b613152565b61032161077c36600461439f565b613306565b61032161078f36600461432f565b61338d565b6104696107a23660046144eb565b6133d7565b61032161072e366004614367565b6103216107c336600461432f565b6133fd565b6103936107d6366004614614565b61340c565b61032161355a565b6103216107f1366004614367565b613795565b60006001600160e01b03198216637965db0b60e01b148061082757506301ffc9a760e01b6001600160e01b03198316145b92915050565b600354604051634c063c1960e01b815260009182918291829182916001600160a01b031690634c063c1990610866908a906004016146f5565b60206040518083038186803b15801561087e57600080fd5b505afa158015610892573d6000803e3d6000fd5b505050506040513d601f19601f820116820180604052508101906108b6919061434b565b90506001600160a01b0381166108e75760405162461bcd60e51b81526004016108de9061473c565b60405180910390fd5b6040516370a0823160e01b81526001600160a01b038216906370a08231906109139089906004016146f5565b60206040518083038186803b15801561092b57600080fd5b505afa15801561093f573d6000803e3d6000fd5b505050506040513d601f19601f8201168201806040525081019061096391906145fc565b94506000816001600160a01b03166327e235e3886040518263ffffffff1660e01b815260040161099391906146f5565b60606040518083038186803b1580156109ab57600080fd5b505afa1580156109bf573d6000803e3d6000fd5b505050506040513d601f19601f820116820180604052508101906109e391906145a1565b80516020820151604090920151979a909950909750945050505050565b60108054610a0d90614845565b80601f0160208091040260200160405190810160405280929190818152602001828054610a3990614845565b8015610a865780601f10610a5b57610100808354040283529160200191610a86565b820191906000526020600020905b815481529060010190602001808311610a6957829003601f168201915b505050505081565b600354604051634c063c1960e01b8152600091829182918291829182918291829182916001600160a01b031690634c063c1990610acf908e906004016146f5565b60206040518083038186803b158015610ae757600080fd5b505afa158015610afb573d6000803e3d6000fd5b505050506040513d601f19601f82011682018060405250810190610b1f919061434b565b90506001600160a01b038116610b475760405162461bcd60e51b81526004016108de9061473c565b6040516370a0823160e01b81526001600160a01b038216906370a0823190610b73908d906004016146f5565b60206040518083038186803b158015610b8b57600080fd5b505afa158015610b9f573d6000803e3d6000fd5b505050506040513d601f19601f82011682018060405250810190610bc391906145fc565b94506000816001600160a01b03166327e235e38c6040518263ffffffff1660e01b8152600401610bf391906146f5565b60606040518083038186803b158015610c0b57600080fd5b505afa158015610c1f573d6000803e3d6000fd5b505050506040513d601f19601f82011682018060405250810190610c4391906145a1565b8051602082015160408301519197509550935090506000610c638d610eaf565b90506000600560008f6001600160a01b03166001600160a01b0316815260200190815260200160002060008e6001600160a01b03166001600160a01b031681526020019081526020016000209050610cbc8e83836137a5565b809c50819d50829e50839f5050505050505050509295985092959890939650565b6004805460408051630d42d49760e01b8152905160009384936001600160a01b031692630d42d4979281830192602092829003018186803b158015610d2157600080fd5b505afa158015610d35573d6000803e3d6000fd5b505050506040513d601f19601f82011682018060405250810190610d5991906145fc565b90506000805b82811015610ea8576004805460405163b7ffb17960e01b81529182018390526000916001600160a01b039091169063b7ffb1799060240160206040518083038186803b158015610dae57600080fd5b505afa158015610dc2573d6000803e3d6000fd5b505050506040513d601f19601f82011682018060405250810190610de6919061434b565b600354604051634c063c1960e01b81529192506000916001600160a01b0390911690634c063c1990610e1c9085906004016146f5565b60206040518083038186803b158015610e3457600080fd5b505afa158015610e48573d6000803e3d6000fd5b505050506040513d601f19601f82011682018060405250810190610e6c919061434b565b90506001600160a01b03811615610e9357610e86826133fd565b610e909085614794565b93505b50508080610ea09061487a565b915050610d5f565b5092915050565b6001600160a01b031660009081526008602052604090205490565b6000805160206148fa833981519152610ee38133613932565b8351610ef690601090602087019061422b565b508251610f0a90601190602086019061422b565b50506012555050565b60005b9392505050565b60007f5fdbd35e8da83ee755d5e62a539e5ed7f47126abede0b8b10f9ea43dc6eed07f610f4a8133613932565b610f5383613996565b91505b50919050565b600354604051634c063c1960e01b815260009182916001600160a01b0390911690634c063c1990610f919087906004016146f5565b60206040518083038186803b158015610fa957600080fd5b505afa158015610fbd573d6000803e3d6000fd5b505050506040513d601f19601f82011682018060405250810190610fe1919061434b565b90506001600160a01b0381166110095760405162461bcd60e51b81526004016108de9061473c565b600083511161104a5760405162461bcd60e51b815260206004820152600d60248201526c7a65726f206163636f756e747360981b60448201526064016108de565b600061105585613996565b905060005b845181101561126d576000836001600160a01b03166327e235e387848151811061109457634e487b7160e01b600052603260045260246000fd5b60200260200101516040518263ffffffff1660e01b81526004016110b891906146f5565b60606040518083038186803b1580156110d057600080fd5b505afa1580156110e4573d6000803e3d6000fd5b505050506040513d601f19601f8201168201806040525081019061110891906145a1565b905061114a8787848151811061112e57634e487b7160e01b600052603260045260246000fd5b6020026020010151836000015184602001518560400151613a41565b6016600087848151811061116e57634e487b7160e01b600052603260045260246000fd5b6020908102919091018101516001600160a01b031682528101919091526040016000205460ff1661125c576001601660008885815181106111bf57634e487b7160e01b600052603260045260246000fd5b60200260200101516001600160a01b03166001600160a01b0316815260200190815260200160002060006101000a81548160ff021916908315150217905550601586838151811061122057634e487b7160e01b600052603260045260246000fd5b60209081029190910181015182546001810184556000938452919092200180546001600160a01b0319166001600160a01b039092169190911790555b506112668161487a565b905061105a565b506000826001600160a01b0316633eaaf86b6040518163ffffffff1660e01b815260040160606040518083038186803b1580156112a957600080fd5b505afa1580156112bd573d6000803e3d6000fd5b505050506040513d601f19601f820116820180604052508101906112e191906145a1565b90506000816000015190506000826020015190506000836040015190506000866001600160a01b0316636d1506116040518163ffffffff1660e01b815260040160206040518083038186803b15801561133957600080fd5b505afa15801561134d573d6000803e3d6000fd5b505050506040513d601f19601f8201168201806040525081019061137191906145fc565b90506000876001600160a01b031663a7ac30b06040518163ffffffff1660e01b815260040160206040518083038186803b1580156113ae57600080fd5b505afa1580156113c2573d6000803e3d6000fd5b505050506040513d601f19601f820116820180604052508101906113e691906145fc565b6001600160a01b038c1660009081526014602052604090205490915060ff1661145d576001600160a01b038b166000818152601460205260408120805460ff191660019081179091556013805491820181559091526000805160206148da8339815191520180546001600160a01b03191690911790555b6114698b868686613a7b565b6114748b8383613aa7565b8a6001600160a01b03167f55c675196fb2f6a62aefac4a6cd8dce7b495b583a899d94e3d8943d141297993886040516114af91815260200190565b60405180910390a250949998505050505050505050565b600b54600090819083116116b0576000838152600a6020908152604080832081518154606094810282018501845292810183815290939192849284919084018282801561153c57602002820191906000526020600020905b81546001600160a01b0316815260019091019060200180831161151e575b505050505081526020016001820180548060200260200160405190810160405280929190818152602001828054801561159457602002820191906000526020600020905b815481526020019060010190808311611580575b505050919092525050815151919250506115b55760008092509250506116b0565b60005b8151518110156116ad57611623826000015182815181106115e957634e487b7160e01b600052603260045260246000fd5b6020026020010151878460200151848151811061161657634e487b7160e01b600052603260045260246000fd5b6020026020010151613306565b61162d9085614794565b935061168f8260000151828151811061165657634e487b7160e01b600052603260045260246000fd5b60200260200101518360200151838151811061168257634e487b7160e01b600052603260045260246000fd5b60200260200101516129b7565b6116999084614794565b9250806116a58161487a565b9150506115b8565b50505b9250929050565b6000828152602081905260409020600101546116d38133613932565b6116dd8383613acc565b505050565b600354604051634c063c1960e01b8152600091829182918291829182918291829182916001600160a01b031690634c063c1990611723908d906004016146f5565b60206040518083038186803b15801561173b57600080fd5b505afa15801561174f573d6000803e3d6000fd5b505050506040513d601f19601f82011682018060405250810190611773919061434b565b90506001600160a01b03811661179b5760405162461bcd60e51b81526004016108de9061473c565b806001600160a01b03166318160ddd6040518163ffffffff1660e01b815260040160206040518083038186803b1580156117d457600080fd5b505afa1580156117e8573d6000803e3d6000fd5b505050506040513d601f19601f8201168201806040525081019061180c91906145fc565b94506000816001600160a01b0316633eaaf86b6040518163ffffffff1660e01b815260040160606040518083038186803b15801561184957600080fd5b505afa15801561185d573d6000803e3d6000fd5b505050506040513d601f19601f8201168201806040525081019061188191906145a1565b80516020820151604083015191975095509350905060006118a18c610eaf565b6001600160a01b038d1660009081526006602052604090209091506118c78d83836137a5565b809c50819d50829e50839f505050505050505050919395975091939597565b600354604051634c063c1960e01b815260009182916001600160a01b0390911690634c063c199061191b9087906004016146f5565b60206040518083038186803b15801561193357600080fd5b505afa158015611947573d6000803e3d6000fd5b505050506040513d601f19601f8201168201806040525081019061196b919061434b565b90506001600160a01b0381166119935760405162461bcd60e51b81526004016108de9061473c565b6001600160a01b0383166119d85760405162461bcd60e51b815260206004820152600c60248201526b1e995c9bc81858d8dbdd5b9d60a21b60448201526064016108de565b6040516327e235e360e01b81526000906001600160a01b038316906327e235e390611a079087906004016146f5565b60606040518083038186803b158015611a1f57600080fd5b505afa158015611a33573d6000803e3d6000fd5b505050506040513d601f19601f82011682018060405250810190611a5791906145a1565b90506000816000015190506000826020015190506000836040015190506000856001600160a01b0316633eaaf86b6040518163ffffffff1660e01b815260040160606040518083038186803b158015611aaf57600080fd5b505afa158015611ac3573d6000803e3d6000fd5b505050506040513d601f19601f82011682018060405250810190611ae791906145a1565b90506000816000015190506000826020015190506000836040015190506000896001600160a01b0316636d1506116040518163ffffffff1660e01b815260040160206040518083038186803b158015611b3f57600080fd5b505afa158015611b53573d6000803e3d6000fd5b505050506040513d601f19601f82011682018060405250810190611b7791906145fc565b905060008a6001600160a01b031663a7ac30b06040518163ffffffff1660e01b815260040160206040518083038186803b158015611bb457600080fd5b505afa158015611bc8573d6000803e3d6000fd5b505050506040513d601f19601f82011682018060405250810190611bec91906145fc565b90506000611bf98f613996565b9050611c088f8f8c8c8c613a41565b611c148f878787613a7b565b611c1f8f8484613aa7565b6001600160a01b038f166000908152601460205260409020548f9060ff16611c95576001600160a01b0381166000818152601460205260408120805460ff191660019081179091556013805491820181559091526000805160206148da8339815191520180546001600160a01b03191690911790555b6001600160a01b038f166000908152601660205260409020548f9060ff16611d1d576001600160a01b0381166000818152601660205260408120805460ff191660019081179091556015805491820181559091527f55f448fdea98c4d29eb340757ef0a66cd03dbb9538908a6a81d96026b71ec4750180546001600160a01b03191690911790555b604080516001600160a01b038381168252602082018690528416917feaf565aec332d7cd567bfa2b743a7bdace638ac19ef7900d4c4d103a95be5beb910160405180910390a250909f9e505050505050505050505050505050565b60158181548110611d8857600080fd5b6000918252602090912001546001600160a01b0316905081565b6001600160a01b0381163314611e125760405162461bcd60e51b815260206004820152602f60248201527f416363657373436f6e74726f6c3a2063616e206f6e6c792072656e6f756e636560448201526e103937b632b9903337b91039b2b63360891b60648201526084016108de565b611e1c8282613b50565b5050565b6000805160206148fa833981519152611e398133613932565b6001600160a01b03831615801590611e5957506001600160a01b03821615155b611e945760405162461bcd60e51b815260206004820152600c60248201526b7a65726f206164647265737360a01b60448201526064016108de565b50600380546001600160a01b039384166001600160a01b03199182161790915560048054929093169116179055565b6001600160a01b03808316600090815260056020908152604080832093851683529281528282208351815460a0938102820184019095526080810185815293948594859485948594939092849290918491840182828015611f4357602002820191906000526020600020905b815481526020019060010190808311611f2f575b5050505050815260200160018201805480602002602001604051908101604052809291908181526020018280548015611f9b57602002820191906000526020600020905b815481526020019060010190808311611f87575b5050505050815260200160028201805480602002602001604051908101604052809291908181526020018280548015611ff357602002820191906000526020600020905b815481526020019060010190808311611fdf575b505050505081526020016003820180548060200260200160405190810160405280929190818152602001828054801561204b57602002820191906000526020600020905b815481526020019060010190808311612037575b5050509190925250508151519192505080891061211f57815180518290811061208457634e487b7160e01b600052603260045260246000fd5b6020026020010151826020015182815181106120b057634e487b7160e01b600052603260045260246000fd5b6020026020010151836040015183815181106120dc57634e487b7160e01b600052603260045260246000fd5b60200260200101518460600151848151811061210857634e487b7160e01b600052603260045260246000fd5b6020026020010151955095509550955050506121d8565b815180518a90811061214157634e487b7160e01b600052603260045260246000fd5b602002602001015182602001518a8151811061216d57634e487b7160e01b600052603260045260246000fd5b602002602001015183604001518b8151811061219957634e487b7160e01b600052603260045260246000fd5b602002602001015184606001518c815181106121c557634e487b7160e01b600052603260045260246000fd5b6020026020010151955095509550955050505b93509350935093565b6000600b548211610827576000828152600a6020908152604080832081518154606094810282018501845292810183815290939192849284919084018282801561225457602002820191906000526020600020905b81546001600160a01b03168152600190910190602001808311612236575b50505050508152602001600182018054806020026020016040519081016040528092919081815260200182805480156122ac57602002820191906000526020600020905b815481526020019060010190808311612298575b505050919092525050815151919250506122ca576000915050610827565b60005b8151518110156123495761232b826000015182815181106122fe57634e487b7160e01b600052603260045260246000fd5b6020026020010151868460200151848151811061161657634e487b7160e01b600052603260045260246000fd5b6123359084614794565b9250806123418161487a565b9150506122cd565b505092915050565b6004805460408051630d42d49760e01b8152905160009384936001600160a01b031692630d42d4979281830192602092829003018186803b15801561239557600080fd5b505afa1580156123a9573d6000803e3d6000fd5b505050506040513d601f19601f820116820180604052508101906123cd91906145fc565b90506000915060005b81811015612592576004805460405163b7ffb17960e01b81529182018390526000916001600160a01b039091169063b7ffb1799060240160206040518083038186803b15801561242557600080fd5b505afa158015612439573d6000803e3d6000fd5b505050506040513d601f19601f8201168201806040525081019061245d919061434b565b600354604051634c063c1960e01b81529192506000916001600160a01b0390911690634c063c19906124939085906004016146f5565b60206040518083038186803b1580156124ab57600080fd5b505afa1580156124bf573d6000803e3d6000fd5b505050506040513d601f19601f820116820180604052508101906124e3919061434b565b90506001600160a01b0381161561257d576040516370a0823160e01b81526001600160a01b038216906370a08231906125209089906004016146f5565b60206040518083038186803b15801561253857600080fd5b505afa15801561254c573d6000803e3d6000fd5b505050506040513d601f19601f8201168201806040525081019061257091906145fc565b61257a9086614794565b94505b5050808061258a9061487a565b9150506123d6565b5050919050565b6004805460408051630d42d49760e01b8152905160009384936001600160a01b031692630d42d4979281830192602092829003018186803b1580156125dd57600080fd5b505afa1580156125f1573d6000803e3d6000fd5b505050506040513d601f19601f8201168201806040525081019061261591906145fc565b90506000805b82811015612765576004805460405163b7ffb17960e01b81529182018390526000916001600160a01b039091169063b7ffb1799060240160206040518083038186803b15801561266a57600080fd5b505afa15801561267e573d6000803e3d6000fd5b505050506040513d601f19601f820116820180604052508101906126a2919061434b565b600354604051634c063c1960e01b81529192506000916001600160a01b0390911690634c063c19906126d89085906004016146f5565b60206040518083038186803b1580156126f057600080fd5b505afa158015612704573d6000803e3d6000fd5b505050506040513d601f19601f82011682018060405250810190612728919061434b565b90506001600160a01b03811615612750576127438288613795565b61274d9085614794565b93505b5050808061275d9061487a565b91505061261b565b509392505050565b600354604051634c063c1960e01b81526000918291829182918291829182916001600160a01b031690634c063c19906127aa908b906004016146f5565b60206040518083038186803b1580156127c257600080fd5b505afa1580156127d6573d6000803e3d6000fd5b505050506040513d601f19601f820116820180604052508101906127fa919061434b565b90506001600160a01b0381166128225760405162461bcd60e51b81526004016108de9061473c565b806001600160a01b03166354f703f86040518163ffffffff1660e01b815260040160206040518083038186803b15801561285b57600080fd5b505afa15801561286f573d6000803e3d6000fd5b505050506040513d601f19601f8201168201806040525081019061289391906145fc565b9350806001600160a01b0316636d1506116040518163ffffffff1660e01b815260040160206040518083038186803b1580156128ce57600080fd5b505afa1580156128e2573d6000803e3d6000fd5b505050506040513d601f19601f8201168201806040525081019061290691906145fc565b9250806001600160a01b031663a7ac30b06040518163ffffffff1660e01b815260040160206040518083038186803b15801561294157600080fd5b505afa158015612955573d6000803e3d6000fd5b505050506040513d601f19601f8201168201806040525081019061297991906145fc565b9150600061298689610eaf565b90506129928982613bb5565b919b909a509098509496509294509092915050565b60138181548110611d8857600080fd5b60008115612a35576000806000806129cf8787613c96565b935093509350935060008060006129e68a8a613bb5565b9250925092508680156129f65750825b15612a25576000612a09878785856130ff565b9050612a158582614794565b9850610827975050505050505050565b6000975050505050505050610827565b506000610827565b6000918252602082815260408084206001600160a01b0393909316845291905290205460ff1690565b60118054610a0d90614845565b600b805460009182612a848361487a565b91905055506000600460009054906101000a90046001600160a01b03166001600160a01b0316630d42d4976040518163ffffffff1660e01b815260040160206040518083038186803b158015612ad957600080fd5b505afa158015612aed573d6000803e3d6000fd5b505050506040513d601f19601f82011682018060405250810190612b1191906145fc565b905060005b81811015612ca6576004805460405163b7ffb17960e01b81529182018390526000916001600160a01b039091169063b7ffb1799060240160206040518083038186803b158015612b6557600080fd5b505afa158015612b79573d6000803e3d6000fd5b505050506040513d601f19601f82011682018060405250810190612b9d919061434b565b600354604051634c063c1960e01b81529192506000916001600160a01b0390911690634c063c1990612bd39085906004016146f5565b60206040518083038186803b158015612beb57600080fd5b505afa158015612bff573d6000803e3d6000fd5b505050506040513d601f19601f82011682018060405250810190612c23919061434b565b6001600160a01b031614612c9357600b546000908152600a6020908152604082208054600180820183558285529290932090920180546001600160a01b0319166001600160a01b0385161790558101612c7b83610eaf565b81546001810183556000928352602090922090910155505b5080612c9e8161487a565b915050612b16565b50600b5491505090565b6000600b548211612dea576000828152600a60209081526040808320815181546060948102820185018452928101838152909391928492849190840182828015612d2357602002820191906000526020600020905b81546001600160a01b03168152600190910190602001808311612d05575b5050505050815260200160018201805480602002602001604051908101604052809291908181526020018280548015612d7b57602002820191906000526020600020905b815481526020019060010190808311612d67575b50505091909252505081515191925050612d985750600092915050565b60005b81515181101561259257612dcc8260000151828151811061165657634e487b7160e01b600052603260045260246000fd5b612dd69084614794565b925080612de28161487a565b915050612d9b565b919050565b600354604051634c063c1960e01b815260009182916001600160a01b0390911690634c063c1990612e249086906004016146f5565b60206040518083038186803b158015612e3c57600080fd5b505afa158015612e50573d6000803e3d6000fd5b505050506040513d601f19601f82011682018060405250810190612e74919061434b565b90506001600160a01b038116612e9c5760405162461bcd60e51b81526004016108de9061473c565b6000816001600160a01b0316633eaaf86b6040518163ffffffff1660e01b815260040160606040518083038186803b158015612ed757600080fd5b505afa158015612eeb573d6000803e3d6000fd5b505050506040513d601f19601f82011682018060405250810190612f0f91906145a1565b90506000816000015190506000826020015190506000836040015190506000856001600160a01b0316636d1506116040518163ffffffff1660e01b815260040160206040518083038186803b158015612f6757600080fd5b505afa158015612f7b573d6000803e3d6000fd5b505050506040513d601f19601f82011682018060405250810190612f9f91906145fc565b90506000866001600160a01b031663a7ac30b06040518163ffffffff1660e01b815260040160206040518083038186803b158015612fdc57600080fd5b505afa158015612ff0573d6000803e3d6000fd5b505050506040513d601f19601f8201168201806040525081019061301491906145fc565b6001600160a01b038a1660009081526014602052604090205490915060ff1661308b576001600160a01b0389166000818152601460205260408120805460ff191660019081179091556013805491820181559091526000805160206148da8339815191520180546001600160a01b03191690911790555b60006130968a613996565b90506130a48a878787613a7b565b6130af8a8484613aa7565b896001600160a01b03167f32a9d63c5300e91cc9c633e57c9a98fdaa33b189311e7cbe14859ad9958ecd15826040516130ea91815260200190565b60405180910390a29998505050505050505050565b60008461310e5750600061314a565b6131188584613ce5565b9450835b828110156131455760025461313190876147cc565b95508061313d8161487a565b91505061311c565b508490505b949350505050565b600354604051634c063c1960e01b815260009182918291829182916001600160a01b031690634c063c199061318b9089906004016146f5565b60206040518083038186803b1580156131a357600080fd5b505afa1580156131b7573d6000803e3d6000fd5b505050506040513d601f19601f820116820180604052508101906131db919061434b565b90506001600160a01b0381166132035760405162461bcd60e51b81526004016108de9061473c565b806001600160a01b03166318160ddd6040518163ffffffff1660e01b815260040160206040518083038186803b15801561323c57600080fd5b505afa158015613250573d6000803e3d6000fd5b505050506040513d601f19601f8201168201806040525081019061327491906145fc565b94506000816001600160a01b0316633eaaf86b6040518163ffffffff1660e01b815260040160606040518083038186803b1580156132b157600080fd5b505afa1580156132c5573d6000803e3d6000fd5b505050506040513d601f19601f820116820180604052508101906132e991906145a1565b805160208201516040909201519799909850909695509350505050565b600081156133855760008060008061331f888888613d08565b935093509350935060008060006133368b8a613bb5565b9250925092508680156133465750825b15613375576000613359878785856130ff565b90506133658582614794565b9850610f16975050505050505050565b6000975050505050505050610f16565b506000610f16565b6001600160a01b0381166000908152600660205260408120546133b257506000919050565b6001600160a01b038216600090815260066020526040902054610827906001906147eb565b6000828152602081905260409020600101546133f38133613932565b6116dd8383613b50565b6000610827826106b884610eaf565b6001600160a01b0380831660009081526005602090815260408083209385168352929052908120805482918291829190613454576000806000809450945094509450506121d8565b60008811801561346c575061346887610eaf565b8811155b1561354657600061347d828a613d7b565b90508160000181815481106134a257634e487b7160e01b600052603260045260246000fd5b90600052602060002001548260010182815481106134d057634e487b7160e01b600052603260045260246000fd5b90600052602060002001548360020183815481106134fe57634e487b7160e01b600052603260045260246000fd5b906000526020600020015484600301848154811061352c57634e487b7160e01b600052603260045260246000fd5b9060005260206000200154955095509550955050506121d8565b6000806000809450945094509450506121d8565b6004805460408051630d42d49760e01b8152905160009384936001600160a01b031692630d42d4979281830192602092829003018186803b15801561359e57600080fd5b505afa1580156135b2573d6000803e3d6000fd5b505050506040513d601f19601f820116820180604052508101906135d691906145fc565b90506000915060005b81811015613790576004805460405163b7ffb17960e01b81529182018390526000916001600160a01b039091169063b7ffb1799060240160206040518083038186803b15801561362e57600080fd5b505afa158015613642573d6000803e3d6000fd5b505050506040513d601f19601f82011682018060405250810190613666919061434b565b600354604051634c063c1960e01b81529192506000916001600160a01b0390911690634c063c199061369c9085906004016146f5565b60206040518083038186803b1580156136b457600080fd5b505afa1580156136c8573d6000803e3d6000fd5b505050506040513d601f19601f820116820180604052508101906136ec919061434b565b90506001600160a01b0381161561377b57806001600160a01b03166318160ddd6040518163ffffffff1660e01b815260040160206040518083038186803b15801561373657600080fd5b505afa15801561374a573d6000803e3d6000fd5b505050506040513d601f19601f8201168201806040525081019061376e91906145fc565b6137789086614794565b94505b505080806137889061487a565b9150506135df565b505090565b6000610f16838361077c86610eaf565b6000806000806000861180156137c357506137bf87610eaf565b8611155b156139215760006137d48688613d7b565b86549091508114156138a05780156135465760018681016137f582846147eb565b8154811061381357634e487b7160e01b600052603260045260246000fd5b90600052602060002001548760020160018461382f91906147eb565b8154811061384d57634e487b7160e01b600052603260045260246000fd5b90600052602060002001548860030160018561386991906147eb565b8154811061388757634e487b7160e01b600052603260045260246000fd5b90600052602060002001549450945094509450506121d8565b60018660010182815481106138c557634e487b7160e01b600052603260045260246000fd5b90600052602060002001548760020183815481106138f357634e487b7160e01b600052603260045260246000fd5b906000526020600020015488600301848154811061388757634e487b7160e01b600052603260045260246000fd5b5060009250829150819050806121d8565b61393c8282612a3d565b611e1c57613954816001600160a01b03166014613eab565b61395f836020613eab565b604051602001613970929190614686565b60408051601f198184030181529082905262461bcd60e51b82526108de91600401614709565b6001600160a01b0381166000908152600860205260408120805490826139bb8361487a565b90915550506001600160a01b03821660009081526009602090815260408083206008835281842054845290915281204390556139f683610eaf565b9050826001600160a01b03167f9140ca8dada2f5d654a9719f873254e8caca2580b6b78d4944151727d6207bb182604051613a3391815260200190565b60405180910390a292915050565b6001600160a01b038086166000908152600560209081526040808320938816835292905220613a7490869085858561408d565b5050505050565b6001600160a01b0384166000908152600660205260409020613aa190859085858561408d565b50505050565b6001600160a01b03831660009081526007602052604090206116dd9084908484614110565b613ad68282612a3d565b611e1c576000828152602081815260408083206001600160a01b03851684529091529020805460ff19166001179055613b0c3390565b6001600160a01b0316816001600160a01b0316837f2f8788117e7eff1d82e926ec794901d17c78024a50270940304540a733656f0d60405160405180910390a45050565b613b5a8282612a3d565b15611e1c576000828152602081815260408083206001600160a01b0385168085529252808320805460ff1916905551339285917ff6391f5c32d9c69d2a47ea670b442974b53935d1edc7fd64eb21e047a839171b9190a45050565b6001600160a01b0382166000908152600760205260408120819081908415801590613be85750613be486610eaf565b8511155b15613c82576000613bf98287613d7b565b8254909150811415613c175760008060009450945094505050613c8f565b6001826001018281548110613c3c57634e487b7160e01b600052603260045260246000fd5b9060005260206000200154836002018381548110613c6a57634e487b7160e01b600052603260045260246000fd5b90600052602060002001549450945094505050613c8f565b6000806000935093509350505b9250925092565b600080600080600080600080613cd18a8a600660008e6001600160a01b03166001600160a01b031681526020019081526020016000206137a5565b929d919c509a509098509650505050505050565b60006b033b2e3c9fd0803ce8000000613cfe8484614173565b610f1691906147ac565b600080600080600080600080613d668b8a600560008f6001600160a01b03166001600160a01b0316815260200190815260200160002060008e6001600160a01b03166001600160a01b031681526020019081526020016000206137a5565b929e919d509b50909950975050505050505050565b8154600090613d8c57506000610827565b82548390613d9c906001906147eb565b81548110613dba57634e487b7160e01b600052603260045260246000fd5b90600052602060002001548210613de0578254613dd9906001906147eb565b9050610827565b82600081548110613e0157634e487b7160e01b600052603260045260246000fd5b9060005260206000200154821015613e1b57506000610827565b82546000908190613e2e906001906147eb565b90505b818111156127655760006002613e478484614794565b613e52906001614794565b613e5c91906147ac565b905084868281548110613e7f57634e487b7160e01b600052603260045260246000fd5b906000526020600020015411613e9757809250613ea5565b613ea26001826147eb565b91505b50613e31565b60606000613eba8360026147cc565b613ec5906002614794565b67ffffffffffffffff811115613eeb57634e487b7160e01b600052604160045260246000fd5b6040519080825280601f01601f191660200182016040528015613f15576020820181803683370190505b509050600360fc1b81600081518110613f3e57634e487b7160e01b600052603260045260246000fd5b60200101906001600160f81b031916908160001a905350600f60fb1b81600181518110613f7b57634e487b7160e01b600052603260045260246000fd5b60200101906001600160f81b031916908160001a9053506000613f9f8460026147cc565b613faa906001614794565b90505b600181111561403e576f181899199a1a9b1b9c1cb0b131b232b360811b85600f1660108110613fec57634e487b7160e01b600052603260045260246000fd5b1a60f81b82828151811061401057634e487b7160e01b600052603260045260246000fd5b60200101906001600160f81b031916908160001a90535060049490941c936140378161482e565b9050613fad565b508315610f165760405162461bcd60e51b815260206004820181905260248201527f537472696e67733a20686578206c656e67746820696e73756666696369656e7460448201526064016108de565b600061409886610eaf565b905060006140a5866141da565b905081811015614107578554600181810188556000888152602080822090930185905581890180548084018255908252838220018890556002890180548084018255908252838220018790556003890180549283018155815291909120018390555b50505050505050565b600061411b85610eaf565b905080614127856141da565b1015613a74578354600180820186556000868152602080822090930193909355808601805480830182559084528284200194909455600290940180549384018155815292909220015550565b60008115806141975750828261418981836147cc565b925061419590836147ac565b145b6108275760405162461bcd60e51b815260206004820152601460248201527364732d6d6174682d6d756c2d6f766572666c6f7760601b60448201526064016108de565b80546000906141eb57506000919050565b815482906141fb906001906147eb565b8154811061421957634e487b7160e01b600052603260045260246000fd5b90600052602060002001549050919050565b82805461423790614845565b90600052602060002090601f016020900481019282614259576000855561429f565b82601f1061427257805160ff191683800117855561429f565b8280016001018555821561429f579182015b8281111561429f578251825591602001919060010190614284565b506142ab9291506142af565b5090565b5b808211156142ab57600081556001016142b0565b600082601f8301126142d4578081fd5b813567ffffffffffffffff8111156142ee576142ee6148ab565b614301601f8201601f1916602001614763565b818152846020838601011115614315578283fd5b816020850160208301379081016020019190915292915050565b600060208284031215614340578081fd5b8135610f16816148c1565b60006020828403121561435c578081fd5b8151610f16816148c1565b60008060408385031215614379578081fd5b8235614384816148c1565b91506020830135614394816148c1565b809150509250929050565b6000806000606084860312156143b3578081fd5b83356143be816148c1565b925060208401356143ce816148c1565b929592945050506040919091013590565b600080604083850312156143f1578182fd5b82356143fc816148c1565b915060208381013567ffffffffffffffff80821115614419578384fd5b818601915086601f83011261442c578384fd5b81358181111561443e5761443e6148ab565b8060051b915061444f848301614763565b8181528481019084860184860187018b1015614469578788fd5b8795505b838610156144975780359450614482856148c1565b8483526001959095019491860191860161446d565b508096505050505050509250929050565b600080604083850312156144ba578182fd5b82356144c5816148c1565b946020939093013593505050565b6000602082840312156144e4578081fd5b5035919050565b600080604083850312156144fd578182fd5b823591506020830135614394816148c1565b600060208284031215614520578081fd5b81356001600160e01b031981168114610f16578182fd5b60008060006060848603121561454b578283fd5b833567ffffffffffffffff80821115614562578485fd5b61456e878388016142c4565b94506020860135915080821115614583578384fd5b50614590868287016142c4565b925050604084013590509250925092565b6000606082840312156145b2578081fd5b6040516060810181811067ffffffffffffffff821117156145d5576145d56148ab565b80604052508251815260208301516020820152604083015160408201528091505092915050565b60006020828403121561460d578081fd5b5051919050565b600080600060608486031215614628578081fd5b83359250602084013561463a816148c1565b9150604084013561464a816148c1565b809150509250925092565b6000806000806080858703121561466a578182fd5b5050823594602084013594506040840135936060013592509050565b76020b1b1b2b9b9a1b7b73a3937b61d1030b1b1b7bab73a1604d1b8152600083516146b8816017850160208801614802565b7001034b99036b4b9b9b4b733903937b6329607d1b60179184019182015283516146e9816028840160208801614802565b01602801949350505050565b6001600160a01b0391909116815260200190565b6020815260008251806020840152614728816040850160208701614802565b601f01601f19169190910160400192915050565b6020808252600d908201526c7a65726f20636f696e6167657360981b604082015260600190565b604051601f8201601f1916810167ffffffffffffffff8111828210171561478c5761478c6148ab565b604052919050565b600082198211156147a7576147a7614895565b500190565b6000826147c757634e487b7160e01b81526012600452602481fd5b500490565b60008160001904831182151516156147e6576147e6614895565b500290565b6000828210156147fd576147fd614895565b500390565b60005b8381101561481d578181015183820152602001614805565b83811115613aa15750506000910152565b60008161483d5761483d614895565b506000190190565b600181811c9082168061485957607f821691505b60208210811415610f5657634e487b7160e01b600052602260045260246000fd5b600060001982141561488e5761488e614895565b5060010190565b634e487b7160e01b600052601160045260246000fd5b634e487b7160e01b600052604160045260246000fd5b6001600160a01b03811681146148d657600080fd5b5056fe66de8ffda797e3de9c05e8fc57b3bf0ec28a930d40b0d285d93c06501cf6a090a49807205ce4d355092ef5a8a18f56e8913cf4a201fbe287825b095693c21775a2646970667358221220454110e6d6be96c4fc89f3859ef7fca9859b173accd50abfc1e01678588eefe964736f6c63430008040033",
  "linkReferences": {},
  "deployedLinkReferences": {}
}