{
  "_format": "hh-sol-artifact-1",
  "contractName": "AutoCoinageSnapshot",
  "sourceName": "contracts/tokens/AutoCoinageSnapshot.sol",
  "abi": [
    {
      "inputs": [],
      "stateMutability": "nonpayable",
      "type": "constructor"
    },
    {
      "anonymous": false,
      "inputs": [
        {
          "indexed": true,
          "internalType": "bytes32",
          "name": "role",
          "type": "bytes32"
        },
        {
          "indexed": true,
          "internalType": "bytes32",
          "name": "previousAdminRole",
          "type": "bytes32"
        },
        {
          "indexed": true,
          "internalType": "bytes32",
          "name": "newAdminRole",
          "type": "bytes32"
        }
      ],
      "name": "RoleAdminChanged",
      "type": "event"
    },
    {
      "anonymous": false,
      "inputs": [
        {
          "indexed": true,
          "internalType": "bytes32",
          "name": "role",
          "type": "bytes32"
        },
        {
          "indexed": true,
          "internalType": "address",
          "name": "account",
          "type": "address"
        },
        {
          "indexed": true,
          "internalType": "address",
          "name": "sender",
          "type": "address"
        }
      ],
      "name": "RoleGranted",
      "type": "event"
    },
    {
      "anonymous": false,
      "inputs": [
        {
          "indexed": true,
          "internalType": "bytes32",
          "name": "role",
          "type": "bytes32"
        },
        {
          "indexed": true,
          "internalType": "address",
          "name": "account",
          "type": "address"
        },
        {
          "indexed": true,
          "internalType": "address",
          "name": "sender",
          "type": "address"
        }
      ],
      "name": "RoleRevoked",
      "type": "event"
    },
    {
      "anonymous": false,
      "inputs": [
        {
          "indexed": true,
          "internalType": "address",
          "name": "layer2",
          "type": "address"
        },
        {
          "indexed": false,
          "internalType": "uint256",
          "name": "id",
          "type": "uint256"
        }
      ],
      "name": "onSnapshot",
      "type": "event"
    },
    {
      "anonymous": false,
      "inputs": [
        {
          "indexed": true,
          "internalType": "address",
          "name": "layer2",
          "type": "address"
        },
        {
          "indexed": false,
          "internalType": "uint256",
          "name": "id",
          "type": "uint256"
        }
      ],
      "name": "onSyncLayer2",
      "type": "event"
    },
    {
      "anonymous": false,
      "inputs": [
        {
          "indexed": true,
          "internalType": "address",
          "name": "layer2",
          "type": "address"
        },
        {
          "indexed": false,
          "internalType": "address",
          "name": "account",
          "type": "address"
        },
        {
          "indexed": false,
          "internalType": "uint256",
          "name": "id",
          "type": "uint256"
        }
      ],
      "name": "onSyncLayer2Address",
      "type": "event"
    },
    {
      "anonymous": false,
      "inputs": [
        {
          "indexed": true,
          "internalType": "address",
          "name": "layer2",
          "type": "address"
        },
        {
          "indexed": false,
          "internalType": "uint256",
          "name": "id",
          "type": "uint256"
        }
      ],
      "name": "onSyncLayer2Batch",
      "type": "event"
    },
    {
      "inputs": [],
      "name": "ADMIN_ROLE",
      "outputs": [
        {
          "internalType": "bytes32",
          "name": "",
          "type": "bytes32"
        }
      ],
      "stateMutability": "view",
      "type": "function"
    },
    {
      "inputs": [],
      "name": "DEFAULT_ADMIN_ROLE",
      "outputs": [
        {
          "internalType": "bytes32",
          "name": "",
          "type": "bytes32"
        }
      ],
      "stateMutability": "view",
      "type": "function"
    },
    {
      "inputs": [],
      "name": "REFACTOR_BOUNDARY",
      "outputs": [
        {
          "internalType": "uint256",
          "name": "",
          "type": "uint256"
        }
      ],
      "stateMutability": "view",
      "type": "function"
    },
    {
      "inputs": [],
      "name": "REFACTOR_DIVIDER",
      "outputs": [
        {
          "internalType": "uint256",
          "name": "",
          "type": "uint256"
        }
      ],
      "stateMutability": "view",
      "type": "function"
    },
    {
      "inputs": [],
      "name": "SNAPSHOT_ROLE",
      "outputs": [
        {
          "internalType": "bytes32",
          "name": "",
          "type": "bytes32"
        }
      ],
      "stateMutability": "view",
      "type": "function"
    },
    {
      "inputs": [],
      "name": "UPDATE_ROLE",
      "outputs": [
        {
          "internalType": "bytes32",
          "name": "",
          "type": "bytes32"
        }
      ],
      "stateMutability": "view",
      "type": "function"
    },
    {
      "inputs": [
        {
          "internalType": "address",
          "name": "owner",
          "type": "address"
        },
        {
          "internalType": "address",
          "name": "spender",
          "type": "address"
        }
      ],
      "name": "allowance",
      "outputs": [
        {
          "internalType": "uint256",
          "name": "",
          "type": "uint256"
        }
      ],
      "stateMutability": "view",
      "type": "function"
    },
    {
      "inputs": [
        {
          "internalType": "uint256",
          "name": "v",
          "type": "uint256"
        },
        {
          "internalType": "uint256",
          "name": "refactoredCount",
          "type": "uint256"
        },
        {
          "internalType": "uint256",
          "name": "_factor",
          "type": "uint256"
        },
        {
          "internalType": "uint256",
          "name": "refactorCount",
          "type": "uint256"
        }
      ],
      "name": "applyFactor",
      "outputs": [
        {
          "internalType": "uint256",
          "name": "",
          "type": "uint256"
        }
      ],
      "stateMutability": "view",
      "type": "function"
    },
    {
      "inputs": [
        {
          "internalType": "address",
          "name": "account",
          "type": "address"
        }
      ],
      "name": "balanceOf",
      "outputs": [
        {
          "internalType": "uint256",
          "name": "",
          "type": "uint256"
        }
      ],
      "stateMutability": "view",
      "type": "function"
    },
    {
      "inputs": [
        {
          "internalType": "address",
          "name": "layer2",
          "type": "address"
        },
        {
          "internalType": "address",
          "name": "account",
          "type": "address"
        }
      ],
      "name": "balanceOf",
      "outputs": [
        {
          "internalType": "uint256",
          "name": "",
          "type": "uint256"
        }
      ],
      "stateMutability": "view",
      "type": "function"
    },
    {
      "inputs": [
        {
          "internalType": "address",
          "name": "account",
          "type": "address"
        },
        {
          "internalType": "uint256",
          "name": "snashotAggregatorId",
          "type": "uint256"
        }
      ],
      "name": "balanceOfAt",
      "outputs": [
        {
          "internalType": "uint256",
          "name": "accountStaked",
          "type": "uint256"
        }
      ],
      "stateMutability": "view",
      "type": "function"
    },
    {
      "inputs": [
        {
          "internalType": "address",
          "name": "layer2",
          "type": "address"
        },
        {
          "internalType": "address",
          "name": "account",
          "type": "address"
        },
        {
          "internalType": "uint256",
          "name": "snapshotId",
          "type": "uint256"
        }
      ],
      "name": "balanceOfAt",
      "outputs": [
        {
          "internalType": "uint256",
          "name": "",
          "type": "uint256"
        }
      ],
      "stateMutability": "view",
      "type": "function"
    },
    {
      "inputs": [
        {
          "internalType": "address",
          "name": "layer2",
          "type": "address"
        },
        {
          "internalType": "address",
          "name": "account",
          "type": "address"
        }
      ],
      "name": "currentAccountBalanceSnapshots",
      "outputs": [
        {
          "internalType": "bool",
          "name": "snapshotted",
          "type": "bool"
        },
        {
          "internalType": "uint256",
          "name": "snapShotBalance",
          "type": "uint256"
        },
        {
          "internalType": "uint256",
          "name": "snapShotRefactoredCount",
          "type": "uint256"
        },
        {
          "internalType": "uint256",
          "name": "snapShotRemain",
          "type": "uint256"
        },
        {
          "internalType": "uint256",
          "name": "currentBalanceOf",
          "type": "uint256"
        },
        {
          "internalType": "uint256",
          "name": "curBalances",
          "type": "uint256"
        },
        {
          "internalType": "uint256",
          "name": "curRefactoredCounts",
          "type": "uint256"
        },
        {
          "internalType": "uint256",
          "name": "curRemains",
          "type": "uint256"
        }
      ],
      "stateMutability": "view",
      "type": "function"
    },
    {
      "inputs": [
        {
          "internalType": "address",
          "name": "layer2",
          "type": "address"
        }
      ],
      "name": "currentFactorSnapshots",
      "outputs": [
        {
          "internalType": "bool",
          "name": "snapshotted",
          "type": "bool"
        },
        {
          "internalType": "uint256",
          "name": "snapShotFactor",
          "type": "uint256"
        },
        {
          "internalType": "uint256",
          "name": "snapShotRefactorCount",
          "type": "uint256"
        },
        {
          "internalType": "uint256",
          "name": "curFactorValue",
          "type": "uint256"
        },
        {
          "internalType": "uint256",
          "name": "curFactor",
          "type": "uint256"
        },
        {
          "internalType": "uint256",
          "name": "curRefactorCount",
          "type": "uint256"
        }
      ],
      "stateMutability": "view",
      "type": "function"
    },
    {
      "inputs": [
        {
          "internalType": "address",
          "name": "",
          "type": "address"
        }
      ],
      "name": "currentLayer2SnapshotId",
      "outputs": [
        {
          "internalType": "uint256",
          "name": "",
          "type": "uint256"
        }
      ],
      "stateMutability": "view",
      "type": "function"
    },
    {
      "inputs": [
        {
          "internalType": "address",
          "name": "layer2",
          "type": "address"
        }
      ],
      "name": "currentTotalSupplySnapshots",
      "outputs": [
        {
          "internalType": "bool",
          "name": "snapshotted",
          "type": "bool"
        },
        {
          "internalType": "uint256",
          "name": "snapShotBalance",
          "type": "uint256"
        },
        {
          "internalType": "uint256",
          "name": "snapShotRefactoredCount",
          "type": "uint256"
        },
        {
          "internalType": "uint256",
          "name": "snapShotRemain",
          "type": "uint256"
        },
        {
          "internalType": "uint256",
          "name": "currentTotalSupply",
          "type": "uint256"
        },
        {
          "internalType": "uint256",
          "name": "curBalances",
          "type": "uint256"
        },
        {
          "internalType": "uint256",
          "name": "curRefactoredCounts",
          "type": "uint256"
        },
        {
          "internalType": "uint256",
          "name": "curRemains",
          "type": "uint256"
        }
      ],
      "stateMutability": "view",
      "type": "function"
    },
    {
      "inputs": [],
      "name": "decimals",
      "outputs": [
        {
          "internalType": "uint256",
          "name": "",
          "type": "uint256"
        }
      ],
      "stateMutability": "view",
      "type": "function"
    },
    {
      "inputs": [
        {
          "internalType": "address",
          "name": "",
          "type": "address"
        }
      ],
      "name": "existAccounts",
      "outputs": [
        {
          "internalType": "bool",
          "name": "",
          "type": "bool"
        }
      ],
      "stateMutability": "view",
      "type": "function"
    },
    {
      "inputs": [
        {
          "internalType": "address",
          "name": "",
          "type": "address"
        }
      ],
      "name": "existLayer2s",
      "outputs": [
        {
          "internalType": "bool",
          "name": "",
          "type": "bool"
        }
      ],
      "stateMutability": "view",
      "type": "function"
    },
    {
      "inputs": [
        {
          "internalType": "uint256",
          "name": "id",
          "type": "uint256"
        },
        {
          "internalType": "address",
          "name": "layer2",
          "type": "address"
        },
        {
          "internalType": "address",
          "name": "account",
          "type": "address"
        }
      ],
      "name": "getAccountBalanceSnapsByIds",
      "outputs": [
        {
          "internalType": "uint256",
          "name": "",
          "type": "uint256"
        },
        {
          "internalType": "uint256",
          "name": "",
          "type": "uint256"
        },
        {
          "internalType": "uint256",
          "name": "",
          "type": "uint256"
        },
        {
          "internalType": "uint256",
          "name": "",
          "type": "uint256"
        }
      ],
      "stateMutability": "view",
      "type": "function"
    },
    {
      "inputs": [
        {
          "internalType": "uint256",
          "name": "snapshotId",
          "type": "uint256"
        },
        {
          "internalType": "address",
          "name": "layer2",
          "type": "address"
        },
        {
          "internalType": "address",
          "name": "account",
          "type": "address"
        }
      ],
      "name": "getAccountBalanceSnapsBySnapshotId",
      "outputs": [
        {
          "internalType": "uint256",
          "name": "",
          "type": "uint256"
        },
        {
          "internalType": "uint256",
          "name": "",
          "type": "uint256"
        },
        {
          "internalType": "uint256",
          "name": "",
          "type": "uint256"
        },
        {
          "internalType": "uint256",
          "name": "",
          "type": "uint256"
        }
      ],
      "stateMutability": "view",
      "type": "function"
    },
    {
      "inputs": [
        {
          "internalType": "address",
          "name": "account",
          "type": "address"
        }
      ],
      "name": "getBalanceOfInTokamak",
      "outputs": [
        {
          "internalType": "uint256",
          "name": "accountAmount",
          "type": "uint256"
        }
      ],
      "stateMutability": "view",
      "type": "function"
    },
    {
      "inputs": [
        {
          "internalType": "address",
          "name": "layer2",
          "type": "address"
        }
      ],
      "name": "getCurrentLayer2SnapshotId",
      "outputs": [
        {
          "internalType": "uint256",
          "name": "",
          "type": "uint256"
        }
      ],
      "stateMutability": "view",
      "type": "function"
    },
    {
      "inputs": [
        {
          "internalType": "address",
          "name": "layer2",
          "type": "address"
        },
        {
          "internalType": "address",
          "name": "user",
          "type": "address"
        }
      ],
      "name": "getLayer2BalanceOfInTokamak",
      "outputs": [
        {
          "internalType": "uint256",
          "name": "balanceOfLayer2Amount",
          "type": "uint256"
        },
        {
          "internalType": "uint256",
          "name": "balance",
          "type": "uint256"
        },
        {
          "internalType": "uint256",
          "name": "refactoredCount",
          "type": "uint256"
        },
        {
          "internalType": "uint256",
          "name": "remain",
          "type": "uint256"
        }
      ],
      "stateMutability": "view",
      "type": "function"
    },
    {
      "inputs": [
        {
          "internalType": "address",
          "name": "layer2",
          "type": "address"
        }
      ],
      "name": "getLayer2TotalSupplyInTokamak",
      "outputs": [
        {
          "internalType": "uint256",
          "name": "totalSupplyLayer2",
          "type": "uint256"
        },
        {
          "internalType": "uint256",
          "name": "balance",
          "type": "uint256"
        },
        {
          "internalType": "uint256",
          "name": "refactoredCount",
          "type": "uint256"
        },
        {
          "internalType": "uint256",
          "name": "remain",
          "type": "uint256"
        }
      ],
      "stateMutability": "view",
      "type": "function"
    },
    {
      "inputs": [
        {
          "internalType": "bytes32",
          "name": "role",
          "type": "bytes32"
        }
      ],
      "name": "getRoleAdmin",
      "outputs": [
        {
          "internalType": "bytes32",
          "name": "",
          "type": "bytes32"
        }
      ],
      "stateMutability": "view",
      "type": "function"
    },
    {
      "inputs": [],
      "name": "getTotalStakedInTokamak",
      "outputs": [
        {
          "internalType": "uint256",
          "name": "accountAmount",
          "type": "uint256"
        }
      ],
      "stateMutability": "view",
      "type": "function"
    },
    {
      "inputs": [
        {
          "internalType": "bytes32",
          "name": "role",
          "type": "bytes32"
        },
        {
          "internalType": "address",
          "name": "account",
          "type": "address"
        }
      ],
      "name": "grantRole",
      "outputs": [],
      "stateMutability": "nonpayable",
      "type": "function"
    },
    {
      "inputs": [
        {
          "internalType": "bytes32",
          "name": "role",
          "type": "bytes32"
        },
        {
          "internalType": "address",
          "name": "account",
          "type": "address"
        }
      ],
      "name": "hasRole",
      "outputs": [
        {
          "internalType": "bool",
          "name": "",
          "type": "bool"
        }
      ],
      "stateMutability": "view",
      "type": "function"
    },
    {
      "inputs": [
        {
          "internalType": "address",
          "name": "layer2",
          "type": "address"
        }
      ],
      "name": "lastSnapShotIndex",
      "outputs": [
        {
          "internalType": "uint256",
          "name": "",
          "type": "uint256"
        }
      ],
      "stateMutability": "view",
      "type": "function"
    },
    {
      "inputs": [],
      "name": "layer2Registry",
      "outputs": [
        {
          "internalType": "address",
          "name": "",
          "type": "address"
        }
      ],
      "stateMutability": "view",
      "type": "function"
    },
    {
      "inputs": [
        {
          "internalType": "uint256",
          "name": "",
          "type": "uint256"
        }
      ],
      "name": "layer2s",
      "outputs": [
        {
          "internalType": "address",
          "name": "",
          "type": "address"
        }
      ],
      "stateMutability": "view",
      "type": "function"
    },
    {
      "inputs": [],
      "name": "migratedL2",
      "outputs": [
        {
          "internalType": "bool",
          "name": "",
          "type": "bool"
        }
      ],
      "stateMutability": "view",
      "type": "function"
    },
    {
      "inputs": [],
      "name": "name",
      "outputs": [
        {
          "internalType": "string",
          "name": "",
          "type": "string"
        }
      ],
      "stateMutability": "view",
      "type": "function"
    },
    {
      "inputs": [],
      "name": "pauseProxy",
      "outputs": [
        {
          "internalType": "bool",
          "name": "",
          "type": "bool"
        }
      ],
      "stateMutability": "view",
      "type": "function"
    },
    {
      "inputs": [
        {
          "internalType": "bytes32",
          "name": "role",
          "type": "bytes32"
        },
        {
          "internalType": "address",
          "name": "account",
          "type": "address"
        }
      ],
      "name": "renounceRole",
      "outputs": [],
      "stateMutability": "nonpayable",
      "type": "function"
    },
    {
      "inputs": [
        {
          "internalType": "bytes32",
          "name": "role",
          "type": "bytes32"
        },
        {
          "internalType": "address",
          "name": "account",
          "type": "address"
        }
      ],
      "name": "revokeRole",
      "outputs": [],
      "stateMutability": "nonpayable",
      "type": "function"
    },
    {
      "inputs": [],
      "name": "seigManager",
      "outputs": [
        {
          "internalType": "address",
          "name": "",
          "type": "address"
        }
      ],
      "stateMutability": "view",
      "type": "function"
    },
    {
      "inputs": [
        {
          "internalType": "address",
          "name": "_seigManager",
          "type": "address"
        },
        {
          "internalType": "address",
          "name": "_layer2Registry",
          "type": "address"
        }
      ],
      "name": "setAddress",
      "outputs": [],
      "stateMutability": "nonpayable",
      "type": "function"
    },
    {
      "inputs": [
        {
          "internalType": "string",
          "name": "name_",
          "type": "string"
        },
        {
          "internalType": "string",
          "name": "symbol_",
          "type": "string"
        },
        {
          "internalType": "uint256",
          "name": "decimals_",
          "type": "uint256"
        }
      ],
      "name": "setNameSymbolDecimals",
      "outputs": [],
      "stateMutability": "nonpayable",
      "type": "function"
    },
    {
      "inputs": [
        {
          "internalType": "address",
          "name": "layer2",
          "type": "address"
        }
      ],
      "name": "snapshot",
      "outputs": [
        {
          "internalType": "uint256",
          "name": "",
          "type": "uint256"
        }
      ],
      "stateMutability": "nonpayable",
      "type": "function"
    },
    {
      "inputs": [],
      "name": "snapshot",
      "outputs": [
        {
          "internalType": "uint256",
          "name": "",
          "type": "uint256"
        }
      ],
      "stateMutability": "nonpayable",
      "type": "function"
    },
    {
      "inputs": [],
      "name": "snashotAggregatorTotal",
      "outputs": [
        {
          "internalType": "uint256",
          "name": "",
          "type": "uint256"
        }
      ],
      "stateMutability": "view",
      "type": "function"
    },
    {
      "inputs": [
        {
          "internalType": "address",
          "name": "account",
          "type": "address"
        },
        {
          "internalType": "uint256",
          "name": "snashotAggregatorId",
          "type": "uint256"
        }
      ],
      "name": "stakedAmountWithSnashotAggregator",
      "outputs": [
        {
          "internalType": "uint256",
          "name": "accountStaked",
          "type": "uint256"
        },
        {
          "internalType": "uint256",
          "name": "totalStaked",
          "type": "uint256"
        }
      ],
      "stateMutability": "view",
      "type": "function"
    },
    {
      "inputs": [
        {
          "internalType": "bytes4",
          "name": "interfaceId",
          "type": "bytes4"
        }
      ],
      "name": "supportsInterface",
      "outputs": [
        {
          "internalType": "bool",
          "name": "",
          "type": "bool"
        }
      ],
      "stateMutability": "view",
      "type": "function"
    },
    {
      "inputs": [],
      "name": "symbol",
      "outputs": [
        {
          "internalType": "string",
          "name": "",
          "type": "string"
        }
      ],
      "stateMutability": "view",
      "type": "function"
    },
    {
      "inputs": [
        {
          "internalType": "address",
          "name": "layer2",
          "type": "address"
        },
        {
          "internalType": "address",
          "name": "account",
          "type": "address"
        }
      ],
      "name": "sync",
      "outputs": [
        {
          "internalType": "uint256",
          "name": "",
          "type": "uint256"
        }
      ],
      "stateMutability": "nonpayable",
      "type": "function"
    },
    {
      "inputs": [
        {
          "internalType": "address",
          "name": "layer2",
          "type": "address"
        }
      ],
      "name": "sync",
      "outputs": [
        {
          "internalType": "uint256",
          "name": "",
          "type": "uint256"
        }
      ],
      "stateMutability": "nonpayable",
      "type": "function"
    },
    {
      "inputs": [
        {
          "internalType": "address",
          "name": "layer2",
          "type": "address"
        },
        {
          "internalType": "address[]",
          "name": "accounts",
          "type": "address[]"
        },
        {
          "internalType": "uint256[]",
          "name": "balances",
          "type": "uint256[]"
        },
        {
          "internalType": "uint256[]",
          "name": "refactoredCounts",
          "type": "uint256[]"
        },
        {
          "internalType": "uint256[]",
          "name": "remains",
          "type": "uint256[]"
        },
        {
          "internalType": "uint256[3]",
          "name": "layerTotal",
          "type": "uint256[3]"
        },
        {
          "internalType": "uint256[2]",
          "name": "layerFactor",
          "type": "uint256[2]"
        }
      ],
      "name": "syncBactchOffline",
      "outputs": [
        {
          "internalType": "bool",
          "name": "",
          "type": "bool"
        }
      ],
      "stateMutability": "nonpayable",
      "type": "function"
    },
    {
      "inputs": [
        {
          "internalType": "address",
          "name": "layer2",
          "type": "address"
        },
        {
          "internalType": "address[]",
          "name": "accounts",
          "type": "address[]"
        }
      ],
      "name": "syncBatch",
      "outputs": [
        {
          "internalType": "uint256",
          "name": "",
          "type": "uint256"
        }
      ],
      "stateMutability": "nonpayable",
      "type": "function"
    },
    {
      "inputs": [],
      "name": "totalSupply",
      "outputs": [
        {
          "internalType": "uint256",
          "name": "",
          "type": "uint256"
        }
      ],
      "stateMutability": "view",
      "type": "function"
    },
    {
      "inputs": [
        {
          "internalType": "address",
          "name": "layer2",
          "type": "address"
        }
      ],
      "name": "totalSupply",
      "outputs": [
        {
          "internalType": "uint256",
          "name": "",
          "type": "uint256"
        }
      ],
      "stateMutability": "view",
      "type": "function"
    },
    {
      "inputs": [
        {
          "internalType": "address",
          "name": "layer2",
          "type": "address"
        },
        {
          "internalType": "uint256",
          "name": "snapshotId",
          "type": "uint256"
        }
      ],
      "name": "totalSupplyAt",
      "outputs": [
        {
          "internalType": "uint256",
          "name": "",
          "type": "uint256"
        }
      ],
      "stateMutability": "view",
      "type": "function"
    },
    {
      "inputs": [
        {
          "internalType": "uint256",
          "name": "snashotAggregatorId",
          "type": "uint256"
        }
      ],
      "name": "totalSupplyAt",
      "outputs": [
        {
          "internalType": "uint256",
          "name": "totalStaked",
          "type": "uint256"
        }
      ],
      "stateMutability": "view",
      "type": "function"
    },
    {
      "inputs": [
        {
          "internalType": "address",
          "name": "recipient",
          "type": "address"
        },
        {
          "internalType": "uint256",
          "name": "amount",
          "type": "uint256"
        }
      ],
      "name": "transfer",
      "outputs": [
        {
          "internalType": "bool",
          "name": "",
          "type": "bool"
        }
      ],
      "stateMutability": "nonpayable",
      "type": "function"
    },
    {
      "inputs": [
        {
          "internalType": "address",
          "name": "sender",
          "type": "address"
        },
        {
          "internalType": "address",
          "name": "recipient",
          "type": "address"
        },
        {
          "internalType": "uint256",
          "name": "amount",
          "type": "uint256"
        }
      ],
      "name": "transferFrom",
      "outputs": [
        {
          "internalType": "bool",
          "name": "",
          "type": "bool"
        }
      ],
      "stateMutability": "nonpayable",
      "type": "function"
    },
    {
      "inputs": [
        {
          "internalType": "uint256",
          "name": "",
          "type": "uint256"
        }
      ],
      "name": "uniqAccounts",
      "outputs": [
        {
          "internalType": "address",
          "name": "",
          "type": "address"
        }
      ],
      "stateMutability": "view",
      "type": "function"
    }
  ],
  "bytecode": "0x60806040526b204fce5e3e25026110000000600155600280553480156200002557600080fd5b5062000033600033620000bd565b6200005f7fa49807205ce4d355092ef5a8a18f56e8913cf4a201fbe287825b095693c2177533620000bd565b6200008b7f3ee192ac25847473237ced4bba57f848e1fd794930ff85b4282329058096720533620000bd565b620000b77f5fdbd35e8da83ee755d5e62a539e5ed7f47126abede0b8b10f9ea43dc6eed07f33620000bd565b6200016d565b620000c98282620000cd565b5050565b6000828152602081815260408083206001600160a01b038516845290915290205460ff16620000c9576000828152602081815260408083206001600160a01b03851684529091529020805460ff19166001179055620001293390565b6001600160a01b0316816001600160a01b0316837f2f8788117e7eff1d82e926ec794901d17c78024a50270940304540a733656f0d60405160405180910390a45050565b614fdf806200017d6000396000f3fe608060405234801561001057600080fd5b50600436106103005760003560e01c80636ec0b7f21161019e578063a5841194116100ef578063cf2a239c1161009d578063cf2a239c1461078c578063d0e0707b1461079f578063d547741f146107b2578063dd62ed3e146107c5578063e4dc2aa4146107d3578063ec477a90146107e6578063f59e8bb9146107f9578063f7888aec1461080157600080fd5b8063a584119414610718578063a9059cbb1461072b578063ac16cd2314610741578063addf909014610754578063b7c246d71461075d578063bc5f878914610766578063bfe64c661461077957600080fd5b806382799e371161014c57806382799e37146106b557806391d14854146106c857806395d89b41146106db5780639711715a146106e3578063981b24d0146106eb578063a1f5f50e146106fe578063a217fddf1461071057600080fd5b80636ec0b7f2146105eb5780636fb7f558146105fe5780637028e2cd1461061157806370a082311461063857806373ba69881461064b57806375b238fc1461068d5780637ae39263146106a257600080fd5b80632bd1f9481161025857806336568abe1161020657806336568abe1461055c5780633b58524d1461056f578063407faa96146105825780634ee2cd7e146105955780635cd3b6d7146105a857806363a8fd89146105cb578063657db629146105d857600080fd5b80632bd1f948146104bf5780632d119773146104d25780632f2ff15d146104fa5780632f5eddcb1461050d5780633041949b1461052057806330b90e9914610533578063313ce5671461055357600080fd5b80630d55c7ac116102b55780630d55c7ac146103f657806318160ddd146104465780631e3a0ddd1461044e5780631e4d15f71461046157806323b872dd14610476578063248a9ca31461048957806326512160146104ac57600080fd5b806249784614610305578062d87a9c1461033f578062f08e461461034857806301ffc9a714610368578063043cd82f1461038b57806306fdde03146103be5780630bd4c339146103d3575b600080fd5b61032c7f3ee192ac25847473237ced4bba57f848e1fd794930ff85b4282329058096720581565b6040519081526020015b60405180910390f35b61032c60025481565b61032c6103563660046148e6565b60086020526000908152604090205481565b61037b610376366004614b27565b610814565b6040519015158152602001610336565b61039e61039936600461491e565b61084b565b604080519485526020850193909352918301526060820152608001610336565b6103c6610a1e565b6040516103369190614d4b565b61037b6103e13660046148e6565b60166020526000908152604090205460ff1681565b61040961040436600461491e565b610aac565b6040805198151589526020890197909752958701949094526060860192909252608085015260a084015260c083015260e082015261010001610336565b61032c610cfb565b61032c61045c3660046148e6565b610ecd565b61047461046f366004614b4f565b610ee8565b005b61037b610484366004614956565b610f31565b61032c610497366004614aeb565b60009081526020819052604090206001015490565b61032c6104ba3660046148e6565b610f3b565b61032c6104cd366004614996565b610f7a565b6104e56104e0366004614ac0565b6114e4565b60408051928352602083019190915201610336565b610474610508366004614b03565b6116d5565b61040961051b3660046148e6565b611700565b61032c61052e36600461491e565b611904565b610546610541366004614aeb565b611d96565b6040516103369190614d37565b61032c60125481565b61047461056a366004614b03565b611dc0565b61047461057d36600461491e565b611e3e565b61039e610590366004614c2a565b611ee1565b61032c6105a3366004614ac0565b6121ff565b61037b6105b63660046148e6565b60146020526000908152604090205460ff1681565b600c5461037b9060ff1681565b61037b6105e63660046149e3565b61236f565b61032c6105f93660046148e6565b61258c565b600354610546906001600160a01b031681565b61032c7f5fdbd35e8da83ee755d5e62a539e5ed7f47126abede0b8b10f9ea43dc6eed07f81565b61032c6106463660046148e6565b6127d4565b61065e6106593660046148e6565b612ab8565b6040805196151587526020870195909552938501929092526060840152608083015260a082015260c001610336565b61032c600080516020614f8a83398151915281565b6105466106b0366004614aeb565b612cf2565b61032c6106c3366004614ac0565b612d02565b61037b6106d6366004614b03565b612d88565b6103c6612db1565b61032c612dbe565b61032c6106f9366004614aeb565b612ffb565b600c5461037b90610100900460ff1681565b61032c600081565b61032c6107263660046148e6565b61313a565b61037b610739366004614ac0565b600092915050565b61032c61074f366004614c6b565b61344a565b61032c600b5481565b61032c60015481565b61039e6107743660046148e6565b61349d565b61032c610787366004614956565b613651565b600454610546906001600160a01b031681565b61032c6107ad3660046148e6565b6136d8565b6104746107c0366004614b03565b613722565b61032c61073936600461491e565b61032c6107e13660046148e6565b613748565b61039e6107f4366004614c2a565b613757565b61032c6138a5565b61032c61080f36600461491e565b613ae0565b60006001600160e01b03198216637965db0b60e01b148061084557506301ffc9a760e01b6001600160e01b03198316145b92915050565b600354604051634c063c1960e01b815260009182918291829182916001600160a01b031690634c063c1990610884908a90600401614d37565b60206040518083038186803b15801561089c57600080fd5b505afa1580156108b0573d6000803e3d6000fd5b505050506040513d601f19601f820116820180604052508101906108d49190614902565b90506001600160a01b0381166109055760405162461bcd60e51b81526004016108fc90614daa565b60405180910390fd5b6040516370a0823160e01b81526001600160a01b038216906370a0823190610931908990600401614d37565b60206040518083038186803b15801561094957600080fd5b505afa15801561095d573d6000803e3d6000fd5b505050506040513d601f19601f820116820180604052508101906109819190614c12565b94506000816001600160a01b03166327e235e3886040518263ffffffff1660e01b81526004016109b19190614d37565b60606040518083038186803b1580156109c957600080fd5b505afa1580156109dd573d6000803e3d6000fd5b505050506040513d601f19601f82011682018060405250810190610a019190614bb8565b80516020820151604090920151979a909950909750945050505050565b60108054610a2b90614ed5565b80601f0160208091040260200160405190810160405280929190818152602001828054610a5790614ed5565b8015610aa45780601f10610a7957610100808354040283529160200191610aa4565b820191906000526020600020905b815481529060010190602001808311610a8757829003601f168201915b505050505081565b600354604051634c063c1960e01b8152600091829182918291829182918291829182916001600160a01b031690634c063c1990610aed908e90600401614d37565b60206040518083038186803b158015610b0557600080fd5b505afa158015610b19573d6000803e3d6000fd5b505050506040513d601f19601f82011682018060405250810190610b3d9190614902565b90506001600160a01b038116610b655760405162461bcd60e51b81526004016108fc90614daa565b6040516370a0823160e01b81526001600160a01b038216906370a0823190610b91908d90600401614d37565b60206040518083038186803b158015610ba957600080fd5b505afa158015610bbd573d6000803e3d6000fd5b505050506040513d601f19601f82011682018060405250810190610be19190614c12565b94506000816001600160a01b03166327e235e38c6040518263ffffffff1660e01b8152600401610c119190614d37565b60606040518083038186803b158015610c2957600080fd5b505afa158015610c3d573d6000803e3d6000fd5b505050506040513d601f19601f82011682018060405250810190610c619190614bb8565b8051602082015160408301519197509550935090506000610c818d610ecd565b90506000600560008f6001600160a01b03166001600160a01b0316815260200190815260200160002060008e6001600160a01b03166001600160a01b031681526020019081526020016000209050610cda8e8383613af0565b809c50819d50829e50839f5050505050505050509295985092959890939650565b6004805460408051630d42d49760e01b8152905160009384936001600160a01b031692630d42d4979281830192602092829003018186803b158015610d3f57600080fd5b505afa158015610d53573d6000803e3d6000fd5b505050506040513d601f19601f82011682018060405250810190610d779190614c12565b90506000805b82811015610ec6576004805460405163b7ffb17960e01b81529182018390526000916001600160a01b039091169063b7ffb1799060240160206040518083038186803b158015610dcc57600080fd5b505afa158015610de0573d6000803e3d6000fd5b505050506040513d601f19601f82011682018060405250810190610e049190614902565b600354604051634c063c1960e01b81529192506000916001600160a01b0390911690634c063c1990610e3a908590600401614d37565b60206040518083038186803b158015610e5257600080fd5b505afa158015610e66573d6000803e3d6000fd5b505050506040513d601f19601f82011682018060405250810190610e8a9190614902565b90506001600160a01b03811615610eb157610ea482613748565b610eae9085614e24565b93505b50508080610ebe90614f0a565b915050610d7d565b5092915050565b6001600160a01b031660009081526008602052604090205490565b600080516020614f8a833981519152610f018133613c7d565b8351610f14906010906020870190614628565b508251610f28906011906020860190614628565b50506012555050565b60005b9392505050565b60007f5fdbd35e8da83ee755d5e62a539e5ed7f47126abede0b8b10f9ea43dc6eed07f610f688133613c7d565b610f7183613ce1565b91505b50919050565b600354604051634c063c1960e01b815260009182916001600160a01b0390911690634c063c1990610faf908790600401614d37565b60206040518083038186803b158015610fc757600080fd5b505afa158015610fdb573d6000803e3d6000fd5b505050506040513d601f19601f82011682018060405250810190610fff9190614902565b90506001600160a01b0381166110275760405162461bcd60e51b81526004016108fc90614daa565b60008351116110685760405162461bcd60e51b815260206004820152600d60248201526c7a65726f206163636f756e747360981b60448201526064016108fc565b600061107385613ce1565b905060005b845181101561128b576000836001600160a01b03166327e235e38784815181106110b257634e487b7160e01b600052603260045260246000fd5b60200260200101516040518263ffffffff1660e01b81526004016110d69190614d37565b60606040518083038186803b1580156110ee57600080fd5b505afa158015611102573d6000803e3d6000fd5b505050506040513d601f19601f820116820180604052508101906111269190614bb8565b90506111688787848151811061114c57634e487b7160e01b600052603260045260246000fd5b6020026020010151836000015184602001518560400151613d8c565b6016600087848151811061118c57634e487b7160e01b600052603260045260246000fd5b6020908102919091018101516001600160a01b031682528101919091526040016000205460ff1661127a576001601660008885815181106111dd57634e487b7160e01b600052603260045260246000fd5b60200260200101516001600160a01b03166001600160a01b0316815260200190815260200160002060006101000a81548160ff021916908315150217905550601586838151811061123e57634e487b7160e01b600052603260045260246000fd5b60209081029190910181015182546001810184556000938452919092200180546001600160a01b0319166001600160a01b039092169190911790555b5061128481614f0a565b9050611078565b506000826001600160a01b0316633eaaf86b6040518163ffffffff1660e01b815260040160606040518083038186803b1580156112c757600080fd5b505afa1580156112db573d6000803e3d6000fd5b505050506040513d601f19601f820116820180604052508101906112ff9190614bb8565b90506000816000015190506000826020015190506000836040015190506000866001600160a01b0316636d1506116040518163ffffffff1660e01b815260040160206040518083038186803b15801561135757600080fd5b505afa15801561136b573d6000803e3d6000fd5b505050506040513d601f19601f8201168201806040525081019061138f9190614c12565b90506000876001600160a01b031663a7ac30b06040518163ffffffff1660e01b815260040160206040518083038186803b1580156113cc57600080fd5b505afa1580156113e0573d6000803e3d6000fd5b505050506040513d601f19601f820116820180604052508101906114049190614c12565b6001600160a01b038c1660009081526014602052604090205490915060ff1661147b576001600160a01b038b166000818152601460205260408120805460ff19166001908117909155601380549182018155909152600080516020614f6a8339815191520180546001600160a01b03191690911790555b6114878b868686613dc6565b6114928b8383613df2565b8a6001600160a01b03167f55c675196fb2f6a62aefac4a6cd8dce7b495b583a899d94e3d8943d141297993886040516114cd91815260200190565b60405180910390a250949998505050505050505050565b600b54600090819083116116ce576000838152600a6020908152604080832081518154606094810282018501845292810183815290939192849284919084018282801561155a57602002820191906000526020600020905b81546001600160a01b0316815260019091019060200180831161153c575b50505050508152602001600182018054806020026020016040519081016040528092919081815260200182805480156115b257602002820191906000526020600020905b81548152602001906001019080831161159e575b505050919092525050815151919250506115d35760008092509250506116ce565b60005b8151518110156116cb576116418260000151828151811061160757634e487b7160e01b600052603260045260246000fd5b6020026020010151878460200151848151811061163457634e487b7160e01b600052603260045260246000fd5b6020026020010151613651565b61164b9085614e24565b93506116ad8260000151828151811061167457634e487b7160e01b600052603260045260246000fd5b6020026020010151836020015183815181106116a057634e487b7160e01b600052603260045260246000fd5b6020026020010151612d02565b6116b79084614e24565b9250806116c381614f0a565b9150506115d6565b50505b9250929050565b6000828152602081905260409020600101546116f18133613c7d565b6116fb8383613e17565b505050565b600354604051634c063c1960e01b8152600091829182918291829182918291829182916001600160a01b031690634c063c1990611741908d90600401614d37565b60206040518083038186803b15801561175957600080fd5b505afa15801561176d573d6000803e3d6000fd5b505050506040513d601f19601f820116820180604052508101906117919190614902565b90506001600160a01b0381166117b95760405162461bcd60e51b81526004016108fc90614daa565b806001600160a01b03166318160ddd6040518163ffffffff1660e01b815260040160206040518083038186803b1580156117f257600080fd5b505afa158015611806573d6000803e3d6000fd5b505050506040513d601f19601f8201168201806040525081019061182a9190614c12565b94506000816001600160a01b0316633eaaf86b6040518163ffffffff1660e01b815260040160606040518083038186803b15801561186757600080fd5b505afa15801561187b573d6000803e3d6000fd5b505050506040513d601f19601f8201168201806040525081019061189f9190614bb8565b80516020820151604083015191975095509350905060006118bf8c610ecd565b6001600160a01b038d1660009081526006602052604090209091506118e58d8383613af0565b809c50819d50829e50839f505050505050505050919395975091939597565b600354604051634c063c1960e01b815260009182916001600160a01b0390911690634c063c1990611939908790600401614d37565b60206040518083038186803b15801561195157600080fd5b505afa158015611965573d6000803e3d6000fd5b505050506040513d601f19601f820116820180604052508101906119899190614902565b90506001600160a01b0381166119b15760405162461bcd60e51b81526004016108fc90614daa565b6001600160a01b0383166119f65760405162461bcd60e51b815260206004820152600c60248201526b1e995c9bc81858d8dbdd5b9d60a21b60448201526064016108fc565b6040516327e235e360e01b81526000906001600160a01b038316906327e235e390611a25908790600401614d37565b60606040518083038186803b158015611a3d57600080fd5b505afa158015611a51573d6000803e3d6000fd5b505050506040513d601f19601f82011682018060405250810190611a759190614bb8565b90506000816000015190506000826020015190506000836040015190506000856001600160a01b0316633eaaf86b6040518163ffffffff1660e01b815260040160606040518083038186803b158015611acd57600080fd5b505afa158015611ae1573d6000803e3d6000fd5b505050506040513d601f19601f82011682018060405250810190611b059190614bb8565b90506000816000015190506000826020015190506000836040015190506000896001600160a01b0316636d1506116040518163ffffffff1660e01b815260040160206040518083038186803b158015611b5d57600080fd5b505afa158015611b71573d6000803e3d6000fd5b505050506040513d601f19601f82011682018060405250810190611b959190614c12565b905060008a6001600160a01b031663a7ac30b06040518163ffffffff1660e01b815260040160206040518083038186803b158015611bd257600080fd5b505afa158015611be6573d6000803e3d6000fd5b505050506040513d601f19601f82011682018060405250810190611c0a9190614c12565b90506000611c178f613ce1565b9050611c268f8f8c8c8c613d8c565b611c328f878787613dc6565b611c3d8f8484613df2565b6001600160a01b038f166000908152601460205260409020548f9060ff16611cb3576001600160a01b0381166000818152601460205260408120805460ff19166001908117909155601380549182018155909152600080516020614f6a8339815191520180546001600160a01b03191690911790555b6001600160a01b038f166000908152601660205260409020548f9060ff16611d3b576001600160a01b0381166000818152601660205260408120805460ff191660019081179091556015805491820181559091527f55f448fdea98c4d29eb340757ef0a66cd03dbb9538908a6a81d96026b71ec4750180546001600160a01b03191690911790555b604080516001600160a01b038381168252602082018690528416917feaf565aec332d7cd567bfa2b743a7bdace638ac19ef7900d4c4d103a95be5beb910160405180910390a250909f9e505050505050505050505050505050565b60158181548110611da657600080fd5b6000918252602090912001546001600160a01b0316905081565b6001600160a01b0381163314611e305760405162461bcd60e51b815260206004820152602f60248201527f416363657373436f6e74726f6c3a2063616e206f6e6c792072656e6f756e636560448201526e103937b632b9903337b91039b2b63360891b60648201526084016108fc565b611e3a8282613e9b565b5050565b600080516020614f8a833981519152611e578133613c7d565b6001600160a01b03831615801590611e7757506001600160a01b03821615155b611eb25760405162461bcd60e51b815260206004820152600c60248201526b7a65726f206164647265737360a01b60448201526064016108fc565b50600380546001600160a01b039384166001600160a01b03199182161790915560048054929093169116179055565b6001600160a01b03808316600090815260056020908152604080832093851683529281528282208351815460a0938102820184019095526080810185815293948594859485948594939092849290918491840182828015611f6157602002820191906000526020600020905b815481526020019060010190808311611f4d575b5050505050815260200160018201805480602002602001604051908101604052809291908181526020018280548015611fb957602002820191906000526020600020905b815481526020019060010190808311611fa5575b505050505081526020016002820180548060200260200160405190810160405280929190818152602001828054801561201157602002820191906000526020600020905b815481526020019060010190808311611ffd575b505050505081526020016003820180548060200260200160405190810160405280929190818152602001828054801561206957602002820191906000526020600020905b815481526020019060010190808311612055575b5050509190925250508151519192505080891061213d5781518051829081106120a257634e487b7160e01b600052603260045260246000fd5b6020026020010151826020015182815181106120ce57634e487b7160e01b600052603260045260246000fd5b6020026020010151836040015183815181106120fa57634e487b7160e01b600052603260045260246000fd5b60200260200101518460600151848151811061212657634e487b7160e01b600052603260045260246000fd5b6020026020010151955095509550955050506121f6565b815180518a90811061215f57634e487b7160e01b600052603260045260246000fd5b602002602001015182602001518a8151811061218b57634e487b7160e01b600052603260045260246000fd5b602002602001015183604001518b815181106121b757634e487b7160e01b600052603260045260246000fd5b602002602001015184606001518c815181106121e357634e487b7160e01b600052603260045260246000fd5b6020026020010151955095509550955050505b93509350935093565b6000600b548211610845576000828152600a6020908152604080832081518154606094810282018501845292810183815290939192849284919084018282801561227257602002820191906000526020600020905b81546001600160a01b03168152600190910190602001808311612254575b50505050508152602001600182018054806020026020016040519081016040528092919081815260200182805480156122ca57602002820191906000526020600020905b8154815260200190600101908083116122b6575b505050919092525050815151919250506122e8576000915050610845565b60005b815151811015612367576123498260000151828151811061231c57634e487b7160e01b600052603260045260246000fd5b6020026020010151868460200151848151811061163457634e487b7160e01b600052603260045260246000fd5b6123539084614e24565b92508061235f81614f0a565b9150506122eb565b505092915050565b60007f3ee192ac25847473237ced4bba57f848e1fd794930ff85b4282329058096720561239c8133613c7d565b86518851146123e75760405162461bcd60e51b815260206004820152601760248201527609cde40c4c2d8c2dcc6cae640e6c2daca40d8cadccee8d604b1b60448201526064016108fc565b85518851146124385760405162461bcd60e51b815260206004820152601f60248201527f4e6f207265666163746f726564436f756e74732073616d65206c656e6774680060448201526064016108fc565b84518851146124825760405162461bcd60e51b815260206004820152601660248201527509cde40e4cadac2d2dce640e6c2daca40d8cadccee8d60531b60448201526064016108fc565b61248b89613ce1565b5060005b8851811015612551576125418a8a83815181106124bc57634e487b7160e01b600052603260045260246000fd5b60200260200101518a84815181106124e457634e487b7160e01b600052603260045260246000fd5b60200260200101518a858151811061250c57634e487b7160e01b600052603260045260246000fd5b60200260200101518a868151811061253457634e487b7160e01b600052603260045260246000fd5b6020026020010151613d8c565b61254a81614f0a565b905061248f565b5083516020850151604086015161256b928c929091613dc6565b8251602084015161257d918b91613df2565b50600198975050505050505050565b6004805460408051630d42d49760e01b8152905160009384936001600160a01b031692630d42d4979281830192602092829003018186803b1580156125d057600080fd5b505afa1580156125e4573d6000803e3d6000fd5b505050506040513d601f19601f820116820180604052508101906126089190614c12565b90506000915060005b818110156127cd576004805460405163b7ffb17960e01b81529182018390526000916001600160a01b039091169063b7ffb1799060240160206040518083038186803b15801561266057600080fd5b505afa158015612674573d6000803e3d6000fd5b505050506040513d601f19601f820116820180604052508101906126989190614902565b600354604051634c063c1960e01b81529192506000916001600160a01b0390911690634c063c19906126ce908590600401614d37565b60206040518083038186803b1580156126e657600080fd5b505afa1580156126fa573d6000803e3d6000fd5b505050506040513d601f19601f8201168201806040525081019061271e9190614902565b90506001600160a01b038116156127b8576040516370a0823160e01b81526001600160a01b038216906370a082319061275b908990600401614d37565b60206040518083038186803b15801561277357600080fd5b505afa158015612787573d6000803e3d6000fd5b505050506040513d601f19601f820116820180604052508101906127ab9190614c12565b6127b59086614e24565b94505b505080806127c590614f0a565b915050612611565b5050919050565b6004805460408051630d42d49760e01b8152905160009384936001600160a01b031692630d42d4979281830192602092829003018186803b15801561281857600080fd5b505afa15801561282c573d6000803e3d6000fd5b505050506040513d601f19601f820116820180604052508101906128509190614c12565b60408051808201909152601c81527f62616c616e63654f6620206c617965723252656769737472792025730000000060208201526004549192506000916128a091906001600160a01b0316613f00565b6128df6040518060400160405280601d81526020017f62616c616e63654f6620206e756d6265724f664c61796572327320257300000081525083613f45565b60005b82811015612a80576004805460405163b7ffb17960e01b81529182018390526000916001600160a01b039091169063b7ffb1799060240160206040518083038186803b15801561293157600080fd5b505afa158015612945573d6000803e3d6000fd5b505050506040513d601f19601f820116820180604052508101906129699190614902565b9050612996604051806040016040528060098152602001686c617965723220257360b81b81525082613f00565b600354604051634c063c1960e01b81526000916001600160a01b031690634c063c19906129c7908590600401614d37565b60206040518083038186803b1580156129df57600080fd5b505afa1580156129f3573d6000803e3d6000fd5b505050506040513d601f19601f82011682018060405250810190612a179190614902565b9050612a456040518060400160405280600a815260200169636f696e61676520257360b01b81525082613f00565b6001600160a01b03811615612a6b57612a5e8288613ae0565b612a689085614e24565b93505b50508080612a7890614f0a565b9150506128e2565b50610f346040518060400160405280601581526020017462616c616e63654f66286163636f756e742920257360581b81525082613f45565b600354604051634c063c1960e01b81526000918291829182918291829182916001600160a01b031690634c063c1990612af5908b90600401614d37565b60206040518083038186803b158015612b0d57600080fd5b505afa158015612b21573d6000803e3d6000fd5b505050506040513d601f19601f82011682018060405250810190612b459190614902565b90506001600160a01b038116612b6d5760405162461bcd60e51b81526004016108fc90614daa565b806001600160a01b03166354f703f86040518163ffffffff1660e01b815260040160206040518083038186803b158015612ba657600080fd5b505afa158015612bba573d6000803e3d6000fd5b505050506040513d601f19601f82011682018060405250810190612bde9190614c12565b9350806001600160a01b0316636d1506116040518163ffffffff1660e01b815260040160206040518083038186803b158015612c1957600080fd5b505afa158015612c2d573d6000803e3d6000fd5b505050506040513d601f19601f82011682018060405250810190612c519190614c12565b9250806001600160a01b031663a7ac30b06040518163ffffffff1660e01b815260040160206040518083038186803b158015612c8c57600080fd5b505afa158015612ca0573d6000803e3d6000fd5b505050506040513d601f19601f82011682018060405250810190612cc49190614c12565b91506000612cd189610ecd565b9050612cdd8982613f8a565b919b909a509098509496509294509092915050565b60138181548110611da657600080fd5b60008115612d8057600080600080612d1a878761406b565b93509350935093506000806000612d318a8a613f8a565b925092509250868015612d415750825b15612d70576000612d548787858561344a565b9050612d608582614e24565b9850610845975050505050505050565b6000975050505050505050610845565b506000610845565b6000918252602082815260408084206001600160a01b0393909316845291905290205460ff1690565b60118054610a2b90614ed5565b600b805460009182612dcf83614f0a565b91905055506000600460009054906101000a90046001600160a01b03166001600160a01b0316630d42d4976040518163ffffffff1660e01b815260040160206040518083038186803b158015612e2457600080fd5b505afa158015612e38573d6000803e3d6000fd5b505050506040513d601f19601f82011682018060405250810190612e5c9190614c12565b905060005b81811015612ff1576004805460405163b7ffb17960e01b81529182018390526000916001600160a01b039091169063b7ffb1799060240160206040518083038186803b158015612eb057600080fd5b505afa158015612ec4573d6000803e3d6000fd5b505050506040513d601f19601f82011682018060405250810190612ee89190614902565b600354604051634c063c1960e01b81529192506000916001600160a01b0390911690634c063c1990612f1e908590600401614d37565b60206040518083038186803b158015612f3657600080fd5b505afa158015612f4a573d6000803e3d6000fd5b505050506040513d601f19601f82011682018060405250810190612f6e9190614902565b6001600160a01b031614612fde57600b546000908152600a6020908152604082208054600180820183558285529290932090920180546001600160a01b0319166001600160a01b0385161790558101612fc683610ecd565b81546001810183556000928352602090922090910155505b5080612fe981614f0a565b915050612e61565b50600b5491505090565b6000600b548211613135576000828152600a6020908152604080832081518154606094810282018501845292810183815290939192849284919084018282801561306e57602002820191906000526020600020905b81546001600160a01b03168152600190910190602001808311613050575b50505050508152602001600182018054806020026020016040519081016040528092919081815260200182805480156130c657602002820191906000526020600020905b8154815260200190600101908083116130b2575b505050919092525050815151919250506130e35750600092915050565b60005b8151518110156127cd576131178260000151828151811061167457634e487b7160e01b600052603260045260246000fd5b6131219084614e24565b92508061312d81614f0a565b9150506130e6565b919050565b600354604051634c063c1960e01b815260009182916001600160a01b0390911690634c063c199061316f908690600401614d37565b60206040518083038186803b15801561318757600080fd5b505afa15801561319b573d6000803e3d6000fd5b505050506040513d601f19601f820116820180604052508101906131bf9190614902565b90506001600160a01b0381166131e75760405162461bcd60e51b81526004016108fc90614daa565b6000816001600160a01b0316633eaaf86b6040518163ffffffff1660e01b815260040160606040518083038186803b15801561322257600080fd5b505afa158015613236573d6000803e3d6000fd5b505050506040513d601f19601f8201168201806040525081019061325a9190614bb8565b90506000816000015190506000826020015190506000836040015190506000856001600160a01b0316636d1506116040518163ffffffff1660e01b815260040160206040518083038186803b1580156132b257600080fd5b505afa1580156132c6573d6000803e3d6000fd5b505050506040513d601f19601f820116820180604052508101906132ea9190614c12565b90506000866001600160a01b031663a7ac30b06040518163ffffffff1660e01b815260040160206040518083038186803b15801561332757600080fd5b505afa15801561333b573d6000803e3d6000fd5b505050506040513d601f19601f8201168201806040525081019061335f9190614c12565b6001600160a01b038a1660009081526014602052604090205490915060ff166133d6576001600160a01b0389166000818152601460205260408120805460ff19166001908117909155601380549182018155909152600080516020614f6a8339815191520180546001600160a01b03191690911790555b60006133e18a613ce1565b90506133ef8a878787613dc6565b6133fa8a8484613df2565b896001600160a01b03167f32a9d63c5300e91cc9c633e57c9a98fdaa33b189311e7cbe14859ad9958ecd158260405161343591815260200190565b60405180910390a29998505050505050505050565b60008461345957506000613495565b61346385846140ba565b9450835b828110156134905760025461347c9087614e5c565b95508061348881614f0a565b915050613467565b508490505b949350505050565b600354604051634c063c1960e01b815260009182918291829182916001600160a01b031690634c063c19906134d6908990600401614d37565b60206040518083038186803b1580156134ee57600080fd5b505afa158015613502573d6000803e3d6000fd5b505050506040513d601f19601f820116820180604052508101906135269190614902565b90506001600160a01b03811661354e5760405162461bcd60e51b81526004016108fc90614daa565b806001600160a01b03166318160ddd6040518163ffffffff1660e01b815260040160206040518083038186803b15801561358757600080fd5b505afa15801561359b573d6000803e3d6000fd5b505050506040513d601f19601f820116820180604052508101906135bf9190614c12565b94506000816001600160a01b0316633eaaf86b6040518163ffffffff1660e01b815260040160606040518083038186803b1580156135fc57600080fd5b505afa158015613610573d6000803e3d6000fd5b505050506040513d601f19601f820116820180604052508101906136349190614bb8565b805160208201516040909201519799909850909695509350505050565b600081156136d05760008060008061366a8888886140dd565b935093509350935060008060006136818b8a613f8a565b9250925092508680156136915750825b156136c05760006136a48787858561344a565b90506136b08582614e24565b9850610f34975050505050505050565b6000975050505050505050610f34565b506000610f34565b6001600160a01b0381166000908152600660205260408120546136fd57506000919050565b6001600160a01b03821660009081526006602052604090205461084590600190614e7b565b60008281526020819052604090206001015461373e8133613c7d565b6116fb8383613e9b565b6000610845826106c384610ecd565b6001600160a01b038083166000908152600560209081526040808320938516835292905290812080548291829182919061379f576000806000809450945094509450506121f6565b6000881180156137b757506137b387610ecd565b8811155b156138915760006137c8828a614150565b90508160000181815481106137ed57634e487b7160e01b600052603260045260246000fd5b906000526020600020015482600101828154811061381b57634e487b7160e01b600052603260045260246000fd5b906000526020600020015483600201838154811061384957634e487b7160e01b600052603260045260246000fd5b906000526020600020015484600301848154811061387757634e487b7160e01b600052603260045260246000fd5b9060005260206000200154955095509550955050506121f6565b6000806000809450945094509450506121f6565b6004805460408051630d42d49760e01b8152905160009384936001600160a01b031692630d42d4979281830192602092829003018186803b1580156138e957600080fd5b505afa1580156138fd573d6000803e3d6000fd5b505050506040513d601f19601f820116820180604052508101906139219190614c12565b90506000915060005b81811015613adb576004805460405163b7ffb17960e01b81529182018390526000916001600160a01b039091169063b7ffb1799060240160206040518083038186803b15801561397957600080fd5b505afa15801561398d573d6000803e3d6000fd5b505050506040513d601f19601f820116820180604052508101906139b19190614902565b600354604051634c063c1960e01b81529192506000916001600160a01b0390911690634c063c19906139e7908590600401614d37565b60206040518083038186803b1580156139ff57600080fd5b505afa158015613a13573d6000803e3d6000fd5b505050506040513d601f19601f82011682018060405250810190613a379190614902565b90506001600160a01b03811615613ac657806001600160a01b03166318160ddd6040518163ffffffff1660e01b815260040160206040518083038186803b158015613a8157600080fd5b505afa158015613a95573d6000803e3d6000fd5b505050506040513d601f19601f82011682018060405250810190613ab99190614c12565b613ac39086614e24565b94505b50508080613ad390614f0a565b91505061392a565b505090565b6000610f34838361078786610ecd565b600080600080600086118015613b0e5750613b0a87610ecd565b8611155b15613c6c576000613b1f8688614150565b8654909150811415613beb578015613891576001868101613b408284614e7b565b81548110613b5e57634e487b7160e01b600052603260045260246000fd5b906000526020600020015487600201600184613b7a9190614e7b565b81548110613b9857634e487b7160e01b600052603260045260246000fd5b906000526020600020015488600301600185613bb49190614e7b565b81548110613bd257634e487b7160e01b600052603260045260246000fd5b90600052602060002001549450945094509450506121f6565b6001866001018281548110613c1057634e487b7160e01b600052603260045260246000fd5b9060005260206000200154876002018381548110613c3e57634e487b7160e01b600052603260045260246000fd5b9060005260206000200154886003018481548110613bd257634e487b7160e01b600052603260045260246000fd5b5060009250829150819050806121f6565b613c878282612d88565b611e3a57613c9f816001600160a01b03166014614288565b613caa836020614288565b604051602001613cbb929190614cc8565b60408051601f198184030181529082905262461bcd60e51b82526108fc91600401614d4b565b6001600160a01b038116600090815260086020526040812080549082613d0683614f0a565b90915550506001600160a01b0382166000908152600960209081526040808320600883528184205484529091528120439055613d4183610ecd565b9050826001600160a01b03167f9140ca8dada2f5d654a9719f873254e8caca2580b6b78d4944151727d6207bb182604051613d7e91815260200190565b60405180910390a292915050565b6001600160a01b038086166000908152600560209081526040808320938816835292905220613dbf908690858585614469565b5050505050565b6001600160a01b0384166000908152600660205260409020613dec908590858585614469565b50505050565b6001600160a01b03831660009081526007602052604090206116fb90849084846144ec565b613e218282612d88565b611e3a576000828152602081815260408083206001600160a01b03851684529091529020805460ff19166001179055613e573390565b6001600160a01b0316816001600160a01b0316837f2f8788117e7eff1d82e926ec794901d17c78024a50270940304540a733656f0d60405160405180910390a45050565b613ea58282612d88565b15611e3a576000828152602081815260408083206001600160a01b0385168085529252808320805460ff1916905551339285917ff6391f5c32d9c69d2a47ea670b442974b53935d1edc7fd64eb21e047a839171b9190a45050565b611e3a8282604051602401613f16929190614d5e565b60408051601f198184030181529190526020810180516001600160e01b031663319af33360e01b17905261454f565b611e3a8282604051602401613f5b929190614d88565b60408051601f198184030181529190526020810180516001600160e01b03166309710a9d60e41b17905261454f565b6001600160a01b0382166000908152600760205260408120819081908415801590613fbd5750613fb986610ecd565b8511155b15614057576000613fce8287614150565b8254909150811415613fec5760008060009450945094505050614064565b600182600101828154811061401157634e487b7160e01b600052603260045260246000fd5b906000526020600020015483600201838154811061403f57634e487b7160e01b600052603260045260246000fd5b90600052602060002001549450945094505050614064565b6000806000935093509350505b9250925092565b6000806000806000806000806140a68a8a600660008e6001600160a01b03166001600160a01b03168152602001908152602001600020613af0565b929d919c509a509098509650505050505050565b60006b033b2e3c9fd0803ce80000006140d38484614570565b610f349190614e3c565b60008060008060008060008061413b8b8a600560008f6001600160a01b03166001600160a01b0316815260200190815260200160002060008e6001600160a01b03166001600160a01b03168152602001908152602001600020613af0565b929e919d509b50909950975050505050505050565b815460009061416157506000610845565b8254839061417190600190614e7b565b8154811061418f57634e487b7160e01b600052603260045260246000fd5b906000526020600020015482106141b55782546141ae90600190614e7b565b9050610845565b826000815481106141d657634e487b7160e01b600052603260045260246000fd5b90600052602060002001548210156141f057506000610845565b8254600090819061420390600190614e7b565b90505b81811115614280576000600261421c8484614e24565b614227906001614e24565b6142319190614e3c565b90508486828154811061425457634e487b7160e01b600052603260045260246000fd5b90600052602060002001541161426c5780925061427a565b614277600182614e7b565b91505b50614206565b509392505050565b60606000614297836002614e5c565b6142a2906002614e24565b6001600160401b038111156142c757634e487b7160e01b600052604160045260246000fd5b6040519080825280601f01601f1916602001820160405280156142f1576020820181803683370190505b509050600360fc1b8160008151811061431a57634e487b7160e01b600052603260045260246000fd5b60200101906001600160f81b031916908160001a905350600f60fb1b8160018151811061435757634e487b7160e01b600052603260045260246000fd5b60200101906001600160f81b031916908160001a905350600061437b846002614e5c565b614386906001614e24565b90505b600181111561441a576f181899199a1a9b1b9c1cb0b131b232b360811b85600f16601081106143c857634e487b7160e01b600052603260045260246000fd5b1a60f81b8282815181106143ec57634e487b7160e01b600052603260045260246000fd5b60200101906001600160f81b031916908160001a90535060049490941c9361441381614ebe565b9050614389565b508315610f345760405162461bcd60e51b815260206004820181905260248201527f537472696e67733a20686578206c656e67746820696e73756666696369656e7460448201526064016108fc565b600061447486610ecd565b90506000614481866145d7565b9050818110156144e3578554600181810188556000888152602080822090930185905581890180548084018255908252838220018890556002890180548084018255908252838220018790556003890180549283018155815291909120018390555b50505050505050565b60006144f785610ecd565b905080614503856145d7565b1015613dbf578354600180820186556000868152602080822090930193909355808601805480830182559084528284200194909455600290940180549384018155815292909220015550565b80516a636f6e736f6c652e6c6f67602083016000808483855afa5050505050565b6000811580614594575082826145868183614e5c565b92506145929083614e3c565b145b6108455760405162461bcd60e51b815260206004820152601460248201527364732d6d6174682d6d756c2d6f766572666c6f7760601b60448201526064016108fc565b80546000906145e857506000919050565b815482906145f890600190614e7b565b8154811061461657634e487b7160e01b600052603260045260246000fd5b90600052602060002001549050919050565b82805461463490614ed5565b90600052602060002090601f016020900481019282614656576000855561469c565b82601f1061466f57805160ff191683800117855561469c565b8280016001018555821561469c579182015b8281111561469c578251825591602001919060010190614681565b506146a89291506146ac565b5090565b5b808211156146a857600081556001016146ad565b803561313581614f51565b600082601f8301126146dc578081fd5b813560206146f16146ec83614e01565b614dd1565b80838252828201915082860187848660051b8901011115614710578586fd5b855b8581101561473757813561472581614f51565b84529284019290840190600101614712565b5090979650505050505050565b600082601f830112614754578081fd5b604051604081018181106001600160401b038211171561477657614776614f3b565b806040525080838560408601111561478c578384fd5b835b60028110156147ad57813583526020928301929091019060010161478e565b509195945050505050565b600082601f8301126147c8578081fd5b604051606081018181106001600160401b03821117156147ea576147ea614f3b565b6040528083606081018610156147fe578384fd5b835b60038110156147ad578135835260209283019290910190600101614800565b600082601f83011261482f578081fd5b8135602061483f6146ec83614e01565b80838252828201915082860187848660051b890101111561485e578586fd5b855b8581101561473757813584529284019290840190600101614860565b600082601f83011261488c578081fd5b81356001600160401b038111156148a5576148a5614f3b565b6148b8601f8201601f1916602001614dd1565b8181528460208386010111156148cc578283fd5b816020850160208301379081016020019190915292915050565b6000602082840312156148f7578081fd5b8135610f3481614f51565b600060208284031215614913578081fd5b8151610f3481614f51565b60008060408385031215614930578081fd5b823561493b81614f51565b9150602083013561494b81614f51565b809150509250929050565b60008060006060848603121561496a578081fd5b833561497581614f51565b9250602084013561498581614f51565b929592945050506040919091013590565b600080604083850312156149a8578182fd5b82356149b381614f51565b915060208301356001600160401b038111156149cd578182fd5b6149d9858286016146cc565b9150509250929050565b6000806000806000806000610140888a0312156149fe578485fd5b614a07886146c1565b965060208801356001600160401b0380821115614a22578687fd5b614a2e8b838c016146cc565b975060408a0135915080821115614a43578687fd5b614a4f8b838c0161481f565b965060608a0135915080821115614a64578485fd5b614a708b838c0161481f565b955060808a0135915080821115614a85578485fd5b50614a928a828b0161481f565b935050614aa28960a08a016147b8565b9150614ab2896101008a01614744565b905092959891949750929550565b60008060408385031215614ad2578182fd5b8235614add81614f51565b946020939093013593505050565b600060208284031215614afc578081fd5b5035919050565b60008060408385031215614b15578182fd5b82359150602083013561494b81614f51565b600060208284031215614b38578081fd5b81356001600160e01b031981168114610f34578182fd5b600080600060608486031215614b63578081fd5b83356001600160401b0380821115614b79578283fd5b614b858783880161487c565b94506020860135915080821115614b9a578283fd5b50614ba78682870161487c565b925050604084013590509250925092565b600060608284031215614bc9578081fd5b604051606081018181106001600160401b0382111715614beb57614beb614f3b565b80604052508251815260208301516020820152604083015160408201528091505092915050565b600060208284031215614c23578081fd5b5051919050565b600080600060608486031215614c3e578081fd5b833592506020840135614c5081614f51565b91506040840135614c6081614f51565b809150509250925092565b60008060008060808587031215614c80578182fd5b5050823594602084013594506040840135936060013592509050565b60008151808452614cb4816020860160208601614e92565b601f01601f19169290920160200192915050565b76020b1b1b2b9b9a1b7b73a3937b61d1030b1b1b7bab73a1604d1b815260008351614cfa816017850160208801614e92565b7001034b99036b4b9b9b4b733903937b6329607d1b6017918401918201528351614d2b816028840160208801614e92565b01602801949350505050565b6001600160a01b0391909116815260200190565b602081526000610f346020830184614c9c565b604081526000614d716040830185614c9c565b905060018060a01b03831660208301529392505050565b604081526000614d9b6040830185614c9c565b90508260208301529392505050565b6020808252600d908201526c7a65726f20636f696e6167657360981b604082015260600190565b604051601f8201601f191681016001600160401b0381118282101715614df957614df9614f3b565b604052919050565b60006001600160401b03821115614e1a57614e1a614f3b565b5060051b60200190565b60008219821115614e3757614e37614f25565b500190565b600082614e5757634e487b7160e01b81526012600452602481fd5b500490565b6000816000190483118215151615614e7657614e76614f25565b500290565b600082821015614e8d57614e8d614f25565b500390565b60005b83811015614ead578181015183820152602001614e95565b83811115613dec5750506000910152565b600081614ecd57614ecd614f25565b506000190190565b600181811c90821680614ee957607f821691505b60208210811415610f7457634e487b7160e01b600052602260045260246000fd5b6000600019821415614f1e57614f1e614f25565b5060010190565b634e487b7160e01b600052601160045260246000fd5b634e487b7160e01b600052604160045260246000fd5b6001600160a01b0381168114614f6657600080fd5b5056fe66de8ffda797e3de9c05e8fc57b3bf0ec28a930d40b0d285d93c06501cf6a090a49807205ce4d355092ef5a8a18f56e8913cf4a201fbe287825b095693c21775a26469706673582212207d542253baabf5d7c459a5228e70d04f401eb77ee541bb28c02a9a707135107b64736f6c63430008040033",
  "linkReferences": {},
  "deployedLinkReferences": {}
}