{
  "_format": "hh-sol-artifact-1",
  "contractName": "AutoCoinageSnapshot",
  "sourceName": "contracts/tokens/AutoCoinageSnapshot.sol",
  "abi": [
    {
      "inputs": [],
      "stateMutability": "nonpayable",
      "type": "constructor"
    },
    {
      "anonymous": false,
      "inputs": [
        {
          "indexed": true,
          "internalType": "bytes32",
          "name": "role",
          "type": "bytes32"
        },
        {
          "indexed": true,
          "internalType": "bytes32",
          "name": "previousAdminRole",
          "type": "bytes32"
        },
        {
          "indexed": true,
          "internalType": "bytes32",
          "name": "newAdminRole",
          "type": "bytes32"
        }
      ],
      "name": "RoleAdminChanged",
      "type": "event"
    },
    {
      "anonymous": false,
      "inputs": [
        {
          "indexed": true,
          "internalType": "bytes32",
          "name": "role",
          "type": "bytes32"
        },
        {
          "indexed": true,
          "internalType": "address",
          "name": "account",
          "type": "address"
        },
        {
          "indexed": true,
          "internalType": "address",
          "name": "sender",
          "type": "address"
        }
      ],
      "name": "RoleGranted",
      "type": "event"
    },
    {
      "anonymous": false,
      "inputs": [
        {
          "indexed": true,
          "internalType": "bytes32",
          "name": "role",
          "type": "bytes32"
        },
        {
          "indexed": true,
          "internalType": "address",
          "name": "account",
          "type": "address"
        },
        {
          "indexed": true,
          "internalType": "address",
          "name": "sender",
          "type": "address"
        }
      ],
      "name": "RoleRevoked",
      "type": "event"
    },
    {
      "anonymous": false,
      "inputs": [
        {
          "indexed": true,
          "internalType": "address",
          "name": "layer2",
          "type": "address"
        },
        {
          "indexed": false,
          "internalType": "uint256",
          "name": "id",
          "type": "uint256"
        }
      ],
      "name": "onSnapshot",
      "type": "event"
    },
    {
      "anonymous": false,
      "inputs": [
        {
          "indexed": true,
          "internalType": "address",
          "name": "layer2",
          "type": "address"
        },
        {
          "indexed": false,
          "internalType": "uint256",
          "name": "id",
          "type": "uint256"
        }
      ],
      "name": "onSyncLayer2",
      "type": "event"
    },
    {
      "anonymous": false,
      "inputs": [
        {
          "indexed": true,
          "internalType": "address",
          "name": "layer2",
          "type": "address"
        },
        {
          "indexed": false,
          "internalType": "address",
          "name": "account",
          "type": "address"
        },
        {
          "indexed": false,
          "internalType": "uint256",
          "name": "id",
          "type": "uint256"
        }
      ],
      "name": "onSyncLayer2Address",
      "type": "event"
    },
    {
      "anonymous": false,
      "inputs": [
        {
          "indexed": true,
          "internalType": "address",
          "name": "layer2",
          "type": "address"
        },
        {
          "indexed": false,
          "internalType": "uint256",
          "name": "id",
          "type": "uint256"
        }
      ],
      "name": "onSyncLayer2Batch",
      "type": "event"
    },
    {
      "inputs": [],
      "name": "ADMIN_ROLE",
      "outputs": [
        {
          "internalType": "bytes32",
          "name": "",
          "type": "bytes32"
        }
      ],
      "stateMutability": "view",
      "type": "function"
    },
    {
      "inputs": [],
      "name": "DEFAULT_ADMIN_ROLE",
      "outputs": [
        {
          "internalType": "bytes32",
          "name": "",
          "type": "bytes32"
        }
      ],
      "stateMutability": "view",
      "type": "function"
    },
    {
      "inputs": [],
      "name": "REFACTOR_BOUNDARY",
      "outputs": [
        {
          "internalType": "uint256",
          "name": "",
          "type": "uint256"
        }
      ],
      "stateMutability": "view",
      "type": "function"
    },
    {
      "inputs": [],
      "name": "REFACTOR_DIVIDER",
      "outputs": [
        {
          "internalType": "uint256",
          "name": "",
          "type": "uint256"
        }
      ],
      "stateMutability": "view",
      "type": "function"
    },
    {
      "inputs": [],
      "name": "SNAPSHOT_ROLE",
      "outputs": [
        {
          "internalType": "bytes32",
          "name": "",
          "type": "bytes32"
        }
      ],
      "stateMutability": "view",
      "type": "function"
    },
    {
      "inputs": [],
      "name": "UPDATE_ROLE",
      "outputs": [
        {
          "internalType": "bytes32",
          "name": "",
          "type": "bytes32"
        }
      ],
      "stateMutability": "view",
      "type": "function"
    },
    {
      "inputs": [
        {
          "internalType": "address",
          "name": "owner",
          "type": "address"
        },
        {
          "internalType": "address",
          "name": "spender",
          "type": "address"
        }
      ],
      "name": "allowance",
      "outputs": [
        {
          "internalType": "uint256",
          "name": "",
          "type": "uint256"
        }
      ],
      "stateMutability": "view",
      "type": "function"
    },
    {
      "inputs": [
        {
          "internalType": "uint256",
          "name": "v",
          "type": "uint256"
        },
        {
          "internalType": "uint256",
          "name": "refactoredCount",
          "type": "uint256"
        },
        {
          "internalType": "uint256",
          "name": "_factor",
          "type": "uint256"
        },
        {
          "internalType": "uint256",
          "name": "refactorCount",
          "type": "uint256"
        }
      ],
      "name": "applyFactor",
      "outputs": [
        {
          "internalType": "uint256",
          "name": "",
          "type": "uint256"
        }
      ],
      "stateMutability": "view",
      "type": "function"
    },
    {
      "inputs": [
        {
          "internalType": "address",
          "name": "account",
          "type": "address"
        }
      ],
      "name": "balanceOf",
      "outputs": [
        {
          "internalType": "uint256",
          "name": "",
          "type": "uint256"
        }
      ],
      "stateMutability": "view",
      "type": "function"
    },
    {
      "inputs": [
        {
          "internalType": "address",
          "name": "layer2",
          "type": "address"
        },
        {
          "internalType": "address",
          "name": "account",
          "type": "address"
        }
      ],
      "name": "balanceOf",
      "outputs": [
        {
          "internalType": "uint256",
          "name": "",
          "type": "uint256"
        }
      ],
      "stateMutability": "view",
      "type": "function"
    },
    {
      "inputs": [
        {
          "internalType": "address",
          "name": "account",
          "type": "address"
        },
        {
          "internalType": "uint256",
          "name": "snashotAggregatorId",
          "type": "uint256"
        }
      ],
      "name": "balanceOfAt",
      "outputs": [
        {
          "internalType": "uint256",
          "name": "accountStaked",
          "type": "uint256"
        }
      ],
      "stateMutability": "view",
      "type": "function"
    },
    {
      "inputs": [
        {
          "internalType": "address",
          "name": "layer2",
          "type": "address"
        },
        {
          "internalType": "address",
          "name": "account",
          "type": "address"
        },
        {
          "internalType": "uint256",
          "name": "snapshotId",
          "type": "uint256"
        }
      ],
      "name": "balanceOfAt",
      "outputs": [
        {
          "internalType": "uint256",
          "name": "",
          "type": "uint256"
        }
      ],
      "stateMutability": "view",
      "type": "function"
    },
    {
      "inputs": [
        {
          "internalType": "address",
          "name": "layer2",
          "type": "address"
        },
        {
          "internalType": "address",
          "name": "account",
          "type": "address"
        }
      ],
      "name": "currentAccountBalanceSnapshots",
      "outputs": [
        {
          "internalType": "bool",
          "name": "snapshotted",
          "type": "bool"
        },
        {
          "internalType": "uint256",
          "name": "snapShotBalance",
          "type": "uint256"
        },
        {
          "internalType": "uint256",
          "name": "snapShotRefactoredCount",
          "type": "uint256"
        },
        {
          "internalType": "uint256",
          "name": "snapShotRemain",
          "type": "uint256"
        },
        {
          "internalType": "uint256",
          "name": "currentBalanceOf",
          "type": "uint256"
        },
        {
          "internalType": "uint256",
          "name": "curBalances",
          "type": "uint256"
        },
        {
          "internalType": "uint256",
          "name": "curRefactoredCounts",
          "type": "uint256"
        },
        {
          "internalType": "uint256",
          "name": "curRemains",
          "type": "uint256"
        }
      ],
      "stateMutability": "view",
      "type": "function"
    },
    {
      "inputs": [
        {
          "internalType": "address",
          "name": "layer2",
          "type": "address"
        }
      ],
      "name": "currentFactorSnapshots",
      "outputs": [
        {
          "internalType": "bool",
          "name": "snapshotted",
          "type": "bool"
        },
        {
          "internalType": "uint256",
          "name": "snapShotFactor",
          "type": "uint256"
        },
        {
          "internalType": "uint256",
          "name": "snapShotRefactorCount",
          "type": "uint256"
        },
        {
          "internalType": "uint256",
          "name": "curFactorValue",
          "type": "uint256"
        },
        {
          "internalType": "uint256",
          "name": "curFactor",
          "type": "uint256"
        },
        {
          "internalType": "uint256",
          "name": "curRefactorCount",
          "type": "uint256"
        }
      ],
      "stateMutability": "view",
      "type": "function"
    },
    {
      "inputs": [
        {
          "internalType": "address",
          "name": "",
          "type": "address"
        }
      ],
      "name": "currentLayer2SnapshotId",
      "outputs": [
        {
          "internalType": "uint256",
          "name": "",
          "type": "uint256"
        }
      ],
      "stateMutability": "view",
      "type": "function"
    },
    {
      "inputs": [
        {
          "internalType": "address",
          "name": "layer2",
          "type": "address"
        }
      ],
      "name": "currentTotalSupplySnapshots",
      "outputs": [
        {
          "internalType": "bool",
          "name": "snapshotted",
          "type": "bool"
        },
        {
          "internalType": "uint256",
          "name": "snapShotBalance",
          "type": "uint256"
        },
        {
          "internalType": "uint256",
          "name": "snapShotRefactoredCount",
          "type": "uint256"
        },
        {
          "internalType": "uint256",
          "name": "snapShotRemain",
          "type": "uint256"
        },
        {
          "internalType": "uint256",
          "name": "currentTotalSupply",
          "type": "uint256"
        },
        {
          "internalType": "uint256",
          "name": "curBalances",
          "type": "uint256"
        },
        {
          "internalType": "uint256",
          "name": "curRefactoredCounts",
          "type": "uint256"
        },
        {
          "internalType": "uint256",
          "name": "curRemains",
          "type": "uint256"
        }
      ],
      "stateMutability": "view",
      "type": "function"
    },
    {
      "inputs": [],
      "name": "decimals",
      "outputs": [
        {
          "internalType": "uint256",
          "name": "",
          "type": "uint256"
        }
      ],
      "stateMutability": "view",
      "type": "function"
    },
    {
      "inputs": [
        {
          "internalType": "address",
          "name": "",
          "type": "address"
        }
      ],
      "name": "existAccounts",
      "outputs": [
        {
          "internalType": "bool",
          "name": "",
          "type": "bool"
        }
      ],
      "stateMutability": "view",
      "type": "function"
    },
    {
      "inputs": [
        {
          "internalType": "address",
          "name": "",
          "type": "address"
        }
      ],
      "name": "existLayer2s",
      "outputs": [
        {
          "internalType": "bool",
          "name": "",
          "type": "bool"
        }
      ],
      "stateMutability": "view",
      "type": "function"
    },
    {
      "inputs": [
        {
          "internalType": "uint256",
          "name": "id",
          "type": "uint256"
        },
        {
          "internalType": "address",
          "name": "layer2",
          "type": "address"
        },
        {
          "internalType": "address",
          "name": "account",
          "type": "address"
        }
      ],
      "name": "getAccountBalanceSnapsByIds",
      "outputs": [
        {
          "internalType": "uint256",
          "name": "",
          "type": "uint256"
        },
        {
          "internalType": "uint256",
          "name": "",
          "type": "uint256"
        },
        {
          "internalType": "uint256",
          "name": "",
          "type": "uint256"
        },
        {
          "internalType": "uint256",
          "name": "",
          "type": "uint256"
        }
      ],
      "stateMutability": "view",
      "type": "function"
    },
    {
      "inputs": [
        {
          "internalType": "uint256",
          "name": "snapshotId",
          "type": "uint256"
        },
        {
          "internalType": "address",
          "name": "layer2",
          "type": "address"
        },
        {
          "internalType": "address",
          "name": "account",
          "type": "address"
        }
      ],
      "name": "getAccountBalanceSnapsBySnapshotId",
      "outputs": [
        {
          "internalType": "uint256",
          "name": "",
          "type": "uint256"
        },
        {
          "internalType": "uint256",
          "name": "",
          "type": "uint256"
        },
        {
          "internalType": "uint256",
          "name": "",
          "type": "uint256"
        },
        {
          "internalType": "uint256",
          "name": "",
          "type": "uint256"
        }
      ],
      "stateMutability": "view",
      "type": "function"
    },
    {
      "inputs": [
        {
          "internalType": "address",
          "name": "account",
          "type": "address"
        }
      ],
      "name": "getBalanceOfInTokamak",
      "outputs": [
        {
          "internalType": "uint256",
          "name": "accountAmount",
          "type": "uint256"
        }
      ],
      "stateMutability": "view",
      "type": "function"
    },
    {
      "inputs": [
        {
          "internalType": "address",
          "name": "layer2",
          "type": "address"
        }
      ],
      "name": "getCurrentLayer2SnapshotId",
      "outputs": [
        {
          "internalType": "uint256",
          "name": "",
          "type": "uint256"
        }
      ],
      "stateMutability": "view",
      "type": "function"
    },
    {
      "inputs": [
        {
          "internalType": "address",
          "name": "layer2",
          "type": "address"
        },
        {
          "internalType": "address",
          "name": "user",
          "type": "address"
        }
      ],
      "name": "getLayer2BalanceOfInTokamak",
      "outputs": [
        {
          "internalType": "uint256",
          "name": "balanceOfLayer2Amount",
          "type": "uint256"
        },
        {
          "internalType": "uint256",
          "name": "balance",
          "type": "uint256"
        },
        {
          "internalType": "uint256",
          "name": "refactoredCount",
          "type": "uint256"
        },
        {
          "internalType": "uint256",
          "name": "remain",
          "type": "uint256"
        }
      ],
      "stateMutability": "view",
      "type": "function"
    },
    {
      "inputs": [
        {
          "internalType": "address",
          "name": "layer2",
          "type": "address"
        }
      ],
      "name": "getLayer2TotalSupplyInTokamak",
      "outputs": [
        {
          "internalType": "uint256",
          "name": "totalSupplyLayer2",
          "type": "uint256"
        },
        {
          "internalType": "uint256",
          "name": "balance",
          "type": "uint256"
        },
        {
          "internalType": "uint256",
          "name": "refactoredCount",
          "type": "uint256"
        },
        {
          "internalType": "uint256",
          "name": "remain",
          "type": "uint256"
        }
      ],
      "stateMutability": "view",
      "type": "function"
    },
    {
      "inputs": [
        {
          "internalType": "bytes32",
          "name": "role",
          "type": "bytes32"
        }
      ],
      "name": "getRoleAdmin",
      "outputs": [
        {
          "internalType": "bytes32",
          "name": "",
          "type": "bytes32"
        }
      ],
      "stateMutability": "view",
      "type": "function"
    },
    {
      "inputs": [],
      "name": "getTotalStakedInTokamak",
      "outputs": [
        {
          "internalType": "uint256",
          "name": "accountAmount",
          "type": "uint256"
        }
      ],
      "stateMutability": "view",
      "type": "function"
    },
    {
      "inputs": [
        {
          "internalType": "bytes32",
          "name": "role",
          "type": "bytes32"
        },
        {
          "internalType": "address",
          "name": "account",
          "type": "address"
        }
      ],
      "name": "grantRole",
      "outputs": [],
      "stateMutability": "nonpayable",
      "type": "function"
    },
    {
      "inputs": [
        {
          "internalType": "bytes32",
          "name": "role",
          "type": "bytes32"
        },
        {
          "internalType": "address",
          "name": "account",
          "type": "address"
        }
      ],
      "name": "hasRole",
      "outputs": [
        {
          "internalType": "bool",
          "name": "",
          "type": "bool"
        }
      ],
      "stateMutability": "view",
      "type": "function"
    },
    {
      "inputs": [
        {
          "internalType": "address",
          "name": "layer2",
          "type": "address"
        }
      ],
      "name": "lastSnapShotIndex",
      "outputs": [
        {
          "internalType": "uint256",
          "name": "",
          "type": "uint256"
        }
      ],
      "stateMutability": "view",
      "type": "function"
    },
    {
      "inputs": [],
      "name": "layer2Lagistry",
      "outputs": [
        {
          "internalType": "address",
          "name": "",
          "type": "address"
        }
      ],
      "stateMutability": "view",
      "type": "function"
    },
    {
      "inputs": [
        {
          "internalType": "uint256",
          "name": "",
          "type": "uint256"
        }
      ],
      "name": "layer2s",
      "outputs": [
        {
          "internalType": "address",
          "name": "",
          "type": "address"
        }
      ],
      "stateMutability": "view",
      "type": "function"
    },
    {
      "inputs": [],
      "name": "migratedL2",
      "outputs": [
        {
          "internalType": "bool",
          "name": "",
          "type": "bool"
        }
      ],
      "stateMutability": "view",
      "type": "function"
    },
    {
      "inputs": [],
      "name": "name",
      "outputs": [
        {
          "internalType": "string",
          "name": "",
          "type": "string"
        }
      ],
      "stateMutability": "view",
      "type": "function"
    },
    {
      "inputs": [],
      "name": "pauseProxy",
      "outputs": [
        {
          "internalType": "bool",
          "name": "",
          "type": "bool"
        }
      ],
      "stateMutability": "view",
      "type": "function"
    },
    {
      "inputs": [
        {
          "internalType": "bytes32",
          "name": "role",
          "type": "bytes32"
        },
        {
          "internalType": "address",
          "name": "account",
          "type": "address"
        }
      ],
      "name": "renounceRole",
      "outputs": [],
      "stateMutability": "nonpayable",
      "type": "function"
    },
    {
      "inputs": [
        {
          "internalType": "bytes32",
          "name": "role",
          "type": "bytes32"
        },
        {
          "internalType": "address",
          "name": "account",
          "type": "address"
        }
      ],
      "name": "revokeRole",
      "outputs": [],
      "stateMutability": "nonpayable",
      "type": "function"
    },
    {
      "inputs": [],
      "name": "seigManager",
      "outputs": [
        {
          "internalType": "address",
          "name": "",
          "type": "address"
        }
      ],
      "stateMutability": "view",
      "type": "function"
    },
    {
      "inputs": [
        {
          "internalType": "address",
          "name": "_seigManager",
          "type": "address"
        },
        {
          "internalType": "address",
          "name": "_layer2Lagistry",
          "type": "address"
        }
      ],
      "name": "setAddress",
      "outputs": [],
      "stateMutability": "nonpayable",
      "type": "function"
    },
    {
      "inputs": [
        {
          "internalType": "string",
          "name": "name_",
          "type": "string"
        },
        {
          "internalType": "string",
          "name": "symbol_",
          "type": "string"
        },
        {
          "internalType": "uint256",
          "name": "decimals_",
          "type": "uint256"
        }
      ],
      "name": "setNameSymbolDecimals",
      "outputs": [],
      "stateMutability": "nonpayable",
      "type": "function"
    },
    {
      "inputs": [
        {
          "internalType": "address",
          "name": "layer2",
          "type": "address"
        }
      ],
      "name": "snapshot",
      "outputs": [
        {
          "internalType": "uint256",
          "name": "",
          "type": "uint256"
        }
      ],
      "stateMutability": "nonpayable",
      "type": "function"
    },
    {
      "inputs": [],
      "name": "snapshot",
      "outputs": [
        {
          "internalType": "uint256",
          "name": "",
          "type": "uint256"
        }
      ],
      "stateMutability": "nonpayable",
      "type": "function"
    },
    {
      "inputs": [],
      "name": "snashotAggregatorTotal",
      "outputs": [
        {
          "internalType": "uint256",
          "name": "",
          "type": "uint256"
        }
      ],
      "stateMutability": "view",
      "type": "function"
    },
    {
      "inputs": [
        {
          "internalType": "address",
          "name": "account",
          "type": "address"
        },
        {
          "internalType": "uint256",
          "name": "snashotAggregatorId",
          "type": "uint256"
        }
      ],
      "name": "stakedAmountWithSnashotAggregator",
      "outputs": [
        {
          "internalType": "uint256",
          "name": "accountStaked",
          "type": "uint256"
        },
        {
          "internalType": "uint256",
          "name": "totalStaked",
          "type": "uint256"
        }
      ],
      "stateMutability": "view",
      "type": "function"
    },
    {
      "inputs": [
        {
          "internalType": "bytes4",
          "name": "interfaceId",
          "type": "bytes4"
        }
      ],
      "name": "supportsInterface",
      "outputs": [
        {
          "internalType": "bool",
          "name": "",
          "type": "bool"
        }
      ],
      "stateMutability": "view",
      "type": "function"
    },
    {
      "inputs": [],
      "name": "symbol",
      "outputs": [
        {
          "internalType": "string",
          "name": "",
          "type": "string"
        }
      ],
      "stateMutability": "view",
      "type": "function"
    },
    {
      "inputs": [
        {
          "internalType": "address",
          "name": "layer2",
          "type": "address"
        },
        {
          "internalType": "address",
          "name": "account",
          "type": "address"
        }
      ],
      "name": "sync",
      "outputs": [
        {
          "internalType": "uint256",
          "name": "",
          "type": "uint256"
        }
      ],
      "stateMutability": "nonpayable",
      "type": "function"
    },
    {
      "inputs": [
        {
          "internalType": "address",
          "name": "layer2",
          "type": "address"
        }
      ],
      "name": "sync",
      "outputs": [
        {
          "internalType": "uint256",
          "name": "",
          "type": "uint256"
        }
      ],
      "stateMutability": "nonpayable",
      "type": "function"
    },
    {
      "inputs": [
        {
          "internalType": "address",
          "name": "layer2",
          "type": "address"
        },
        {
          "internalType": "address[]",
          "name": "accounts",
          "type": "address[]"
        },
        {
          "internalType": "uint256[]",
          "name": "balances",
          "type": "uint256[]"
        },
        {
          "internalType": "uint256[]",
          "name": "refactoredCounts",
          "type": "uint256[]"
        },
        {
          "internalType": "uint256[]",
          "name": "remains",
          "type": "uint256[]"
        },
        {
          "internalType": "uint256[3]",
          "name": "layerTotal",
          "type": "uint256[3]"
        },
        {
          "internalType": "uint256[2]",
          "name": "layerFactor",
          "type": "uint256[2]"
        }
      ],
      "name": "syncBactchOffline",
      "outputs": [
        {
          "internalType": "bool",
          "name": "",
          "type": "bool"
        }
      ],
      "stateMutability": "nonpayable",
      "type": "function"
    },
    {
      "inputs": [
        {
          "internalType": "address",
          "name": "layer2",
          "type": "address"
        },
        {
          "internalType": "address[]",
          "name": "accounts",
          "type": "address[]"
        }
      ],
      "name": "syncBatch",
      "outputs": [
        {
          "internalType": "uint256",
          "name": "",
          "type": "uint256"
        }
      ],
      "stateMutability": "nonpayable",
      "type": "function"
    },
    {
      "inputs": [],
      "name": "totalSupply",
      "outputs": [
        {
          "internalType": "uint256",
          "name": "",
          "type": "uint256"
        }
      ],
      "stateMutability": "view",
      "type": "function"
    },
    {
      "inputs": [
        {
          "internalType": "address",
          "name": "layer2",
          "type": "address"
        }
      ],
      "name": "totalSupply",
      "outputs": [
        {
          "internalType": "uint256",
          "name": "",
          "type": "uint256"
        }
      ],
      "stateMutability": "view",
      "type": "function"
    },
    {
      "inputs": [
        {
          "internalType": "address",
          "name": "layer2",
          "type": "address"
        },
        {
          "internalType": "uint256",
          "name": "snapshotId",
          "type": "uint256"
        }
      ],
      "name": "totalSupplyAt",
      "outputs": [
        {
          "internalType": "uint256",
          "name": "",
          "type": "uint256"
        }
      ],
      "stateMutability": "view",
      "type": "function"
    },
    {
      "inputs": [
        {
          "internalType": "uint256",
          "name": "snashotAggregatorId",
          "type": "uint256"
        }
      ],
      "name": "totalSupplyAt",
      "outputs": [
        {
          "internalType": "uint256",
          "name": "totalStaked",
          "type": "uint256"
        }
      ],
      "stateMutability": "view",
      "type": "function"
    },
    {
      "inputs": [
        {
          "internalType": "address",
          "name": "recipient",
          "type": "address"
        },
        {
          "internalType": "uint256",
          "name": "amount",
          "type": "uint256"
        }
      ],
      "name": "transfer",
      "outputs": [
        {
          "internalType": "bool",
          "name": "",
          "type": "bool"
        }
      ],
      "stateMutability": "nonpayable",
      "type": "function"
    },
    {
      "inputs": [
        {
          "internalType": "address",
          "name": "sender",
          "type": "address"
        },
        {
          "internalType": "address",
          "name": "recipient",
          "type": "address"
        },
        {
          "internalType": "uint256",
          "name": "amount",
          "type": "uint256"
        }
      ],
      "name": "transferFrom",
      "outputs": [
        {
          "internalType": "bool",
          "name": "",
          "type": "bool"
        }
      ],
      "stateMutability": "nonpayable",
      "type": "function"
    },
    {
      "inputs": [
        {
          "internalType": "uint256",
          "name": "",
          "type": "uint256"
        }
      ],
      "name": "uniqAccounts",
      "outputs": [
        {
          "internalType": "address",
          "name": "",
          "type": "address"
        }
      ],
      "stateMutability": "view",
      "type": "function"
    }
  ],
  "bytecode": "0x60806040526b204fce5e3e25026110000000600155600280553480156200002557600080fd5b5062000033600033620000bd565b6200005f7fa49807205ce4d355092ef5a8a18f56e8913cf4a201fbe287825b095693c2177533620000bd565b6200008b7f3ee192ac25847473237ced4bba57f848e1fd794930ff85b4282329058096720533620000bd565b620000b77f5fdbd35e8da83ee755d5e62a539e5ed7f47126abede0b8b10f9ea43dc6eed07f33620000bd565b6200016d565b620000c98282620000cd565b5050565b6000828152602081815260408083206001600160a01b038516845290915290205460ff16620000c9576000828152602081815260408083206001600160a01b03851684529091529020805460ff19166001179055620001293390565b6001600160a01b0316816001600160a01b0316837f2f8788117e7eff1d82e926ec794901d17c78024a50270940304540a733656f0d60405160405180910390a45050565b614dc4806200017d6000396000f3fe608060405234801561001057600080fd5b50600436106103005760003560e01c8063657db6291161019e578063a217fddf116100ef578063bfe64c661161009d578063bfe64c661461078c578063d0e0707b1461079f578063d547741f146107b2578063dd62ed3e146107c5578063e4dc2aa4146107d3578063ec477a90146107e6578063f59e8bb9146107f9578063f7888aec1461080157600080fd5b8063a217fddf14610723578063a58411941461072b578063a9059cbb1461073e578063ac16cd2314610754578063addf909014610767578063b7c246d714610770578063bc5f87891461077957600080fd5b80637ae392631161014c5780637ae39263146106b557806382799e37146106c857806391d14854146106db57806395d89b41146106ee5780639711715a146106f6578063981b24d0146106fe578063a1f5f50e1461071157600080fd5b8063657db629146105eb5780636ec0b7f2146105fe5780636fb7f558146106115780637028e2cd1461062457806370a082311461064b57806373ba69881461065e57806375b238fc146106a057600080fd5b80632651216011610258578063313ce56711610206578063313ce5671461056657806336568abe1461056f5780633b58524d14610582578063407faa96146105955780634ee2cd7e146105a85780635cd3b6d7146105bb57806363a8fd89146105de57600080fd5b806326512160146104cc5780632bd1f948146104df5780632d119773146104f25780632f2ff15d1461051a5780632f5eddcb1461052d5780633041949b1461054057806330b90e991461055357600080fd5b80630d55c7ac116102b55780630d55c7ac146103f657806318160ddd146104465780631e3a0ddd1461044e5780631e4d15f7146104615780632026288b1461047657806323b872dd14610496578063248a9ca3146104a957600080fd5b806249784614610305578062d87a9c1461033f578062f08e461461034857806301ffc9a714610368578063043cd82f1461038b57806306fdde03146103be5780630bd4c339146103d3575b600080fd5b61032c7f3ee192ac25847473237ced4bba57f848e1fd794930ff85b4282329058096720581565b6040519081526020015b60405180910390f35b61032c60025481565b61032c610356366004614723565b60086020526000908152604090205481565b61037b610376366004614964565b610814565b6040519015158152602001610336565b61039e61039936600461475b565b61084b565b604080519485526020850193909352918301526060820152608001610336565b6103c6610a1e565b6040516103369190614b5c565b61037b6103e1366004614723565b60166020526000908152604090205460ff1681565b61040961040436600461475b565b610aac565b6040805198151589526020890197909752958701949094526060860192909252608085015260a084015260c083015260e082015261010001610336565b61032c610cfb565b61032c61045c366004614723565b610ecd565b61047461046f36600461498c565b610ee8565b005b600454610489906001600160a01b031681565b6040516103369190614b48565b61037b6104a4366004614793565b610f31565b61032c6104b7366004614928565b60009081526020819052604090206001015490565b61032c6104da366004614723565b610f3b565b61032c6104ed3660046147d3565b610f7a565b6105056105003660046148fd565b6114e4565b60408051928352602083019190915201610336565b610474610528366004614940565b6116d5565b61040961053b366004614723565b611700565b61032c61054e36600461475b565b611904565b610489610561366004614928565b611d96565b61032c60125481565b61047461057d366004614940565b611dc0565b61047461059036600461475b565b611e3e565b61039e6105a3366004614a67565b611ee1565b61032c6105b63660046148fd565b6121ff565b61037b6105c9366004614723565b60146020526000908152604090205460ff1681565b600c5461037b9060ff1681565b61037b6105f9366004614820565b61236f565b61032c61060c366004614723565b61258c565b600354610489906001600160a01b031681565b61032c7f5fdbd35e8da83ee755d5e62a539e5ed7f47126abede0b8b10f9ea43dc6eed07f81565b61032c610659366004614723565b6127d4565b61067161066c366004614723565b6129a8565b6040805196151587526020870195909552938501929092526060840152608083015260a082015260c001610336565b61032c600080516020614d6f83398151915281565b6104896106c3366004614928565b612be2565b61032c6106d63660046148fd565b612bf2565b61037b6106e9366004614940565b612c78565b6103c6612ca1565b61032c612cae565b61032c61070c366004614928565b612eeb565b600c5461037b90610100900460ff1681565b61032c600081565b61032c610739366004614723565b61302a565b61037b61074c3660046148fd565b600092915050565b61032c610762366004614aa8565b61333a565b61032c600b5481565b61032c60015481565b61039e610787366004614723565b61338d565b61032c61079a366004614793565b613541565b61032c6107ad366004614723565b6135c8565b6104746107c0366004614940565b613612565b61032c61074c36600461475b565b61032c6107e1366004614723565b613638565b61039e6107f4366004614a67565b613647565b61032c613795565b61032c61080f36600461475b565b6139d0565b60006001600160e01b03198216637965db0b60e01b148061084557506301ffc9a760e01b6001600160e01b03198316145b92915050565b600354604051634c063c1960e01b815260009182918291829182916001600160a01b031690634c063c1990610884908a90600401614b48565b60206040518083038186803b15801561089c57600080fd5b505afa1580156108b0573d6000803e3d6000fd5b505050506040513d601f19601f820116820180604052508101906108d4919061473f565b90506001600160a01b0381166109055760405162461bcd60e51b81526004016108fc90614b8f565b60405180910390fd5b6040516370a0823160e01b81526001600160a01b038216906370a0823190610931908990600401614b48565b60206040518083038186803b15801561094957600080fd5b505afa15801561095d573d6000803e3d6000fd5b505050506040513d601f19601f820116820180604052508101906109819190614a4f565b94506000816001600160a01b03166327e235e3886040518263ffffffff1660e01b81526004016109b19190614b48565b60606040518083038186803b1580156109c957600080fd5b505afa1580156109dd573d6000803e3d6000fd5b505050506040513d601f19601f82011682018060405250810190610a0191906149f5565b80516020820151604090920151979a909950909750945050505050565b60108054610a2b90614cba565b80601f0160208091040260200160405190810160405280929190818152602001828054610a5790614cba565b8015610aa45780601f10610a7957610100808354040283529160200191610aa4565b820191906000526020600020905b815481529060010190602001808311610a8757829003601f168201915b505050505081565b600354604051634c063c1960e01b8152600091829182918291829182918291829182916001600160a01b031690634c063c1990610aed908e90600401614b48565b60206040518083038186803b158015610b0557600080fd5b505afa158015610b19573d6000803e3d6000fd5b505050506040513d601f19601f82011682018060405250810190610b3d919061473f565b90506001600160a01b038116610b655760405162461bcd60e51b81526004016108fc90614b8f565b6040516370a0823160e01b81526001600160a01b038216906370a0823190610b91908d90600401614b48565b60206040518083038186803b158015610ba957600080fd5b505afa158015610bbd573d6000803e3d6000fd5b505050506040513d601f19601f82011682018060405250810190610be19190614a4f565b94506000816001600160a01b03166327e235e38c6040518263ffffffff1660e01b8152600401610c119190614b48565b60606040518083038186803b158015610c2957600080fd5b505afa158015610c3d573d6000803e3d6000fd5b505050506040513d601f19601f82011682018060405250810190610c6191906149f5565b8051602082015160408301519197509550935090506000610c818d610ecd565b90506000600560008f6001600160a01b03166001600160a01b0316815260200190815260200160002060008e6001600160a01b03166001600160a01b031681526020019081526020016000209050610cda8e83836139e0565b809c50819d50829e50839f5050505050505050509295985092959890939650565b6004805460408051630d42d49760e01b8152905160009384936001600160a01b031692630d42d4979281830192602092829003018186803b158015610d3f57600080fd5b505afa158015610d53573d6000803e3d6000fd5b505050506040513d601f19601f82011682018060405250810190610d779190614a4f565b90506000805b82811015610ec6576004805460405163b7ffb17960e01b81529182018390526000916001600160a01b039091169063b7ffb1799060240160206040518083038186803b158015610dcc57600080fd5b505afa158015610de0573d6000803e3d6000fd5b505050506040513d601f19601f82011682018060405250810190610e04919061473f565b600354604051634c063c1960e01b81529192506000916001600160a01b0390911690634c063c1990610e3a908590600401614b48565b60206040518083038186803b158015610e5257600080fd5b505afa158015610e66573d6000803e3d6000fd5b505050506040513d601f19601f82011682018060405250810190610e8a919061473f565b90506001600160a01b03811615610eb157610ea482613638565b610eae9085614c09565b93505b50508080610ebe90614cef565b915050610d7d565b5092915050565b6001600160a01b031660009081526008602052604090205490565b600080516020614d6f833981519152610f018133613b6d565b8351610f14906010906020870190614465565b508251610f28906011906020860190614465565b50506012555050565b60005b9392505050565b60007f5fdbd35e8da83ee755d5e62a539e5ed7f47126abede0b8b10f9ea43dc6eed07f610f688133613b6d565b610f7183613bd1565b91505b50919050565b600354604051634c063c1960e01b815260009182916001600160a01b0390911690634c063c1990610faf908790600401614b48565b60206040518083038186803b158015610fc757600080fd5b505afa158015610fdb573d6000803e3d6000fd5b505050506040513d601f19601f82011682018060405250810190610fff919061473f565b90506001600160a01b0381166110275760405162461bcd60e51b81526004016108fc90614b8f565b60008351116110685760405162461bcd60e51b815260206004820152600d60248201526c7a65726f206163636f756e747360981b60448201526064016108fc565b600061107385613bd1565b905060005b845181101561128b576000836001600160a01b03166327e235e38784815181106110b257634e487b7160e01b600052603260045260246000fd5b60200260200101516040518263ffffffff1660e01b81526004016110d69190614b48565b60606040518083038186803b1580156110ee57600080fd5b505afa158015611102573d6000803e3d6000fd5b505050506040513d601f19601f8201168201806040525081019061112691906149f5565b90506111688787848151811061114c57634e487b7160e01b600052603260045260246000fd5b6020026020010151836000015184602001518560400151613c7c565b6016600087848151811061118c57634e487b7160e01b600052603260045260246000fd5b6020908102919091018101516001600160a01b031682528101919091526040016000205460ff1661127a576001601660008885815181106111dd57634e487b7160e01b600052603260045260246000fd5b60200260200101516001600160a01b03166001600160a01b0316815260200190815260200160002060006101000a81548160ff021916908315150217905550601586838151811061123e57634e487b7160e01b600052603260045260246000fd5b60209081029190910181015182546001810184556000938452919092200180546001600160a01b0319166001600160a01b039092169190911790555b5061128481614cef565b9050611078565b506000826001600160a01b0316633eaaf86b6040518163ffffffff1660e01b815260040160606040518083038186803b1580156112c757600080fd5b505afa1580156112db573d6000803e3d6000fd5b505050506040513d601f19601f820116820180604052508101906112ff91906149f5565b90506000816000015190506000826020015190506000836040015190506000866001600160a01b0316636d1506116040518163ffffffff1660e01b815260040160206040518083038186803b15801561135757600080fd5b505afa15801561136b573d6000803e3d6000fd5b505050506040513d601f19601f8201168201806040525081019061138f9190614a4f565b90506000876001600160a01b031663a7ac30b06040518163ffffffff1660e01b815260040160206040518083038186803b1580156113cc57600080fd5b505afa1580156113e0573d6000803e3d6000fd5b505050506040513d601f19601f820116820180604052508101906114049190614a4f565b6001600160a01b038c1660009081526014602052604090205490915060ff1661147b576001600160a01b038b166000818152601460205260408120805460ff19166001908117909155601380549182018155909152600080516020614d4f8339815191520180546001600160a01b03191690911790555b6114878b868686613cb6565b6114928b8383613ce2565b8a6001600160a01b03167f55c675196fb2f6a62aefac4a6cd8dce7b495b583a899d94e3d8943d141297993886040516114cd91815260200190565b60405180910390a250949998505050505050505050565b600b54600090819083116116ce576000838152600a6020908152604080832081518154606094810282018501845292810183815290939192849284919084018282801561155a57602002820191906000526020600020905b81546001600160a01b0316815260019091019060200180831161153c575b50505050508152602001600182018054806020026020016040519081016040528092919081815260200182805480156115b257602002820191906000526020600020905b81548152602001906001019080831161159e575b505050919092525050815151919250506115d35760008092509250506116ce565b60005b8151518110156116cb576116418260000151828151811061160757634e487b7160e01b600052603260045260246000fd5b6020026020010151878460200151848151811061163457634e487b7160e01b600052603260045260246000fd5b6020026020010151613541565b61164b9085614c09565b93506116ad8260000151828151811061167457634e487b7160e01b600052603260045260246000fd5b6020026020010151836020015183815181106116a057634e487b7160e01b600052603260045260246000fd5b6020026020010151612bf2565b6116b79084614c09565b9250806116c381614cef565b9150506115d6565b50505b9250929050565b6000828152602081905260409020600101546116f18133613b6d565b6116fb8383613d07565b505050565b600354604051634c063c1960e01b8152600091829182918291829182918291829182916001600160a01b031690634c063c1990611741908d90600401614b48565b60206040518083038186803b15801561175957600080fd5b505afa15801561176d573d6000803e3d6000fd5b505050506040513d601f19601f82011682018060405250810190611791919061473f565b90506001600160a01b0381166117b95760405162461bcd60e51b81526004016108fc90614b8f565b806001600160a01b03166318160ddd6040518163ffffffff1660e01b815260040160206040518083038186803b1580156117f257600080fd5b505afa158015611806573d6000803e3d6000fd5b505050506040513d601f19601f8201168201806040525081019061182a9190614a4f565b94506000816001600160a01b0316633eaaf86b6040518163ffffffff1660e01b815260040160606040518083038186803b15801561186757600080fd5b505afa15801561187b573d6000803e3d6000fd5b505050506040513d601f19601f8201168201806040525081019061189f91906149f5565b80516020820151604083015191975095509350905060006118bf8c610ecd565b6001600160a01b038d1660009081526006602052604090209091506118e58d83836139e0565b809c50819d50829e50839f505050505050505050919395975091939597565b600354604051634c063c1960e01b815260009182916001600160a01b0390911690634c063c1990611939908790600401614b48565b60206040518083038186803b15801561195157600080fd5b505afa158015611965573d6000803e3d6000fd5b505050506040513d601f19601f82011682018060405250810190611989919061473f565b90506001600160a01b0381166119b15760405162461bcd60e51b81526004016108fc90614b8f565b6001600160a01b0383166119f65760405162461bcd60e51b815260206004820152600c60248201526b1e995c9bc81858d8dbdd5b9d60a21b60448201526064016108fc565b6040516327e235e360e01b81526000906001600160a01b038316906327e235e390611a25908790600401614b48565b60606040518083038186803b158015611a3d57600080fd5b505afa158015611a51573d6000803e3d6000fd5b505050506040513d601f19601f82011682018060405250810190611a7591906149f5565b90506000816000015190506000826020015190506000836040015190506000856001600160a01b0316633eaaf86b6040518163ffffffff1660e01b815260040160606040518083038186803b158015611acd57600080fd5b505afa158015611ae1573d6000803e3d6000fd5b505050506040513d601f19601f82011682018060405250810190611b0591906149f5565b90506000816000015190506000826020015190506000836040015190506000896001600160a01b0316636d1506116040518163ffffffff1660e01b815260040160206040518083038186803b158015611b5d57600080fd5b505afa158015611b71573d6000803e3d6000fd5b505050506040513d601f19601f82011682018060405250810190611b959190614a4f565b905060008a6001600160a01b031663a7ac30b06040518163ffffffff1660e01b815260040160206040518083038186803b158015611bd257600080fd5b505afa158015611be6573d6000803e3d6000fd5b505050506040513d601f19601f82011682018060405250810190611c0a9190614a4f565b90506000611c178f613bd1565b9050611c268f8f8c8c8c613c7c565b611c328f878787613cb6565b611c3d8f8484613ce2565b6001600160a01b038f166000908152601460205260409020548f9060ff16611cb3576001600160a01b0381166000818152601460205260408120805460ff19166001908117909155601380549182018155909152600080516020614d4f8339815191520180546001600160a01b03191690911790555b6001600160a01b038f166000908152601660205260409020548f9060ff16611d3b576001600160a01b0381166000818152601660205260408120805460ff191660019081179091556015805491820181559091527f55f448fdea98c4d29eb340757ef0a66cd03dbb9538908a6a81d96026b71ec4750180546001600160a01b03191690911790555b604080516001600160a01b038381168252602082018690528416917feaf565aec332d7cd567bfa2b743a7bdace638ac19ef7900d4c4d103a95be5beb910160405180910390a250909f9e505050505050505050505050505050565b60158181548110611da657600080fd5b6000918252602090912001546001600160a01b0316905081565b6001600160a01b0381163314611e305760405162461bcd60e51b815260206004820152602f60248201527f416363657373436f6e74726f6c3a2063616e206f6e6c792072656e6f756e636560448201526e103937b632b9903337b91039b2b63360891b60648201526084016108fc565b611e3a8282613d8b565b5050565b600080516020614d6f833981519152611e578133613b6d565b6001600160a01b03831615801590611e7757506001600160a01b03821615155b611eb25760405162461bcd60e51b815260206004820152600c60248201526b7a65726f206164647265737360a01b60448201526064016108fc565b50600380546001600160a01b039384166001600160a01b03199182161790915560048054929093169116179055565b6001600160a01b03808316600090815260056020908152604080832093851683529281528282208351815460a0938102820184019095526080810185815293948594859485948594939092849290918491840182828015611f6157602002820191906000526020600020905b815481526020019060010190808311611f4d575b5050505050815260200160018201805480602002602001604051908101604052809291908181526020018280548015611fb957602002820191906000526020600020905b815481526020019060010190808311611fa5575b505050505081526020016002820180548060200260200160405190810160405280929190818152602001828054801561201157602002820191906000526020600020905b815481526020019060010190808311611ffd575b505050505081526020016003820180548060200260200160405190810160405280929190818152602001828054801561206957602002820191906000526020600020905b815481526020019060010190808311612055575b5050509190925250508151519192505080891061213d5781518051829081106120a257634e487b7160e01b600052603260045260246000fd5b6020026020010151826020015182815181106120ce57634e487b7160e01b600052603260045260246000fd5b6020026020010151836040015183815181106120fa57634e487b7160e01b600052603260045260246000fd5b60200260200101518460600151848151811061212657634e487b7160e01b600052603260045260246000fd5b6020026020010151955095509550955050506121f6565b815180518a90811061215f57634e487b7160e01b600052603260045260246000fd5b602002602001015182602001518a8151811061218b57634e487b7160e01b600052603260045260246000fd5b602002602001015183604001518b815181106121b757634e487b7160e01b600052603260045260246000fd5b602002602001015184606001518c815181106121e357634e487b7160e01b600052603260045260246000fd5b6020026020010151955095509550955050505b93509350935093565b6000600b548211610845576000828152600a6020908152604080832081518154606094810282018501845292810183815290939192849284919084018282801561227257602002820191906000526020600020905b81546001600160a01b03168152600190910190602001808311612254575b50505050508152602001600182018054806020026020016040519081016040528092919081815260200182805480156122ca57602002820191906000526020600020905b8154815260200190600101908083116122b6575b505050919092525050815151919250506122e8576000915050610845565b60005b815151811015612367576123498260000151828151811061231c57634e487b7160e01b600052603260045260246000fd5b6020026020010151868460200151848151811061163457634e487b7160e01b600052603260045260246000fd5b6123539084614c09565b92508061235f81614cef565b9150506122eb565b505092915050565b60007f3ee192ac25847473237ced4bba57f848e1fd794930ff85b4282329058096720561239c8133613b6d565b86518851146123e75760405162461bcd60e51b815260206004820152601760248201527609cde40c4c2d8c2dcc6cae640e6c2daca40d8cadccee8d604b1b60448201526064016108fc565b85518851146124385760405162461bcd60e51b815260206004820152601f60248201527f4e6f207265666163746f726564436f756e74732073616d65206c656e6774680060448201526064016108fc565b84518851146124825760405162461bcd60e51b815260206004820152601660248201527509cde40e4cadac2d2dce640e6c2daca40d8cadccee8d60531b60448201526064016108fc565b61248b89613bd1565b5060005b8851811015612551576125418a8a83815181106124bc57634e487b7160e01b600052603260045260246000fd5b60200260200101518a84815181106124e457634e487b7160e01b600052603260045260246000fd5b60200260200101518a858151811061250c57634e487b7160e01b600052603260045260246000fd5b60200260200101518a868151811061253457634e487b7160e01b600052603260045260246000fd5b6020026020010151613c7c565b61254a81614cef565b905061248f565b5083516020850151604086015161256b928c929091613cb6565b8251602084015161257d918b91613ce2565b50600198975050505050505050565b6004805460408051630d42d49760e01b8152905160009384936001600160a01b031692630d42d4979281830192602092829003018186803b1580156125d057600080fd5b505afa1580156125e4573d6000803e3d6000fd5b505050506040513d601f19601f820116820180604052508101906126089190614a4f565b90506000915060005b818110156127cd576004805460405163b7ffb17960e01b81529182018390526000916001600160a01b039091169063b7ffb1799060240160206040518083038186803b15801561266057600080fd5b505afa158015612674573d6000803e3d6000fd5b505050506040513d601f19601f82011682018060405250810190612698919061473f565b600354604051634c063c1960e01b81529192506000916001600160a01b0390911690634c063c19906126ce908590600401614b48565b60206040518083038186803b1580156126e657600080fd5b505afa1580156126fa573d6000803e3d6000fd5b505050506040513d601f19601f8201168201806040525081019061271e919061473f565b90506001600160a01b038116156127b8576040516370a0823160e01b81526001600160a01b038216906370a082319061275b908990600401614b48565b60206040518083038186803b15801561277357600080fd5b505afa158015612787573d6000803e3d6000fd5b505050506040513d601f19601f820116820180604052508101906127ab9190614a4f565b6127b59086614c09565b94505b505080806127c590614cef565b915050612611565b5050919050565b6004805460408051630d42d49760e01b8152905160009384936001600160a01b031692630d42d4979281830192602092829003018186803b15801561281857600080fd5b505afa15801561282c573d6000803e3d6000fd5b505050506040513d601f19601f820116820180604052508101906128509190614a4f565b90506000805b828110156129a0576004805460405163b7ffb17960e01b81529182018390526000916001600160a01b039091169063b7ffb1799060240160206040518083038186803b1580156128a557600080fd5b505afa1580156128b9573d6000803e3d6000fd5b505050506040513d601f19601f820116820180604052508101906128dd919061473f565b600354604051634c063c1960e01b81529192506000916001600160a01b0390911690634c063c1990612913908590600401614b48565b60206040518083038186803b15801561292b57600080fd5b505afa15801561293f573d6000803e3d6000fd5b505050506040513d601f19601f82011682018060405250810190612963919061473f565b90506001600160a01b0381161561298b5761297e82886139d0565b6129889085614c09565b93505b5050808061299890614cef565b915050612856565b509392505050565b600354604051634c063c1960e01b81526000918291829182918291829182916001600160a01b031690634c063c19906129e5908b90600401614b48565b60206040518083038186803b1580156129fd57600080fd5b505afa158015612a11573d6000803e3d6000fd5b505050506040513d601f19601f82011682018060405250810190612a35919061473f565b90506001600160a01b038116612a5d5760405162461bcd60e51b81526004016108fc90614b8f565b806001600160a01b03166354f703f86040518163ffffffff1660e01b815260040160206040518083038186803b158015612a9657600080fd5b505afa158015612aaa573d6000803e3d6000fd5b505050506040513d601f19601f82011682018060405250810190612ace9190614a4f565b9350806001600160a01b0316636d1506116040518163ffffffff1660e01b815260040160206040518083038186803b158015612b0957600080fd5b505afa158015612b1d573d6000803e3d6000fd5b505050506040513d601f19601f82011682018060405250810190612b419190614a4f565b9250806001600160a01b031663a7ac30b06040518163ffffffff1660e01b815260040160206040518083038186803b158015612b7c57600080fd5b505afa158015612b90573d6000803e3d6000fd5b505050506040513d601f19601f82011682018060405250810190612bb49190614a4f565b91506000612bc189610ecd565b9050612bcd8982613df0565b919b909a509098509496509294509092915050565b60138181548110611da657600080fd5b60008115612c7057600080600080612c0a8787613ed1565b93509350935093506000806000612c218a8a613df0565b925092509250868015612c315750825b15612c60576000612c448787858561333a565b9050612c508582614c09565b9850610845975050505050505050565b6000975050505050505050610845565b506000610845565b6000918252602082815260408084206001600160a01b0393909316845291905290205460ff1690565b60118054610a2b90614cba565b600b805460009182612cbf83614cef565b91905055506000600460009054906101000a90046001600160a01b03166001600160a01b0316630d42d4976040518163ffffffff1660e01b815260040160206040518083038186803b158015612d1457600080fd5b505afa158015612d28573d6000803e3d6000fd5b505050506040513d601f19601f82011682018060405250810190612d4c9190614a4f565b905060005b81811015612ee1576004805460405163b7ffb17960e01b81529182018390526000916001600160a01b039091169063b7ffb1799060240160206040518083038186803b158015612da057600080fd5b505afa158015612db4573d6000803e3d6000fd5b505050506040513d601f19601f82011682018060405250810190612dd8919061473f565b600354604051634c063c1960e01b81529192506000916001600160a01b0390911690634c063c1990612e0e908590600401614b48565b60206040518083038186803b158015612e2657600080fd5b505afa158015612e3a573d6000803e3d6000fd5b505050506040513d601f19601f82011682018060405250810190612e5e919061473f565b6001600160a01b031614612ece57600b546000908152600a6020908152604082208054600180820183558285529290932090920180546001600160a01b0319166001600160a01b0385161790558101612eb683610ecd565b81546001810183556000928352602090922090910155505b5080612ed981614cef565b915050612d51565b50600b5491505090565b6000600b548211613025576000828152600a60209081526040808320815181546060948102820185018452928101838152909391928492849190840182828015612f5e57602002820191906000526020600020905b81546001600160a01b03168152600190910190602001808311612f40575b5050505050815260200160018201805480602002602001604051908101604052809291908181526020018280548015612fb657602002820191906000526020600020905b815481526020019060010190808311612fa2575b50505091909252505081515191925050612fd35750600092915050565b60005b8151518110156127cd576130078260000151828151811061167457634e487b7160e01b600052603260045260246000fd5b6130119084614c09565b92508061301d81614cef565b915050612fd6565b919050565b600354604051634c063c1960e01b815260009182916001600160a01b0390911690634c063c199061305f908690600401614b48565b60206040518083038186803b15801561307757600080fd5b505afa15801561308b573d6000803e3d6000fd5b505050506040513d601f19601f820116820180604052508101906130af919061473f565b90506001600160a01b0381166130d75760405162461bcd60e51b81526004016108fc90614b8f565b6000816001600160a01b0316633eaaf86b6040518163ffffffff1660e01b815260040160606040518083038186803b15801561311257600080fd5b505afa158015613126573d6000803e3d6000fd5b505050506040513d601f19601f8201168201806040525081019061314a91906149f5565b90506000816000015190506000826020015190506000836040015190506000856001600160a01b0316636d1506116040518163ffffffff1660e01b815260040160206040518083038186803b1580156131a257600080fd5b505afa1580156131b6573d6000803e3d6000fd5b505050506040513d601f19601f820116820180604052508101906131da9190614a4f565b90506000866001600160a01b031663a7ac30b06040518163ffffffff1660e01b815260040160206040518083038186803b15801561321757600080fd5b505afa15801561322b573d6000803e3d6000fd5b505050506040513d601f19601f8201168201806040525081019061324f9190614a4f565b6001600160a01b038a1660009081526014602052604090205490915060ff166132c6576001600160a01b0389166000818152601460205260408120805460ff19166001908117909155601380549182018155909152600080516020614d4f8339815191520180546001600160a01b03191690911790555b60006132d18a613bd1565b90506132df8a878787613cb6565b6132ea8a8484613ce2565b896001600160a01b03167f32a9d63c5300e91cc9c633e57c9a98fdaa33b189311e7cbe14859ad9958ecd158260405161332591815260200190565b60405180910390a29998505050505050505050565b60008461334957506000613385565b6133538584613f20565b9450835b828110156133805760025461336c9087614c41565b95508061337881614cef565b915050613357565b508490505b949350505050565b600354604051634c063c1960e01b815260009182918291829182916001600160a01b031690634c063c19906133c6908990600401614b48565b60206040518083038186803b1580156133de57600080fd5b505afa1580156133f2573d6000803e3d6000fd5b505050506040513d601f19601f82011682018060405250810190613416919061473f565b90506001600160a01b03811661343e5760405162461bcd60e51b81526004016108fc90614b8f565b806001600160a01b03166318160ddd6040518163ffffffff1660e01b815260040160206040518083038186803b15801561347757600080fd5b505afa15801561348b573d6000803e3d6000fd5b505050506040513d601f19601f820116820180604052508101906134af9190614a4f565b94506000816001600160a01b0316633eaaf86b6040518163ffffffff1660e01b815260040160606040518083038186803b1580156134ec57600080fd5b505afa158015613500573d6000803e3d6000fd5b505050506040513d601f19601f8201168201806040525081019061352491906149f5565b805160208201516040909201519799909850909695509350505050565b600081156135c05760008060008061355a888888613f43565b935093509350935060008060006135718b8a613df0565b9250925092508680156135815750825b156135b05760006135948787858561333a565b90506135a08582614c09565b9850610f34975050505050505050565b6000975050505050505050610f34565b506000610f34565b6001600160a01b0381166000908152600660205260408120546135ed57506000919050565b6001600160a01b03821660009081526006602052604090205461084590600190614c60565b60008281526020819052604090206001015461362e8133613b6d565b6116fb8383613d8b565b6000610845826106d684610ecd565b6001600160a01b038083166000908152600560209081526040808320938516835292905290812080548291829182919061368f576000806000809450945094509450506121f6565b6000881180156136a757506136a387610ecd565b8811155b156137815760006136b8828a613fb6565b90508160000181815481106136dd57634e487b7160e01b600052603260045260246000fd5b906000526020600020015482600101828154811061370b57634e487b7160e01b600052603260045260246000fd5b906000526020600020015483600201838154811061373957634e487b7160e01b600052603260045260246000fd5b906000526020600020015484600301848154811061376757634e487b7160e01b600052603260045260246000fd5b9060005260206000200154955095509550955050506121f6565b6000806000809450945094509450506121f6565b6004805460408051630d42d49760e01b8152905160009384936001600160a01b031692630d42d4979281830192602092829003018186803b1580156137d957600080fd5b505afa1580156137ed573d6000803e3d6000fd5b505050506040513d601f19601f820116820180604052508101906138119190614a4f565b90506000915060005b818110156139cb576004805460405163b7ffb17960e01b81529182018390526000916001600160a01b039091169063b7ffb1799060240160206040518083038186803b15801561386957600080fd5b505afa15801561387d573d6000803e3d6000fd5b505050506040513d601f19601f820116820180604052508101906138a1919061473f565b600354604051634c063c1960e01b81529192506000916001600160a01b0390911690634c063c19906138d7908590600401614b48565b60206040518083038186803b1580156138ef57600080fd5b505afa158015613903573d6000803e3d6000fd5b505050506040513d601f19601f82011682018060405250810190613927919061473f565b90506001600160a01b038116156139b657806001600160a01b03166318160ddd6040518163ffffffff1660e01b815260040160206040518083038186803b15801561397157600080fd5b505afa158015613985573d6000803e3d6000fd5b505050506040513d601f19601f820116820180604052508101906139a99190614a4f565b6139b39086614c09565b94505b505080806139c390614cef565b91505061381a565b505090565b6000610f34838361079a86610ecd565b6000806000806000861180156139fe57506139fa87610ecd565b8611155b15613b5c576000613a0f8688613fb6565b8654909150811415613adb578015613781576001868101613a308284614c60565b81548110613a4e57634e487b7160e01b600052603260045260246000fd5b906000526020600020015487600201600184613a6a9190614c60565b81548110613a8857634e487b7160e01b600052603260045260246000fd5b906000526020600020015488600301600185613aa49190614c60565b81548110613ac257634e487b7160e01b600052603260045260246000fd5b90600052602060002001549450945094509450506121f6565b6001866001018281548110613b0057634e487b7160e01b600052603260045260246000fd5b9060005260206000200154876002018381548110613b2e57634e487b7160e01b600052603260045260246000fd5b9060005260206000200154886003018481548110613ac257634e487b7160e01b600052603260045260246000fd5b5060009250829150819050806121f6565b613b778282612c78565b611e3a57613b8f816001600160a01b031660146140e6565b613b9a8360206140e6565b604051602001613bab929190614ad9565b60408051601f198184030181529082905262461bcd60e51b82526108fc91600401614b5c565b6001600160a01b038116600090815260086020526040812080549082613bf683614cef565b90915550506001600160a01b0382166000908152600960209081526040808320600883528184205484529091528120439055613c3183610ecd565b9050826001600160a01b03167f9140ca8dada2f5d654a9719f873254e8caca2580b6b78d4944151727d6207bb182604051613c6e91815260200190565b60405180910390a292915050565b6001600160a01b038086166000908152600560209081526040808320938816835292905220613caf9086908585856142c7565b5050505050565b6001600160a01b0384166000908152600660205260409020613cdc9085908585856142c7565b50505050565b6001600160a01b03831660009081526007602052604090206116fb908490848461434a565b613d118282612c78565b611e3a576000828152602081815260408083206001600160a01b03851684529091529020805460ff19166001179055613d473390565b6001600160a01b0316816001600160a01b0316837f2f8788117e7eff1d82e926ec794901d17c78024a50270940304540a733656f0d60405160405180910390a45050565b613d958282612c78565b15611e3a576000828152602081815260408083206001600160a01b0385168085529252808320805460ff1916905551339285917ff6391f5c32d9c69d2a47ea670b442974b53935d1edc7fd64eb21e047a839171b9190a45050565b6001600160a01b0382166000908152600760205260408120819081908415801590613e235750613e1f86610ecd565b8511155b15613ebd576000613e348287613fb6565b8254909150811415613e525760008060009450945094505050613eca565b6001826001018281548110613e7757634e487b7160e01b600052603260045260246000fd5b9060005260206000200154836002018381548110613ea557634e487b7160e01b600052603260045260246000fd5b90600052602060002001549450945094505050613eca565b6000806000935093509350505b9250925092565b600080600080600080600080613f0c8a8a600660008e6001600160a01b03166001600160a01b031681526020019081526020016000206139e0565b929d919c509a509098509650505050505050565b60006b033b2e3c9fd0803ce8000000613f3984846143ad565b610f349190614c21565b600080600080600080600080613fa18b8a600560008f6001600160a01b03166001600160a01b0316815260200190815260200160002060008e6001600160a01b03166001600160a01b031681526020019081526020016000206139e0565b929e919d509b50909950975050505050505050565b8154600090613fc757506000610845565b82548390613fd790600190614c60565b81548110613ff557634e487b7160e01b600052603260045260246000fd5b9060005260206000200154821061401b57825461401490600190614c60565b9050610845565b8260008154811061403c57634e487b7160e01b600052603260045260246000fd5b906000526020600020015482101561405657506000610845565b8254600090819061406990600190614c60565b90505b818111156129a057600060026140828484614c09565b61408d906001614c09565b6140979190614c21565b9050848682815481106140ba57634e487b7160e01b600052603260045260246000fd5b9060005260206000200154116140d2578092506140e0565b6140dd600182614c60565b91505b5061406c565b606060006140f5836002614c41565b614100906002614c09565b6001600160401b0381111561412557634e487b7160e01b600052604160045260246000fd5b6040519080825280601f01601f19166020018201604052801561414f576020820181803683370190505b509050600360fc1b8160008151811061417857634e487b7160e01b600052603260045260246000fd5b60200101906001600160f81b031916908160001a905350600f60fb1b816001815181106141b557634e487b7160e01b600052603260045260246000fd5b60200101906001600160f81b031916908160001a90535060006141d9846002614c41565b6141e4906001614c09565b90505b6001811115614278576f181899199a1a9b1b9c1cb0b131b232b360811b85600f166010811061422657634e487b7160e01b600052603260045260246000fd5b1a60f81b82828151811061424a57634e487b7160e01b600052603260045260246000fd5b60200101906001600160f81b031916908160001a90535060049490941c9361427181614ca3565b90506141e7565b508315610f345760405162461bcd60e51b815260206004820181905260248201527f537472696e67733a20686578206c656e67746820696e73756666696369656e7460448201526064016108fc565b60006142d286610ecd565b905060006142df86614414565b905081811015614341578554600181810188556000888152602080822090930185905581890180548084018255908252838220018890556002890180548084018255908252838220018790556003890180549283018155815291909120018390555b50505050505050565b600061435585610ecd565b90508061436185614414565b1015613caf578354600180820186556000868152602080822090930193909355808601805480830182559084528284200194909455600290940180549384018155815292909220015550565b60008115806143d1575082826143c38183614c41565b92506143cf9083614c21565b145b6108455760405162461bcd60e51b815260206004820152601460248201527364732d6d6174682d6d756c2d6f766572666c6f7760601b60448201526064016108fc565b805460009061442557506000919050565b8154829061443590600190614c60565b8154811061445357634e487b7160e01b600052603260045260246000fd5b90600052602060002001549050919050565b82805461447190614cba565b90600052602060002090601f01602090048101928261449357600085556144d9565b82601f106144ac57805160ff19168380011785556144d9565b828001600101855582156144d9579182015b828111156144d95782518255916020019190600101906144be565b506144e59291506144e9565b5090565b5b808211156144e557600081556001016144ea565b803561302581614d36565b600082601f830112614519578081fd5b8135602061452e61452983614be6565b614bb6565b80838252828201915082860187848660051b890101111561454d578586fd5b855b8581101561457457813561456281614d36565b8452928401929084019060010161454f565b5090979650505050505050565b600082601f830112614591578081fd5b604051604081018181106001600160401b03821117156145b3576145b3614d20565b80604052508083856040860111156145c9578384fd5b835b60028110156145ea5781358352602092830192909101906001016145cb565b509195945050505050565b600082601f830112614605578081fd5b604051606081018181106001600160401b038211171561462757614627614d20565b60405280836060810186101561463b578384fd5b835b60038110156145ea57813583526020928301929091019060010161463d565b600082601f83011261466c578081fd5b8135602061467c61452983614be6565b80838252828201915082860187848660051b890101111561469b578586fd5b855b858110156145745781358452928401929084019060010161469d565b600082601f8301126146c9578081fd5b81356001600160401b038111156146e2576146e2614d20565b6146f5601f8201601f1916602001614bb6565b818152846020838601011115614709578283fd5b816020850160208301379081016020019190915292915050565b600060208284031215614734578081fd5b8135610f3481614d36565b600060208284031215614750578081fd5b8151610f3481614d36565b6000806040838503121561476d578081fd5b823561477881614d36565b9150602083013561478881614d36565b809150509250929050565b6000806000606084860312156147a7578081fd5b83356147b281614d36565b925060208401356147c281614d36565b929592945050506040919091013590565b600080604083850312156147e5578182fd5b82356147f081614d36565b915060208301356001600160401b0381111561480a578182fd5b61481685828601614509565b9150509250929050565b6000806000806000806000610140888a03121561483b578485fd5b614844886144fe565b965060208801356001600160401b038082111561485f578687fd5b61486b8b838c01614509565b975060408a0135915080821115614880578687fd5b61488c8b838c0161465c565b965060608a01359150808211156148a1578485fd5b6148ad8b838c0161465c565b955060808a01359150808211156148c2578485fd5b506148cf8a828b0161465c565b9350506148df8960a08a016145f5565b91506148ef896101008a01614581565b905092959891949750929550565b6000806040838503121561490f578182fd5b823561491a81614d36565b946020939093013593505050565b600060208284031215614939578081fd5b5035919050565b60008060408385031215614952578182fd5b82359150602083013561478881614d36565b600060208284031215614975578081fd5b81356001600160e01b031981168114610f34578182fd5b6000806000606084860312156149a0578081fd5b83356001600160401b03808211156149b6578283fd5b6149c2878388016146b9565b945060208601359150808211156149d7578283fd5b506149e4868287016146b9565b925050604084013590509250925092565b600060608284031215614a06578081fd5b604051606081018181106001600160401b0382111715614a2857614a28614d20565b80604052508251815260208301516020820152604083015160408201528091505092915050565b600060208284031215614a60578081fd5b5051919050565b600080600060608486031215614a7b578081fd5b833592506020840135614a8d81614d36565b91506040840135614a9d81614d36565b809150509250925092565b60008060008060808587031215614abd578182fd5b5050823594602084013594506040840135936060013592509050565b76020b1b1b2b9b9a1b7b73a3937b61d1030b1b1b7bab73a1604d1b815260008351614b0b816017850160208801614c77565b7001034b99036b4b9b9b4b733903937b6329607d1b6017918401918201528351614b3c816028840160208801614c77565b01602801949350505050565b6001600160a01b0391909116815260200190565b6020815260008251806020840152614b7b816040850160208701614c77565b601f01601f19169190910160400192915050565b6020808252600d908201526c7a65726f20636f696e6167657360981b604082015260600190565b604051601f8201601f191681016001600160401b0381118282101715614bde57614bde614d20565b604052919050565b60006001600160401b03821115614bff57614bff614d20565b5060051b60200190565b60008219821115614c1c57614c1c614d0a565b500190565b600082614c3c57634e487b7160e01b81526012600452602481fd5b500490565b6000816000190483118215151615614c5b57614c5b614d0a565b500290565b600082821015614c7257614c72614d0a565b500390565b60005b83811015614c92578181015183820152602001614c7a565b83811115613cdc5750506000910152565b600081614cb257614cb2614d0a565b506000190190565b600181811c90821680614cce57607f821691505b60208210811415610f7457634e487b7160e01b600052602260045260246000fd5b6000600019821415614d0357614d03614d0a565b5060010190565b634e487b7160e01b600052601160045260246000fd5b634e487b7160e01b600052604160045260246000fd5b6001600160a01b0381168114614d4b57600080fd5b5056fe66de8ffda797e3de9c05e8fc57b3bf0ec28a930d40b0d285d93c06501cf6a090a49807205ce4d355092ef5a8a18f56e8913cf4a201fbe287825b095693c21775a264697066735822122016e0801a94c7285d7c0b66ae7016eb1a43302a5e60a214489164fb49bf9b185364736f6c63430008040033",
  "linkReferences": {},
  "deployedLinkReferences": {}
}