{
  "_format": "hh-sol-artifact-1",
  "contractName": "AutoCoinageSnapshot",
  "sourceName": "contracts/tokens/AutoCoinageSnapshot.sol",
  "abi": [
    {
      "inputs": [
        {
          "internalType": "string",
          "name": "name_",
          "type": "string"
        },
        {
          "internalType": "string",
          "name": "symbol_",
          "type": "string"
        }
      ],
      "stateMutability": "nonpayable",
      "type": "constructor"
    },
    {
      "anonymous": false,
      "inputs": [
        {
          "indexed": true,
          "internalType": "address",
          "name": "owner",
          "type": "address"
        },
        {
          "indexed": true,
          "internalType": "address",
          "name": "spender",
          "type": "address"
        },
        {
          "indexed": false,
          "internalType": "uint256",
          "name": "value",
          "type": "uint256"
        }
      ],
      "name": "Approval",
      "type": "event"
    },
    {
      "anonymous": false,
      "inputs": [
        {
          "indexed": true,
          "internalType": "bytes32",
          "name": "role",
          "type": "bytes32"
        },
        {
          "indexed": true,
          "internalType": "bytes32",
          "name": "previousAdminRole",
          "type": "bytes32"
        },
        {
          "indexed": true,
          "internalType": "bytes32",
          "name": "newAdminRole",
          "type": "bytes32"
        }
      ],
      "name": "RoleAdminChanged",
      "type": "event"
    },
    {
      "anonymous": false,
      "inputs": [
        {
          "indexed": true,
          "internalType": "bytes32",
          "name": "role",
          "type": "bytes32"
        },
        {
          "indexed": true,
          "internalType": "address",
          "name": "account",
          "type": "address"
        },
        {
          "indexed": true,
          "internalType": "address",
          "name": "sender",
          "type": "address"
        }
      ],
      "name": "RoleGranted",
      "type": "event"
    },
    {
      "anonymous": false,
      "inputs": [
        {
          "indexed": true,
          "internalType": "bytes32",
          "name": "role",
          "type": "bytes32"
        },
        {
          "indexed": true,
          "internalType": "address",
          "name": "account",
          "type": "address"
        },
        {
          "indexed": true,
          "internalType": "address",
          "name": "sender",
          "type": "address"
        }
      ],
      "name": "RoleRevoked",
      "type": "event"
    },
    {
      "anonymous": false,
      "inputs": [
        {
          "indexed": true,
          "internalType": "address",
          "name": "from",
          "type": "address"
        },
        {
          "indexed": true,
          "internalType": "address",
          "name": "to",
          "type": "address"
        },
        {
          "indexed": false,
          "internalType": "uint256",
          "name": "value",
          "type": "uint256"
        }
      ],
      "name": "Transfer",
      "type": "event"
    },
    {
      "anonymous": false,
      "inputs": [
        {
          "indexed": true,
          "internalType": "address",
          "name": "layer2",
          "type": "address"
        },
        {
          "indexed": false,
          "internalType": "uint256",
          "name": "id",
          "type": "uint256"
        }
      ],
      "name": "onSnapshot",
      "type": "event"
    },
    {
      "anonymous": false,
      "inputs": [
        {
          "indexed": true,
          "internalType": "address",
          "name": "layer2",
          "type": "address"
        },
        {
          "indexed": false,
          "internalType": "uint256",
          "name": "id",
          "type": "uint256"
        }
      ],
      "name": "onSyncLayer2",
      "type": "event"
    },
    {
      "anonymous": false,
      "inputs": [
        {
          "indexed": true,
          "internalType": "address",
          "name": "layer2",
          "type": "address"
        },
        {
          "indexed": false,
          "internalType": "address",
          "name": "account",
          "type": "address"
        },
        {
          "indexed": false,
          "internalType": "uint256",
          "name": "id",
          "type": "uint256"
        }
      ],
      "name": "onSyncLayer2Address",
      "type": "event"
    },
    {
      "anonymous": false,
      "inputs": [
        {
          "indexed": true,
          "internalType": "address",
          "name": "layer2",
          "type": "address"
        },
        {
          "indexed": false,
          "internalType": "uint256",
          "name": "id",
          "type": "uint256"
        }
      ],
      "name": "onSyncLayer2Batch",
      "type": "event"
    },
    {
      "inputs": [],
      "name": "ADMIN_ROLE",
      "outputs": [
        {
          "internalType": "bytes32",
          "name": "",
          "type": "bytes32"
        }
      ],
      "stateMutability": "view",
      "type": "function"
    },
    {
      "inputs": [],
      "name": "DEFAULT_ADMIN_ROLE",
      "outputs": [
        {
          "internalType": "bytes32",
          "name": "",
          "type": "bytes32"
        }
      ],
      "stateMutability": "view",
      "type": "function"
    },
    {
      "inputs": [],
      "name": "REFACTOR_BOUNDARY",
      "outputs": [
        {
          "internalType": "uint256",
          "name": "",
          "type": "uint256"
        }
      ],
      "stateMutability": "view",
      "type": "function"
    },
    {
      "inputs": [],
      "name": "REFACTOR_DIVIDER",
      "outputs": [
        {
          "internalType": "uint256",
          "name": "",
          "type": "uint256"
        }
      ],
      "stateMutability": "view",
      "type": "function"
    },
    {
      "inputs": [],
      "name": "SNAPSHOT_ROLE",
      "outputs": [
        {
          "internalType": "bytes32",
          "name": "",
          "type": "bytes32"
        }
      ],
      "stateMutability": "view",
      "type": "function"
    },
    {
      "inputs": [],
      "name": "UPDATE_ROLE",
      "outputs": [
        {
          "internalType": "bytes32",
          "name": "",
          "type": "bytes32"
        }
      ],
      "stateMutability": "view",
      "type": "function"
    },
    {
      "inputs": [
        {
          "internalType": "address",
          "name": "owner",
          "type": "address"
        },
        {
          "internalType": "address",
          "name": "spender",
          "type": "address"
        }
      ],
      "name": "allowance",
      "outputs": [
        {
          "internalType": "uint256",
          "name": "",
          "type": "uint256"
        }
      ],
      "stateMutability": "view",
      "type": "function"
    },
    {
      "inputs": [
        {
          "internalType": "uint256",
          "name": "v",
          "type": "uint256"
        },
        {
          "internalType": "uint256",
          "name": "refactoredCount",
          "type": "uint256"
        },
        {
          "internalType": "uint256",
          "name": "_factor",
          "type": "uint256"
        },
        {
          "internalType": "uint256",
          "name": "refactorCount",
          "type": "uint256"
        }
      ],
      "name": "applyFactor",
      "outputs": [
        {
          "internalType": "uint256",
          "name": "",
          "type": "uint256"
        }
      ],
      "stateMutability": "view",
      "type": "function"
    },
    {
      "inputs": [
        {
          "internalType": "address",
          "name": "spender",
          "type": "address"
        },
        {
          "internalType": "uint256",
          "name": "amount",
          "type": "uint256"
        }
      ],
      "name": "approve",
      "outputs": [
        {
          "internalType": "bool",
          "name": "",
          "type": "bool"
        }
      ],
      "stateMutability": "nonpayable",
      "type": "function"
    },
    {
      "inputs": [
        {
          "internalType": "address",
          "name": "account",
          "type": "address"
        }
      ],
      "name": "balanceOf",
      "outputs": [
        {
          "internalType": "uint256",
          "name": "",
          "type": "uint256"
        }
      ],
      "stateMutability": "view",
      "type": "function"
    },
    {
      "inputs": [
        {
          "internalType": "address",
          "name": "layer2",
          "type": "address"
        },
        {
          "internalType": "address",
          "name": "account",
          "type": "address"
        }
      ],
      "name": "balanceOf",
      "outputs": [
        {
          "internalType": "uint256",
          "name": "",
          "type": "uint256"
        }
      ],
      "stateMutability": "view",
      "type": "function"
    },
    {
      "inputs": [
        {
          "internalType": "address",
          "name": "layer2",
          "type": "address"
        },
        {
          "internalType": "address",
          "name": "account",
          "type": "address"
        },
        {
          "internalType": "uint256",
          "name": "snapshotId",
          "type": "uint256"
        }
      ],
      "name": "balanceOfAt",
      "outputs": [
        {
          "internalType": "uint256",
          "name": "",
          "type": "uint256"
        }
      ],
      "stateMutability": "view",
      "type": "function"
    },
    {
      "inputs": [
        {
          "internalType": "address",
          "name": "account",
          "type": "address"
        },
        {
          "internalType": "uint256",
          "name": "snashotAggregatorId",
          "type": "uint256"
        }
      ],
      "name": "balanceOfWithSnashotAggregator",
      "outputs": [
        {
          "internalType": "uint256",
          "name": "accountStaked",
          "type": "uint256"
        }
      ],
      "stateMutability": "view",
      "type": "function"
    },
    {
      "inputs": [
        {
          "internalType": "address",
          "name": "layer2",
          "type": "address"
        },
        {
          "internalType": "address",
          "name": "account",
          "type": "address"
        }
      ],
      "name": "currentAccountBalanceSnapshots",
      "outputs": [
        {
          "internalType": "bool",
          "name": "snapshotted",
          "type": "bool"
        },
        {
          "internalType": "uint256",
          "name": "snapShotBalance",
          "type": "uint256"
        },
        {
          "internalType": "uint256",
          "name": "snapShotRefactoredCount",
          "type": "uint256"
        },
        {
          "internalType": "uint256",
          "name": "snapShotRemain",
          "type": "uint256"
        },
        {
          "internalType": "uint256",
          "name": "currentBalanceOf",
          "type": "uint256"
        },
        {
          "internalType": "uint256",
          "name": "curBalances",
          "type": "uint256"
        },
        {
          "internalType": "uint256",
          "name": "curRefactoredCounts",
          "type": "uint256"
        },
        {
          "internalType": "uint256",
          "name": "curRemains",
          "type": "uint256"
        }
      ],
      "stateMutability": "view",
      "type": "function"
    },
    {
      "inputs": [
        {
          "internalType": "address",
          "name": "layer2",
          "type": "address"
        }
      ],
      "name": "currentFactorSnapshots",
      "outputs": [
        {
          "internalType": "bool",
          "name": "snapshotted",
          "type": "bool"
        },
        {
          "internalType": "uint256",
          "name": "snapShotFactor",
          "type": "uint256"
        },
        {
          "internalType": "uint256",
          "name": "snapShotRefactorCount",
          "type": "uint256"
        },
        {
          "internalType": "uint256",
          "name": "curFactorValue",
          "type": "uint256"
        },
        {
          "internalType": "uint256",
          "name": "curFactor",
          "type": "uint256"
        },
        {
          "internalType": "uint256",
          "name": "curRefactorCount",
          "type": "uint256"
        }
      ],
      "stateMutability": "view",
      "type": "function"
    },
    {
      "inputs": [
        {
          "internalType": "address",
          "name": "",
          "type": "address"
        }
      ],
      "name": "currentLayer2SnapshotId",
      "outputs": [
        {
          "internalType": "uint256",
          "name": "",
          "type": "uint256"
        }
      ],
      "stateMutability": "view",
      "type": "function"
    },
    {
      "inputs": [
        {
          "internalType": "address",
          "name": "layer2",
          "type": "address"
        }
      ],
      "name": "currentTotalSupplySnapshots",
      "outputs": [
        {
          "internalType": "bool",
          "name": "snapshotted",
          "type": "bool"
        },
        {
          "internalType": "uint256",
          "name": "snapShotBalance",
          "type": "uint256"
        },
        {
          "internalType": "uint256",
          "name": "snapShotRefactoredCount",
          "type": "uint256"
        },
        {
          "internalType": "uint256",
          "name": "snapShotRemain",
          "type": "uint256"
        },
        {
          "internalType": "uint256",
          "name": "currentTotalSupply",
          "type": "uint256"
        },
        {
          "internalType": "uint256",
          "name": "curBalances",
          "type": "uint256"
        },
        {
          "internalType": "uint256",
          "name": "curRefactoredCounts",
          "type": "uint256"
        },
        {
          "internalType": "uint256",
          "name": "curRemains",
          "type": "uint256"
        }
      ],
      "stateMutability": "view",
      "type": "function"
    },
    {
      "inputs": [],
      "name": "decimals",
      "outputs": [
        {
          "internalType": "uint8",
          "name": "",
          "type": "uint8"
        }
      ],
      "stateMutability": "view",
      "type": "function"
    },
    {
      "inputs": [
        {
          "internalType": "address",
          "name": "spender",
          "type": "address"
        },
        {
          "internalType": "uint256",
          "name": "subtractedValue",
          "type": "uint256"
        }
      ],
      "name": "decreaseAllowance",
      "outputs": [
        {
          "internalType": "bool",
          "name": "",
          "type": "bool"
        }
      ],
      "stateMutability": "nonpayable",
      "type": "function"
    },
    {
      "inputs": [
        {
          "internalType": "uint256",
          "name": "id",
          "type": "uint256"
        },
        {
          "internalType": "address",
          "name": "layer2",
          "type": "address"
        },
        {
          "internalType": "address",
          "name": "account",
          "type": "address"
        }
      ],
      "name": "getAccountBalanceSnapsByIds",
      "outputs": [
        {
          "internalType": "uint256",
          "name": "",
          "type": "uint256"
        },
        {
          "internalType": "uint256",
          "name": "",
          "type": "uint256"
        },
        {
          "internalType": "uint256",
          "name": "",
          "type": "uint256"
        },
        {
          "internalType": "uint256",
          "name": "",
          "type": "uint256"
        }
      ],
      "stateMutability": "view",
      "type": "function"
    },
    {
      "inputs": [
        {
          "internalType": "uint256",
          "name": "snapshotId",
          "type": "uint256"
        },
        {
          "internalType": "address",
          "name": "layer2",
          "type": "address"
        },
        {
          "internalType": "address",
          "name": "account",
          "type": "address"
        }
      ],
      "name": "getAccountBalanceSnapsBySnapshotId",
      "outputs": [
        {
          "internalType": "uint256",
          "name": "",
          "type": "uint256"
        },
        {
          "internalType": "uint256",
          "name": "",
          "type": "uint256"
        },
        {
          "internalType": "uint256",
          "name": "",
          "type": "uint256"
        },
        {
          "internalType": "uint256",
          "name": "",
          "type": "uint256"
        }
      ],
      "stateMutability": "view",
      "type": "function"
    },
    {
      "inputs": [
        {
          "internalType": "address",
          "name": "account",
          "type": "address"
        }
      ],
      "name": "getBalanceOfInTokamak",
      "outputs": [
        {
          "internalType": "uint256",
          "name": "accountAmount",
          "type": "uint256"
        }
      ],
      "stateMutability": "view",
      "type": "function"
    },
    {
      "inputs": [
        {
          "internalType": "address",
          "name": "layer2",
          "type": "address"
        }
      ],
      "name": "getCurrentLayer2SnapshotId",
      "outputs": [
        {
          "internalType": "uint256",
          "name": "",
          "type": "uint256"
        }
      ],
      "stateMutability": "view",
      "type": "function"
    },
    {
      "inputs": [
        {
          "internalType": "address",
          "name": "layer2",
          "type": "address"
        },
        {
          "internalType": "address",
          "name": "user",
          "type": "address"
        }
      ],
      "name": "getLayer2BalanceOfInTokamak",
      "outputs": [
        {
          "internalType": "uint256",
          "name": "balanceOfLayer2Amount",
          "type": "uint256"
        },
        {
          "internalType": "uint256",
          "name": "balance",
          "type": "uint256"
        },
        {
          "internalType": "uint256",
          "name": "refactoredCount",
          "type": "uint256"
        },
        {
          "internalType": "uint256",
          "name": "remain",
          "type": "uint256"
        }
      ],
      "stateMutability": "view",
      "type": "function"
    },
    {
      "inputs": [
        {
          "internalType": "address",
          "name": "layer2",
          "type": "address"
        }
      ],
      "name": "getLayer2TotalSupplyInTokamak",
      "outputs": [
        {
          "internalType": "uint256",
          "name": "totalSupplyLayer2",
          "type": "uint256"
        },
        {
          "internalType": "uint256",
          "name": "balance",
          "type": "uint256"
        },
        {
          "internalType": "uint256",
          "name": "refactoredCount",
          "type": "uint256"
        },
        {
          "internalType": "uint256",
          "name": "remain",
          "type": "uint256"
        }
      ],
      "stateMutability": "view",
      "type": "function"
    },
    {
      "inputs": [
        {
          "internalType": "bytes32",
          "name": "role",
          "type": "bytes32"
        }
      ],
      "name": "getRoleAdmin",
      "outputs": [
        {
          "internalType": "bytes32",
          "name": "",
          "type": "bytes32"
        }
      ],
      "stateMutability": "view",
      "type": "function"
    },
    {
      "inputs": [],
      "name": "getTotalStakedInTokamak",
      "outputs": [
        {
          "internalType": "uint256",
          "name": "accountAmount",
          "type": "uint256"
        }
      ],
      "stateMutability": "view",
      "type": "function"
    },
    {
      "inputs": [
        {
          "internalType": "bytes32",
          "name": "role",
          "type": "bytes32"
        },
        {
          "internalType": "address",
          "name": "account",
          "type": "address"
        }
      ],
      "name": "grantRole",
      "outputs": [],
      "stateMutability": "nonpayable",
      "type": "function"
    },
    {
      "inputs": [
        {
          "internalType": "bytes32",
          "name": "role",
          "type": "bytes32"
        },
        {
          "internalType": "address",
          "name": "account",
          "type": "address"
        }
      ],
      "name": "hasRole",
      "outputs": [
        {
          "internalType": "bool",
          "name": "",
          "type": "bool"
        }
      ],
      "stateMutability": "view",
      "type": "function"
    },
    {
      "inputs": [
        {
          "internalType": "address",
          "name": "spender",
          "type": "address"
        },
        {
          "internalType": "uint256",
          "name": "addedValue",
          "type": "uint256"
        }
      ],
      "name": "increaseAllowance",
      "outputs": [
        {
          "internalType": "bool",
          "name": "",
          "type": "bool"
        }
      ],
      "stateMutability": "nonpayable",
      "type": "function"
    },
    {
      "inputs": [
        {
          "internalType": "address",
          "name": "layer2",
          "type": "address"
        }
      ],
      "name": "lastSnapShotIndex",
      "outputs": [
        {
          "internalType": "uint256",
          "name": "",
          "type": "uint256"
        }
      ],
      "stateMutability": "view",
      "type": "function"
    },
    {
      "inputs": [],
      "name": "layer2Lagistry",
      "outputs": [
        {
          "internalType": "address",
          "name": "",
          "type": "address"
        }
      ],
      "stateMutability": "view",
      "type": "function"
    },
    {
      "inputs": [],
      "name": "migratedL2",
      "outputs": [
        {
          "internalType": "bool",
          "name": "",
          "type": "bool"
        }
      ],
      "stateMutability": "view",
      "type": "function"
    },
    {
      "inputs": [],
      "name": "name",
      "outputs": [
        {
          "internalType": "string",
          "name": "",
          "type": "string"
        }
      ],
      "stateMutability": "view",
      "type": "function"
    },
    {
      "inputs": [],
      "name": "onSnapshotAggregator",
      "outputs": [
        {
          "internalType": "uint256",
          "name": "",
          "type": "uint256"
        }
      ],
      "stateMutability": "nonpayable",
      "type": "function"
    },
    {
      "inputs": [],
      "name": "pauseProxy",
      "outputs": [
        {
          "internalType": "bool",
          "name": "",
          "type": "bool"
        }
      ],
      "stateMutability": "view",
      "type": "function"
    },
    {
      "inputs": [
        {
          "internalType": "bytes32",
          "name": "role",
          "type": "bytes32"
        },
        {
          "internalType": "address",
          "name": "account",
          "type": "address"
        }
      ],
      "name": "renounceRole",
      "outputs": [],
      "stateMutability": "nonpayable",
      "type": "function"
    },
    {
      "inputs": [
        {
          "internalType": "bytes32",
          "name": "role",
          "type": "bytes32"
        },
        {
          "internalType": "address",
          "name": "account",
          "type": "address"
        }
      ],
      "name": "revokeRole",
      "outputs": [],
      "stateMutability": "nonpayable",
      "type": "function"
    },
    {
      "inputs": [],
      "name": "seigManager",
      "outputs": [
        {
          "internalType": "address",
          "name": "",
          "type": "address"
        }
      ],
      "stateMutability": "view",
      "type": "function"
    },
    {
      "inputs": [
        {
          "internalType": "address",
          "name": "_seigManager",
          "type": "address"
        },
        {
          "internalType": "address",
          "name": "_layer2Lagistry",
          "type": "address"
        }
      ],
      "name": "setAddress",
      "outputs": [],
      "stateMutability": "nonpayable",
      "type": "function"
    },
    {
      "inputs": [
        {
          "internalType": "address",
          "name": "layer2",
          "type": "address"
        }
      ],
      "name": "snapshot",
      "outputs": [
        {
          "internalType": "uint256",
          "name": "",
          "type": "uint256"
        }
      ],
      "stateMutability": "nonpayable",
      "type": "function"
    },
    {
      "inputs": [],
      "name": "snashotAggregatorTotal",
      "outputs": [
        {
          "internalType": "uint256",
          "name": "",
          "type": "uint256"
        }
      ],
      "stateMutability": "view",
      "type": "function"
    },
    {
      "inputs": [
        {
          "internalType": "address",
          "name": "account",
          "type": "address"
        },
        {
          "internalType": "uint256",
          "name": "snashotAggregatorId",
          "type": "uint256"
        }
      ],
      "name": "stakedAmountWithSnashotAggregator",
      "outputs": [
        {
          "internalType": "uint256",
          "name": "accountStaked",
          "type": "uint256"
        },
        {
          "internalType": "uint256",
          "name": "totalStaked",
          "type": "uint256"
        }
      ],
      "stateMutability": "view",
      "type": "function"
    },
    {
      "inputs": [
        {
          "internalType": "bytes4",
          "name": "interfaceId",
          "type": "bytes4"
        }
      ],
      "name": "supportsInterface",
      "outputs": [
        {
          "internalType": "bool",
          "name": "",
          "type": "bool"
        }
      ],
      "stateMutability": "view",
      "type": "function"
    },
    {
      "inputs": [],
      "name": "symbol",
      "outputs": [
        {
          "internalType": "string",
          "name": "",
          "type": "string"
        }
      ],
      "stateMutability": "view",
      "type": "function"
    },
    {
      "inputs": [
        {
          "internalType": "address",
          "name": "layer2",
          "type": "address"
        },
        {
          "internalType": "address",
          "name": "account",
          "type": "address"
        }
      ],
      "name": "sync",
      "outputs": [
        {
          "internalType": "uint256",
          "name": "",
          "type": "uint256"
        }
      ],
      "stateMutability": "nonpayable",
      "type": "function"
    },
    {
      "inputs": [
        {
          "internalType": "address",
          "name": "layer2",
          "type": "address"
        }
      ],
      "name": "sync",
      "outputs": [
        {
          "internalType": "uint256",
          "name": "",
          "type": "uint256"
        }
      ],
      "stateMutability": "nonpayable",
      "type": "function"
    },
    {
      "inputs": [
        {
          "internalType": "address",
          "name": "layer2",
          "type": "address"
        },
        {
          "internalType": "address[]",
          "name": "accounts",
          "type": "address[]"
        }
      ],
      "name": "syncBatch",
      "outputs": [
        {
          "internalType": "uint256",
          "name": "",
          "type": "uint256"
        }
      ],
      "stateMutability": "nonpayable",
      "type": "function"
    },
    {
      "inputs": [],
      "name": "totalSupply",
      "outputs": [
        {
          "internalType": "uint256",
          "name": "",
          "type": "uint256"
        }
      ],
      "stateMutability": "view",
      "type": "function"
    },
    {
      "inputs": [
        {
          "internalType": "address",
          "name": "layer2",
          "type": "address"
        }
      ],
      "name": "totalSupply",
      "outputs": [
        {
          "internalType": "uint256",
          "name": "",
          "type": "uint256"
        }
      ],
      "stateMutability": "view",
      "type": "function"
    },
    {
      "inputs": [
        {
          "internalType": "address",
          "name": "layer2",
          "type": "address"
        },
        {
          "internalType": "uint256",
          "name": "snapshotId",
          "type": "uint256"
        }
      ],
      "name": "totalSupplyAt",
      "outputs": [
        {
          "internalType": "uint256",
          "name": "",
          "type": "uint256"
        }
      ],
      "stateMutability": "view",
      "type": "function"
    },
    {
      "inputs": [
        {
          "internalType": "uint256",
          "name": "snashotAggregatorId",
          "type": "uint256"
        }
      ],
      "name": "totalSupplyWithSnashotAggregator",
      "outputs": [
        {
          "internalType": "uint256",
          "name": "totalStaked",
          "type": "uint256"
        }
      ],
      "stateMutability": "view",
      "type": "function"
    },
    {
      "inputs": [
        {
          "internalType": "address",
          "name": "recipient",
          "type": "address"
        },
        {
          "internalType": "uint256",
          "name": "amount",
          "type": "uint256"
        }
      ],
      "name": "transfer",
      "outputs": [
        {
          "internalType": "bool",
          "name": "",
          "type": "bool"
        }
      ],
      "stateMutability": "nonpayable",
      "type": "function"
    },
    {
      "inputs": [
        {
          "internalType": "address",
          "name": "sender",
          "type": "address"
        },
        {
          "internalType": "address",
          "name": "recipient",
          "type": "address"
        },
        {
          "internalType": "uint256",
          "name": "amount",
          "type": "uint256"
        }
      ],
      "name": "transferFrom",
      "outputs": [
        {
          "internalType": "bool",
          "name": "",
          "type": "bool"
        }
      ],
      "stateMutability": "nonpayable",
      "type": "function"
    }
  ],
  "bytecode": "0x60806040526b204fce5e3e25026110000000600155600280553480156200002557600080fd5b50604051620048093803806200480983398101604081905262000048916200031e565b81518290829062000061906010906020850190620001c5565b50805162000077906011906020840190620001c5565b50620000899150600090503362000115565b620000b57fa49807205ce4d355092ef5a8a18f56e8913cf4a201fbe287825b095693c217753362000115565b620000e17f3ee192ac25847473237ced4bba57f848e1fd794930ff85b428232905809672053362000115565b6200010d7f5fdbd35e8da83ee755d5e62a539e5ed7f47126abede0b8b10f9ea43dc6eed07f3362000115565b5050620003d8565b62000121828262000125565b5050565b6000828152602081815260408083206001600160a01b038516845290915290205460ff1662000121576000828152602081815260408083206001600160a01b03851684529091529020805460ff19166001179055620001813390565b6001600160a01b0316816001600160a01b0316837f2f8788117e7eff1d82e926ec794901d17c78024a50270940304540a733656f0d60405160405180910390a45050565b828054620001d39062000385565b90600052602060002090601f016020900481019282620001f7576000855562000242565b82601f106200021257805160ff191683800117855562000242565b8280016001018555821562000242579182015b828111156200024257825182559160200191906001019062000225565b506200025092915062000254565b5090565b5b8082111562000250576000815560010162000255565b600082601f8301126200027c578081fd5b81516001600160401b0380821115620002995762000299620003c2565b604051601f8301601f19908116603f01168101908282118183101715620002c457620002c4620003c2565b81604052838152602092508683858801011115620002e0578485fd5b8491505b83821015620003035785820183015181830184015290820190620002e4565b838211156200031457848385830101525b9695505050505050565b6000806040838503121562000331578182fd5b82516001600160401b038082111562000348578384fd5b62000356868387016200026b565b935060208501519150808211156200036c578283fd5b506200037b858286016200026b565b9150509250929050565b600181811c908216806200039a57607f821691505b60208210811415620003bc57634e487b7160e01b600052602260045260246000fd5b50919050565b634e487b7160e01b600052604160045260246000fd5b61442180620003e86000396000f3fe608060405234801561001057600080fd5b50600436106102df5760003560e01c80636fb7f55811610188578063a9059cbb116100e4578063d547741f11610092578063d547741f146106f2578063dd62ed3e14610705578063e35e815614610713578063e4dc2aa414610726578063ec477a9014610739578063f59e8bb91461074c578063f7888aec1461075457600080fd5b8063a9059cbb146103b2578063ac16cd2314610694578063addf9090146106a7578063b7c246d7146106b0578063bc5f8789146106b9578063bfe64c66146106cc578063d0e0707b146106df57600080fd5b806391d148541161014157806391d148541461063957806395d89b411461064c5780639bf9daee14610654578063a1f5f50e14610667578063a217fddf14610679578063a457c2d7146103b2578063a58411941461068157600080fd5b80636fb7f558146105825780637028e2cd1461059557806370a08231146105aa57806373ba6988146105bd57806375b238fc146105ff57806382799e371461062657600080fd5b8063265121601161024257806336568abe116101f057806336568abe1461052157806339509351146103b25780633b58524d14610534578063407faa961461054757806363a8fd891461055a578063673f7b64146105675780636ec0b7f21461056f57600080fd5b806326512160146104895780632bd1f9481461049c5780632d119773146104af5780632f2ff15d146104d75780632f5eddcb146104ec5780633041949b146104ff578063313ce5671461051257600080fd5b8063095ea7b31161029f578063095ea7b3146103b25780630d55c7ac146103c857806318160ddd146104185780631e3a0ddd146104205780632026288b1461043357806323b872dd14610453578063248a9ca31461046657600080fd5b8062497846146102e4578062d87a9c1461031e578062f08e461461032757806301ffc9a714610347578063043cd82f1461036a57806306fdde031461039d575b600080fd5b61030b7f3ee192ac25847473237ced4bba57f848e1fd794930ff85b4282329058096720581565b6040519081526020015b60405180910390f35b61030b60025481565b61030b610335366004613e8b565b60086020526000908152604090205481565b61035a61035536600461406b565b610767565b6040519015158152602001610315565b61037d610378366004613ec3565b61079e565b604080519485526020850193909352918301526060820152608001610315565b6103a5610971565b60405161031591906141fb565b61035a6103c0366004614004565b600092915050565b6103db6103d6366004613ec3565b610a03565b6040805198151589526020890197909752958701949094526060860192909252608085015260a084015260c083015260e082015261010001610315565b61030b610c52565b61030b61042e366004613e8b565b610e24565b600454610446906001600160a01b031681565b60405161031591906141e7565b61035a610461366004613efb565b610e3f565b61030b61047436600461402f565b60009081526020819052604090206001015490565b61030b610497366004613e8b565b610e49565b61030b6104aa366004613f3b565b610e76565b6104c26104bd366004614004565b611259565b60408051928352602083019190915201610315565b6104ea6104e5366004614047565b61144a565b005b6103db6104fa366004613e8b565b611475565b61030b61050d366004613ec3565b611679565b60405160128152602001610315565b6104ea61052f366004614047565b611a1b565b6104ea610542366004613ec3565b611a99565b61037d610555366004614106565b611b4e565b600c5461035a9060ff1681565b61030b611ea9565b61030b61057d366004613e8b565b612101565b600354610446906001600160a01b031681565b61030b6000805160206143cc83398151915281565b61030b6105b8366004613e8b565b612349565b6105d06105cb366004613e8b565b61251d565b6040805196151587526020870195909552938501929092526060840152608083015260a082015260c001610315565b61030b7fa49807205ce4d355092ef5a8a18f56e8913cf4a201fbe287825b095693c2177581565b61030b610634366004614004565b612757565b61035a610647366004614047565b6127dd565b6103a5612806565b61030b610662366004614004565b612815565b600c5461035a90610100900460ff1681565b61030b600081565b61030b61068f366004613e8b565b612985565b61030b6106a2366004614147565b612c20565b61030b600b5481565b61030b60015481565b61037d6106c7366004613e8b565b612c73565b61030b6106da366004613efb565b612e27565b61030b6106ed366004613e8b565b612eae565b6104ea610700366004614047565b612ef8565b61030b6103c0366004613ec3565b61030b61072136600461402f565b612f1e565b61030b610734366004613e8b565b61305d565b61037d610747366004614106565b61306c565b61030b6131ba565b61030b610762366004613ec3565b6133f5565b60006001600160e01b03198216637965db0b60e01b148061079857506301ffc9a760e01b6001600160e01b03198316145b92915050565b600354604051634c063c1960e01b815260009182918291829182916001600160a01b031690634c063c19906107d7908a906004016141e7565b60206040518083038186803b1580156107ef57600080fd5b505afa158015610803573d6000803e3d6000fd5b505050506040513d601f19601f820116820180604052508101906108279190613ea7565b90506001600160a01b0381166108585760405162461bcd60e51b815260040161084f9061422e565b60405180910390fd5b6040516370a0823160e01b81526001600160a01b038216906370a08231906108849089906004016141e7565b60206040518083038186803b15801561089c57600080fd5b505afa1580156108b0573d6000803e3d6000fd5b505050506040513d601f19601f820116820180604052508101906108d491906140ee565b94506000816001600160a01b03166327e235e3886040518263ffffffff1660e01b815260040161090491906141e7565b60606040518083038186803b15801561091c57600080fd5b505afa158015610930573d6000803e3d6000fd5b505050506040513d601f19601f820116820180604052508101906109549190614093565b80516020820151604090920151979a909950909750945050505050565b60606010805461098090614337565b80601f01602080910402602001604051908101604052809291908181526020018280546109ac90614337565b80156109f95780601f106109ce576101008083540402835291602001916109f9565b820191906000526020600020905b8154815290600101906020018083116109dc57829003601f168201915b5050505050905090565b600354604051634c063c1960e01b8152600091829182918291829182918291829182916001600160a01b031690634c063c1990610a44908e906004016141e7565b60206040518083038186803b158015610a5c57600080fd5b505afa158015610a70573d6000803e3d6000fd5b505050506040513d601f19601f82011682018060405250810190610a949190613ea7565b90506001600160a01b038116610abc5760405162461bcd60e51b815260040161084f9061422e565b6040516370a0823160e01b81526001600160a01b038216906370a0823190610ae8908d906004016141e7565b60206040518083038186803b158015610b0057600080fd5b505afa158015610b14573d6000803e3d6000fd5b505050506040513d601f19601f82011682018060405250810190610b3891906140ee565b94506000816001600160a01b03166327e235e38c6040518263ffffffff1660e01b8152600401610b6891906141e7565b60606040518083038186803b158015610b8057600080fd5b505afa158015610b94573d6000803e3d6000fd5b505050506040513d601f19601f82011682018060405250810190610bb89190614093565b8051602082015160408301519197509550935090506000610bd88d610e24565b90506000600560008f6001600160a01b03166001600160a01b0316815260200190815260200160002060008e6001600160a01b03166001600160a01b031681526020019081526020016000209050610c318e8383613405565b809c50819d50829e50839f5050505050505050509295985092959890939650565b6004805460408051630d42d49760e01b8152905160009384936001600160a01b031692630d42d4979281830192602092829003018186803b158015610c9657600080fd5b505afa158015610caa573d6000803e3d6000fd5b505050506040513d601f19601f82011682018060405250810190610cce91906140ee565b90506000805b82811015610e1d576004805460405163b7ffb17960e01b81529182018390526000916001600160a01b039091169063b7ffb1799060240160206040518083038186803b158015610d2357600080fd5b505afa158015610d37573d6000803e3d6000fd5b505050506040513d601f19601f82011682018060405250810190610d5b9190613ea7565b600354604051634c063c1960e01b81529192506000916001600160a01b0390911690634c063c1990610d919085906004016141e7565b60206040518083038186803b158015610da957600080fd5b505afa158015610dbd573d6000803e3d6000fd5b505050506040513d601f19601f82011682018060405250810190610de19190613ea7565b90506001600160a01b03811615610e0857610dfb8261305d565b610e059085614286565b93505b50508080610e159061436c565b915050610cd4565b5092915050565b6001600160a01b031660009081526008602052604090205490565b60005b9392505050565b60006000805160206143cc833981519152610e648133613592565b610e6d836135f6565b91505b50919050565b600354604051634c063c1960e01b815260009182916001600160a01b0390911690634c063c1990610eab9087906004016141e7565b60206040518083038186803b158015610ec357600080fd5b505afa158015610ed7573d6000803e3d6000fd5b505050506040513d601f19601f82011682018060405250810190610efb9190613ea7565b90506001600160a01b038116610f235760405162461bcd60e51b815260040161084f9061422e565b6000835111610f645760405162461bcd60e51b815260206004820152600d60248201526c7a65726f206163636f756e747360981b604482015260640161084f565b6000610f6f856135f6565b905060005b8451811015611075576000836001600160a01b03166327e235e3878481518110610fae57634e487b7160e01b600052603260045260246000fd5b60200260200101516040518263ffffffff1660e01b8152600401610fd291906141e7565b60606040518083038186803b158015610fea57600080fd5b505afa158015610ffe573d6000803e3d6000fd5b505050506040513d601f19601f820116820180604052508101906110229190614093565b90506110648787848151811061104857634e487b7160e01b600052603260045260246000fd5b60200260200101518360000151846020015185604001516136a1565b5061106e8161436c565b9050610f74565b506000826001600160a01b0316633eaaf86b6040518163ffffffff1660e01b815260040160606040518083038186803b1580156110b157600080fd5b505afa1580156110c5573d6000803e3d6000fd5b505050506040513d601f19601f820116820180604052508101906110e99190614093565b90506000816000015190506000826020015190506000836040015190506000866001600160a01b0316636d1506116040518163ffffffff1660e01b815260040160206040518083038186803b15801561114157600080fd5b505afa158015611155573d6000803e3d6000fd5b505050506040513d601f19601f8201168201806040525081019061117991906140ee565b90506000876001600160a01b031663a7ac30b06040518163ffffffff1660e01b815260040160206040518083038186803b1580156111b657600080fd5b505afa1580156111ca573d6000803e3d6000fd5b505050506040513d601f19601f820116820180604052508101906111ee91906140ee565b90506111fc8b8686866136db565b6112078b8383613707565b8a6001600160a01b03167f55c675196fb2f6a62aefac4a6cd8dce7b495b583a899d94e3d8943d1412979938860405161124291815260200190565b60405180910390a250949998505050505050505050565b600b5460009081908311611443576000838152600a602090815260408083208151815460609481028201850184529281018381529093919284928491908401828280156112cf57602002820191906000526020600020905b81546001600160a01b031681526001909101906020018083116112b1575b505050505081526020016001820180548060200260200160405190810160405280929190818152602001828054801561132757602002820191906000526020600020905b815481526020019060010190808311611313575b50505091909252505081515191925050611348576000809250925050611443565b60005b815151811015611440576113b68260000151828151811061137c57634e487b7160e01b600052603260045260246000fd5b602002602001015187846020015184815181106113a957634e487b7160e01b600052603260045260246000fd5b6020026020010151612e27565b6113c09085614286565b9350611422826000015182815181106113e957634e487b7160e01b600052603260045260246000fd5b60200260200101518360200151838151811061141557634e487b7160e01b600052603260045260246000fd5b6020026020010151612757565b61142c9084614286565b9250806114388161436c565b91505061134b565b50505b9250929050565b6000828152602081905260409020600101546114668133613592565b611470838361372c565b505050565b600354604051634c063c1960e01b8152600091829182918291829182918291829182916001600160a01b031690634c063c19906114b6908d906004016141e7565b60206040518083038186803b1580156114ce57600080fd5b505afa1580156114e2573d6000803e3d6000fd5b505050506040513d601f19601f820116820180604052508101906115069190613ea7565b90506001600160a01b03811661152e5760405162461bcd60e51b815260040161084f9061422e565b806001600160a01b03166318160ddd6040518163ffffffff1660e01b815260040160206040518083038186803b15801561156757600080fd5b505afa15801561157b573d6000803e3d6000fd5b505050506040513d601f19601f8201168201806040525081019061159f91906140ee565b94506000816001600160a01b0316633eaaf86b6040518163ffffffff1660e01b815260040160606040518083038186803b1580156115dc57600080fd5b505afa1580156115f0573d6000803e3d6000fd5b505050506040513d601f19601f820116820180604052508101906116149190614093565b80516020820151604083015191975095509350905060006116348c610e24565b6001600160a01b038d16600090815260066020526040902090915061165a8d8383613405565b809c50819d50829e50839f505050505050505050919395975091939597565b600354604051634c063c1960e01b815260009182916001600160a01b0390911690634c063c19906116ae9087906004016141e7565b60206040518083038186803b1580156116c657600080fd5b505afa1580156116da573d6000803e3d6000fd5b505050506040513d601f19601f820116820180604052508101906116fe9190613ea7565b90506001600160a01b0381166117265760405162461bcd60e51b815260040161084f9061422e565b6001600160a01b03831661176b5760405162461bcd60e51b815260206004820152600c60248201526b1e995c9bc81858d8dbdd5b9d60a21b604482015260640161084f565b6040516327e235e360e01b81526000906001600160a01b038316906327e235e39061179a9087906004016141e7565b60606040518083038186803b1580156117b257600080fd5b505afa1580156117c6573d6000803e3d6000fd5b505050506040513d601f19601f820116820180604052508101906117ea9190614093565b90506000816000015190506000826020015190506000836040015190506000856001600160a01b0316633eaaf86b6040518163ffffffff1660e01b815260040160606040518083038186803b15801561184257600080fd5b505afa158015611856573d6000803e3d6000fd5b505050506040513d601f19601f8201168201806040525081019061187a9190614093565b90506000816000015190506000826020015190506000836040015190506000896001600160a01b0316636d1506116040518163ffffffff1660e01b815260040160206040518083038186803b1580156118d257600080fd5b505afa1580156118e6573d6000803e3d6000fd5b505050506040513d601f19601f8201168201806040525081019061190a91906140ee565b905060008a6001600160a01b031663a7ac30b06040518163ffffffff1660e01b815260040160206040518083038186803b15801561194757600080fd5b505afa15801561195b573d6000803e3d6000fd5b505050506040513d601f19601f8201168201806040525081019061197f91906140ee565b9050600061198c8f6135f6565b905061199b8f8f8c8c8c6136a1565b6119a78f8787876136db565b6119b28f8484613707565b8e6001600160a01b03167feaf565aec332d7cd567bfa2b743a7bdace638ac19ef7900d4c4d103a95be5beb8f83604051611a019291906001600160a01b03929092168252602082015260400190565b60405180910390a29e9d5050505050505050505050505050565b6001600160a01b0381163314611a8b5760405162461bcd60e51b815260206004820152602f60248201527f416363657373436f6e74726f6c3a2063616e206f6e6c792072656e6f756e636560448201526e103937b632b9903337b91039b2b63360891b606482015260840161084f565b611a9582826137b0565b5050565b7fa49807205ce4d355092ef5a8a18f56e8913cf4a201fbe287825b095693c21775611ac48133613592565b6001600160a01b03831615801590611ae457506001600160a01b03821615155b611b1f5760405162461bcd60e51b815260206004820152600c60248201526b7a65726f206164647265737360a01b604482015260640161084f565b50600380546001600160a01b039384166001600160a01b03199182161790915560048054929093169116179055565b6001600160a01b03808316600090815260056020908152604080832093851683529281528282208351815460a0938102820184019095526080810185815293948594859485948594939092849290918491840182828015611bce57602002820191906000526020600020905b815481526020019060010190808311611bba575b5050505050815260200160018201805480602002602001604051908101604052809291908181526020018280548015611c2657602002820191906000526020600020905b815481526020019060010190808311611c12575b5050505050815260200160028201805480602002602001604051908101604052809291908181526020018280548015611c7e57602002820191906000526020600020905b815481526020019060010190808311611c6a575b5050505050815260200160038201805480602002602001604051908101604052809291908181526020018280548015611cd657602002820191906000526020600020905b815481526020019060010190808311611cc2575b50505050508152505090508060000151518810611de85780518051611cfd906001906142dd565b81518110611d1b57634e487b7160e01b600052603260045260246000fd5b602002602001015181602001516001836000015151611d3a91906142dd565b81518110611d5857634e487b7160e01b600052603260045260246000fd5b602002602001015182604001516001846000015151611d7791906142dd565b81518110611d9557634e487b7160e01b600052603260045260246000fd5b602002602001015183606001516001856000015151611db491906142dd565b81518110611dd257634e487b7160e01b600052603260045260246000fd5b6020026020010151945094509450945050611ea0565b8051805189908110611e0a57634e487b7160e01b600052603260045260246000fd5b602002602001015181602001518981518110611e3657634e487b7160e01b600052603260045260246000fd5b602002602001015182604001518a81518110611e6257634e487b7160e01b600052603260045260246000fd5b602002602001015183606001518b81518110611e8e57634e487b7160e01b600052603260045260246000fd5b60200260200101519450945094509450505b93509350935093565b60006000805160206143cc833981519152611ec48133613592565b600b8054906000611ed48361436c565b91905055506000600460009054906101000a90046001600160a01b03166001600160a01b0316630d42d4976040518163ffffffff1660e01b815260040160206040518083038186803b158015611f2957600080fd5b505afa158015611f3d573d6000803e3d6000fd5b505050506040513d601f19601f82011682018060405250810190611f6191906140ee565b905060005b818110156120f6576004805460405163b7ffb17960e01b81529182018390526000916001600160a01b039091169063b7ffb1799060240160206040518083038186803b158015611fb557600080fd5b505afa158015611fc9573d6000803e3d6000fd5b505050506040513d601f19601f82011682018060405250810190611fed9190613ea7565b600354604051634c063c1960e01b81529192506000916001600160a01b0390911690634c063c19906120239085906004016141e7565b60206040518083038186803b15801561203b57600080fd5b505afa15801561204f573d6000803e3d6000fd5b505050506040513d601f19601f820116820180604052508101906120739190613ea7565b6001600160a01b0316146120e357600b546000908152600a6020908152604082208054600180820183558285529290932090920180546001600160a01b0319166001600160a01b03851617905581016120cb83610e24565b81546001810183556000928352602090922090910155505b50806120ee8161436c565b915050611f66565b50600b549250505090565b6004805460408051630d42d49760e01b8152905160009384936001600160a01b031692630d42d4979281830192602092829003018186803b15801561214557600080fd5b505afa158015612159573d6000803e3d6000fd5b505050506040513d601f19601f8201168201806040525081019061217d91906140ee565b90506000915060005b81811015612342576004805460405163b7ffb17960e01b81529182018390526000916001600160a01b039091169063b7ffb1799060240160206040518083038186803b1580156121d557600080fd5b505afa1580156121e9573d6000803e3d6000fd5b505050506040513d601f19601f8201168201806040525081019061220d9190613ea7565b600354604051634c063c1960e01b81529192506000916001600160a01b0390911690634c063c19906122439085906004016141e7565b60206040518083038186803b15801561225b57600080fd5b505afa15801561226f573d6000803e3d6000fd5b505050506040513d601f19601f820116820180604052508101906122939190613ea7565b90506001600160a01b0381161561232d576040516370a0823160e01b81526001600160a01b038216906370a08231906122d09089906004016141e7565b60206040518083038186803b1580156122e857600080fd5b505afa1580156122fc573d6000803e3d6000fd5b505050506040513d601f19601f8201168201806040525081019061232091906140ee565b61232a9086614286565b94505b5050808061233a9061436c565b915050612186565b5050919050565b6004805460408051630d42d49760e01b8152905160009384936001600160a01b031692630d42d4979281830192602092829003018186803b15801561238d57600080fd5b505afa1580156123a1573d6000803e3d6000fd5b505050506040513d601f19601f820116820180604052508101906123c591906140ee565b90506000805b82811015612515576004805460405163b7ffb17960e01b81529182018390526000916001600160a01b039091169063b7ffb1799060240160206040518083038186803b15801561241a57600080fd5b505afa15801561242e573d6000803e3d6000fd5b505050506040513d601f19601f820116820180604052508101906124529190613ea7565b600354604051634c063c1960e01b81529192506000916001600160a01b0390911690634c063c19906124889085906004016141e7565b60206040518083038186803b1580156124a057600080fd5b505afa1580156124b4573d6000803e3d6000fd5b505050506040513d601f19601f820116820180604052508101906124d89190613ea7565b90506001600160a01b03811615612500576124f382886133f5565b6124fd9085614286565b93505b5050808061250d9061436c565b9150506123cb565b509392505050565b600354604051634c063c1960e01b81526000918291829182918291829182916001600160a01b031690634c063c199061255a908b906004016141e7565b60206040518083038186803b15801561257257600080fd5b505afa158015612586573d6000803e3d6000fd5b505050506040513d601f19601f820116820180604052508101906125aa9190613ea7565b90506001600160a01b0381166125d25760405162461bcd60e51b815260040161084f9061422e565b806001600160a01b03166354f703f86040518163ffffffff1660e01b815260040160206040518083038186803b15801561260b57600080fd5b505afa15801561261f573d6000803e3d6000fd5b505050506040513d601f19601f8201168201806040525081019061264391906140ee565b9350806001600160a01b0316636d1506116040518163ffffffff1660e01b815260040160206040518083038186803b15801561267e57600080fd5b505afa158015612692573d6000803e3d6000fd5b505050506040513d601f19601f820116820180604052508101906126b691906140ee565b9250806001600160a01b031663a7ac30b06040518163ffffffff1660e01b815260040160206040518083038186803b1580156126f157600080fd5b505afa158015612705573d6000803e3d6000fd5b505050506040513d601f19601f8201168201806040525081019061272991906140ee565b9150600061273689610e24565b90506127428982613815565b919b909a509098509496509294509092915050565b600081156127d55760008060008061276f87876138f6565b935093509350935060008060006127868a8a613815565b9250925092508680156127965750825b156127c55760006127a987878585612c20565b90506127b58582614286565b9850610798975050505050505050565b6000975050505050505050610798565b506000610798565b6000918252602082815260408084206001600160a01b0393909316845291905290205460ff1690565b60606011805461098090614337565b6000600b548211610798576000828152600a6020908152604080832081518154606094810282018501845292810183815290939192849284919084018282801561288857602002820191906000526020600020905b81546001600160a01b0316815260019091019060200180831161286a575b50505050508152602001600182018054806020026020016040519081016040528092919081815260200182805480156128e057602002820191906000526020600020905b8154815260200190600101908083116128cc575b505050919092525050815151919250506128fe576000915050610798565b60005b81515181101561297d5761295f8260000151828151811061293257634e487b7160e01b600052603260045260246000fd5b602002602001015186846020015184815181106113a957634e487b7160e01b600052603260045260246000fd5b6129699084614286565b9250806129758161436c565b915050612901565b505092915050565b600354604051634c063c1960e01b815260009182916001600160a01b0390911690634c063c19906129ba9086906004016141e7565b60206040518083038186803b1580156129d257600080fd5b505afa1580156129e6573d6000803e3d6000fd5b505050506040513d601f19601f82011682018060405250810190612a0a9190613ea7565b90506001600160a01b038116612a325760405162461bcd60e51b815260040161084f9061422e565b6000816001600160a01b0316633eaaf86b6040518163ffffffff1660e01b815260040160606040518083038186803b158015612a6d57600080fd5b505afa158015612a81573d6000803e3d6000fd5b505050506040513d601f19601f82011682018060405250810190612aa59190614093565b90506000816000015190506000826020015190506000836040015190506000856001600160a01b0316636d1506116040518163ffffffff1660e01b815260040160206040518083038186803b158015612afd57600080fd5b505afa158015612b11573d6000803e3d6000fd5b505050506040513d601f19601f82011682018060405250810190612b3591906140ee565b90506000866001600160a01b031663a7ac30b06040518163ffffffff1660e01b815260040160206040518083038186803b158015612b7257600080fd5b505afa158015612b86573d6000803e3d6000fd5b505050506040513d601f19601f82011682018060405250810190612baa91906140ee565b90506000612bb78a6135f6565b9050612bc58a8787876136db565b612bd08a8484613707565b896001600160a01b03167f32a9d63c5300e91cc9c633e57c9a98fdaa33b189311e7cbe14859ad9958ecd1582604051612c0b91815260200190565b60405180910390a29998505050505050505050565b600084612c2f57506000612c6b565b612c398584613945565b9450835b82811015612c6657600254612c5290876142be565b955080612c5e8161436c565b915050612c3d565b508490505b949350505050565b600354604051634c063c1960e01b815260009182918291829182916001600160a01b031690634c063c1990612cac9089906004016141e7565b60206040518083038186803b158015612cc457600080fd5b505afa158015612cd8573d6000803e3d6000fd5b505050506040513d601f19601f82011682018060405250810190612cfc9190613ea7565b90506001600160a01b038116612d245760405162461bcd60e51b815260040161084f9061422e565b806001600160a01b03166318160ddd6040518163ffffffff1660e01b815260040160206040518083038186803b158015612d5d57600080fd5b505afa158015612d71573d6000803e3d6000fd5b505050506040513d601f19601f82011682018060405250810190612d9591906140ee565b94506000816001600160a01b0316633eaaf86b6040518163ffffffff1660e01b815260040160606040518083038186803b158015612dd257600080fd5b505afa158015612de6573d6000803e3d6000fd5b505050506040513d601f19601f82011682018060405250810190612e0a9190614093565b805160208201516040909201519799909850909695509350505050565b60008115612ea657600080600080612e40888888613968565b93509350935093506000806000612e578b8a613815565b925092509250868015612e675750825b15612e96576000612e7a87878585612c20565b9050612e868582614286565b9850610e42975050505050505050565b6000975050505050505050610e42565b506000610e42565b6001600160a01b038116600090815260066020526040812054612ed357506000919050565b6001600160a01b038216600090815260066020526040902054610798906001906142dd565b600082815260208190526040902060010154612f148133613592565b61147083836137b0565b6000600b548211613058576000828152600a60209081526040808320815181546060948102820185018452928101838152909391928492849190840182828015612f9157602002820191906000526020600020905b81546001600160a01b03168152600190910190602001808311612f73575b5050505050815260200160018201805480602002602001604051908101604052809291908181526020018280548015612fe957602002820191906000526020600020905b815481526020019060010190808311612fd5575b505050919092525050815151919250506130065750600092915050565b60005b8151518110156123425761303a826000015182815181106113e957634e487b7160e01b600052603260045260246000fd5b6130449084614286565b9250806130508161436c565b915050613009565b919050565b60006107988261063484610e24565b6001600160a01b03808316600090815260056020908152604080832093851683529290529081208054829182918291906130b457600080600080945094509450945050611ea0565b6000881180156130cc57506130c887610e24565b8811155b156131a65760006130dd828a6139db565b905081600001818154811061310257634e487b7160e01b600052603260045260246000fd5b906000526020600020015482600101828154811061313057634e487b7160e01b600052603260045260246000fd5b906000526020600020015483600201838154811061315e57634e487b7160e01b600052603260045260246000fd5b906000526020600020015484600301848154811061318c57634e487b7160e01b600052603260045260246000fd5b906000526020600020015495509550955095505050611ea0565b600080600080945094509450945050611ea0565b6004805460408051630d42d49760e01b8152905160009384936001600160a01b031692630d42d4979281830192602092829003018186803b1580156131fe57600080fd5b505afa158015613212573d6000803e3d6000fd5b505050506040513d601f19601f8201168201806040525081019061323691906140ee565b90506000915060005b818110156133f0576004805460405163b7ffb17960e01b81529182018390526000916001600160a01b039091169063b7ffb1799060240160206040518083038186803b15801561328e57600080fd5b505afa1580156132a2573d6000803e3d6000fd5b505050506040513d601f19601f820116820180604052508101906132c69190613ea7565b600354604051634c063c1960e01b81529192506000916001600160a01b0390911690634c063c19906132fc9085906004016141e7565b60206040518083038186803b15801561331457600080fd5b505afa158015613328573d6000803e3d6000fd5b505050506040513d601f19601f8201168201806040525081019061334c9190613ea7565b90506001600160a01b038116156133db57806001600160a01b03166318160ddd6040518163ffffffff1660e01b815260040160206040518083038186803b15801561339657600080fd5b505afa1580156133aa573d6000803e3d6000fd5b505050506040513d601f19601f820116820180604052508101906133ce91906140ee565b6133d89086614286565b94505b505080806133e89061436c565b91505061323f565b505090565b6000610e4283836106da86610e24565b600080600080600086118015613423575061341f87610e24565b8611155b1561358157600061343486886139db565b86549091508114156135005780156131a657600186810161345582846142dd565b8154811061347357634e487b7160e01b600052603260045260246000fd5b90600052602060002001548760020160018461348f91906142dd565b815481106134ad57634e487b7160e01b600052603260045260246000fd5b9060005260206000200154886003016001856134c991906142dd565b815481106134e757634e487b7160e01b600052603260045260246000fd5b9060005260206000200154945094509450945050611ea0565b600186600101828154811061352557634e487b7160e01b600052603260045260246000fd5b906000526020600020015487600201838154811061355357634e487b7160e01b600052603260045260246000fd5b90600052602060002001548860030184815481106134e757634e487b7160e01b600052603260045260246000fd5b506000925082915081905080611ea0565b61359c82826127dd565b611a95576135b4816001600160a01b03166014613b0b565b6135bf836020613b0b565b6040516020016135d0929190614178565b60408051601f198184030181529082905262461bcd60e51b825261084f916004016141fb565b6001600160a01b03811660009081526008602052604081208054908261361b8361436c565b90915550506001600160a01b038216600090815260096020908152604080832060088352818420548452909152812043905561365683610e24565b9050826001600160a01b03167f9140ca8dada2f5d654a9719f873254e8caca2580b6b78d4944151727d6207bb18260405161369391815260200190565b60405180910390a292915050565b6001600160a01b0380861660009081526005602090815260408083209388168352929052206136d4908690858585613ced565b5050505050565b6001600160a01b0384166000908152600660205260409020613701908590858585613ced565b50505050565b6001600160a01b03831660009081526007602052604090206114709084908484613d70565b61373682826127dd565b611a95576000828152602081815260408083206001600160a01b03851684529091529020805460ff1916600117905561376c3390565b6001600160a01b0316816001600160a01b0316837f2f8788117e7eff1d82e926ec794901d17c78024a50270940304540a733656f0d60405160405180910390a45050565b6137ba82826127dd565b15611a95576000828152602081815260408083206001600160a01b0385168085529252808320805460ff1916905551339285917ff6391f5c32d9c69d2a47ea670b442974b53935d1edc7fd64eb21e047a839171b9190a45050565b6001600160a01b0382166000908152600760205260408120819081908415801590613848575061384486610e24565b8511155b156138e257600061385982876139db565b825490915081141561387757600080600094509450945050506138ef565b600182600101828154811061389c57634e487b7160e01b600052603260045260246000fd5b90600052602060002001548360020183815481106138ca57634e487b7160e01b600052603260045260246000fd5b906000526020600020015494509450945050506138ef565b6000806000935093509350505b9250925092565b6000806000806000806000806139318a8a600660008e6001600160a01b03166001600160a01b03168152602001908152602001600020613405565b929d919c509a509098509650505050505050565b60006b033b2e3c9fd0803ce800000061395e8484613dd3565b610e42919061429e565b6000806000806000806000806139c68b8a600560008f6001600160a01b03166001600160a01b0316815260200190815260200160002060008e6001600160a01b03166001600160a01b03168152602001908152602001600020613405565b929e919d509b50909950975050505050505050565b81546000906139ec57506000610798565b825483906139fc906001906142dd565b81548110613a1a57634e487b7160e01b600052603260045260246000fd5b90600052602060002001548210613a40578254613a39906001906142dd565b9050610798565b82600081548110613a6157634e487b7160e01b600052603260045260246000fd5b9060005260206000200154821015613a7b57506000610798565b82546000908190613a8e906001906142dd565b90505b818111156125155760006002613aa78484614286565b613ab2906001614286565b613abc919061429e565b905084868281548110613adf57634e487b7160e01b600052603260045260246000fd5b906000526020600020015411613af757809250613b05565b613b026001826142dd565b91505b50613a91565b60606000613b1a8360026142be565b613b25906002614286565b67ffffffffffffffff811115613b4b57634e487b7160e01b600052604160045260246000fd5b6040519080825280601f01601f191660200182016040528015613b75576020820181803683370190505b509050600360fc1b81600081518110613b9e57634e487b7160e01b600052603260045260246000fd5b60200101906001600160f81b031916908160001a905350600f60fb1b81600181518110613bdb57634e487b7160e01b600052603260045260246000fd5b60200101906001600160f81b031916908160001a9053506000613bff8460026142be565b613c0a906001614286565b90505b6001811115613c9e576f181899199a1a9b1b9c1cb0b131b232b360811b85600f1660108110613c4c57634e487b7160e01b600052603260045260246000fd5b1a60f81b828281518110613c7057634e487b7160e01b600052603260045260246000fd5b60200101906001600160f81b031916908160001a90535060049490941c93613c9781614320565b9050613c0d565b508315610e425760405162461bcd60e51b815260206004820181905260248201527f537472696e67733a20686578206c656e67746820696e73756666696369656e74604482015260640161084f565b6000613cf886610e24565b90506000613d0586613e3a565b905081811015613d67578554600181810188556000888152602080822090930185905581890180548084018255908252838220018890556002890180548084018255908252838220018790556003890180549283018155815291909120018390555b50505050505050565b6000613d7b85610e24565b905080613d8785613e3a565b10156136d4578354600180820186556000868152602080822090930193909355808601805480830182559084528284200194909455600290940180549384018155815292909220015550565b6000811580613df757508282613de981836142be565b9250613df5908361429e565b145b6107985760405162461bcd60e51b815260206004820152601460248201527364732d6d6174682d6d756c2d6f766572666c6f7760601b604482015260640161084f565b8054600090613e4b57506000919050565b81548290613e5b906001906142dd565b81548110613e7957634e487b7160e01b600052603260045260246000fd5b90600052602060002001549050919050565b600060208284031215613e9c578081fd5b8135610e42816143b3565b600060208284031215613eb8578081fd5b8151610e42816143b3565b60008060408385031215613ed5578081fd5b8235613ee0816143b3565b91506020830135613ef0816143b3565b809150509250929050565b600080600060608486031215613f0f578081fd5b8335613f1a816143b3565b92506020840135613f2a816143b3565b929592945050506040919091013590565b60008060408385031215613f4d578182fd5b8235613f58816143b3565b915060208381013567ffffffffffffffff80821115613f75578384fd5b818601915086601f830112613f88578384fd5b813581811115613f9a57613f9a61439d565b8060051b9150613fab848301614255565b8181528481019084860184860187018b1015613fc5578788fd5b8795505b83861015613ff35780359450613fde856143b3565b84835260019590950194918601918601613fc9565b508096505050505050509250929050565b60008060408385031215614016578182fd5b8235614021816143b3565b946020939093013593505050565b600060208284031215614040578081fd5b5035919050565b60008060408385031215614059578182fd5b823591506020830135613ef0816143b3565b60006020828403121561407c578081fd5b81356001600160e01b031981168114610e42578182fd5b6000606082840312156140a4578081fd5b6040516060810181811067ffffffffffffffff821117156140c7576140c761439d565b80604052508251815260208301516020820152604083015160408201528091505092915050565b6000602082840312156140ff578081fd5b5051919050565b60008060006060848603121561411a578283fd5b83359250602084013561412c816143b3565b9150604084013561413c816143b3565b809150509250925092565b6000806000806080858703121561415c578081fd5b5050823594602084013594506040840135936060013592509050565b76020b1b1b2b9b9a1b7b73a3937b61d1030b1b1b7bab73a1604d1b8152600083516141aa8160178501602088016142f4565b7001034b99036b4b9b9b4b733903937b6329607d1b60179184019182015283516141db8160288401602088016142f4565b01602801949350505050565b6001600160a01b0391909116815260200190565b602081526000825180602084015261421a8160408501602087016142f4565b601f01601f19169190910160400192915050565b6020808252600d908201526c7a65726f20636f696e6167657360981b604082015260600190565b604051601f8201601f1916810167ffffffffffffffff8111828210171561427e5761427e61439d565b604052919050565b6000821982111561429957614299614387565b500190565b6000826142b957634e487b7160e01b81526012600452602481fd5b500490565b60008160001904831182151516156142d8576142d8614387565b500290565b6000828210156142ef576142ef614387565b500390565b60005b8381101561430f5781810151838201526020016142f7565b838111156137015750506000910152565b60008161432f5761432f614387565b506000190190565b600181811c9082168061434b57607f821691505b60208210811415610e7057634e487b7160e01b600052602260045260246000fd5b600060001982141561438057614380614387565b5060010190565b634e487b7160e01b600052601160045260246000fd5b634e487b7160e01b600052604160045260246000fd5b6001600160a01b03811681146143c857600080fd5b5056fe5fdbd35e8da83ee755d5e62a539e5ed7f47126abede0b8b10f9ea43dc6eed07fa264697066735822122016e4f569ece2d4eb7488438d784554b6d54fbe57159aa752c74b981e8bbef5f564736f6c63430008040033",
  "linkReferences": {},
  "deployedLinkReferences": {}
}