{
  "_format": "hh-sol-artifact-1",
  "contractName": "AutoCoinageSnapshot2",
  "sourceName": "contracts/tokens/AutoCoinageSnapshot2.sol",
  "abi": [
    {
      "inputs": [],
      "stateMutability": "nonpayable",
      "type": "constructor"
    },
    {
      "anonymous": false,
      "inputs": [
        {
          "indexed": true,
          "internalType": "bytes32",
          "name": "role",
          "type": "bytes32"
        },
        {
          "indexed": true,
          "internalType": "bytes32",
          "name": "previousAdminRole",
          "type": "bytes32"
        },
        {
          "indexed": true,
          "internalType": "bytes32",
          "name": "newAdminRole",
          "type": "bytes32"
        }
      ],
      "name": "RoleAdminChanged",
      "type": "event"
    },
    {
      "anonymous": false,
      "inputs": [
        {
          "indexed": true,
          "internalType": "bytes32",
          "name": "role",
          "type": "bytes32"
        },
        {
          "indexed": true,
          "internalType": "address",
          "name": "account",
          "type": "address"
        },
        {
          "indexed": true,
          "internalType": "address",
          "name": "sender",
          "type": "address"
        }
      ],
      "name": "RoleGranted",
      "type": "event"
    },
    {
      "anonymous": false,
      "inputs": [
        {
          "indexed": true,
          "internalType": "bytes32",
          "name": "role",
          "type": "bytes32"
        },
        {
          "indexed": true,
          "internalType": "address",
          "name": "account",
          "type": "address"
        },
        {
          "indexed": true,
          "internalType": "address",
          "name": "sender",
          "type": "address"
        }
      ],
      "name": "RoleRevoked",
      "type": "event"
    },
    {
      "anonymous": false,
      "inputs": [
        {
          "indexed": true,
          "internalType": "address",
          "name": "layer2",
          "type": "address"
        },
        {
          "indexed": false,
          "internalType": "uint256",
          "name": "id",
          "type": "uint256"
        }
      ],
      "name": "onSnapshot",
      "type": "event"
    },
    {
      "anonymous": false,
      "inputs": [
        {
          "indexed": true,
          "internalType": "address",
          "name": "layer2",
          "type": "address"
        },
        {
          "indexed": false,
          "internalType": "uint256",
          "name": "id",
          "type": "uint256"
        }
      ],
      "name": "onSyncLayer2",
      "type": "event"
    },
    {
      "anonymous": false,
      "inputs": [
        {
          "indexed": true,
          "internalType": "address",
          "name": "layer2",
          "type": "address"
        },
        {
          "indexed": false,
          "internalType": "address",
          "name": "account",
          "type": "address"
        },
        {
          "indexed": false,
          "internalType": "uint256",
          "name": "id",
          "type": "uint256"
        }
      ],
      "name": "onSyncLayer2Address",
      "type": "event"
    },
    {
      "anonymous": false,
      "inputs": [
        {
          "indexed": true,
          "internalType": "address",
          "name": "layer2",
          "type": "address"
        },
        {
          "indexed": false,
          "internalType": "uint256",
          "name": "id",
          "type": "uint256"
        }
      ],
      "name": "onSyncLayer2Batch",
      "type": "event"
    },
    {
      "inputs": [],
      "name": "ADMIN_ROLE",
      "outputs": [
        {
          "internalType": "bytes32",
          "name": "",
          "type": "bytes32"
        }
      ],
      "stateMutability": "view",
      "type": "function"
    },
    {
      "inputs": [],
      "name": "DEFAULT_ADMIN_ROLE",
      "outputs": [
        {
          "internalType": "bytes32",
          "name": "",
          "type": "bytes32"
        }
      ],
      "stateMutability": "view",
      "type": "function"
    },
    {
      "inputs": [],
      "name": "REFACTOR_BOUNDARY",
      "outputs": [
        {
          "internalType": "uint256",
          "name": "",
          "type": "uint256"
        }
      ],
      "stateMutability": "view",
      "type": "function"
    },
    {
      "inputs": [],
      "name": "REFACTOR_DIVIDER",
      "outputs": [
        {
          "internalType": "uint256",
          "name": "",
          "type": "uint256"
        }
      ],
      "stateMutability": "view",
      "type": "function"
    },
    {
      "inputs": [],
      "name": "SNAPSHOT_ROLE",
      "outputs": [
        {
          "internalType": "bytes32",
          "name": "",
          "type": "bytes32"
        }
      ],
      "stateMutability": "view",
      "type": "function"
    },
    {
      "inputs": [],
      "name": "UPDATE_ROLE",
      "outputs": [
        {
          "internalType": "bytes32",
          "name": "",
          "type": "bytes32"
        }
      ],
      "stateMutability": "view",
      "type": "function"
    },
    {
      "inputs": [
        {
          "internalType": "address",
          "name": "layer2",
          "type": "address"
        },
        {
          "internalType": "address",
          "name": "account",
          "type": "address"
        }
      ],
      "name": "addSync",
      "outputs": [
        {
          "internalType": "uint256",
          "name": "",
          "type": "uint256"
        }
      ],
      "stateMutability": "nonpayable",
      "type": "function"
    },
    {
      "inputs": [
        {
          "internalType": "address",
          "name": "owner",
          "type": "address"
        },
        {
          "internalType": "address",
          "name": "spender",
          "type": "address"
        }
      ],
      "name": "allowance",
      "outputs": [
        {
          "internalType": "uint256",
          "name": "",
          "type": "uint256"
        }
      ],
      "stateMutability": "view",
      "type": "function"
    },
    {
      "inputs": [
        {
          "internalType": "uint256",
          "name": "v",
          "type": "uint256"
        },
        {
          "internalType": "uint256",
          "name": "refactoredCount",
          "type": "uint256"
        },
        {
          "internalType": "uint256",
          "name": "_factor",
          "type": "uint256"
        },
        {
          "internalType": "uint256",
          "name": "refactorCount",
          "type": "uint256"
        }
      ],
      "name": "applyFactor",
      "outputs": [
        {
          "internalType": "uint256",
          "name": "",
          "type": "uint256"
        }
      ],
      "stateMutability": "view",
      "type": "function"
    },
    {
      "inputs": [
        {
          "internalType": "address",
          "name": "account",
          "type": "address"
        }
      ],
      "name": "balanceOf",
      "outputs": [
        {
          "internalType": "uint256",
          "name": "",
          "type": "uint256"
        }
      ],
      "stateMutability": "view",
      "type": "function"
    },
    {
      "inputs": [
        {
          "internalType": "address",
          "name": "layer2",
          "type": "address"
        },
        {
          "internalType": "address",
          "name": "account",
          "type": "address"
        }
      ],
      "name": "balanceOf",
      "outputs": [
        {
          "internalType": "uint256",
          "name": "",
          "type": "uint256"
        }
      ],
      "stateMutability": "view",
      "type": "function"
    },
    {
      "inputs": [
        {
          "internalType": "address",
          "name": "account",
          "type": "address"
        },
        {
          "internalType": "uint256",
          "name": "snashotAggregatorId",
          "type": "uint256"
        }
      ],
      "name": "balanceOfAt",
      "outputs": [
        {
          "internalType": "uint256",
          "name": "accountStaked",
          "type": "uint256"
        }
      ],
      "stateMutability": "view",
      "type": "function"
    },
    {
      "inputs": [
        {
          "internalType": "address",
          "name": "layer2",
          "type": "address"
        },
        {
          "internalType": "address",
          "name": "account",
          "type": "address"
        },
        {
          "internalType": "uint256",
          "name": "snapshotId",
          "type": "uint256"
        }
      ],
      "name": "balanceOfAt",
      "outputs": [
        {
          "internalType": "uint256",
          "name": "",
          "type": "uint256"
        }
      ],
      "stateMutability": "view",
      "type": "function"
    },
    {
      "inputs": [
        {
          "internalType": "address",
          "name": "layer2",
          "type": "address"
        },
        {
          "internalType": "address",
          "name": "account",
          "type": "address"
        }
      ],
      "name": "currentAccountBalanceSnapshots",
      "outputs": [
        {
          "internalType": "bool",
          "name": "snapshotted",
          "type": "bool"
        },
        {
          "internalType": "uint256",
          "name": "snapShotBalance",
          "type": "uint256"
        },
        {
          "internalType": "uint256",
          "name": "snapShotRefactoredCount",
          "type": "uint256"
        },
        {
          "internalType": "uint256",
          "name": "snapShotRemain",
          "type": "uint256"
        },
        {
          "internalType": "uint256",
          "name": "currentBalanceOf",
          "type": "uint256"
        },
        {
          "internalType": "uint256",
          "name": "curBalances",
          "type": "uint256"
        },
        {
          "internalType": "uint256",
          "name": "curRefactoredCounts",
          "type": "uint256"
        },
        {
          "internalType": "uint256",
          "name": "curRemains",
          "type": "uint256"
        }
      ],
      "stateMutability": "view",
      "type": "function"
    },
    {
      "inputs": [
        {
          "internalType": "address",
          "name": "layer2",
          "type": "address"
        }
      ],
      "name": "currentFactorSnapshots",
      "outputs": [
        {
          "internalType": "bool",
          "name": "snapshotted",
          "type": "bool"
        },
        {
          "internalType": "uint256",
          "name": "snapShotFactor",
          "type": "uint256"
        },
        {
          "internalType": "uint256",
          "name": "snapShotRefactorCount",
          "type": "uint256"
        },
        {
          "internalType": "uint256",
          "name": "curFactorValue",
          "type": "uint256"
        },
        {
          "internalType": "uint256",
          "name": "curFactor",
          "type": "uint256"
        },
        {
          "internalType": "uint256",
          "name": "curRefactorCount",
          "type": "uint256"
        }
      ],
      "stateMutability": "view",
      "type": "function"
    },
    {
      "inputs": [
        {
          "internalType": "address",
          "name": "",
          "type": "address"
        }
      ],
      "name": "currentLayer2SnapshotId",
      "outputs": [
        {
          "internalType": "uint256",
          "name": "",
          "type": "uint256"
        }
      ],
      "stateMutability": "view",
      "type": "function"
    },
    {
      "inputs": [
        {
          "internalType": "address",
          "name": "layer2",
          "type": "address"
        }
      ],
      "name": "currentTotalSupplySnapshots",
      "outputs": [
        {
          "internalType": "bool",
          "name": "snapshotted",
          "type": "bool"
        },
        {
          "internalType": "uint256",
          "name": "snapShotBalance",
          "type": "uint256"
        },
        {
          "internalType": "uint256",
          "name": "snapShotRefactoredCount",
          "type": "uint256"
        },
        {
          "internalType": "uint256",
          "name": "snapShotRemain",
          "type": "uint256"
        },
        {
          "internalType": "uint256",
          "name": "currentTotalSupply",
          "type": "uint256"
        },
        {
          "internalType": "uint256",
          "name": "curBalances",
          "type": "uint256"
        },
        {
          "internalType": "uint256",
          "name": "curRefactoredCounts",
          "type": "uint256"
        },
        {
          "internalType": "uint256",
          "name": "curRemains",
          "type": "uint256"
        }
      ],
      "stateMutability": "view",
      "type": "function"
    },
    {
      "inputs": [],
      "name": "decimals",
      "outputs": [
        {
          "internalType": "uint256",
          "name": "",
          "type": "uint256"
        }
      ],
      "stateMutability": "view",
      "type": "function"
    },
    {
      "inputs": [
        {
          "internalType": "address",
          "name": "",
          "type": "address"
        }
      ],
      "name": "existAccounts",
      "outputs": [
        {
          "internalType": "bool",
          "name": "",
          "type": "bool"
        }
      ],
      "stateMutability": "view",
      "type": "function"
    },
    {
      "inputs": [
        {
          "internalType": "address",
          "name": "",
          "type": "address"
        }
      ],
      "name": "existLayer2s",
      "outputs": [
        {
          "internalType": "bool",
          "name": "",
          "type": "bool"
        }
      ],
      "stateMutability": "view",
      "type": "function"
    },
    {
      "inputs": [
        {
          "internalType": "uint256",
          "name": "id",
          "type": "uint256"
        },
        {
          "internalType": "address",
          "name": "layer2",
          "type": "address"
        },
        {
          "internalType": "address",
          "name": "account",
          "type": "address"
        }
      ],
      "name": "getAccountBalanceSnapsByIds",
      "outputs": [
        {
          "internalType": "uint256",
          "name": "",
          "type": "uint256"
        },
        {
          "internalType": "uint256",
          "name": "",
          "type": "uint256"
        },
        {
          "internalType": "uint256",
          "name": "",
          "type": "uint256"
        },
        {
          "internalType": "uint256",
          "name": "",
          "type": "uint256"
        }
      ],
      "stateMutability": "view",
      "type": "function"
    },
    {
      "inputs": [
        {
          "internalType": "uint256",
          "name": "snapshotId",
          "type": "uint256"
        },
        {
          "internalType": "address",
          "name": "layer2",
          "type": "address"
        },
        {
          "internalType": "address",
          "name": "account",
          "type": "address"
        }
      ],
      "name": "getAccountBalanceSnapsBySnapshotId",
      "outputs": [
        {
          "internalType": "uint256",
          "name": "",
          "type": "uint256"
        },
        {
          "internalType": "uint256",
          "name": "",
          "type": "uint256"
        },
        {
          "internalType": "uint256",
          "name": "",
          "type": "uint256"
        },
        {
          "internalType": "uint256",
          "name": "",
          "type": "uint256"
        }
      ],
      "stateMutability": "view",
      "type": "function"
    },
    {
      "inputs": [
        {
          "internalType": "address",
          "name": "account",
          "type": "address"
        }
      ],
      "name": "getBalanceOfInTokamak",
      "outputs": [
        {
          "internalType": "uint256",
          "name": "accountAmount",
          "type": "uint256"
        }
      ],
      "stateMutability": "view",
      "type": "function"
    },
    {
      "inputs": [
        {
          "internalType": "address",
          "name": "layer2",
          "type": "address"
        }
      ],
      "name": "getCurrentLayer2SnapshotId",
      "outputs": [
        {
          "internalType": "uint256",
          "name": "",
          "type": "uint256"
        }
      ],
      "stateMutability": "view",
      "type": "function"
    },
    {
      "inputs": [
        {
          "internalType": "address",
          "name": "layer2",
          "type": "address"
        },
        {
          "internalType": "address",
          "name": "user",
          "type": "address"
        }
      ],
      "name": "getLayer2BalanceOfInTokamak",
      "outputs": [
        {
          "internalType": "uint256",
          "name": "balanceOfLayer2Amount",
          "type": "uint256"
        },
        {
          "internalType": "uint256",
          "name": "balance",
          "type": "uint256"
        },
        {
          "internalType": "uint256",
          "name": "refactoredCount",
          "type": "uint256"
        },
        {
          "internalType": "uint256",
          "name": "remain",
          "type": "uint256"
        }
      ],
      "stateMutability": "view",
      "type": "function"
    },
    {
      "inputs": [
        {
          "internalType": "address",
          "name": "layer2",
          "type": "address"
        }
      ],
      "name": "getLayer2TotalSupplyInTokamak",
      "outputs": [
        {
          "internalType": "uint256",
          "name": "totalSupplyLayer2",
          "type": "uint256"
        },
        {
          "internalType": "uint256",
          "name": "balance",
          "type": "uint256"
        },
        {
          "internalType": "uint256",
          "name": "refactoredCount",
          "type": "uint256"
        },
        {
          "internalType": "uint256",
          "name": "remain",
          "type": "uint256"
        }
      ],
      "stateMutability": "view",
      "type": "function"
    },
    {
      "inputs": [
        {
          "internalType": "bytes32",
          "name": "role",
          "type": "bytes32"
        }
      ],
      "name": "getRoleAdmin",
      "outputs": [
        {
          "internalType": "bytes32",
          "name": "",
          "type": "bytes32"
        }
      ],
      "stateMutability": "view",
      "type": "function"
    },
    {
      "inputs": [],
      "name": "getTotalStakedInTokamak",
      "outputs": [
        {
          "internalType": "uint256",
          "name": "accountAmount",
          "type": "uint256"
        }
      ],
      "stateMutability": "view",
      "type": "function"
    },
    {
      "inputs": [
        {
          "internalType": "bytes32",
          "name": "role",
          "type": "bytes32"
        },
        {
          "internalType": "address",
          "name": "account",
          "type": "address"
        }
      ],
      "name": "grantRole",
      "outputs": [],
      "stateMutability": "nonpayable",
      "type": "function"
    },
    {
      "inputs": [
        {
          "internalType": "bytes32",
          "name": "role",
          "type": "bytes32"
        },
        {
          "internalType": "address",
          "name": "account",
          "type": "address"
        }
      ],
      "name": "hasRole",
      "outputs": [
        {
          "internalType": "bool",
          "name": "",
          "type": "bool"
        }
      ],
      "stateMutability": "view",
      "type": "function"
    },
    {
      "inputs": [
        {
          "internalType": "address",
          "name": "layer2",
          "type": "address"
        }
      ],
      "name": "lastSnapShotIndex",
      "outputs": [
        {
          "internalType": "uint256",
          "name": "",
          "type": "uint256"
        }
      ],
      "stateMutability": "view",
      "type": "function"
    },
    {
      "inputs": [],
      "name": "layer2Registry",
      "outputs": [
        {
          "internalType": "address",
          "name": "",
          "type": "address"
        }
      ],
      "stateMutability": "view",
      "type": "function"
    },
    {
      "inputs": [
        {
          "internalType": "uint256",
          "name": "",
          "type": "uint256"
        }
      ],
      "name": "layer2s",
      "outputs": [
        {
          "internalType": "address",
          "name": "",
          "type": "address"
        }
      ],
      "stateMutability": "view",
      "type": "function"
    },
    {
      "inputs": [],
      "name": "migratedL2",
      "outputs": [
        {
          "internalType": "bool",
          "name": "",
          "type": "bool"
        }
      ],
      "stateMutability": "view",
      "type": "function"
    },
    {
      "inputs": [],
      "name": "name",
      "outputs": [
        {
          "internalType": "string",
          "name": "",
          "type": "string"
        }
      ],
      "stateMutability": "view",
      "type": "function"
    },
    {
      "inputs": [
        {
          "internalType": "uint256",
          "name": "",
          "type": "uint256"
        }
      ],
      "name": "needSyncLayer2s",
      "outputs": [
        {
          "internalType": "address",
          "name": "",
          "type": "address"
        }
      ],
      "stateMutability": "view",
      "type": "function"
    },
    {
      "inputs": [
        {
          "internalType": "address",
          "name": "",
          "type": "address"
        },
        {
          "internalType": "uint256",
          "name": "",
          "type": "uint256"
        }
      ],
      "name": "needSyncs",
      "outputs": [
        {
          "internalType": "address",
          "name": "",
          "type": "address"
        }
      ],
      "stateMutability": "view",
      "type": "function"
    },
    {
      "inputs": [],
      "name": "pauseProxy",
      "outputs": [
        {
          "internalType": "bool",
          "name": "",
          "type": "bool"
        }
      ],
      "stateMutability": "view",
      "type": "function"
    },
    {
      "inputs": [
        {
          "internalType": "bytes32",
          "name": "role",
          "type": "bytes32"
        },
        {
          "internalType": "address",
          "name": "account",
          "type": "address"
        }
      ],
      "name": "renounceRole",
      "outputs": [],
      "stateMutability": "nonpayable",
      "type": "function"
    },
    {
      "inputs": [
        {
          "internalType": "bytes32",
          "name": "role",
          "type": "bytes32"
        },
        {
          "internalType": "address",
          "name": "account",
          "type": "address"
        }
      ],
      "name": "revokeRole",
      "outputs": [],
      "stateMutability": "nonpayable",
      "type": "function"
    },
    {
      "inputs": [],
      "name": "seigManager",
      "outputs": [
        {
          "internalType": "address",
          "name": "",
          "type": "address"
        }
      ],
      "stateMutability": "view",
      "type": "function"
    },
    {
      "inputs": [
        {
          "internalType": "address",
          "name": "_seigManager",
          "type": "address"
        },
        {
          "internalType": "address",
          "name": "_layer2Registry",
          "type": "address"
        }
      ],
      "name": "setAddress",
      "outputs": [],
      "stateMutability": "nonpayable",
      "type": "function"
    },
    {
      "inputs": [
        {
          "internalType": "string",
          "name": "name_",
          "type": "string"
        },
        {
          "internalType": "string",
          "name": "symbol_",
          "type": "string"
        },
        {
          "internalType": "uint256",
          "name": "decimals_",
          "type": "uint256"
        }
      ],
      "name": "setNameSymbolDecimals",
      "outputs": [],
      "stateMutability": "nonpayable",
      "type": "function"
    },
    {
      "inputs": [
        {
          "internalType": "address",
          "name": "layer2",
          "type": "address"
        }
      ],
      "name": "snapshot",
      "outputs": [
        {
          "internalType": "uint256",
          "name": "",
          "type": "uint256"
        }
      ],
      "stateMutability": "nonpayable",
      "type": "function"
    },
    {
      "inputs": [],
      "name": "snapshot",
      "outputs": [
        {
          "internalType": "uint256",
          "name": "",
          "type": "uint256"
        }
      ],
      "stateMutability": "nonpayable",
      "type": "function"
    },
    {
      "inputs": [],
      "name": "snashotAggregatorTotal",
      "outputs": [
        {
          "internalType": "uint256",
          "name": "",
          "type": "uint256"
        }
      ],
      "stateMutability": "view",
      "type": "function"
    },
    {
      "inputs": [
        {
          "internalType": "address",
          "name": "account",
          "type": "address"
        },
        {
          "internalType": "uint256",
          "name": "snashotAggregatorId",
          "type": "uint256"
        }
      ],
      "name": "stakedAmountWithSnashotAggregator",
      "outputs": [
        {
          "internalType": "uint256",
          "name": "accountStaked",
          "type": "uint256"
        },
        {
          "internalType": "uint256",
          "name": "totalStaked",
          "type": "uint256"
        }
      ],
      "stateMutability": "view",
      "type": "function"
    },
    {
      "inputs": [
        {
          "internalType": "bytes4",
          "name": "interfaceId",
          "type": "bytes4"
        }
      ],
      "name": "supportsInterface",
      "outputs": [
        {
          "internalType": "bool",
          "name": "",
          "type": "bool"
        }
      ],
      "stateMutability": "view",
      "type": "function"
    },
    {
      "inputs": [],
      "name": "symbol",
      "outputs": [
        {
          "internalType": "string",
          "name": "",
          "type": "string"
        }
      ],
      "stateMutability": "view",
      "type": "function"
    },
    {
      "inputs": [
        {
          "internalType": "address",
          "name": "layer2",
          "type": "address"
        },
        {
          "internalType": "address",
          "name": "account",
          "type": "address"
        }
      ],
      "name": "sync",
      "outputs": [
        {
          "internalType": "uint256",
          "name": "",
          "type": "uint256"
        }
      ],
      "stateMutability": "nonpayable",
      "type": "function"
    },
    {
      "inputs": [
        {
          "internalType": "address",
          "name": "layer2",
          "type": "address"
        }
      ],
      "name": "sync",
      "outputs": [
        {
          "internalType": "uint256",
          "name": "",
          "type": "uint256"
        }
      ],
      "stateMutability": "nonpayable",
      "type": "function"
    },
    {
      "inputs": [
        {
          "internalType": "address",
          "name": "layer2",
          "type": "address"
        },
        {
          "internalType": "address[]",
          "name": "accounts",
          "type": "address[]"
        },
        {
          "internalType": "uint256[]",
          "name": "balances",
          "type": "uint256[]"
        },
        {
          "internalType": "uint256[]",
          "name": "refactoredCounts",
          "type": "uint256[]"
        },
        {
          "internalType": "uint256[]",
          "name": "remains",
          "type": "uint256[]"
        },
        {
          "internalType": "uint256[3]",
          "name": "layerTotal",
          "type": "uint256[3]"
        },
        {
          "internalType": "uint256[2]",
          "name": "layerFactor",
          "type": "uint256[2]"
        }
      ],
      "name": "syncBactchOffline",
      "outputs": [
        {
          "internalType": "bool",
          "name": "",
          "type": "bool"
        }
      ],
      "stateMutability": "nonpayable",
      "type": "function"
    },
    {
      "inputs": [
        {
          "internalType": "address",
          "name": "layer2",
          "type": "address"
        },
        {
          "internalType": "address[]",
          "name": "accounts",
          "type": "address[]"
        }
      ],
      "name": "syncBatch",
      "outputs": [
        {
          "internalType": "uint256",
          "name": "",
          "type": "uint256"
        }
      ],
      "stateMutability": "nonpayable",
      "type": "function"
    },
    {
      "inputs": [],
      "name": "totalSupply",
      "outputs": [
        {
          "internalType": "uint256",
          "name": "",
          "type": "uint256"
        }
      ],
      "stateMutability": "view",
      "type": "function"
    },
    {
      "inputs": [
        {
          "internalType": "address",
          "name": "layer2",
          "type": "address"
        }
      ],
      "name": "totalSupply",
      "outputs": [
        {
          "internalType": "uint256",
          "name": "",
          "type": "uint256"
        }
      ],
      "stateMutability": "view",
      "type": "function"
    },
    {
      "inputs": [
        {
          "internalType": "address",
          "name": "layer2",
          "type": "address"
        },
        {
          "internalType": "uint256",
          "name": "snapshotId",
          "type": "uint256"
        }
      ],
      "name": "totalSupplyAt",
      "outputs": [
        {
          "internalType": "uint256",
          "name": "",
          "type": "uint256"
        }
      ],
      "stateMutability": "view",
      "type": "function"
    },
    {
      "inputs": [
        {
          "internalType": "uint256",
          "name": "snashotAggregatorId",
          "type": "uint256"
        }
      ],
      "name": "totalSupplyAt",
      "outputs": [
        {
          "internalType": "uint256",
          "name": "totalStaked",
          "type": "uint256"
        }
      ],
      "stateMutability": "view",
      "type": "function"
    },
    {
      "inputs": [
        {
          "internalType": "address",
          "name": "recipient",
          "type": "address"
        },
        {
          "internalType": "uint256",
          "name": "amount",
          "type": "uint256"
        }
      ],
      "name": "transfer",
      "outputs": [
        {
          "internalType": "bool",
          "name": "",
          "type": "bool"
        }
      ],
      "stateMutability": "nonpayable",
      "type": "function"
    },
    {
      "inputs": [
        {
          "internalType": "address",
          "name": "sender",
          "type": "address"
        },
        {
          "internalType": "address",
          "name": "recipient",
          "type": "address"
        },
        {
          "internalType": "uint256",
          "name": "amount",
          "type": "uint256"
        }
      ],
      "name": "transferFrom",
      "outputs": [
        {
          "internalType": "bool",
          "name": "",
          "type": "bool"
        }
      ],
      "stateMutability": "nonpayable",
      "type": "function"
    },
    {
      "inputs": [
        {
          "internalType": "uint256",
          "name": "",
          "type": "uint256"
        }
      ],
      "name": "uniqAccounts",
      "outputs": [
        {
          "internalType": "address",
          "name": "",
          "type": "address"
        }
      ],
      "stateMutability": "view",
      "type": "function"
    }
  ],
  "bytecode": "0x60806040526b204fce5e3e25026110000000600155600280553480156200002557600080fd5b5062000033600033620000bd565b6200005f7fa49807205ce4d355092ef5a8a18f56e8913cf4a201fbe287825b095693c2177533620000bd565b6200008b7f3ee192ac25847473237ced4bba57f848e1fd794930ff85b4282329058096720533620000bd565b620000b77f5fdbd35e8da83ee755d5e62a539e5ed7f47126abede0b8b10f9ea43dc6eed07f33620000bd565b6200016d565b620000c98282620000cd565b5050565b6000828152602081815260408083206001600160a01b038516845290915290205460ff16620000c9576000828152602081815260408083206001600160a01b03851684529091529020805460ff19166001179055620001293390565b6001600160a01b0316816001600160a01b0316837f2f8788117e7eff1d82e926ec794901d17c78024a50270940304540a733656f0d60405160405180910390a45050565b614f67806200017d6000396000f3fe608060405234801561001057600080fd5b50600436106103215760003560e01c80637028e2cd116101a9578063ac16cd23116100ef578063d0e0707b1161009d578063d0e0707b146107e6578063d547741f146107f9578063dd62ed3e1461080c578063de5c499e1461081a578063e4dc2aa41461082d578063ec477a9014610840578063f59e8bb914610853578063f7888aec1461085b57600080fd5b8063ac16cd2314610775578063adc7e4f114610788578063addf90901461079b578063b7c246d7146107a4578063bc5f8789146107ad578063bfe64c66146107c0578063cf2a239c146107d357600080fd5b806391d148541161015757806391d14854146106fc57806395d89b411461070f5780639711715a14610717578063981b24d01461071f578063a1f5f50e14610732578063a217fddf14610744578063a58411941461074c578063a9059cbb1461075f57600080fd5b80637028e2cd1461063257806370a082311461065957806373ba69881461066c57806375b238fc146106ae5780637ae39263146106c357806382799e37146106d65780638d51c0e2146106e957600080fd5b80632d1197731161026e5780633b58524d1161021c5780633b58524d14610590578063407faa96146105a35780634ee2cd7e146105b65780635cd3b6d7146105c957806363a8fd89146105ec578063657db629146105f95780636ec0b7f21461060c5780636fb7f5581461061f57600080fd5b80632d119773146104f35780632f2ff15d1461051b5780632f5eddcb1461052e5780633041949b1461054157806330b90e9914610554578063313ce5671461057457806336568abe1461057d57600080fd5b80630d55c7ac116102d65780630d55c7ac1461041757806318160ddd146104675780631e3a0ddd1461046f5780631e4d15f71461048257806323b872dd14610497578063248a9ca3146104aa57806326512160146104cd5780632bd1f948146104e057600080fd5b806249784614610326578062d87a9c14610360578062f08e461461036957806301ffc9a714610389578063043cd82f146103ac57806306fdde03146103df5780630bd4c339146103f4575b600080fd5b61034d7f3ee192ac25847473237ced4bba57f848e1fd794930ff85b4282329058096720581565b6040519081526020015b60405180910390f35b61034d60025481565b61034d6103773660046148c9565b60086020526000908152604090205481565b61039c610397366004614b0a565b61086e565b6040519015158152602001610357565b6103bf6103ba366004614901565b6108a5565b604080519485526020850193909352918301526060820152608001610357565b6103e7610a78565b6040516103579190614d02565b61039c6104023660046148c9565b60166020526000908152604090205460ff1681565b61042a610425366004614901565b610b06565b6040805198151589526020890197909752958701949094526060860192909252608085015260a084015260c083015260e082015261010001610357565b61034d610d55565b61034d61047d3660046148c9565b610e90565b610495610490366004614b32565b610eab565b005b61039c6104a5366004614939565b610ef4565b61034d6104b8366004614ace565b60009081526020819052604090206001015490565b61034d6104db3660046148c9565b610efe565b61034d6104ee366004614979565b610f3d565b610506610501366004614aa3565b6114a7565b60408051928352602083019190915201610357565b610495610529366004614ae6565b611698565b61042a61053c3660046148c9565b6116c3565b61034d61054f366004614901565b6118c7565b610567610562366004614ace565b611d59565b6040516103579190614cee565b61034d60125481565b61049561058b366004614ae6565b611d83565b61049561059e366004614901565b611e01565b6103bf6105b1366004614c0d565b611ea4565b61034d6105c4366004614aa3565b6121c2565b61039c6105d73660046148c9565b60146020526000908152604090205460ff1681565b600c5461039c9060ff1681565b61039c6106073660046149c6565b612332565b61034d61061a3660046148c9565b61254f565b600354610567906001600160a01b031681565b61034d7f5fdbd35e8da83ee755d5e62a539e5ed7f47126abede0b8b10f9ea43dc6eed07f81565b61034d6106673660046148c9565b612797565b61067f61067a3660046148c9565b61294f565b6040805196151587526020870195909552938501929092526060840152608083015260a082015260c001610357565b61034d600080516020614f1283398151915281565b6105676106d1366004614ace565b612b89565b61034d6106e4366004614aa3565b612b99565b6105676106f7366004614aa3565b612c1f565b61039c61070a366004614ae6565b612c57565b6103e7612c80565b61034d612c8d565b61034d61072d366004614ace565b612e08565b600c5461039c90610100900460ff1681565b61034d600081565b61034d61075a3660046148c9565b612f47565b61039c61076d366004614aa3565b600092915050565b61034d610783366004614c4e565b613257565b61034d610796366004614901565b6132aa565b61034d600b5481565b61034d60015481565b6103bf6107bb3660046148c9565b613502565b61034d6107ce366004614939565b6136b6565b600454610567906001600160a01b031681565b61034d6107f43660046148c9565b61373d565b610495610807366004614ae6565b613787565b61034d61076d366004614901565b610567610828366004614ace565b6137ad565b61034d61083b3660046148c9565b6137bd565b6103bf61084e366004614c0d565b6137cc565b61034d61391a565b61034d610869366004614901565b613b55565b60006001600160e01b03198216637965db0b60e01b148061089f57506301ffc9a760e01b6001600160e01b03198316145b92915050565b600354604051634c063c1960e01b815260009182918291829182916001600160a01b031690634c063c19906108de908a90600401614cee565b60206040518083038186803b1580156108f657600080fd5b505afa15801561090a573d6000803e3d6000fd5b505050506040513d601f19601f8201168201806040525081019061092e91906148e5565b90506001600160a01b03811661095f5760405162461bcd60e51b815260040161095690614d35565b60405180910390fd5b6040516370a0823160e01b81526001600160a01b038216906370a082319061098b908990600401614cee565b60206040518083038186803b1580156109a357600080fd5b505afa1580156109b7573d6000803e3d6000fd5b505050506040513d601f19601f820116820180604052508101906109db9190614bf5565b94506000816001600160a01b03166327e235e3886040518263ffffffff1660e01b8152600401610a0b9190614cee565b60606040518083038186803b158015610a2357600080fd5b505afa158015610a37573d6000803e3d6000fd5b505050506040513d601f19601f82011682018060405250810190610a5b9190614b9b565b80516020820151604090920151979a909950909750945050505050565b60108054610a8590614e60565b80601f0160208091040260200160405190810160405280929190818152602001828054610ab190614e60565b8015610afe5780601f10610ad357610100808354040283529160200191610afe565b820191906000526020600020905b815481529060010190602001808311610ae157829003601f168201915b505050505081565b600354604051634c063c1960e01b8152600091829182918291829182918291829182916001600160a01b031690634c063c1990610b47908e90600401614cee565b60206040518083038186803b158015610b5f57600080fd5b505afa158015610b73573d6000803e3d6000fd5b505050506040513d601f19601f82011682018060405250810190610b9791906148e5565b90506001600160a01b038116610bbf5760405162461bcd60e51b815260040161095690614d35565b6040516370a0823160e01b81526001600160a01b038216906370a0823190610beb908d90600401614cee565b60206040518083038186803b158015610c0357600080fd5b505afa158015610c17573d6000803e3d6000fd5b505050506040513d601f19601f82011682018060405250810190610c3b9190614bf5565b94506000816001600160a01b03166327e235e38c6040518263ffffffff1660e01b8152600401610c6b9190614cee565b60606040518083038186803b158015610c8357600080fd5b505afa158015610c97573d6000803e3d6000fd5b505050506040513d601f19601f82011682018060405250810190610cbb9190614b9b565b8051602082015160408301519197509550935090506000610cdb8d610e90565b90506000600560008f6001600160a01b03166001600160a01b0316815260200190815260200160002060008e6001600160a01b03166001600160a01b031681526020019081526020016000209050610d348e8383613b65565b809c50819d50829e50839f5050505050505050509295985092959890939650565b6004805460408051630d42d49760e01b8152905160009384936001600160a01b031692630d42d4979281830192602092829003018186803b158015610d9957600080fd5b505afa158015610dad573d6000803e3d6000fd5b505050506040513d601f19601f82011682018060405250810190610dd19190614bf5565b90506000805b82811015610e89576004805460405163b7ffb17960e01b81529182018390526000916001600160a01b039091169063b7ffb1799060240160206040518083038186803b158015610e2657600080fd5b505afa158015610e3a573d6000803e3d6000fd5b505050506040513d601f19601f82011682018060405250810190610e5e91906148e5565b9050610e69816137bd565b610e739084614daf565b9250508080610e8190614e95565b915050610dd7565b5092915050565b6001600160a01b031660009081526008602052604090205490565b600080516020614f12833981519152610ec48133613cf2565b8351610ed79060109060208701906145ea565b508251610eeb9060119060208601906145ea565b50506012555050565b60005b9392505050565b60007f5fdbd35e8da83ee755d5e62a539e5ed7f47126abede0b8b10f9ea43dc6eed07f610f2b8133613cf2565b610f3483613d56565b91505b50919050565b600354604051634c063c1960e01b815260009182916001600160a01b0390911690634c063c1990610f72908790600401614cee565b60206040518083038186803b158015610f8a57600080fd5b505afa158015610f9e573d6000803e3d6000fd5b505050506040513d601f19601f82011682018060405250810190610fc291906148e5565b90506001600160a01b038116610fea5760405162461bcd60e51b815260040161095690614d35565b600083511161102b5760405162461bcd60e51b815260206004820152600d60248201526c7a65726f206163636f756e747360981b6044820152606401610956565b600061103685613d56565b905060005b845181101561124e576000836001600160a01b03166327e235e387848151811061107557634e487b7160e01b600052603260045260246000fd5b60200260200101516040518263ffffffff1660e01b81526004016110999190614cee565b60606040518083038186803b1580156110b157600080fd5b505afa1580156110c5573d6000803e3d6000fd5b505050506040513d601f19601f820116820180604052508101906110e99190614b9b565b905061112b8787848151811061110f57634e487b7160e01b600052603260045260246000fd5b6020026020010151836000015184602001518560400151613e01565b6016600087848151811061114f57634e487b7160e01b600052603260045260246000fd5b6020908102919091018101516001600160a01b031682528101919091526040016000205460ff1661123d576001601660008885815181106111a057634e487b7160e01b600052603260045260246000fd5b60200260200101516001600160a01b03166001600160a01b0316815260200190815260200160002060006101000a81548160ff021916908315150217905550601586838151811061120157634e487b7160e01b600052603260045260246000fd5b60209081029190910181015182546001810184556000938452919092200180546001600160a01b0319166001600160a01b039092169190911790555b5061124781614e95565b905061103b565b506000826001600160a01b0316633eaaf86b6040518163ffffffff1660e01b815260040160606040518083038186803b15801561128a57600080fd5b505afa15801561129e573d6000803e3d6000fd5b505050506040513d601f19601f820116820180604052508101906112c29190614b9b565b90506000816000015190506000826020015190506000836040015190506000866001600160a01b0316636d1506116040518163ffffffff1660e01b815260040160206040518083038186803b15801561131a57600080fd5b505afa15801561132e573d6000803e3d6000fd5b505050506040513d601f19601f820116820180604052508101906113529190614bf5565b90506000876001600160a01b031663a7ac30b06040518163ffffffff1660e01b815260040160206040518083038186803b15801561138f57600080fd5b505afa1580156113a3573d6000803e3d6000fd5b505050506040513d601f19601f820116820180604052508101906113c79190614bf5565b6001600160a01b038c1660009081526014602052604090205490915060ff1661143e576001600160a01b038b166000818152601460205260408120805460ff19166001908117909155601380549182018155909152600080516020614ef28339815191520180546001600160a01b03191690911790555b61144a8b868686613e3b565b6114558b8383613e67565b8a6001600160a01b03167f55c675196fb2f6a62aefac4a6cd8dce7b495b583a899d94e3d8943d1412979938860405161149091815260200190565b60405180910390a250949998505050505050505050565b600b5460009081908311611691576000838152600a6020908152604080832081518154606094810282018501845292810183815290939192849284919084018282801561151d57602002820191906000526020600020905b81546001600160a01b031681526001909101906020018083116114ff575b505050505081526020016001820180548060200260200160405190810160405280929190818152602001828054801561157557602002820191906000526020600020905b815481526020019060010190808311611561575b50505091909252505081515191925050611596576000809250925050611691565b60005b81515181101561168e57611604826000015182815181106115ca57634e487b7160e01b600052603260045260246000fd5b602002602001015187846020015184815181106115f757634e487b7160e01b600052603260045260246000fd5b60200260200101516136b6565b61160e9085614daf565b93506116708260000151828151811061163757634e487b7160e01b600052603260045260246000fd5b60200260200101518360200151838151811061166357634e487b7160e01b600052603260045260246000fd5b6020026020010151612b99565b61167a9084614daf565b92508061168681614e95565b915050611599565b50505b9250929050565b6000828152602081905260409020600101546116b48133613cf2565b6116be8383613e8c565b505050565b600354604051634c063c1960e01b8152600091829182918291829182918291829182916001600160a01b031690634c063c1990611704908d90600401614cee565b60206040518083038186803b15801561171c57600080fd5b505afa158015611730573d6000803e3d6000fd5b505050506040513d601f19601f8201168201806040525081019061175491906148e5565b90506001600160a01b03811661177c5760405162461bcd60e51b815260040161095690614d35565b806001600160a01b03166318160ddd6040518163ffffffff1660e01b815260040160206040518083038186803b1580156117b557600080fd5b505afa1580156117c9573d6000803e3d6000fd5b505050506040513d601f19601f820116820180604052508101906117ed9190614bf5565b94506000816001600160a01b0316633eaaf86b6040518163ffffffff1660e01b815260040160606040518083038186803b15801561182a57600080fd5b505afa15801561183e573d6000803e3d6000fd5b505050506040513d601f19601f820116820180604052508101906118629190614b9b565b80516020820151604083015191975095509350905060006118828c610e90565b6001600160a01b038d1660009081526006602052604090209091506118a88d8383613b65565b809c50819d50829e50839f505050505050505050919395975091939597565b600354604051634c063c1960e01b815260009182916001600160a01b0390911690634c063c19906118fc908790600401614cee565b60206040518083038186803b15801561191457600080fd5b505afa158015611928573d6000803e3d6000fd5b505050506040513d601f19601f8201168201806040525081019061194c91906148e5565b90506001600160a01b0381166119745760405162461bcd60e51b815260040161095690614d35565b6001600160a01b0383166119b95760405162461bcd60e51b815260206004820152600c60248201526b1e995c9bc81858d8dbdd5b9d60a21b6044820152606401610956565b6040516327e235e360e01b81526000906001600160a01b038316906327e235e3906119e8908790600401614cee565b60606040518083038186803b158015611a0057600080fd5b505afa158015611a14573d6000803e3d6000fd5b505050506040513d601f19601f82011682018060405250810190611a389190614b9b565b90506000816000015190506000826020015190506000836040015190506000856001600160a01b0316633eaaf86b6040518163ffffffff1660e01b815260040160606040518083038186803b158015611a9057600080fd5b505afa158015611aa4573d6000803e3d6000fd5b505050506040513d601f19601f82011682018060405250810190611ac89190614b9b565b90506000816000015190506000826020015190506000836040015190506000896001600160a01b0316636d1506116040518163ffffffff1660e01b815260040160206040518083038186803b158015611b2057600080fd5b505afa158015611b34573d6000803e3d6000fd5b505050506040513d601f19601f82011682018060405250810190611b589190614bf5565b905060008a6001600160a01b031663a7ac30b06040518163ffffffff1660e01b815260040160206040518083038186803b158015611b9557600080fd5b505afa158015611ba9573d6000803e3d6000fd5b505050506040513d601f19601f82011682018060405250810190611bcd9190614bf5565b90506000611bda8f613d56565b9050611be98f8f8c8c8c613e01565b611bf58f878787613e3b565b611c008f8484613e67565b6001600160a01b038f166000908152601460205260409020548f9060ff16611c76576001600160a01b0381166000818152601460205260408120805460ff19166001908117909155601380549182018155909152600080516020614ef28339815191520180546001600160a01b03191690911790555b6001600160a01b038f166000908152601660205260409020548f9060ff16611cfe576001600160a01b0381166000818152601660205260408120805460ff191660019081179091556015805491820181559091527f55f448fdea98c4d29eb340757ef0a66cd03dbb9538908a6a81d96026b71ec4750180546001600160a01b03191690911790555b604080516001600160a01b038381168252602082018690528416917feaf565aec332d7cd567bfa2b743a7bdace638ac19ef7900d4c4d103a95be5beb910160405180910390a250909f9e505050505050505050505050505050565b60158181548110611d6957600080fd5b6000918252602090912001546001600160a01b0316905081565b6001600160a01b0381163314611df35760405162461bcd60e51b815260206004820152602f60248201527f416363657373436f6e74726f6c3a2063616e206f6e6c792072656e6f756e636560448201526e103937b632b9903337b91039b2b63360891b6064820152608401610956565b611dfd8282613f10565b5050565b600080516020614f12833981519152611e1a8133613cf2565b6001600160a01b03831615801590611e3a57506001600160a01b03821615155b611e755760405162461bcd60e51b815260206004820152600c60248201526b7a65726f206164647265737360a01b6044820152606401610956565b50600380546001600160a01b039384166001600160a01b03199182161790915560048054929093169116179055565b6001600160a01b03808316600090815260056020908152604080832093851683529281528282208351815460a0938102820184019095526080810185815293948594859485948594939092849290918491840182828015611f2457602002820191906000526020600020905b815481526020019060010190808311611f10575b5050505050815260200160018201805480602002602001604051908101604052809291908181526020018280548015611f7c57602002820191906000526020600020905b815481526020019060010190808311611f68575b5050505050815260200160028201805480602002602001604051908101604052809291908181526020018280548015611fd457602002820191906000526020600020905b815481526020019060010190808311611fc0575b505050505081526020016003820180548060200260200160405190810160405280929190818152602001828054801561202c57602002820191906000526020600020905b815481526020019060010190808311612018575b5050509190925250508151519192505080891061210057815180518290811061206557634e487b7160e01b600052603260045260246000fd5b60200260200101518260200151828151811061209157634e487b7160e01b600052603260045260246000fd5b6020026020010151836040015183815181106120bd57634e487b7160e01b600052603260045260246000fd5b6020026020010151846060015184815181106120e957634e487b7160e01b600052603260045260246000fd5b6020026020010151955095509550955050506121b9565b815180518a90811061212257634e487b7160e01b600052603260045260246000fd5b602002602001015182602001518a8151811061214e57634e487b7160e01b600052603260045260246000fd5b602002602001015183604001518b8151811061217a57634e487b7160e01b600052603260045260246000fd5b602002602001015184606001518c815181106121a657634e487b7160e01b600052603260045260246000fd5b6020026020010151955095509550955050505b93509350935093565b6000600b54821161089f576000828152600a6020908152604080832081518154606094810282018501845292810183815290939192849284919084018282801561223557602002820191906000526020600020905b81546001600160a01b03168152600190910190602001808311612217575b505050505081526020016001820180548060200260200160405190810160405280929190818152602001828054801561228d57602002820191906000526020600020905b815481526020019060010190808311612279575b505050919092525050815151919250506122ab57600091505061089f565b60005b81515181101561232a5761230c826000015182815181106122df57634e487b7160e01b600052603260045260246000fd5b602002602001015186846020015184815181106115f757634e487b7160e01b600052603260045260246000fd5b6123169084614daf565b92508061232281614e95565b9150506122ae565b505092915050565b60007f3ee192ac25847473237ced4bba57f848e1fd794930ff85b4282329058096720561235f8133613cf2565b86518851146123aa5760405162461bcd60e51b815260206004820152601760248201527609cde40c4c2d8c2dcc6cae640e6c2daca40d8cadccee8d604b1b6044820152606401610956565b85518851146123fb5760405162461bcd60e51b815260206004820152601f60248201527f4e6f207265666163746f726564436f756e74732073616d65206c656e677468006044820152606401610956565b84518851146124455760405162461bcd60e51b815260206004820152601660248201527509cde40e4cadac2d2dce640e6c2daca40d8cadccee8d60531b6044820152606401610956565b61244e89613d56565b5060005b8851811015612514576125048a8a838151811061247f57634e487b7160e01b600052603260045260246000fd5b60200260200101518a84815181106124a757634e487b7160e01b600052603260045260246000fd5b60200260200101518a85815181106124cf57634e487b7160e01b600052603260045260246000fd5b60200260200101518a86815181106124f757634e487b7160e01b600052603260045260246000fd5b6020026020010151613e01565b61250d81614e95565b9050612452565b5083516020850151604086015161252e928c929091613e3b565b82516020840151612540918b91613e67565b50600198975050505050505050565b6004805460408051630d42d49760e01b8152905160009384936001600160a01b031692630d42d4979281830192602092829003018186803b15801561259357600080fd5b505afa1580156125a7573d6000803e3d6000fd5b505050506040513d601f19601f820116820180604052508101906125cb9190614bf5565b90506000915060005b81811015612790576004805460405163b7ffb17960e01b81529182018390526000916001600160a01b039091169063b7ffb1799060240160206040518083038186803b15801561262357600080fd5b505afa158015612637573d6000803e3d6000fd5b505050506040513d601f19601f8201168201806040525081019061265b91906148e5565b600354604051634c063c1960e01b81529192506000916001600160a01b0390911690634c063c1990612691908590600401614cee565b60206040518083038186803b1580156126a957600080fd5b505afa1580156126bd573d6000803e3d6000fd5b505050506040513d601f19601f820116820180604052508101906126e191906148e5565b90506001600160a01b0381161561277b576040516370a0823160e01b81526001600160a01b038216906370a082319061271e908990600401614cee565b60206040518083038186803b15801561273657600080fd5b505afa15801561274a573d6000803e3d6000fd5b505050506040513d601f19601f8201168201806040525081019061276e9190614bf5565b6127789086614daf565b94505b5050808061278890614e95565b9150506125d4565b5050919050565b6004805460408051630d42d49760e01b8152905160009384936001600160a01b031692630d42d4979281830192602092829003018186803b1580156127db57600080fd5b505afa1580156127ef573d6000803e3d6000fd5b505050506040513d601f19601f820116820180604052508101906128139190614bf5565b90506000805b82811015612947576004805460405163b7ffb17960e01b81529182018390526000916001600160a01b039091169063b7ffb1799060240160206040518083038186803b15801561286857600080fd5b505afa15801561287c573d6000803e3d6000fd5b505050506040513d601f19601f820116820180604052508101906128a091906148e5565b6003546040516367265c3b60e11b81526001600160a01b038084166004830152898116602483015292935091169063ce4cb8769060440160206040518083038186803b1580156128ef57600080fd5b505afa158015612903573d6000803e3d6000fd5b505050506040513d601f19601f820116820180604052508101906129279190614bf5565b6129319084614daf565b925050808061293f90614e95565b915050612819565b509392505050565b600354604051634c063c1960e01b81526000918291829182918291829182916001600160a01b031690634c063c199061298c908b90600401614cee565b60206040518083038186803b1580156129a457600080fd5b505afa1580156129b8573d6000803e3d6000fd5b505050506040513d601f19601f820116820180604052508101906129dc91906148e5565b90506001600160a01b038116612a045760405162461bcd60e51b815260040161095690614d35565b806001600160a01b03166354f703f86040518163ffffffff1660e01b815260040160206040518083038186803b158015612a3d57600080fd5b505afa158015612a51573d6000803e3d6000fd5b505050506040513d601f19601f82011682018060405250810190612a759190614bf5565b9350806001600160a01b0316636d1506116040518163ffffffff1660e01b815260040160206040518083038186803b158015612ab057600080fd5b505afa158015612ac4573d6000803e3d6000fd5b505050506040513d601f19601f82011682018060405250810190612ae89190614bf5565b9250806001600160a01b031663a7ac30b06040518163ffffffff1660e01b815260040160206040518083038186803b158015612b2357600080fd5b505afa158015612b37573d6000803e3d6000fd5b505050506040513d601f19601f82011682018060405250810190612b5b9190614bf5565b91506000612b6889610e90565b9050612b748982613f75565b919b909a509098509496509294509092915050565b60138181548110611d6957600080fd5b60008115612c1757600080600080612bb18787614056565b93509350935093506000806000612bc88a8a613f75565b925092509250868015612bd85750825b15612c07576000612beb87878585613257565b9050612bf78582614daf565b985061089f975050505050505050565b600097505050505050505061089f565b50600061089f565b60176020528160005260406000208181548110612c3b57600080fd5b6000918252602090912001546001600160a01b03169150829050565b6000918252602082815260408084206001600160a01b0393909316845291905290205460ff1690565b60118054610a8590614e60565b600b805460009182612c9e83614e95565b909155505060185415612e0157600b546000908152600a60205260408120905b601854811015612df257600060188281548110612ceb57634e487b7160e01b600052603260045260246000fd5b60009182526020808320909101546001600160a01b0316808352601782526040928390208054845181850281018501909552808552919450612d6f938593909290830182828015612d6557602002820191906000526020600020905b81546001600160a01b03168152600190910190602001808311612d47575b5050505050610f3d565b5082546001808201855560008581526020902090910180546001600160a01b0319166001600160a01b0384161790558301612da982610e90565b815460018101835560009283526020808420909101919091556001600160a01b03831682526017905260408120612ddf9161466e565b5080612dea81614e95565b915050612cbe565b50612dff6018600061466e565b505b50600b5490565b6000600b548211612f42576000828152600a60209081526040808320815181546060948102820185018452928101838152909391928492849190840182828015612e7b57602002820191906000526020600020905b81546001600160a01b03168152600190910190602001808311612e5d575b5050505050815260200160018201805480602002602001604051908101604052809291908181526020018280548015612ed357602002820191906000526020600020905b815481526020019060010190808311612ebf575b50505091909252505081515191925050612ef05750600092915050565b60005b81515181101561279057612f248260000151828151811061163757634e487b7160e01b600052603260045260246000fd5b612f2e9084614daf565b925080612f3a81614e95565b915050612ef3565b919050565b600354604051634c063c1960e01b815260009182916001600160a01b0390911690634c063c1990612f7c908690600401614cee565b60206040518083038186803b158015612f9457600080fd5b505afa158015612fa8573d6000803e3d6000fd5b505050506040513d601f19601f82011682018060405250810190612fcc91906148e5565b90506001600160a01b038116612ff45760405162461bcd60e51b815260040161095690614d35565b6000816001600160a01b0316633eaaf86b6040518163ffffffff1660e01b815260040160606040518083038186803b15801561302f57600080fd5b505afa158015613043573d6000803e3d6000fd5b505050506040513d601f19601f820116820180604052508101906130679190614b9b565b90506000816000015190506000826020015190506000836040015190506000856001600160a01b0316636d1506116040518163ffffffff1660e01b815260040160206040518083038186803b1580156130bf57600080fd5b505afa1580156130d3573d6000803e3d6000fd5b505050506040513d601f19601f820116820180604052508101906130f79190614bf5565b90506000866001600160a01b031663a7ac30b06040518163ffffffff1660e01b815260040160206040518083038186803b15801561313457600080fd5b505afa158015613148573d6000803e3d6000fd5b505050506040513d601f19601f8201168201806040525081019061316c9190614bf5565b6001600160a01b038a1660009081526014602052604090205490915060ff166131e3576001600160a01b0389166000818152601460205260408120805460ff19166001908117909155601380549182018155909152600080516020614ef28339815191520180546001600160a01b03191690911790555b60006131ee8a613d56565b90506131fc8a878787613e3b565b6132078a8484613e67565b896001600160a01b03167f32a9d63c5300e91cc9c633e57c9a98fdaa33b189311e7cbe14859ad9958ecd158260405161324291815260200190565b60405180910390a29998505050505050505050565b600084613266575060006132a2565b61327085846140a5565b9450835b8281101561329d576002546132899087614de7565b95508061329581614e95565b915050613274565b508490505b949350505050565b600080805b60185481101561331a57846001600160a01b0316601882815481106132e457634e487b7160e01b600052603260045260246000fd5b6000918252602090912001546001600160a01b03161415613308576001915061331a565b8061331281614e95565b9150506132af565b508061336c57601880546001810182556000919091527fb13d2d76d1f4b7be834882e410b3e3a8afaf69f83600ae24db354391d2378d2e0180546001600160a01b0319166001600160a01b0386161790555b6001600160a01b0384166000908152601760209081526040808320805482518185028101850190935280835291929091908301828280156133d657602002820191906000526020600020905b81546001600160a01b031681526001909101906020018083116133b8575b50505050509050805160001415613433575050506001600160a01b0382811660008181526017602090815260408220805460018101825581845291832090910180546001600160a01b03191694861694909417909355525461089f565b60005b81518110156134b457846001600160a01b031682828151811061346957634e487b7160e01b600052603260045260246000fd5b60200260200101516001600160a01b031614156134a257505050506001600160a01b03821660009081526017602052604090205461089f565b806134ac81614e95565b915050613436565b505050506001600160a01b0391821660008181526017602090815260408220805460018101825581845291832090910180546001600160a01b03191694909516939093179093559091525490565b600354604051634c063c1960e01b815260009182918291829182916001600160a01b031690634c063c199061353b908990600401614cee565b60206040518083038186803b15801561355357600080fd5b505afa158015613567573d6000803e3d6000fd5b505050506040513d601f19601f8201168201806040525081019061358b91906148e5565b90506001600160a01b0381166135b35760405162461bcd60e51b815260040161095690614d35565b806001600160a01b03166318160ddd6040518163ffffffff1660e01b815260040160206040518083038186803b1580156135ec57600080fd5b505afa158015613600573d6000803e3d6000fd5b505050506040513d601f19601f820116820180604052508101906136249190614bf5565b94506000816001600160a01b0316633eaaf86b6040518163ffffffff1660e01b815260040160606040518083038186803b15801561366157600080fd5b505afa158015613675573d6000803e3d6000fd5b505050506040513d601f19601f820116820180604052508101906136999190614b9b565b805160208201516040909201519799909850909695509350505050565b60008115613735576000806000806136cf8888886140c8565b935093509350935060008060006136e68b8a613f75565b9250925092508680156136f65750825b1561372557600061370987878585613257565b90506137158582614daf565b9850610ef7975050505050505050565b6000975050505050505050610ef7565b506000610ef7565b6001600160a01b03811660009081526006602052604081205461376257506000919050565b6001600160a01b03821660009081526006602052604090205461089f90600190614e06565b6000828152602081905260409020600101546137a38133613cf2565b6116be8383613f10565b60188181548110611d6957600080fd5b600061089f826106e484610e90565b6001600160a01b0380831660009081526005602090815260408083209385168352929052908120805482918291829190613814576000806000809450945094509450506121b9565b60008811801561382c575061382887610e90565b8811155b1561390657600061383d828a61413b565b905081600001818154811061386257634e487b7160e01b600052603260045260246000fd5b906000526020600020015482600101828154811061389057634e487b7160e01b600052603260045260246000fd5b90600052602060002001548360020183815481106138be57634e487b7160e01b600052603260045260246000fd5b90600052602060002001548460030184815481106138ec57634e487b7160e01b600052603260045260246000fd5b9060005260206000200154955095509550955050506121b9565b6000806000809450945094509450506121b9565b6004805460408051630d42d49760e01b8152905160009384936001600160a01b031692630d42d4979281830192602092829003018186803b15801561395e57600080fd5b505afa158015613972573d6000803e3d6000fd5b505050506040513d601f19601f820116820180604052508101906139969190614bf5565b90506000915060005b81811015613b50576004805460405163b7ffb17960e01b81529182018390526000916001600160a01b039091169063b7ffb1799060240160206040518083038186803b1580156139ee57600080fd5b505afa158015613a02573d6000803e3d6000fd5b505050506040513d601f19601f82011682018060405250810190613a2691906148e5565b600354604051634c063c1960e01b81529192506000916001600160a01b0390911690634c063c1990613a5c908590600401614cee565b60206040518083038186803b158015613a7457600080fd5b505afa158015613a88573d6000803e3d6000fd5b505050506040513d601f19601f82011682018060405250810190613aac91906148e5565b90506001600160a01b03811615613b3b57806001600160a01b03166318160ddd6040518163ffffffff1660e01b815260040160206040518083038186803b158015613af657600080fd5b505afa158015613b0a573d6000803e3d6000fd5b505050506040513d601f19601f82011682018060405250810190613b2e9190614bf5565b613b389086614daf565b94505b50508080613b4890614e95565b91505061399f565b505090565b6000610ef783836107ce86610e90565b600080600080600086118015613b835750613b7f87610e90565b8611155b15613ce1576000613b94868861413b565b8654909150811415613c60578015613906576001868101613bb58284614e06565b81548110613bd357634e487b7160e01b600052603260045260246000fd5b906000526020600020015487600201600184613bef9190614e06565b81548110613c0d57634e487b7160e01b600052603260045260246000fd5b906000526020600020015488600301600185613c299190614e06565b81548110613c4757634e487b7160e01b600052603260045260246000fd5b90600052602060002001549450945094509450506121b9565b6001866001018281548110613c8557634e487b7160e01b600052603260045260246000fd5b9060005260206000200154876002018381548110613cb357634e487b7160e01b600052603260045260246000fd5b9060005260206000200154886003018481548110613c4757634e487b7160e01b600052603260045260246000fd5b5060009250829150819050806121b9565b613cfc8282612c57565b611dfd57613d14816001600160a01b0316601461426b565b613d1f83602061426b565b604051602001613d30929190614c7f565b60408051601f198184030181529082905262461bcd60e51b825261095691600401614d02565b6001600160a01b038116600090815260086020526040812080549082613d7b83614e95565b90915550506001600160a01b0382166000908152600960209081526040808320600883528184205484529091528120439055613db683610e90565b9050826001600160a01b03167f9140ca8dada2f5d654a9719f873254e8caca2580b6b78d4944151727d6207bb182604051613df391815260200190565b60405180910390a292915050565b6001600160a01b038086166000908152600560209081526040808320938816835292905220613e3490869085858561444c565b5050505050565b6001600160a01b0384166000908152600660205260409020613e6190859085858561444c565b50505050565b6001600160a01b03831660009081526007602052604090206116be90849084846144cf565b613e968282612c57565b611dfd576000828152602081815260408083206001600160a01b03851684529091529020805460ff19166001179055613ecc3390565b6001600160a01b0316816001600160a01b0316837f2f8788117e7eff1d82e926ec794901d17c78024a50270940304540a733656f0d60405160405180910390a45050565b613f1a8282612c57565b15611dfd576000828152602081815260408083206001600160a01b0385168085529252808320805460ff1916905551339285917ff6391f5c32d9c69d2a47ea670b442974b53935d1edc7fd64eb21e047a839171b9190a45050565b6001600160a01b0382166000908152600760205260408120819081908415801590613fa85750613fa486610e90565b8511155b15614042576000613fb9828761413b565b8254909150811415613fd7576000806000945094509450505061404f565b6001826001018281548110613ffc57634e487b7160e01b600052603260045260246000fd5b906000526020600020015483600201838154811061402a57634e487b7160e01b600052603260045260246000fd5b9060005260206000200154945094509450505061404f565b6000806000935093509350505b9250925092565b6000806000806000806000806140918a8a600660008e6001600160a01b03166001600160a01b03168152602001908152602001600020613b65565b929d919c509a509098509650505050505050565b60006b033b2e3c9fd0803ce80000006140be8484614532565b610ef79190614dc7565b6000806000806000806000806141268b8a600560008f6001600160a01b03166001600160a01b0316815260200190815260200160002060008e6001600160a01b03166001600160a01b03168152602001908152602001600020613b65565b929e919d509b50909950975050505050505050565b815460009061414c5750600061089f565b8254839061415c90600190614e06565b8154811061417a57634e487b7160e01b600052603260045260246000fd5b906000526020600020015482106141a057825461419990600190614e06565b905061089f565b826000815481106141c157634e487b7160e01b600052603260045260246000fd5b90600052602060002001548210156141db5750600061089f565b825460009081906141ee90600190614e06565b90505b8181111561294757600060026142078484614daf565b614212906001614daf565b61421c9190614dc7565b90508486828154811061423f57634e487b7160e01b600052603260045260246000fd5b90600052602060002001541161425757809250614265565b614262600182614e06565b91505b506141f1565b6060600061427a836002614de7565b614285906002614daf565b6001600160401b038111156142aa57634e487b7160e01b600052604160045260246000fd5b6040519080825280601f01601f1916602001820160405280156142d4576020820181803683370190505b509050600360fc1b816000815181106142fd57634e487b7160e01b600052603260045260246000fd5b60200101906001600160f81b031916908160001a905350600f60fb1b8160018151811061433a57634e487b7160e01b600052603260045260246000fd5b60200101906001600160f81b031916908160001a905350600061435e846002614de7565b614369906001614daf565b90505b60018111156143fd576f181899199a1a9b1b9c1cb0b131b232b360811b85600f16601081106143ab57634e487b7160e01b600052603260045260246000fd5b1a60f81b8282815181106143cf57634e487b7160e01b600052603260045260246000fd5b60200101906001600160f81b031916908160001a90535060049490941c936143f681614e49565b905061436c565b508315610ef75760405162461bcd60e51b815260206004820181905260248201527f537472696e67733a20686578206c656e67746820696e73756666696369656e746044820152606401610956565b600061445786610e90565b9050600061446486614599565b9050818110156144c6578554600181810188556000888152602080822090930185905581890180548084018255908252838220018890556002890180548084018255908252838220018790556003890180549283018155815291909120018390555b50505050505050565b60006144da85610e90565b9050806144e685614599565b1015613e34578354600180820186556000868152602080822090930193909355808601805480830182559084528284200194909455600290940180549384018155815292909220015550565b6000811580614556575082826145488183614de7565b92506145549083614dc7565b145b61089f5760405162461bcd60e51b815260206004820152601460248201527364732d6d6174682d6d756c2d6f766572666c6f7760601b6044820152606401610956565b80546000906145aa57506000919050565b815482906145ba90600190614e06565b815481106145d857634e487b7160e01b600052603260045260246000fd5b90600052602060002001549050919050565b8280546145f690614e60565b90600052602060002090601f016020900481019282614618576000855561465e565b82601f1061463157805160ff191683800117855561465e565b8280016001018555821561465e579182015b8281111561465e578251825591602001919060010190614643565b5061466a92915061468f565b5090565b508054600082559060005260206000209081019061468c919061468f565b50565b5b8082111561466a5760008155600101614690565b8035612f4281614edc565b600082601f8301126146bf578081fd5b813560206146d46146cf83614d8c565b614d5c565b80838252828201915082860187848660051b89010111156146f3578586fd5b855b8581101561471a57813561470881614edc565b845292840192908401906001016146f5565b5090979650505050505050565b600082601f830112614737578081fd5b604051604081018181106001600160401b038211171561475957614759614ec6565b806040525080838560408601111561476f578384fd5b835b6002811015614790578135835260209283019290910190600101614771565b509195945050505050565b600082601f8301126147ab578081fd5b604051606081018181106001600160401b03821117156147cd576147cd614ec6565b6040528083606081018610156147e1578384fd5b835b60038110156147905781358352602092830192909101906001016147e3565b600082601f830112614812578081fd5b813560206148226146cf83614d8c565b80838252828201915082860187848660051b8901011115614841578586fd5b855b8581101561471a57813584529284019290840190600101614843565b600082601f83011261486f578081fd5b81356001600160401b0381111561488857614888614ec6565b61489b601f8201601f1916602001614d5c565b8181528460208386010111156148af578283fd5b816020850160208301379081016020019190915292915050565b6000602082840312156148da578081fd5b8135610ef781614edc565b6000602082840312156148f6578081fd5b8151610ef781614edc565b60008060408385031215614913578081fd5b823561491e81614edc565b9150602083013561492e81614edc565b809150509250929050565b60008060006060848603121561494d578081fd5b833561495881614edc565b9250602084013561496881614edc565b929592945050506040919091013590565b6000806040838503121561498b578182fd5b823561499681614edc565b915060208301356001600160401b038111156149b0578182fd5b6149bc858286016146af565b9150509250929050565b6000806000806000806000610140888a0312156149e1578485fd5b6149ea886146a4565b965060208801356001600160401b0380821115614a05578687fd5b614a118b838c016146af565b975060408a0135915080821115614a26578687fd5b614a328b838c01614802565b965060608a0135915080821115614a47578485fd5b614a538b838c01614802565b955060808a0135915080821115614a68578485fd5b50614a758a828b01614802565b935050614a858960a08a0161479b565b9150614a95896101008a01614727565b905092959891949750929550565b60008060408385031215614ab5578182fd5b8235614ac081614edc565b946020939093013593505050565b600060208284031215614adf578081fd5b5035919050565b60008060408385031215614af8578182fd5b82359150602083013561492e81614edc565b600060208284031215614b1b578081fd5b81356001600160e01b031981168114610ef7578182fd5b600080600060608486031215614b46578081fd5b83356001600160401b0380821115614b5c578283fd5b614b688783880161485f565b94506020860135915080821115614b7d578283fd5b50614b8a8682870161485f565b925050604084013590509250925092565b600060608284031215614bac578081fd5b604051606081018181106001600160401b0382111715614bce57614bce614ec6565b80604052508251815260208301516020820152604083015160408201528091505092915050565b600060208284031215614c06578081fd5b5051919050565b600080600060608486031215614c21578081fd5b833592506020840135614c3381614edc565b91506040840135614c4381614edc565b809150509250925092565b60008060008060808587031215614c63578182fd5b5050823594602084013594506040840135936060013592509050565b76020b1b1b2b9b9a1b7b73a3937b61d1030b1b1b7bab73a1604d1b815260008351614cb1816017850160208801614e1d565b7001034b99036b4b9b9b4b733903937b6329607d1b6017918401918201528351614ce2816028840160208801614e1d565b01602801949350505050565b6001600160a01b0391909116815260200190565b6020815260008251806020840152614d21816040850160208701614e1d565b601f01601f19169190910160400192915050565b6020808252600d908201526c7a65726f20636f696e6167657360981b604082015260600190565b604051601f8201601f191681016001600160401b0381118282101715614d8457614d84614ec6565b604052919050565b60006001600160401b03821115614da557614da5614ec6565b5060051b60200190565b60008219821115614dc257614dc2614eb0565b500190565b600082614de257634e487b7160e01b81526012600452602481fd5b500490565b6000816000190483118215151615614e0157614e01614eb0565b500290565b600082821015614e1857614e18614eb0565b500390565b60005b83811015614e38578181015183820152602001614e20565b83811115613e615750506000910152565b600081614e5857614e58614eb0565b506000190190565b600181811c90821680614e7457607f821691505b60208210811415610f3757634e487b7160e01b600052602260045260246000fd5b6000600019821415614ea957614ea9614eb0565b5060010190565b634e487b7160e01b600052601160045260246000fd5b634e487b7160e01b600052604160045260246000fd5b6001600160a01b038116811461468c57600080fdfe66de8ffda797e3de9c05e8fc57b3bf0ec28a930d40b0d285d93c06501cf6a090a49807205ce4d355092ef5a8a18f56e8913cf4a201fbe287825b095693c21775a2646970667358221220506949469afb6c588c9513227e1ca9a155eef356baa8be0a8cb7199c50c58c0d64736f6c63430008040033",
  "linkReferences": {},
  "deployedLinkReferences": {}
}