{
  "_format": "hh-sol-artifact-1",
  "contractName": "AutoCoinageSnapshot",
  "sourceName": "contracts/tokens/AutoCoinageSnapshot.sol",
  "abi": [
    {
      "inputs": [
        {
          "internalType": "string",
          "name": "name_",
          "type": "string"
        },
        {
          "internalType": "string",
          "name": "symbol_",
          "type": "string"
        }
      ],
      "stateMutability": "nonpayable",
      "type": "constructor"
    },
    {
      "anonymous": false,
      "inputs": [
        {
          "indexed": true,
          "internalType": "address",
          "name": "owner",
          "type": "address"
        },
        {
          "indexed": true,
          "internalType": "address",
          "name": "spender",
          "type": "address"
        },
        {
          "indexed": false,
          "internalType": "uint256",
          "name": "value",
          "type": "uint256"
        }
      ],
      "name": "Approval",
      "type": "event"
    },
    {
      "anonymous": false,
      "inputs": [
        {
          "indexed": true,
          "internalType": "bytes32",
          "name": "role",
          "type": "bytes32"
        },
        {
          "indexed": true,
          "internalType": "bytes32",
          "name": "previousAdminRole",
          "type": "bytes32"
        },
        {
          "indexed": true,
          "internalType": "bytes32",
          "name": "newAdminRole",
          "type": "bytes32"
        }
      ],
      "name": "RoleAdminChanged",
      "type": "event"
    },
    {
      "anonymous": false,
      "inputs": [
        {
          "indexed": true,
          "internalType": "bytes32",
          "name": "role",
          "type": "bytes32"
        },
        {
          "indexed": true,
          "internalType": "address",
          "name": "account",
          "type": "address"
        },
        {
          "indexed": true,
          "internalType": "address",
          "name": "sender",
          "type": "address"
        }
      ],
      "name": "RoleGranted",
      "type": "event"
    },
    {
      "anonymous": false,
      "inputs": [
        {
          "indexed": true,
          "internalType": "bytes32",
          "name": "role",
          "type": "bytes32"
        },
        {
          "indexed": true,
          "internalType": "address",
          "name": "account",
          "type": "address"
        },
        {
          "indexed": true,
          "internalType": "address",
          "name": "sender",
          "type": "address"
        }
      ],
      "name": "RoleRevoked",
      "type": "event"
    },
    {
      "anonymous": false,
      "inputs": [
        {
          "indexed": true,
          "internalType": "address",
          "name": "from",
          "type": "address"
        },
        {
          "indexed": true,
          "internalType": "address",
          "name": "to",
          "type": "address"
        },
        {
          "indexed": false,
          "internalType": "uint256",
          "name": "value",
          "type": "uint256"
        }
      ],
      "name": "Transfer",
      "type": "event"
    },
    {
      "anonymous": false,
      "inputs": [
        {
          "indexed": true,
          "internalType": "address",
          "name": "layer2",
          "type": "address"
        },
        {
          "indexed": false,
          "internalType": "uint256",
          "name": "id",
          "type": "uint256"
        }
      ],
      "name": "onSnapshot",
      "type": "event"
    },
    {
      "anonymous": false,
      "inputs": [
        {
          "indexed": false,
          "internalType": "address",
          "name": "layer2",
          "type": "address"
        },
        {
          "indexed": false,
          "internalType": "uint256",
          "name": "balances",
          "type": "uint256"
        },
        {
          "indexed": false,
          "internalType": "uint256",
          "name": "refactoredCounts",
          "type": "uint256"
        },
        {
          "indexed": false,
          "internalType": "uint256",
          "name": "remains",
          "type": "uint256"
        },
        {
          "indexed": false,
          "internalType": "uint256",
          "name": "_factor",
          "type": "uint256"
        },
        {
          "indexed": false,
          "internalType": "uint256",
          "name": "refactorCount",
          "type": "uint256"
        }
      ],
      "name": "onUpdateLayer2FactorPublic",
      "type": "event"
    },
    {
      "inputs": [],
      "name": "ADMIN_ROLE",
      "outputs": [
        {
          "internalType": "bytes32",
          "name": "",
          "type": "bytes32"
        }
      ],
      "stateMutability": "view",
      "type": "function"
    },
    {
      "inputs": [],
      "name": "DEFAULT_ADMIN_ROLE",
      "outputs": [
        {
          "internalType": "bytes32",
          "name": "",
          "type": "bytes32"
        }
      ],
      "stateMutability": "view",
      "type": "function"
    },
    {
      "inputs": [],
      "name": "REFACTOR_BOUNDARY",
      "outputs": [
        {
          "internalType": "uint256",
          "name": "",
          "type": "uint256"
        }
      ],
      "stateMutability": "view",
      "type": "function"
    },
    {
      "inputs": [],
      "name": "REFACTOR_DIVIDER",
      "outputs": [
        {
          "internalType": "uint256",
          "name": "",
          "type": "uint256"
        }
      ],
      "stateMutability": "view",
      "type": "function"
    },
    {
      "inputs": [],
      "name": "SNAPSHOT_ROLE",
      "outputs": [
        {
          "internalType": "bytes32",
          "name": "",
          "type": "bytes32"
        }
      ],
      "stateMutability": "view",
      "type": "function"
    },
    {
      "inputs": [],
      "name": "UPDATE_ROLE",
      "outputs": [
        {
          "internalType": "bytes32",
          "name": "",
          "type": "bytes32"
        }
      ],
      "stateMutability": "view",
      "type": "function"
    },
    {
      "inputs": [
        {
          "internalType": "address",
          "name": "owner",
          "type": "address"
        },
        {
          "internalType": "address",
          "name": "spender",
          "type": "address"
        }
      ],
      "name": "allowance",
      "outputs": [
        {
          "internalType": "uint256",
          "name": "",
          "type": "uint256"
        }
      ],
      "stateMutability": "view",
      "type": "function"
    },
    {
      "inputs": [
        {
          "internalType": "uint256",
          "name": "v",
          "type": "uint256"
        },
        {
          "internalType": "uint256",
          "name": "refactoredCount",
          "type": "uint256"
        },
        {
          "internalType": "uint256",
          "name": "_factor",
          "type": "uint256"
        },
        {
          "internalType": "uint256",
          "name": "refactorCount",
          "type": "uint256"
        }
      ],
      "name": "applyFactor",
      "outputs": [
        {
          "internalType": "uint256",
          "name": "",
          "type": "uint256"
        }
      ],
      "stateMutability": "view",
      "type": "function"
    },
    {
      "inputs": [
        {
          "internalType": "address",
          "name": "spender",
          "type": "address"
        },
        {
          "internalType": "uint256",
          "name": "amount",
          "type": "uint256"
        }
      ],
      "name": "approve",
      "outputs": [
        {
          "internalType": "bool",
          "name": "",
          "type": "bool"
        }
      ],
      "stateMutability": "nonpayable",
      "type": "function"
    },
    {
      "inputs": [
        {
          "internalType": "address",
          "name": "account",
          "type": "address"
        }
      ],
      "name": "balanceOf",
      "outputs": [
        {
          "internalType": "uint256",
          "name": "",
          "type": "uint256"
        }
      ],
      "stateMutability": "view",
      "type": "function"
    },
    {
      "inputs": [
        {
          "internalType": "address",
          "name": "layer2",
          "type": "address"
        },
        {
          "internalType": "address",
          "name": "account",
          "type": "address"
        }
      ],
      "name": "balanceOf",
      "outputs": [
        {
          "internalType": "uint256",
          "name": "",
          "type": "uint256"
        }
      ],
      "stateMutability": "view",
      "type": "function"
    },
    {
      "inputs": [
        {
          "internalType": "address",
          "name": "layer2",
          "type": "address"
        },
        {
          "internalType": "address",
          "name": "account",
          "type": "address"
        },
        {
          "internalType": "uint256",
          "name": "snapshotId",
          "type": "uint256"
        }
      ],
      "name": "balanceOfAt",
      "outputs": [
        {
          "internalType": "uint256",
          "name": "",
          "type": "uint256"
        }
      ],
      "stateMutability": "view",
      "type": "function"
    },
    {
      "inputs": [
        {
          "internalType": "address",
          "name": "layer2",
          "type": "address"
        },
        {
          "internalType": "address",
          "name": "account",
          "type": "address"
        }
      ],
      "name": "currentAccountBalanceSnapshots",
      "outputs": [
        {
          "internalType": "bool",
          "name": "snapshotted",
          "type": "bool"
        },
        {
          "internalType": "uint256",
          "name": "snapShotBalance",
          "type": "uint256"
        },
        {
          "internalType": "uint256",
          "name": "snapShotRefactoredCount",
          "type": "uint256"
        },
        {
          "internalType": "uint256",
          "name": "snapShotRemain",
          "type": "uint256"
        },
        {
          "internalType": "uint256",
          "name": "currentBalanceOf",
          "type": "uint256"
        },
        {
          "internalType": "uint256",
          "name": "curBalances",
          "type": "uint256"
        },
        {
          "internalType": "uint256",
          "name": "curRefactoredCounts",
          "type": "uint256"
        },
        {
          "internalType": "uint256",
          "name": "curRemains",
          "type": "uint256"
        }
      ],
      "stateMutability": "view",
      "type": "function"
    },
    {
      "inputs": [
        {
          "internalType": "address",
          "name": "layer2",
          "type": "address"
        }
      ],
      "name": "currentFactorSnapshots",
      "outputs": [
        {
          "internalType": "bool",
          "name": "snapshotted",
          "type": "bool"
        },
        {
          "internalType": "uint256",
          "name": "snapShotFactor",
          "type": "uint256"
        },
        {
          "internalType": "uint256",
          "name": "snapShotRefactorCount",
          "type": "uint256"
        },
        {
          "internalType": "uint256",
          "name": "curFactorValue",
          "type": "uint256"
        },
        {
          "internalType": "uint256",
          "name": "curFactor",
          "type": "uint256"
        },
        {
          "internalType": "uint256",
          "name": "curRefactorCount",
          "type": "uint256"
        }
      ],
      "stateMutability": "view",
      "type": "function"
    },
    {
      "inputs": [
        {
          "internalType": "address",
          "name": "",
          "type": "address"
        }
      ],
      "name": "currentLayer2SnapshotId",
      "outputs": [
        {
          "internalType": "uint256",
          "name": "",
          "type": "uint256"
        }
      ],
      "stateMutability": "view",
      "type": "function"
    },
    {
      "inputs": [
        {
          "internalType": "address",
          "name": "layer2",
          "type": "address"
        }
      ],
      "name": "currentTotalSupplySnapshots",
      "outputs": [
        {
          "internalType": "bool",
          "name": "snapshotted",
          "type": "bool"
        },
        {
          "internalType": "uint256",
          "name": "snapShotBalance",
          "type": "uint256"
        },
        {
          "internalType": "uint256",
          "name": "snapShotRefactoredCount",
          "type": "uint256"
        },
        {
          "internalType": "uint256",
          "name": "snapShotRemain",
          "type": "uint256"
        },
        {
          "internalType": "uint256",
          "name": "currentTotalSupply",
          "type": "uint256"
        },
        {
          "internalType": "uint256",
          "name": "curBalances",
          "type": "uint256"
        },
        {
          "internalType": "uint256",
          "name": "curRefactoredCounts",
          "type": "uint256"
        },
        {
          "internalType": "uint256",
          "name": "curRemains",
          "type": "uint256"
        }
      ],
      "stateMutability": "view",
      "type": "function"
    },
    {
      "inputs": [],
      "name": "decimals",
      "outputs": [
        {
          "internalType": "uint8",
          "name": "",
          "type": "uint8"
        }
      ],
      "stateMutability": "view",
      "type": "function"
    },
    {
      "inputs": [
        {
          "internalType": "address",
          "name": "spender",
          "type": "address"
        },
        {
          "internalType": "uint256",
          "name": "subtractedValue",
          "type": "uint256"
        }
      ],
      "name": "decreaseAllowance",
      "outputs": [
        {
          "internalType": "bool",
          "name": "",
          "type": "bool"
        }
      ],
      "stateMutability": "nonpayable",
      "type": "function"
    },
    {
      "inputs": [
        {
          "internalType": "address",
          "name": "account",
          "type": "address"
        }
      ],
      "name": "getBalanceOfInTokamak",
      "outputs": [
        {
          "internalType": "uint256",
          "name": "accountAmount",
          "type": "uint256"
        }
      ],
      "stateMutability": "view",
      "type": "function"
    },
    {
      "inputs": [
        {
          "internalType": "address",
          "name": "layer2",
          "type": "address"
        }
      ],
      "name": "getCurrentLayer2SnapshotId",
      "outputs": [
        {
          "internalType": "uint256",
          "name": "",
          "type": "uint256"
        }
      ],
      "stateMutability": "view",
      "type": "function"
    },
    {
      "inputs": [
        {
          "internalType": "address",
          "name": "layer2",
          "type": "address"
        },
        {
          "internalType": "address",
          "name": "user",
          "type": "address"
        }
      ],
      "name": "getLayer2BalanceOfInTokamak",
      "outputs": [
        {
          "internalType": "uint256",
          "name": "balanceOfLayer2Amount",
          "type": "uint256"
        },
        {
          "internalType": "uint256",
          "name": "balance",
          "type": "uint256"
        },
        {
          "internalType": "uint256",
          "name": "refactoredCount",
          "type": "uint256"
        },
        {
          "internalType": "uint256",
          "name": "remain",
          "type": "uint256"
        }
      ],
      "stateMutability": "view",
      "type": "function"
    },
    {
      "inputs": [
        {
          "internalType": "address",
          "name": "layer2",
          "type": "address"
        }
      ],
      "name": "getLayer2TotalSupplyInTokamak",
      "outputs": [
        {
          "internalType": "uint256",
          "name": "totalSupplyLayer2",
          "type": "uint256"
        },
        {
          "internalType": "uint256",
          "name": "balance",
          "type": "uint256"
        },
        {
          "internalType": "uint256",
          "name": "refactoredCount",
          "type": "uint256"
        },
        {
          "internalType": "uint256",
          "name": "remain",
          "type": "uint256"
        }
      ],
      "stateMutability": "view",
      "type": "function"
    },
    {
      "inputs": [
        {
          "internalType": "bytes32",
          "name": "role",
          "type": "bytes32"
        }
      ],
      "name": "getRoleAdmin",
      "outputs": [
        {
          "internalType": "bytes32",
          "name": "",
          "type": "bytes32"
        }
      ],
      "stateMutability": "view",
      "type": "function"
    },
    {
      "inputs": [],
      "name": "getTotalStakedInTokamak",
      "outputs": [
        {
          "internalType": "uint256",
          "name": "accountAmount",
          "type": "uint256"
        }
      ],
      "stateMutability": "view",
      "type": "function"
    },
    {
      "inputs": [
        {
          "internalType": "bytes32",
          "name": "role",
          "type": "bytes32"
        },
        {
          "internalType": "address",
          "name": "account",
          "type": "address"
        }
      ],
      "name": "grantRole",
      "outputs": [],
      "stateMutability": "nonpayable",
      "type": "function"
    },
    {
      "inputs": [
        {
          "internalType": "bytes32",
          "name": "role",
          "type": "bytes32"
        },
        {
          "internalType": "address",
          "name": "account",
          "type": "address"
        }
      ],
      "name": "hasRole",
      "outputs": [
        {
          "internalType": "bool",
          "name": "",
          "type": "bool"
        }
      ],
      "stateMutability": "view",
      "type": "function"
    },
    {
      "inputs": [
        {
          "internalType": "address",
          "name": "spender",
          "type": "address"
        },
        {
          "internalType": "uint256",
          "name": "addedValue",
          "type": "uint256"
        }
      ],
      "name": "increaseAllowance",
      "outputs": [
        {
          "internalType": "bool",
          "name": "",
          "type": "bool"
        }
      ],
      "stateMutability": "nonpayable",
      "type": "function"
    },
    {
      "inputs": [],
      "name": "layer2Lagistry",
      "outputs": [
        {
          "internalType": "address",
          "name": "",
          "type": "address"
        }
      ],
      "stateMutability": "view",
      "type": "function"
    },
    {
      "inputs": [],
      "name": "migratedL2",
      "outputs": [
        {
          "internalType": "bool",
          "name": "",
          "type": "bool"
        }
      ],
      "stateMutability": "view",
      "type": "function"
    },
    {
      "inputs": [],
      "name": "name",
      "outputs": [
        {
          "internalType": "string",
          "name": "",
          "type": "string"
        }
      ],
      "stateMutability": "view",
      "type": "function"
    },
    {
      "inputs": [],
      "name": "pauseProxy",
      "outputs": [
        {
          "internalType": "bool",
          "name": "",
          "type": "bool"
        }
      ],
      "stateMutability": "view",
      "type": "function"
    },
    {
      "inputs": [
        {
          "internalType": "bytes32",
          "name": "role",
          "type": "bytes32"
        },
        {
          "internalType": "address",
          "name": "account",
          "type": "address"
        }
      ],
      "name": "renounceRole",
      "outputs": [],
      "stateMutability": "nonpayable",
      "type": "function"
    },
    {
      "inputs": [
        {
          "internalType": "bytes32",
          "name": "role",
          "type": "bytes32"
        },
        {
          "internalType": "address",
          "name": "account",
          "type": "address"
        }
      ],
      "name": "revokeRole",
      "outputs": [],
      "stateMutability": "nonpayable",
      "type": "function"
    },
    {
      "inputs": [],
      "name": "seigManager",
      "outputs": [
        {
          "internalType": "address",
          "name": "",
          "type": "address"
        }
      ],
      "stateMutability": "view",
      "type": "function"
    },
    {
      "inputs": [
        {
          "internalType": "address",
          "name": "_seigManager",
          "type": "address"
        },
        {
          "internalType": "address",
          "name": "_layer2Lagistry",
          "type": "address"
        }
      ],
      "name": "setAddress",
      "outputs": [],
      "stateMutability": "nonpayable",
      "type": "function"
    },
    {
      "inputs": [
        {
          "internalType": "address",
          "name": "layer2",
          "type": "address"
        }
      ],
      "name": "snapshot",
      "outputs": [
        {
          "internalType": "uint256",
          "name": "",
          "type": "uint256"
        }
      ],
      "stateMutability": "nonpayable",
      "type": "function"
    },
    {
      "inputs": [
        {
          "internalType": "bytes4",
          "name": "interfaceId",
          "type": "bytes4"
        }
      ],
      "name": "supportsInterface",
      "outputs": [
        {
          "internalType": "bool",
          "name": "",
          "type": "bool"
        }
      ],
      "stateMutability": "view",
      "type": "function"
    },
    {
      "inputs": [],
      "name": "symbol",
      "outputs": [
        {
          "internalType": "string",
          "name": "",
          "type": "string"
        }
      ],
      "stateMutability": "view",
      "type": "function"
    },
    {
      "inputs": [
        {
          "internalType": "address",
          "name": "layer2",
          "type": "address"
        },
        {
          "internalType": "address",
          "name": "account",
          "type": "address"
        }
      ],
      "name": "sync",
      "outputs": [],
      "stateMutability": "nonpayable",
      "type": "function"
    },
    {
      "inputs": [
        {
          "internalType": "address",
          "name": "layer2",
          "type": "address"
        }
      ],
      "name": "sync",
      "outputs": [],
      "stateMutability": "nonpayable",
      "type": "function"
    },
    {
      "inputs": [
        {
          "internalType": "address",
          "name": "layer2",
          "type": "address"
        },
        {
          "internalType": "address[]",
          "name": "accounts",
          "type": "address[]"
        },
        {
          "internalType": "uint256[]",
          "name": "balances",
          "type": "uint256[]"
        },
        {
          "internalType": "uint256[]",
          "name": "refactoredCounts",
          "type": "uint256[]"
        },
        {
          "internalType": "uint256[]",
          "name": "remains",
          "type": "uint256[]"
        },
        {
          "internalType": "uint256[3]",
          "name": "layerTotal",
          "type": "uint256[3]"
        },
        {
          "internalType": "uint256[2]",
          "name": "layerFactor",
          "type": "uint256[2]"
        }
      ],
      "name": "syncBactchOffline",
      "outputs": [
        {
          "internalType": "bool",
          "name": "",
          "type": "bool"
        }
      ],
      "stateMutability": "nonpayable",
      "type": "function"
    },
    {
      "inputs": [
        {
          "internalType": "address",
          "name": "layer2",
          "type": "address"
        },
        {
          "internalType": "address[]",
          "name": "accounts",
          "type": "address[]"
        }
      ],
      "name": "syncBatchOnline",
      "outputs": [
        {
          "internalType": "bool",
          "name": "",
          "type": "bool"
        }
      ],
      "stateMutability": "nonpayable",
      "type": "function"
    },
    {
      "inputs": [],
      "name": "totalSupply",
      "outputs": [
        {
          "internalType": "uint256",
          "name": "",
          "type": "uint256"
        }
      ],
      "stateMutability": "view",
      "type": "function"
    },
    {
      "inputs": [
        {
          "internalType": "address",
          "name": "layer2",
          "type": "address"
        }
      ],
      "name": "totalSupply",
      "outputs": [
        {
          "internalType": "uint256",
          "name": "",
          "type": "uint256"
        }
      ],
      "stateMutability": "view",
      "type": "function"
    },
    {
      "inputs": [
        {
          "internalType": "address",
          "name": "layer2",
          "type": "address"
        },
        {
          "internalType": "uint256",
          "name": "snapshotId",
          "type": "uint256"
        }
      ],
      "name": "totalSupplyAt",
      "outputs": [
        {
          "internalType": "uint256",
          "name": "",
          "type": "uint256"
        }
      ],
      "stateMutability": "view",
      "type": "function"
    },
    {
      "inputs": [
        {
          "internalType": "address",
          "name": "recipient",
          "type": "address"
        },
        {
          "internalType": "uint256",
          "name": "amount",
          "type": "uint256"
        }
      ],
      "name": "transfer",
      "outputs": [
        {
          "internalType": "bool",
          "name": "",
          "type": "bool"
        }
      ],
      "stateMutability": "nonpayable",
      "type": "function"
    },
    {
      "inputs": [
        {
          "internalType": "address",
          "name": "sender",
          "type": "address"
        },
        {
          "internalType": "address",
          "name": "recipient",
          "type": "address"
        },
        {
          "internalType": "uint256",
          "name": "amount",
          "type": "uint256"
        }
      ],
      "name": "transferFrom",
      "outputs": [
        {
          "internalType": "bool",
          "name": "",
          "type": "bool"
        }
      ],
      "stateMutability": "nonpayable",
      "type": "function"
    }
  ],
  "bytecode": "0x60806040526b204fce5e3e25026110000000600155600280553480156200002557600080fd5b50604051620043713803806200437183398101604081905262000048916200031e565b8151829082906200006190600e906020850190620001c5565b5080516200007790600f906020840190620001c5565b50620000899150600090503362000115565b620000b57fa49807205ce4d355092ef5a8a18f56e8913cf4a201fbe287825b095693c217753362000115565b620000e17f3ee192ac25847473237ced4bba57f848e1fd794930ff85b428232905809672053362000115565b6200010d7f5fdbd35e8da83ee755d5e62a539e5ed7f47126abede0b8b10f9ea43dc6eed07f3362000115565b5050620003d8565b62000121828262000125565b5050565b6000828152602081815260408083206001600160a01b038516845290915290205460ff1662000121576000828152602081815260408083206001600160a01b03851684529091529020805460ff19166001179055620001813390565b6001600160a01b0316816001600160a01b0316837f2f8788117e7eff1d82e926ec794901d17c78024a50270940304540a733656f0d60405160405180910390a45050565b828054620001d39062000385565b90600052602060002090601f016020900481019282620001f7576000855562000242565b82601f106200021257805160ff191683800117855562000242565b8280016001018555821562000242579182015b828111156200024257825182559160200191906001019062000225565b506200025092915062000254565b5090565b5b8082111562000250576000815560010162000255565b600082601f8301126200027c578081fd5b81516001600160401b0380821115620002995762000299620003c2565b604051601f8301601f19908116603f01168101908282118183101715620002c457620002c4620003c2565b81604052838152602092508683858801011115620002e0578485fd5b8491505b83821015620003035785820183015181830184015290820190620002e4565b838211156200031457848385830101525b9695505050505050565b6000806040838503121562000331578182fd5b82516001600160401b038082111562000348578384fd5b62000356868387016200026b565b935060208501519150808211156200036c578283fd5b506200037b858286016200026b565b9150509250929050565b600181811c908216806200039a57607f821691505b60208210811415620003bc57634e487b7160e01b600052602260045260246000fd5b50919050565b634e487b7160e01b600052604160045260246000fd5b613f8980620003e86000396000f3fe608060405234801561001057600080fd5b50600436106102925760003560e01c8063657db62911610167578063a457c2d7116100ce578063bfe64c6611610087578063bfe64c6614610645578063d547741f14610658578063dd62ed3e1461066b578063e4dc2aa414610679578063f59e8bb91461068c578063f7888aec1461069457600080fd5b8063a457c2d714610365578063a584119414610603578063a9059cbb14610365578063ac16cd2314610616578063b7c246d714610629578063bc5f87891461063257600080fd5b806375b238fc1161012057806375b238fc1461059457806382799e37146105bb57806391d14854146105ce57806395d89b41146105e1578063a1f5f50e146105e9578063a217fddf146105fb57600080fd5b8063657db629146104df5780636ec0b7f2146104f25780636fb7f558146105055780637028e2cd1461051857806370a082311461053f57806373ba69881461055257600080fd5b806323b872dd1161020b578063313ce567116101c4578063313ce5671461048a57806336568abe1461049957806339509351146103655780633b58524d146104ac5780635fcbebd1146104bf57806363a8fd89146104d257600080fd5b806323b872dd14610406578063248a9ca314610419578063265121601461043c5780632f2ff15d1461044f5780632f5eddcb146104645780633041949b1461047757600080fd5b806306fdde031161025d57806306fdde0314610350578063095ea7b3146103655780630d55c7ac1461037b57806318160ddd146103cb5780631e3a0ddd146103d35780632026288b146103e657600080fd5b806249784614610297578062d87a9c146102d1578062f08e46146102da57806301ffc9a7146102fa578063043cd82f1461031d575b600080fd5b6102be7f3ee192ac25847473237ced4bba57f848e1fd794930ff85b4282329058096720581565b6040519081526020015b60405180910390f35b6102be60025481565b6102be6102e83660046138dc565b60086020526000908152604090205481565b61030d610308366004613b1d565b6106a7565b60405190151581526020016102c8565b61033061032b366004613914565b6106de565b6040805194855260208501939093529183015260608201526080016102c8565b6103586108b1565b6040516102c89190613c97565b61030d610373366004613ab6565b600092915050565b61038e610389366004613914565b610943565b6040805198151589526020890197909752958701949094526060860192909252608085015260a084015260c083015260e0820152610100016102c8565b6102be610b92565b6102be6103e13660046138dc565b610d64565b6004546103f9906001600160a01b031681565b6040516102c89190613c83565b61030d61041436600461394c565b610d7f565b6102be610427366004613ae1565b60009081526020819052604090206001015490565b6102be61044a3660046138dc565b610d89565b61046261045d366004613af9565b610dc8565b005b61038e6104723660046138dc565b610df3565b610462610485366004613914565b610ff7565b604051601281526020016102c8565b6104626104a7366004613af9565b611338565b6104626104ba366004613914565b6113b6565b61030d6104cd36600461398c565b61146b565b600a5461030d9060ff1681565b61030d6104ed3660046139d9565b611809565b6102be6105003660046138dc565b611a26565b6003546103f9906001600160a01b031681565b6102be7f5fdbd35e8da83ee755d5e62a539e5ed7f47126abede0b8b10f9ea43dc6eed07f81565b6102be61054d3660046138dc565b611c6e565b6105656105603660046138dc565b611e72565b6040805196151587526020870195909552938501929092526060840152608083015260a082015260c0016102c8565b6102be7fa49807205ce4d355092ef5a8a18f56e8913cf4a201fbe287825b095693c2177581565b6102be6105c9366004613ab6565b6120ac565b61030d6105dc366004613af9565b612142565b61035861216b565b600a5461030d90610100900460ff1681565b6102be600081565b6104626106113660046138dc565b61217a565b6102be610624366004613bb7565b6123c8565b6102be60015481565b6103306106403660046138dc565b61241b565b6102be61065336600461394c565b6125cf565b610462610666366004613af9565b6127e5565b6102be610373366004613914565b6102be6106873660046138dc565b61280b565b6102be61281a565b6102be6106a2366004613914565b612a55565b60006001600160e01b03198216637965db0b60e01b14806106d857506301ffc9a760e01b6001600160e01b03198316145b92915050565b600354604051634c063c1960e01b815260009182918291829182916001600160a01b031690634c063c1990610717908a90600401613c83565b60206040518083038186803b15801561072f57600080fd5b505afa158015610743573d6000803e3d6000fd5b505050506040513d601f19601f8201168201806040525081019061076791906138f8565b90506001600160a01b0381166107985760405162461bcd60e51b815260040161078f90613d4b565b60405180910390fd5b6040516370a0823160e01b81526001600160a01b038216906370a08231906107c4908990600401613c83565b60206040518083038186803b1580156107dc57600080fd5b505afa1580156107f0573d6000803e3d6000fd5b505050506040513d601f19601f820116820180604052508101906108149190613b9f565b94506000816001600160a01b03166327e235e3886040518263ffffffff1660e01b81526004016108449190613c83565b60606040518083038186803b15801561085c57600080fd5b505afa158015610870573d6000803e3d6000fd5b505050506040513d601f19601f820116820180604052508101906108949190613b45565b80516020820151604090920151979a909950909750945050505050565b6060600e80546108c090613e76565b80601f01602080910402602001604051908101604052809291908181526020018280546108ec90613e76565b80156109395780601f1061090e57610100808354040283529160200191610939565b820191906000526020600020905b81548152906001019060200180831161091c57829003601f168201915b5050505050905090565b600354604051634c063c1960e01b8152600091829182918291829182918291829182916001600160a01b031690634c063c1990610984908e90600401613c83565b60206040518083038186803b15801561099c57600080fd5b505afa1580156109b0573d6000803e3d6000fd5b505050506040513d601f19601f820116820180604052508101906109d491906138f8565b90506001600160a01b0381166109fc5760405162461bcd60e51b815260040161078f90613d4b565b6040516370a0823160e01b81526001600160a01b038216906370a0823190610a28908d90600401613c83565b60206040518083038186803b158015610a4057600080fd5b505afa158015610a54573d6000803e3d6000fd5b505050506040513d601f19601f82011682018060405250810190610a789190613b9f565b94506000816001600160a01b03166327e235e38c6040518263ffffffff1660e01b8152600401610aa89190613c83565b60606040518083038186803b158015610ac057600080fd5b505afa158015610ad4573d6000803e3d6000fd5b505050506040513d601f19601f82011682018060405250810190610af89190613b45565b8051602082015160408301519197509550935090506000610b188d610d64565b90506000600560008f6001600160a01b03166001600160a01b0316815260200190815260200160002060008e6001600160a01b03166001600160a01b031681526020019081526020016000209050610b718e8383612a65565b809c50819d50829e50839f5050505050505050509295985092959890939650565b6004805460408051630d42d49760e01b8152905160009384936001600160a01b031692630d42d4979281830192602092829003018186803b158015610bd657600080fd5b505afa158015610bea573d6000803e3d6000fd5b505050506040513d601f19601f82011682018060405250810190610c0e9190613b9f565b90506000805b82811015610d5d576004805460405163b7ffb17960e01b81529182018390526000916001600160a01b039091169063b7ffb1799060240160206040518083038186803b158015610c6357600080fd5b505afa158015610c77573d6000803e3d6000fd5b505050506040513d601f19601f82011682018060405250810190610c9b91906138f8565b600354604051634c063c1960e01b81529192506000916001600160a01b0390911690634c063c1990610cd1908590600401613c83565b60206040518083038186803b158015610ce957600080fd5b505afa158015610cfd573d6000803e3d6000fd5b505050506040513d601f19601f82011682018060405250810190610d2191906138f8565b90506001600160a01b03811615610d4857610d3b8261280b565b610d459085613dc5565b93505b50508080610d5590613eab565b915050610c14565b5092915050565b6001600160a01b031660009081526008602052604090205490565b60005b9392505050565b60007f5fdbd35e8da83ee755d5e62a539e5ed7f47126abede0b8b10f9ea43dc6eed07f610db68133612cd9565b610dbf83612d3d565b91505b50919050565b600082815260208190526040902060010154610de48133612cd9565b610dee8383612de8565b505050565b600354604051634c063c1960e01b8152600091829182918291829182918291829182916001600160a01b031690634c063c1990610e34908d90600401613c83565b60206040518083038186803b158015610e4c57600080fd5b505afa158015610e60573d6000803e3d6000fd5b505050506040513d601f19601f82011682018060405250810190610e8491906138f8565b90506001600160a01b038116610eac5760405162461bcd60e51b815260040161078f90613d4b565b806001600160a01b03166318160ddd6040518163ffffffff1660e01b815260040160206040518083038186803b158015610ee557600080fd5b505afa158015610ef9573d6000803e3d6000fd5b505050506040513d601f19601f82011682018060405250810190610f1d9190613b9f565b94506000816001600160a01b0316633eaaf86b6040518163ffffffff1660e01b815260040160606040518083038186803b158015610f5a57600080fd5b505afa158015610f6e573d6000803e3d6000fd5b505050506040513d601f19601f82011682018060405250810190610f929190613b45565b8051602082015160408301519197509550935090506000610fb28c610d64565b6001600160a01b038d166000908152600660205260409020909150610fd88d8383612a65565b809c50819d50829e50839f505050505050505050919395975091939597565b600354604051634c063c1960e01b81526000916001600160a01b031690634c063c1990611028908690600401613c83565b60206040518083038186803b15801561104057600080fd5b505afa158015611054573d6000803e3d6000fd5b505050506040513d601f19601f8201168201806040525081019061107891906138f8565b90506001600160a01b0381166110a05760405162461bcd60e51b815260040161078f90613d4b565b6001600160a01b0382166110e55760405162461bcd60e51b815260206004820152600c60248201526b1e995c9bc81858d8dbdd5b9d60a21b604482015260640161078f565b6040516327e235e360e01b81526000906001600160a01b038316906327e235e390611114908690600401613c83565b60606040518083038186803b15801561112c57600080fd5b505afa158015611140573d6000803e3d6000fd5b505050506040513d601f19601f820116820180604052508101906111649190613b45565b90506000816000015190506000826020015190506000836040015190506000856001600160a01b0316633eaaf86b6040518163ffffffff1660e01b815260040160606040518083038186803b1580156111bc57600080fd5b505afa1580156111d0573d6000803e3d6000fd5b505050506040513d601f19601f820116820180604052508101906111f49190613b45565b90506000816000015190506000826020015190506000836040015190506000896001600160a01b0316636d1506116040518163ffffffff1660e01b815260040160206040518083038186803b15801561124c57600080fd5b505afa158015611260573d6000803e3d6000fd5b505050506040513d601f19601f820116820180604052508101906112849190613b9f565b905060008a6001600160a01b031663a7ac30b06040518163ffffffff1660e01b815260040160206040518083038186803b1580156112c157600080fd5b505afa1580156112d5573d6000803e3d6000fd5b505050506040513d601f19601f820116820180604052508101906112f99190613b9f565b90506113048d610d89565b506113128d8d8b8b8b612e6c565b61131e8d868686612ea6565b6113298d8383612ed2565b50505050505050505050505050565b6001600160a01b03811633146113a85760405162461bcd60e51b815260206004820152602f60248201527f416363657373436f6e74726f6c3a2063616e206f6e6c792072656e6f756e636560448201526e103937b632b9903337b91039b2b63360891b606482015260840161078f565b6113b28282612ef7565b5050565b7fa49807205ce4d355092ef5a8a18f56e8913cf4a201fbe287825b095693c217756113e18133612cd9565b6001600160a01b0383161580159061140157506001600160a01b03821615155b61143c5760405162461bcd60e51b815260206004820152600c60248201526b7a65726f206164647265737360a01b604482015260640161078f565b50600380546001600160a01b039384166001600160a01b03199182161790915560048054929093169116179055565b600354604051634c063c1960e01b815260009182916001600160a01b0390911690634c063c19906114a0908790600401613c83565b60206040518083038186803b1580156114b857600080fd5b505afa1580156114cc573d6000803e3d6000fd5b505050506040513d601f19601f820116820180604052508101906114f091906138f8565b90506001600160a01b0381166115185760405162461bcd60e51b815260040161078f90613d4b565b60008351116115595760405162461bcd60e51b815260206004820152600d60248201526c7a65726f206163636f756e747360981b604482015260640161078f565b61156284610d89565b5060005b8351811015611667576000826001600160a01b03166327e235e38684815181106115a057634e487b7160e01b600052603260045260246000fd5b60200260200101516040518263ffffffff1660e01b81526004016115c49190613c83565b60606040518083038186803b1580156115dc57600080fd5b505afa1580156115f0573d6000803e3d6000fd5b505050506040513d601f19601f820116820180604052508101906116149190613b45565b90506116568686848151811061163a57634e487b7160e01b600052603260045260246000fd5b6020026020010151836000015184602001518560400151612e6c565b5061166081613eab565b9050611566565b506000816001600160a01b0316633eaaf86b6040518163ffffffff1660e01b815260040160606040518083038186803b1580156116a357600080fd5b505afa1580156116b7573d6000803e3d6000fd5b505050506040513d601f19601f820116820180604052508101906116db9190613b45565b90506000816000015190506000826020015190506000836040015190506000856001600160a01b0316636d1506116040518163ffffffff1660e01b815260040160206040518083038186803b15801561173357600080fd5b505afa158015611747573d6000803e3d6000fd5b505050506040513d601f19601f8201168201806040525081019061176b9190613b9f565b90506000866001600160a01b031663a7ac30b06040518163ffffffff1660e01b815260040160206040518083038186803b1580156117a857600080fd5b505afa1580156117bc573d6000803e3d6000fd5b505050506040513d601f19601f820116820180604052508101906117e09190613b9f565b90506117ee8a868686612ea6565b6117f98a8383612ed2565b5060019998505050505050505050565b60007f3ee192ac25847473237ced4bba57f848e1fd794930ff85b428232905809672056118368133612cd9565b86518851146118815760405162461bcd60e51b815260206004820152601760248201527609cde40c4c2d8c2dcc6cae640e6c2daca40d8cadccee8d604b1b604482015260640161078f565b85518851146118d25760405162461bcd60e51b815260206004820152601f60248201527f4e6f207265666163746f726564436f756e74732073616d65206c656e67746800604482015260640161078f565b845188511461191c5760405162461bcd60e51b815260206004820152601660248201527509cde40e4cadac2d2dce640e6c2daca40d8cadccee8d60531b604482015260640161078f565b61192589610d89565b5060005b88518110156119eb576119db8a8a838151811061195657634e487b7160e01b600052603260045260246000fd5b60200260200101518a848151811061197e57634e487b7160e01b600052603260045260246000fd5b60200260200101518a85815181106119a657634e487b7160e01b600052603260045260246000fd5b60200260200101518a86815181106119ce57634e487b7160e01b600052603260045260246000fd5b6020026020010151612e6c565b6119e481613eab565b9050611929565b50835160208501516040860151611a05928c929091612ea6565b82516020840151611a17918b91612ed2565b50600198975050505050505050565b6004805460408051630d42d49760e01b8152905160009384936001600160a01b031692630d42d4979281830192602092829003018186803b158015611a6a57600080fd5b505afa158015611a7e573d6000803e3d6000fd5b505050506040513d601f19601f82011682018060405250810190611aa29190613b9f565b90506000915060005b81811015611c67576004805460405163b7ffb17960e01b81529182018390526000916001600160a01b039091169063b7ffb1799060240160206040518083038186803b158015611afa57600080fd5b505afa158015611b0e573d6000803e3d6000fd5b505050506040513d601f19601f82011682018060405250810190611b3291906138f8565b600354604051634c063c1960e01b81529192506000916001600160a01b0390911690634c063c1990611b68908590600401613c83565b60206040518083038186803b158015611b8057600080fd5b505afa158015611b94573d6000803e3d6000fd5b505050506040513d601f19601f82011682018060405250810190611bb891906138f8565b90506001600160a01b03811615611c52576040516370a0823160e01b81526001600160a01b038216906370a0823190611bf5908990600401613c83565b60206040518083038186803b158015611c0d57600080fd5b505afa158015611c21573d6000803e3d6000fd5b505050506040513d601f19601f82011682018060405250810190611c459190613b9f565b611c4f9086613dc5565b94505b50508080611c5f90613eab565b915050611aab565b5050919050565b6004805460408051630d42d49760e01b8152905160009384936001600160a01b031692630d42d4979281830192602092829003018186803b158015611cb257600080fd5b505afa158015611cc6573d6000803e3d6000fd5b505050506040513d601f19601f82011682018060405250810190611cea9190613b9f565b90506000805b82811015611e3a576004805460405163b7ffb17960e01b81529182018390526000916001600160a01b039091169063b7ffb1799060240160206040518083038186803b158015611d3f57600080fd5b505afa158015611d53573d6000803e3d6000fd5b505050506040513d601f19601f82011682018060405250810190611d7791906138f8565b600354604051634c063c1960e01b81529192506000916001600160a01b0390911690634c063c1990611dad908590600401613c83565b60206040518083038186803b158015611dc557600080fd5b505afa158015611dd9573d6000803e3d6000fd5b505050506040513d601f19601f82011682018060405250810190611dfd91906138f8565b90506001600160a01b03811615611e2557611e188288612a55565b611e229085613dc5565b93505b50508080611e3290613eab565b915050611cf0565b50610d826040518060400160405280601581526020017462616c616e63654f66286163636f756e742920257360581b81525082612f5c565b600354604051634c063c1960e01b81526000918291829182918291829182916001600160a01b031690634c063c1990611eaf908b90600401613c83565b60206040518083038186803b158015611ec757600080fd5b505afa158015611edb573d6000803e3d6000fd5b505050506040513d601f19601f82011682018060405250810190611eff91906138f8565b90506001600160a01b038116611f275760405162461bcd60e51b815260040161078f90613d4b565b806001600160a01b03166354f703f86040518163ffffffff1660e01b815260040160206040518083038186803b158015611f6057600080fd5b505afa158015611f74573d6000803e3d6000fd5b505050506040513d601f19601f82011682018060405250810190611f989190613b9f565b9350806001600160a01b0316636d1506116040518163ffffffff1660e01b815260040160206040518083038186803b158015611fd357600080fd5b505afa158015611fe7573d6000803e3d6000fd5b505050506040513d601f19601f8201168201806040525081019061200b9190613b9f565b9250806001600160a01b031663a7ac30b06040518163ffffffff1660e01b815260040160206040518083038186803b15801561204657600080fd5b505afa15801561205a573d6000803e3d6000fd5b505050506040513d601f19601f8201168201806040525081019061207e9190613b9f565b9150600061208b89610d64565b90506120978982612fa1565b919b909a509098509496509294509092915050565b6000811561213a576000806000806120cc876120c789610d64565b613082565b935093509350935060008060006120eb8a6120e68c610d64565b612fa1565b9250925092508680156120fb5750825b1561212a57600061210e878785856123c8565b905061211a8582613dc5565b98506106d8975050505050505050565b60009750505050505050506106d8565b5060006106d8565b6000918252602082815260408084206001600160a01b0393909316845291905290205460ff1690565b6060600f80546108c090613e76565b600354604051634c063c1960e01b81526000916001600160a01b031690634c063c19906121ab908590600401613c83565b60206040518083038186803b1580156121c357600080fd5b505afa1580156121d7573d6000803e3d6000fd5b505050506040513d601f19601f820116820180604052508101906121fb91906138f8565b90506001600160a01b0381166122235760405162461bcd60e51b815260040161078f90613d4b565b6000816001600160a01b0316633eaaf86b6040518163ffffffff1660e01b815260040160606040518083038186803b15801561225e57600080fd5b505afa158015612272573d6000803e3d6000fd5b505050506040513d601f19601f820116820180604052508101906122969190613b45565b90506000816000015190506000826020015190506000836040015190506000856001600160a01b0316636d1506116040518163ffffffff1660e01b815260040160206040518083038186803b1580156122ee57600080fd5b505afa158015612302573d6000803e3d6000fd5b505050506040513d601f19601f820116820180604052508101906123269190613b9f565b90506000866001600160a01b031663a7ac30b06040518163ffffffff1660e01b815260040160206040518083038186803b15801561236357600080fd5b505afa158015612377573d6000803e3d6000fd5b505050506040513d601f19601f8201168201806040525081019061239b9190613b9f565b90506123a688610d89565b506123b388868686612ea6565b6123be888383612ed2565b5050505050505050565b6000846123d757506000612413565b6123e185846130d1565b9450835b8281101561240e576002546123fa9087613dfd565b95508061240681613eab565b9150506123e5565b508490505b949350505050565b600354604051634c063c1960e01b815260009182918291829182916001600160a01b031690634c063c1990612454908990600401613c83565b60206040518083038186803b15801561246c57600080fd5b505afa158015612480573d6000803e3d6000fd5b505050506040513d601f19601f820116820180604052508101906124a491906138f8565b90506001600160a01b0381166124cc5760405162461bcd60e51b815260040161078f90613d4b565b806001600160a01b03166318160ddd6040518163ffffffff1660e01b815260040160206040518083038186803b15801561250557600080fd5b505afa158015612519573d6000803e3d6000fd5b505050506040513d601f19601f8201168201806040525081019061253d9190613b9f565b94506000816001600160a01b0316633eaaf86b6040518163ffffffff1660e01b815260040160606040518083038186803b15801561257a57600080fd5b505afa15801561258e573d6000803e3d6000fd5b505050506040513d601f19601f820116820180604052508101906125b29190613b45565b805160208201516040909201519799909850909695509350505050565b60006125f5604051806060016040528060218152602001613f08602191398585856130f4565b81156127dd57600080600080612614888861260f8b610d64565b61313d565b9350935093509350600080600061262e8b6120e68d610d64565b9250925092506126636040518060400160405280600d81526020016c736e617073686f74496420257360981b8152508a612f5c565b6126946040518060400160405280600f81526020016e736e617073686f747465643120257360881b815250886131b0565b6126c16040518060400160405280600b81526020016a62616c616e63657320257360a81b81525087612f5c565b6126f6604051806040016040528060138152602001727265666163746f726564436f756e747320257360681b81525086612f5c565b6127226040518060400160405280600a81526020016972656d61696e7320257360b01b81525085612f5c565b6127606040518060400160405280601d81526020017f62616c616e63654f664174203d3d3d3d3d3d3d3d3d3d3d3d3d3d3d3d3d0000008152506131f5565b86801561276a5750825b156127cd57600061277d878785856123c8565b90506127898582613dc5565b90506127be6040518060400160405280601181526020017003130b630b731b2a7b320ba101d1012b99607d1b81525082612f5c565b9750610d829650505050505050565b6000975050505050505050610d82565b506000610d82565b6000828152602081905260409020600101546128018133612cd9565b610dee8383612ef7565b60006106d8826105c984610d64565b6004805460408051630d42d49760e01b8152905160009384936001600160a01b031692630d42d4979281830192602092829003018186803b15801561285e57600080fd5b505afa158015612872573d6000803e3d6000fd5b505050506040513d601f19601f820116820180604052508101906128969190613b9f565b90506000915060005b81811015612a50576004805460405163b7ffb17960e01b81529182018390526000916001600160a01b039091169063b7ffb1799060240160206040518083038186803b1580156128ee57600080fd5b505afa158015612902573d6000803e3d6000fd5b505050506040513d601f19601f8201168201806040525081019061292691906138f8565b600354604051634c063c1960e01b81529192506000916001600160a01b0390911690634c063c199061295c908590600401613c83565b60206040518083038186803b15801561297457600080fd5b505afa158015612988573d6000803e3d6000fd5b505050506040513d601f19601f820116820180604052508101906129ac91906138f8565b90506001600160a01b03811615612a3b57806001600160a01b03166318160ddd6040518163ffffffff1660e01b815260040160206040518083038186803b1580156129f657600080fd5b505afa158015612a0a573d6000803e3d6000fd5b505050506040513d601f19601f82011682018060405250810190612a2e9190613b9f565b612a389086613dc5565b94505b50508080612a4890613eab565b91505061289f565b505090565b6000610d82838361065386610d64565b600080600080612ab36040518060400160405280601e81526020017f5f76616c7565417420736e617073686f7449642025732c20637572202573000081525087612aae8a610d64565b61323b565b600086118015612acb5750612ac787610d64565b8611155b15612c92576000612adc8688613282565b9050612b036040518060600160405280602b8152602001613f29602b91398754839061323b565b8554811415612c1157612b3d6040518060400160405280601081526020016f5f76616c756541742066616c7365203160801b8152506131f5565b8015612bfd576001868101612b528284613e1c565b81548110612b7057634e487b7160e01b600052603260045260246000fd5b906000526020600020015487600201600184612b8c9190613e1c565b81548110612baa57634e487b7160e01b600052603260045260246000fd5b906000526020600020015488600301600185612bc69190613e1c565b81548110612be457634e487b7160e01b600052603260045260246000fd5b9060005260206000200154945094509450945050612cd0565b600080600080945094509450945050612cd0565b6001866001018281548110612c3657634e487b7160e01b600052603260045260246000fd5b9060005260206000200154876002018381548110612c6457634e487b7160e01b600052603260045260246000fd5b9060005260206000200154886003018481548110612be457634e487b7160e01b600052603260045260246000fd5b612cc36040518060400160405280601081526020016f2fbb30b63ab2a0ba103330b639b2901960811b8152506131f5565b5060009250829150819050805b93509350935093565b612ce38282612142565b6113b257612cfb816001600160a01b03166014613361565b612d06836020613361565b604051602001612d17929190613c14565b60408051601f198184030181529082905262461bcd60e51b825261078f91600401613c97565b6001600160a01b038116600090815260086020526040812080549082612d6283613eab565b90915550506001600160a01b0382166000908152600960209081526040808320600883528184205484529091528120439055612d9d83610d64565b9050826001600160a01b03167f9140ca8dada2f5d654a9719f873254e8caca2580b6b78d4944151727d6207bb182604051612dda91815260200190565b60405180910390a292915050565b612df28282612142565b6113b2576000828152602081815260408083206001600160a01b03851684529091529020805460ff19166001179055612e283390565b6001600160a01b0316816001600160a01b0316837f2f8788117e7eff1d82e926ec794901d17c78024a50270940304540a733656f0d60405160405180910390a45050565b6001600160a01b038086166000908152600560209081526040808320938816835292905220612e9f908690858585613542565b5050505050565b6001600160a01b0384166000908152600660205260409020612ecc908590858585613542565b50505050565b6001600160a01b0383166000908152600760205260409020610dee90849084846135c5565b612f018282612142565b156113b2576000828152602081815260408083206001600160a01b0385168085529252808320805460ff1916905551339285917ff6391f5c32d9c69d2a47ea670b442974b53935d1edc7fd64eb21e047a839171b9190a45050565b6113b28282604051602401612f72929190613d04565b60408051601f198184030181529190526020810180516001600160e01b03166309710a9d60e41b179052613628565b6001600160a01b0382166000908152600760205260408120819081908415801590612fd45750612fd086610d64565b8511155b1561306e576000612fe58287613282565b8254909150811415613003576000806000945094509450505061307b565b600182600101828154811061302857634e487b7160e01b600052603260045260246000fd5b906000526020600020015483600201838154811061305657634e487b7160e01b600052603260045260246000fd5b9060005260206000200154945094509450505061307b565b6000806000935093509350505b9250925092565b6000806000806000806000806130bd8a8a600660008e6001600160a01b03166001600160a01b03168152602001908152602001600020612a65565b929d919c509a509098509650505050505050565b60006b033b2e3c9fd0803ce80000006130ea8484613649565b610d829190613ddd565b612ecc8484848460405160240161310e9493929190613caa565b60408051601f198184030181529190526020810180516001600160e01b0316636eb7943d60e01b179052613628565b60008060008060008060008061319b8b8a600560008f6001600160a01b03166001600160a01b0316815260200190815260200160002060008e6001600160a01b03166001600160a01b03168152602001908152602001600020612a65565b929e919d509b50909950975050505050505050565b6113b282826040516024016131c6929190613ce0565b60408051601f198184030181529190526020810180516001600160e01b031663c3b5563560e01b179052613628565b613238816040516024016132099190613c97565b60408051601f198184030181529190526020810180516001600160e01b031663104c13eb60e21b179052613628565b50565b610dee83838360405160240161325393929190613d26565b60408051601f198184030181529190526020810180516001600160e01b031663969cdd0360e01b179052613628565b8154600090613293575060006106d8565b82546000905b808210156132fd5760006132ad83836136b0565b9050848682815481106132d057634e487b7160e01b600052603260045260246000fd5b906000526020600020015411156132e9578091506132f7565b6132f4816001613dc5565b92505b50613299565b60008211801561334057508385613315600185613e1c565b8154811061333357634e487b7160e01b600052603260045260246000fd5b9060005260206000200154145b1561335957613350600183613e1c565b925050506106d8565b5090506106d8565b60606000613370836002613dfd565b61337b906002613dc5565b6001600160401b038111156133a057634e487b7160e01b600052604160045260246000fd5b6040519080825280601f01601f1916602001820160405280156133ca576020820181803683370190505b509050600360fc1b816000815181106133f357634e487b7160e01b600052603260045260246000fd5b60200101906001600160f81b031916908160001a905350600f60fb1b8160018151811061343057634e487b7160e01b600052603260045260246000fd5b60200101906001600160f81b031916908160001a9053506000613454846002613dfd565b61345f906001613dc5565b90505b60018111156134f3576f181899199a1a9b1b9c1cb0b131b232b360811b85600f16601081106134a157634e487b7160e01b600052603260045260246000fd5b1a60f81b8282815181106134c557634e487b7160e01b600052603260045260246000fd5b60200101906001600160f81b031916908160001a90535060049490941c936134ec81613e5f565b9050613462565b508315610d825760405162461bcd60e51b815260206004820181905260248201527f537472696e67733a20686578206c656e67746820696e73756666696369656e74604482015260640161078f565b600061354d86610d64565b9050600061355a866136cb565b9050818110156135bc578554600181810188556000888152602080822090930185905581890180548084018255908252838220018890556002890180548084018255908252838220018790556003890180549283018155815291909120018390555b50505050505050565b60006135d085610d64565b9050806135dc856136cb565b1015612e9f578354600180820186556000868152602080822090930193909355808601805480830182559084528284200194909455600290940180549384018155815292909220015550565b80516a636f6e736f6c652e6c6f67602083016000808483855afa5050505050565b600081158061366d5750828261365f8183613dfd565b925061366b9083613ddd565b145b6106d85760405162461bcd60e51b815260206004820152601460248201527364732d6d6174682d6d756c2d6f766572666c6f7760601b604482015260640161078f565b60006136bf6002848418613ddd565b610d8290848416613dc5565b80546000906136dc57506000919050565b815482906136ec90600190613e1c565b8154811061370a57634e487b7160e01b600052603260045260246000fd5b90600052602060002001549050919050565b919050565b803561371c81613ef2565b600082601f83011261373c578081fd5b8135602061375161374c83613da2565b613d72565b80838252828201915082860187848660051b8901011115613770578586fd5b855b8581101561379757813561378581613ef2565b84529284019290840190600101613772565b5090979650505050505050565b600082601f8301126137b4578081fd5b604051604081018181106001600160401b03821117156137d6576137d6613edc565b80604052508083856040860111156137ec578384fd5b835b600281101561380d5781358352602092830192909101906001016137ee565b509195945050505050565b600082601f830112613828578081fd5b604051606081018181106001600160401b038211171561384a5761384a613edc565b60405280836060810186101561385e578384fd5b835b600381101561380d578135835260209283019290910190600101613860565b600082601f83011261388f578081fd5b8135602061389f61374c83613da2565b80838252828201915082860187848660051b89010111156138be578586fd5b855b85811015613797578135845292840192908401906001016138c0565b6000602082840312156138ed578081fd5b8135610d8281613ef2565b600060208284031215613909578081fd5b8151610d8281613ef2565b60008060408385031215613926578081fd5b823561393181613ef2565b9150602083013561394181613ef2565b809150509250929050565b600080600060608486031215613960578081fd5b833561396b81613ef2565b9250602084013561397b81613ef2565b929592945050506040919091013590565b6000806040838503121561399e578182fd5b82356139a981613ef2565b915060208301356001600160401b038111156139c3578182fd5b6139cf8582860161372c565b9150509250929050565b6000806000806000806000610140888a0312156139f4578283fd5b6139fd88613721565b965060208801356001600160401b0380821115613a18578485fd5b613a248b838c0161372c565b975060408a0135915080821115613a39578485fd5b613a458b838c0161387f565b965060608a0135915080821115613a5a578485fd5b613a668b838c0161387f565b955060808a0135915080821115613a7b578485fd5b50613a888a828b0161387f565b935050613a988960a08a01613818565b9150613aa8896101008a016137a4565b905092959891949750929550565b60008060408385031215613ac8578182fd5b8235613ad381613ef2565b946020939093013593505050565b600060208284031215613af2578081fd5b5035919050565b60008060408385031215613b0b578182fd5b82359150602083013561394181613ef2565b600060208284031215613b2e578081fd5b81356001600160e01b031981168114610d82578182fd5b600060608284031215613b56578081fd5b604051606081018181106001600160401b0382111715613b7857613b78613edc565b80604052508251815260208301516020820152604083015160408201528091505092915050565b600060208284031215613bb0578081fd5b5051919050565b60008060008060808587031215613bcc578182fd5b5050823594602084013594506040840135936060013592509050565b60008151808452613c00816020860160208601613e33565b601f01601f19169290920160200192915050565b76020b1b1b2b9b9a1b7b73a3937b61d1030b1b1b7bab73a1604d1b815260008351613c46816017850160208801613e33565b7001034b99036b4b9b9b4b733903937b6329607d1b6017918401918201528351613c77816028840160208801613e33565b01602801949350505050565b6001600160a01b0391909116815260200190565b602081526000610d826020830184613be8565b608081526000613cbd6080830187613be8565b6001600160a01b0395861660208401529390941660408201526060015292915050565b604081526000613cf36040830185613be8565b905082151560208301529392505050565b604081526000613d176040830185613be8565b90508260208301529392505050565b606081526000613d396060830186613be8565b60208301949094525060400152919050565b6020808252600d908201526c7a65726f20636f696e6167657360981b604082015260600190565b604051601f8201601f191681016001600160401b0381118282101715613d9a57613d9a613edc565b604052919050565b60006001600160401b03821115613dbb57613dbb613edc565b5060051b60200190565b60008219821115613dd857613dd8613ec6565b500190565b600082613df857634e487b7160e01b81526012600452602481fd5b500490565b6000816000190483118215151615613e1757613e17613ec6565b500290565b600082821015613e2e57613e2e613ec6565b500390565b60005b83811015613e4e578181015183820152602001613e36565b83811115612ecc5750506000910152565b600081613e6e57613e6e613ec6565b506000190190565b600181811c90821680613e8a57607f821691505b60208210811415610dc257634e487b7160e01b600052602260045260246000fd5b6000600019821415613ebf57613ebf613ec6565b5060010190565b634e487b7160e01b600052601160045260246000fd5b634e487b7160e01b600052604160045260246000fd5b6001600160a01b038116811461323857600080fdfe62616c616e63654f664174203d3d3d6c6179657232203a202573202573202573205f76616c7565417420696e6465782025732c20736e617073686f74732e6964732e6c656e67746820257320a2646970667358221220f5ecbad5de61c959df60d82aeb9a1ea7c3b328c2d03cf6c1025c1734d9ea77b664736f6c63430008040033",
  "linkReferences": {},
  "deployedLinkReferences": {}
}