{
  "_format": "hh-sol-artifact-1",
  "contractName": "AutoCoinageSnapshot",
  "sourceName": "contracts/tokens/AutoCoinageSnapshot.sol",
  "abi": [
    {
      "inputs": [],
      "stateMutability": "nonpayable",
      "type": "constructor"
    },
    {
      "anonymous": false,
      "inputs": [
        {
          "indexed": true,
          "internalType": "bytes32",
          "name": "role",
          "type": "bytes32"
        },
        {
          "indexed": true,
          "internalType": "bytes32",
          "name": "previousAdminRole",
          "type": "bytes32"
        },
        {
          "indexed": true,
          "internalType": "bytes32",
          "name": "newAdminRole",
          "type": "bytes32"
        }
      ],
      "name": "RoleAdminChanged",
      "type": "event"
    },
    {
      "anonymous": false,
      "inputs": [
        {
          "indexed": true,
          "internalType": "bytes32",
          "name": "role",
          "type": "bytes32"
        },
        {
          "indexed": true,
          "internalType": "address",
          "name": "account",
          "type": "address"
        },
        {
          "indexed": true,
          "internalType": "address",
          "name": "sender",
          "type": "address"
        }
      ],
      "name": "RoleGranted",
      "type": "event"
    },
    {
      "anonymous": false,
      "inputs": [
        {
          "indexed": true,
          "internalType": "bytes32",
          "name": "role",
          "type": "bytes32"
        },
        {
          "indexed": true,
          "internalType": "address",
          "name": "account",
          "type": "address"
        },
        {
          "indexed": true,
          "internalType": "address",
          "name": "sender",
          "type": "address"
        }
      ],
      "name": "RoleRevoked",
      "type": "event"
    },
    {
      "anonymous": false,
      "inputs": [
        {
          "indexed": true,
          "internalType": "address",
          "name": "layer2",
          "type": "address"
        },
        {
          "indexed": false,
          "internalType": "uint256",
          "name": "id",
          "type": "uint256"
        }
      ],
      "name": "onSnapshot",
      "type": "event"
    },
    {
      "anonymous": false,
      "inputs": [
        {
          "indexed": true,
          "internalType": "address",
          "name": "layer2",
          "type": "address"
        },
        {
          "indexed": false,
          "internalType": "uint256",
          "name": "id",
          "type": "uint256"
        }
      ],
      "name": "onSyncLayer2",
      "type": "event"
    },
    {
      "anonymous": false,
      "inputs": [
        {
          "indexed": true,
          "internalType": "address",
          "name": "layer2",
          "type": "address"
        },
        {
          "indexed": false,
          "internalType": "address",
          "name": "account",
          "type": "address"
        },
        {
          "indexed": false,
          "internalType": "uint256",
          "name": "id",
          "type": "uint256"
        }
      ],
      "name": "onSyncLayer2Address",
      "type": "event"
    },
    {
      "anonymous": false,
      "inputs": [
        {
          "indexed": true,
          "internalType": "address",
          "name": "layer2",
          "type": "address"
        },
        {
          "indexed": false,
          "internalType": "uint256",
          "name": "id",
          "type": "uint256"
        }
      ],
      "name": "onSyncLayer2Batch",
      "type": "event"
    },
    {
      "inputs": [],
      "name": "ADMIN_ROLE",
      "outputs": [
        {
          "internalType": "bytes32",
          "name": "",
          "type": "bytes32"
        }
      ],
      "stateMutability": "view",
      "type": "function"
    },
    {
      "inputs": [],
      "name": "DEFAULT_ADMIN_ROLE",
      "outputs": [
        {
          "internalType": "bytes32",
          "name": "",
          "type": "bytes32"
        }
      ],
      "stateMutability": "view",
      "type": "function"
    },
    {
      "inputs": [],
      "name": "REFACTOR_BOUNDARY",
      "outputs": [
        {
          "internalType": "uint256",
          "name": "",
          "type": "uint256"
        }
      ],
      "stateMutability": "view",
      "type": "function"
    },
    {
      "inputs": [],
      "name": "REFACTOR_DIVIDER",
      "outputs": [
        {
          "internalType": "uint256",
          "name": "",
          "type": "uint256"
        }
      ],
      "stateMutability": "view",
      "type": "function"
    },
    {
      "inputs": [],
      "name": "SNAPSHOT_ROLE",
      "outputs": [
        {
          "internalType": "bytes32",
          "name": "",
          "type": "bytes32"
        }
      ],
      "stateMutability": "view",
      "type": "function"
    },
    {
      "inputs": [],
      "name": "UPDATE_ROLE",
      "outputs": [
        {
          "internalType": "bytes32",
          "name": "",
          "type": "bytes32"
        }
      ],
      "stateMutability": "view",
      "type": "function"
    },
    {
      "inputs": [
        {
          "internalType": "address",
          "name": "layer2",
          "type": "address"
        },
        {
          "internalType": "address",
          "name": "account",
          "type": "address"
        }
      ],
      "name": "addSync",
      "outputs": [
        {
          "internalType": "uint256",
          "name": "",
          "type": "uint256"
        }
      ],
      "stateMutability": "nonpayable",
      "type": "function"
    },
    {
      "inputs": [
        {
          "internalType": "address",
          "name": "owner",
          "type": "address"
        },
        {
          "internalType": "address",
          "name": "spender",
          "type": "address"
        }
      ],
      "name": "allowance",
      "outputs": [
        {
          "internalType": "uint256",
          "name": "",
          "type": "uint256"
        }
      ],
      "stateMutability": "view",
      "type": "function"
    },
    {
      "inputs": [
        {
          "internalType": "uint256",
          "name": "v",
          "type": "uint256"
        },
        {
          "internalType": "uint256",
          "name": "refactoredCount",
          "type": "uint256"
        },
        {
          "internalType": "uint256",
          "name": "_factor",
          "type": "uint256"
        },
        {
          "internalType": "uint256",
          "name": "refactorCount",
          "type": "uint256"
        }
      ],
      "name": "applyFactor",
      "outputs": [
        {
          "internalType": "uint256",
          "name": "",
          "type": "uint256"
        }
      ],
      "stateMutability": "view",
      "type": "function"
    },
    {
      "inputs": [
        {
          "internalType": "address",
          "name": "account",
          "type": "address"
        }
      ],
      "name": "balanceOf",
      "outputs": [
        {
          "internalType": "uint256",
          "name": "",
          "type": "uint256"
        }
      ],
      "stateMutability": "view",
      "type": "function"
    },
    {
      "inputs": [
        {
          "internalType": "address",
          "name": "layer2",
          "type": "address"
        },
        {
          "internalType": "address",
          "name": "account",
          "type": "address"
        }
      ],
      "name": "balanceOf",
      "outputs": [
        {
          "internalType": "uint256",
          "name": "",
          "type": "uint256"
        }
      ],
      "stateMutability": "view",
      "type": "function"
    },
    {
      "inputs": [
        {
          "internalType": "address",
          "name": "account",
          "type": "address"
        },
        {
          "internalType": "uint256",
          "name": "snashotAggregatorId",
          "type": "uint256"
        }
      ],
      "name": "balanceOfAt",
      "outputs": [
        {
          "internalType": "uint256",
          "name": "accountStaked",
          "type": "uint256"
        }
      ],
      "stateMutability": "view",
      "type": "function"
    },
    {
      "inputs": [
        {
          "internalType": "address",
          "name": "layer2",
          "type": "address"
        },
        {
          "internalType": "address",
          "name": "account",
          "type": "address"
        },
        {
          "internalType": "uint256",
          "name": "snapshotId",
          "type": "uint256"
        }
      ],
      "name": "balanceOfAt",
      "outputs": [
        {
          "internalType": "uint256",
          "name": "",
          "type": "uint256"
        }
      ],
      "stateMutability": "view",
      "type": "function"
    },
    {
      "inputs": [
        {
          "internalType": "address",
          "name": "layer2",
          "type": "address"
        },
        {
          "internalType": "address",
          "name": "account",
          "type": "address"
        }
      ],
      "name": "currentAccountBalanceSnapshots",
      "outputs": [
        {
          "internalType": "bool",
          "name": "snapshotted",
          "type": "bool"
        },
        {
          "internalType": "uint256",
          "name": "snapShotBalance",
          "type": "uint256"
        },
        {
          "internalType": "uint256",
          "name": "snapShotRefactoredCount",
          "type": "uint256"
        },
        {
          "internalType": "uint256",
          "name": "snapShotRemain",
          "type": "uint256"
        },
        {
          "internalType": "uint256",
          "name": "currentBalanceOf",
          "type": "uint256"
        },
        {
          "internalType": "uint256",
          "name": "curBalances",
          "type": "uint256"
        },
        {
          "internalType": "uint256",
          "name": "curRefactoredCounts",
          "type": "uint256"
        },
        {
          "internalType": "uint256",
          "name": "curRemains",
          "type": "uint256"
        }
      ],
      "stateMutability": "view",
      "type": "function"
    },
    {
      "inputs": [
        {
          "internalType": "address",
          "name": "layer2",
          "type": "address"
        }
      ],
      "name": "currentFactorSnapshots",
      "outputs": [
        {
          "internalType": "bool",
          "name": "snapshotted",
          "type": "bool"
        },
        {
          "internalType": "uint256",
          "name": "snapShotFactor",
          "type": "uint256"
        },
        {
          "internalType": "uint256",
          "name": "snapShotRefactorCount",
          "type": "uint256"
        },
        {
          "internalType": "uint256",
          "name": "curFactorValue",
          "type": "uint256"
        },
        {
          "internalType": "uint256",
          "name": "curFactor",
          "type": "uint256"
        },
        {
          "internalType": "uint256",
          "name": "curRefactorCount",
          "type": "uint256"
        }
      ],
      "stateMutability": "view",
      "type": "function"
    },
    {
      "inputs": [
        {
          "internalType": "address",
          "name": "",
          "type": "address"
        }
      ],
      "name": "currentLayer2SnapshotId",
      "outputs": [
        {
          "internalType": "uint256",
          "name": "",
          "type": "uint256"
        }
      ],
      "stateMutability": "view",
      "type": "function"
    },
    {
      "inputs": [
        {
          "internalType": "address",
          "name": "layer2",
          "type": "address"
        }
      ],
      "name": "currentTotalSupplySnapshots",
      "outputs": [
        {
          "internalType": "bool",
          "name": "snapshotted",
          "type": "bool"
        },
        {
          "internalType": "uint256",
          "name": "snapShotBalance",
          "type": "uint256"
        },
        {
          "internalType": "uint256",
          "name": "snapShotRefactoredCount",
          "type": "uint256"
        },
        {
          "internalType": "uint256",
          "name": "snapShotRemain",
          "type": "uint256"
        },
        {
          "internalType": "uint256",
          "name": "currentTotalSupply",
          "type": "uint256"
        },
        {
          "internalType": "uint256",
          "name": "curBalances",
          "type": "uint256"
        },
        {
          "internalType": "uint256",
          "name": "curRefactoredCounts",
          "type": "uint256"
        },
        {
          "internalType": "uint256",
          "name": "curRemains",
          "type": "uint256"
        }
      ],
      "stateMutability": "view",
      "type": "function"
    },
    {
      "inputs": [],
      "name": "decimals",
      "outputs": [
        {
          "internalType": "uint256",
          "name": "",
          "type": "uint256"
        }
      ],
      "stateMutability": "view",
      "type": "function"
    },
    {
      "inputs": [
        {
          "internalType": "address",
          "name": "",
          "type": "address"
        }
      ],
      "name": "existAccounts",
      "outputs": [
        {
          "internalType": "bool",
          "name": "",
          "type": "bool"
        }
      ],
      "stateMutability": "view",
      "type": "function"
    },
    {
      "inputs": [
        {
          "internalType": "address",
          "name": "",
          "type": "address"
        }
      ],
      "name": "existLayer2s",
      "outputs": [
        {
          "internalType": "bool",
          "name": "",
          "type": "bool"
        }
      ],
      "stateMutability": "view",
      "type": "function"
    },
    {
      "inputs": [
        {
          "internalType": "uint256",
          "name": "id",
          "type": "uint256"
        },
        {
          "internalType": "address",
          "name": "layer2",
          "type": "address"
        },
        {
          "internalType": "address",
          "name": "account",
          "type": "address"
        }
      ],
      "name": "getAccountBalanceSnapsByIds",
      "outputs": [
        {
          "internalType": "uint256",
          "name": "",
          "type": "uint256"
        },
        {
          "internalType": "uint256",
          "name": "",
          "type": "uint256"
        },
        {
          "internalType": "uint256",
          "name": "",
          "type": "uint256"
        },
        {
          "internalType": "uint256",
          "name": "",
          "type": "uint256"
        }
      ],
      "stateMutability": "view",
      "type": "function"
    },
    {
      "inputs": [
        {
          "internalType": "uint256",
          "name": "snapshotId",
          "type": "uint256"
        },
        {
          "internalType": "address",
          "name": "layer2",
          "type": "address"
        },
        {
          "internalType": "address",
          "name": "account",
          "type": "address"
        }
      ],
      "name": "getAccountBalanceSnapsBySnapshotId",
      "outputs": [
        {
          "internalType": "uint256",
          "name": "",
          "type": "uint256"
        },
        {
          "internalType": "uint256",
          "name": "",
          "type": "uint256"
        },
        {
          "internalType": "uint256",
          "name": "",
          "type": "uint256"
        },
        {
          "internalType": "uint256",
          "name": "",
          "type": "uint256"
        }
      ],
      "stateMutability": "view",
      "type": "function"
    },
    {
      "inputs": [
        {
          "internalType": "address",
          "name": "account",
          "type": "address"
        }
      ],
      "name": "getBalanceOfInTokamak",
      "outputs": [
        {
          "internalType": "uint256",
          "name": "accountAmount",
          "type": "uint256"
        }
      ],
      "stateMutability": "view",
      "type": "function"
    },
    {
      "inputs": [
        {
          "internalType": "address",
          "name": "layer2",
          "type": "address"
        }
      ],
      "name": "getCurrentLayer2SnapshotId",
      "outputs": [
        {
          "internalType": "uint256",
          "name": "",
          "type": "uint256"
        }
      ],
      "stateMutability": "view",
      "type": "function"
    },
    {
      "inputs": [
        {
          "internalType": "address",
          "name": "layer2",
          "type": "address"
        },
        {
          "internalType": "address",
          "name": "user",
          "type": "address"
        }
      ],
      "name": "getLayer2BalanceOfInTokamak",
      "outputs": [
        {
          "internalType": "uint256",
          "name": "balanceOfLayer2Amount",
          "type": "uint256"
        },
        {
          "internalType": "uint256",
          "name": "balance",
          "type": "uint256"
        },
        {
          "internalType": "uint256",
          "name": "refactoredCount",
          "type": "uint256"
        },
        {
          "internalType": "uint256",
          "name": "remain",
          "type": "uint256"
        }
      ],
      "stateMutability": "view",
      "type": "function"
    },
    {
      "inputs": [
        {
          "internalType": "address",
          "name": "layer2",
          "type": "address"
        }
      ],
      "name": "getLayer2TotalSupplyInTokamak",
      "outputs": [
        {
          "internalType": "uint256",
          "name": "totalSupplyLayer2",
          "type": "uint256"
        },
        {
          "internalType": "uint256",
          "name": "balance",
          "type": "uint256"
        },
        {
          "internalType": "uint256",
          "name": "refactoredCount",
          "type": "uint256"
        },
        {
          "internalType": "uint256",
          "name": "remain",
          "type": "uint256"
        }
      ],
      "stateMutability": "view",
      "type": "function"
    },
    {
      "inputs": [
        {
          "internalType": "bytes32",
          "name": "role",
          "type": "bytes32"
        }
      ],
      "name": "getRoleAdmin",
      "outputs": [
        {
          "internalType": "bytes32",
          "name": "",
          "type": "bytes32"
        }
      ],
      "stateMutability": "view",
      "type": "function"
    },
    {
      "inputs": [],
      "name": "getTotalStakedInTokamak",
      "outputs": [
        {
          "internalType": "uint256",
          "name": "accountAmount",
          "type": "uint256"
        }
      ],
      "stateMutability": "view",
      "type": "function"
    },
    {
      "inputs": [
        {
          "internalType": "bytes32",
          "name": "role",
          "type": "bytes32"
        },
        {
          "internalType": "address",
          "name": "account",
          "type": "address"
        }
      ],
      "name": "grantRole",
      "outputs": [],
      "stateMutability": "nonpayable",
      "type": "function"
    },
    {
      "inputs": [
        {
          "internalType": "bytes32",
          "name": "role",
          "type": "bytes32"
        },
        {
          "internalType": "address",
          "name": "account",
          "type": "address"
        }
      ],
      "name": "hasRole",
      "outputs": [
        {
          "internalType": "bool",
          "name": "",
          "type": "bool"
        }
      ],
      "stateMutability": "view",
      "type": "function"
    },
    {
      "inputs": [
        {
          "internalType": "address",
          "name": "layer2",
          "type": "address"
        }
      ],
      "name": "lastSnapShotIndex",
      "outputs": [
        {
          "internalType": "uint256",
          "name": "",
          "type": "uint256"
        }
      ],
      "stateMutability": "view",
      "type": "function"
    },
    {
      "inputs": [],
      "name": "layer2Registry",
      "outputs": [
        {
          "internalType": "address",
          "name": "",
          "type": "address"
        }
      ],
      "stateMutability": "view",
      "type": "function"
    },
    {
      "inputs": [
        {
          "internalType": "uint256",
          "name": "",
          "type": "uint256"
        }
      ],
      "name": "layer2s",
      "outputs": [
        {
          "internalType": "address",
          "name": "",
          "type": "address"
        }
      ],
      "stateMutability": "view",
      "type": "function"
    },
    {
      "inputs": [],
      "name": "migratedL2",
      "outputs": [
        {
          "internalType": "bool",
          "name": "",
          "type": "bool"
        }
      ],
      "stateMutability": "view",
      "type": "function"
    },
    {
      "inputs": [],
      "name": "name",
      "outputs": [
        {
          "internalType": "string",
          "name": "",
          "type": "string"
        }
      ],
      "stateMutability": "view",
      "type": "function"
    },
    {
      "inputs": [],
      "name": "pauseProxy",
      "outputs": [
        {
          "internalType": "bool",
          "name": "",
          "type": "bool"
        }
      ],
      "stateMutability": "view",
      "type": "function"
    },
    {
      "inputs": [
        {
          "internalType": "bytes32",
          "name": "role",
          "type": "bytes32"
        },
        {
          "internalType": "address",
          "name": "account",
          "type": "address"
        }
      ],
      "name": "renounceRole",
      "outputs": [],
      "stateMutability": "nonpayable",
      "type": "function"
    },
    {
      "inputs": [
        {
          "internalType": "bytes32",
          "name": "role",
          "type": "bytes32"
        },
        {
          "internalType": "address",
          "name": "account",
          "type": "address"
        }
      ],
      "name": "revokeRole",
      "outputs": [],
      "stateMutability": "nonpayable",
      "type": "function"
    },
    {
      "inputs": [],
      "name": "seigManager",
      "outputs": [
        {
          "internalType": "address",
          "name": "",
          "type": "address"
        }
      ],
      "stateMutability": "view",
      "type": "function"
    },
    {
      "inputs": [
        {
          "internalType": "address",
          "name": "_seigManager",
          "type": "address"
        },
        {
          "internalType": "address",
          "name": "_layer2Registry",
          "type": "address"
        }
      ],
      "name": "setAddress",
      "outputs": [],
      "stateMutability": "nonpayable",
      "type": "function"
    },
    {
      "inputs": [
        {
          "internalType": "string",
          "name": "name_",
          "type": "string"
        },
        {
          "internalType": "string",
          "name": "symbol_",
          "type": "string"
        },
        {
          "internalType": "uint256",
          "name": "decimals_",
          "type": "uint256"
        }
      ],
      "name": "setNameSymbolDecimals",
      "outputs": [],
      "stateMutability": "nonpayable",
      "type": "function"
    },
    {
      "inputs": [
        {
          "internalType": "address",
          "name": "layer2",
          "type": "address"
        }
      ],
      "name": "snapshot",
      "outputs": [
        {
          "internalType": "uint256",
          "name": "",
          "type": "uint256"
        }
      ],
      "stateMutability": "nonpayable",
      "type": "function"
    },
    {
      "inputs": [],
      "name": "snapshot",
      "outputs": [
        {
          "internalType": "uint256",
          "name": "",
          "type": "uint256"
        }
      ],
      "stateMutability": "nonpayable",
      "type": "function"
    },
    {
      "inputs": [],
      "name": "snashotAggregatorTotal",
      "outputs": [
        {
          "internalType": "uint256",
          "name": "",
          "type": "uint256"
        }
      ],
      "stateMutability": "view",
      "type": "function"
    },
    {
      "inputs": [
        {
          "internalType": "address",
          "name": "account",
          "type": "address"
        },
        {
          "internalType": "uint256",
          "name": "snashotAggregatorId",
          "type": "uint256"
        }
      ],
      "name": "stakedAmountWithSnashotAggregator",
      "outputs": [
        {
          "internalType": "uint256",
          "name": "accountStaked",
          "type": "uint256"
        },
        {
          "internalType": "uint256",
          "name": "totalStaked",
          "type": "uint256"
        }
      ],
      "stateMutability": "view",
      "type": "function"
    },
    {
      "inputs": [
        {
          "internalType": "bytes4",
          "name": "interfaceId",
          "type": "bytes4"
        }
      ],
      "name": "supportsInterface",
      "outputs": [
        {
          "internalType": "bool",
          "name": "",
          "type": "bool"
        }
      ],
      "stateMutability": "view",
      "type": "function"
    },
    {
      "inputs": [],
      "name": "symbol",
      "outputs": [
        {
          "internalType": "string",
          "name": "",
          "type": "string"
        }
      ],
      "stateMutability": "view",
      "type": "function"
    },
    {
      "inputs": [
        {
          "internalType": "address",
          "name": "layer2",
          "type": "address"
        },
        {
          "internalType": "address",
          "name": "account",
          "type": "address"
        }
      ],
      "name": "sync",
      "outputs": [
        {
          "internalType": "uint256",
          "name": "",
          "type": "uint256"
        }
      ],
      "stateMutability": "nonpayable",
      "type": "function"
    },
    {
      "inputs": [
        {
          "internalType": "address",
          "name": "layer2",
          "type": "address"
        }
      ],
      "name": "sync",
      "outputs": [
        {
          "internalType": "uint256",
          "name": "",
          "type": "uint256"
        }
      ],
      "stateMutability": "nonpayable",
      "type": "function"
    },
    {
      "inputs": [
        {
          "internalType": "address",
          "name": "layer2",
          "type": "address"
        },
        {
          "internalType": "address[]",
          "name": "accounts",
          "type": "address[]"
        },
        {
          "internalType": "uint256[]",
          "name": "balances",
          "type": "uint256[]"
        },
        {
          "internalType": "uint256[]",
          "name": "refactoredCounts",
          "type": "uint256[]"
        },
        {
          "internalType": "uint256[]",
          "name": "remains",
          "type": "uint256[]"
        },
        {
          "internalType": "uint256[3]",
          "name": "layerTotal",
          "type": "uint256[3]"
        },
        {
          "internalType": "uint256[2]",
          "name": "layerFactor",
          "type": "uint256[2]"
        }
      ],
      "name": "syncBactchOffline",
      "outputs": [
        {
          "internalType": "bool",
          "name": "",
          "type": "bool"
        }
      ],
      "stateMutability": "nonpayable",
      "type": "function"
    },
    {
      "inputs": [
        {
          "internalType": "address",
          "name": "layer2",
          "type": "address"
        },
        {
          "internalType": "address[]",
          "name": "accounts",
          "type": "address[]"
        }
      ],
      "name": "syncBatch",
      "outputs": [
        {
          "internalType": "uint256",
          "name": "",
          "type": "uint256"
        }
      ],
      "stateMutability": "nonpayable",
      "type": "function"
    },
    {
      "inputs": [],
      "name": "totalSupply",
      "outputs": [
        {
          "internalType": "uint256",
          "name": "",
          "type": "uint256"
        }
      ],
      "stateMutability": "view",
      "type": "function"
    },
    {
      "inputs": [
        {
          "internalType": "address",
          "name": "layer2",
          "type": "address"
        }
      ],
      "name": "totalSupply",
      "outputs": [
        {
          "internalType": "uint256",
          "name": "",
          "type": "uint256"
        }
      ],
      "stateMutability": "view",
      "type": "function"
    },
    {
      "inputs": [
        {
          "internalType": "address",
          "name": "layer2",
          "type": "address"
        },
        {
          "internalType": "uint256",
          "name": "snapshotId",
          "type": "uint256"
        }
      ],
      "name": "totalSupplyAt",
      "outputs": [
        {
          "internalType": "uint256",
          "name": "",
          "type": "uint256"
        }
      ],
      "stateMutability": "view",
      "type": "function"
    },
    {
      "inputs": [
        {
          "internalType": "uint256",
          "name": "snashotAggregatorId",
          "type": "uint256"
        }
      ],
      "name": "totalSupplyAt",
      "outputs": [
        {
          "internalType": "uint256",
          "name": "totalStaked",
          "type": "uint256"
        }
      ],
      "stateMutability": "view",
      "type": "function"
    },
    {
      "inputs": [
        {
          "internalType": "address",
          "name": "recipient",
          "type": "address"
        },
        {
          "internalType": "uint256",
          "name": "amount",
          "type": "uint256"
        }
      ],
      "name": "transfer",
      "outputs": [
        {
          "internalType": "bool",
          "name": "",
          "type": "bool"
        }
      ],
      "stateMutability": "nonpayable",
      "type": "function"
    },
    {
      "inputs": [
        {
          "internalType": "address",
          "name": "sender",
          "type": "address"
        },
        {
          "internalType": "address",
          "name": "recipient",
          "type": "address"
        },
        {
          "internalType": "uint256",
          "name": "amount",
          "type": "uint256"
        }
      ],
      "name": "transferFrom",
      "outputs": [
        {
          "internalType": "bool",
          "name": "",
          "type": "bool"
        }
      ],
      "stateMutability": "nonpayable",
      "type": "function"
    },
    {
      "inputs": [
        {
          "internalType": "uint256",
          "name": "",
          "type": "uint256"
        }
      ],
      "name": "uniqAccounts",
      "outputs": [
        {
          "internalType": "address",
          "name": "",
          "type": "address"
        }
      ],
      "stateMutability": "view",
      "type": "function"
    }
  ],
  "bytecode": "0x60806040526b204fce5e3e25026110000000600155600280553480156200002557600080fd5b5062000033600033620000bd565b6200005f7fa49807205ce4d355092ef5a8a18f56e8913cf4a201fbe287825b095693c2177533620000bd565b6200008b7f3ee192ac25847473237ced4bba57f848e1fd794930ff85b4282329058096720533620000bd565b620000b77f5fdbd35e8da83ee755d5e62a539e5ed7f47126abede0b8b10f9ea43dc6eed07f33620000bd565b6200016d565b620000c98282620000cd565b5050565b6000828152602081815260408083206001600160a01b038516845290915290205460ff16620000c9576000828152602081815260408083206001600160a01b03851684529091529020805460ff19166001179055620001293390565b6001600160a01b0316816001600160a01b0316837f2f8788117e7eff1d82e926ec794901d17c78024a50270940304540a733656f0d60405160405180910390a45050565b614d3b806200017d6000396000f3fe608060405234801561001057600080fd5b506004361061030b5760003560e01c80636fb7f5581161019e578063a9059cbb116100ef578063cf2a239c1161009d578063cf2a239c146107aa578063d0e0707b146107bd578063d547741f146107d0578063dd62ed3e146107e3578063e4dc2aa4146107f1578063ec477a9014610804578063f59e8bb914610817578063f7888aec1461081f57600080fd5b8063a9059cbb14610736578063ac16cd231461074c578063adc7e4f11461075f578063addf909014610772578063b7c246d71461077b578063bc5f878914610784578063bfe64c661461079757600080fd5b806391d148541161014c57806391d14854146106d357806395d89b41146106e65780639711715a146106ee578063981b24d0146106f6578063a1f5f50e14610709578063a217fddf1461071b578063a58411941461072357600080fd5b80636fb7f558146106095780637028e2cd1461061c57806370a082311461064357806373ba69881461065657806375b238fc146106985780637ae39263146106ad57806382799e37146106c057600080fd5b80632bd1f9481161026357806336568abe1161021157806336568abe146105675780633b58524d1461057a578063407faa961461058d5780634ee2cd7e146105a05780635cd3b6d7146105b357806363a8fd89146105d6578063657db629146105e35780636ec0b7f2146105f657600080fd5b80632bd1f948146104ca5780632d119773146104dd5780632f2ff15d146105055780632f5eddcb146105185780633041949b1461052b57806330b90e991461053e578063313ce5671461055e57600080fd5b80630d55c7ac116102c05780630d55c7ac1461040157806318160ddd146104515780631e3a0ddd146104595780631e4d15f71461046c57806323b872dd14610481578063248a9ca31461049457806326512160146104b757600080fd5b806249784614610310578062d87a9c1461034a578062f08e461461035357806301ffc9a714610373578063043cd82f1461039657806306fdde03146103c95780630bd4c339146103de575b600080fd5b6103377f3ee192ac25847473237ced4bba57f848e1fd794930ff85b4282329058096720581565b6040519081526020015b60405180910390f35b61033760025481565b61033761036136600461469a565b60086020526000908152604090205481565b6103866103813660046148db565b610832565b6040519015158152602001610341565b6103a96103a43660046146d2565b610869565b604080519485526020850193909352918301526060820152608001610341565b6103d1610a3c565b6040516103419190614ad3565b6103866103ec36600461469a565b60166020526000908152604090205460ff1681565b61041461040f3660046146d2565b610aca565b6040805198151589526020890197909752958701949094526060860192909252608085015260a084015260c083015260e082015261010001610341565b610337610d19565b61033761046736600461469a565b610e54565b61047f61047a366004614903565b610e6f565b005b61038661048f36600461470a565b610eb8565b6103376104a236600461489f565b60009081526020819052604090206001015490565b6103376104c536600461469a565b610ec2565b6103376104d836600461474a565b610f01565b6104f06104eb366004614874565b61146b565b60408051928352602083019190915201610341565b61047f6105133660046148b7565b61165c565b61041461052636600461469a565b611687565b6103376105393660046146d2565b61188b565b61055161054c36600461489f565b611d1d565b6040516103419190614abf565b61033760125481565b61047f6105753660046148b7565b611d47565b61047f6105883660046146d2565b611dc5565b6103a961059b3660046149de565b611e68565b6103376105ae366004614874565b612186565b6103866105c136600461469a565b60146020526000908152604090205460ff1681565b600c546103869060ff1681565b6103866105f1366004614797565b6122f6565b61033761060436600461469a565b612513565b600354610551906001600160a01b031681565b6103377f5fdbd35e8da83ee755d5e62a539e5ed7f47126abede0b8b10f9ea43dc6eed07f81565b61033761065136600461469a565b61275b565b61066961066436600461469a565b612913565b6040805196151587526020870195909552938501929092526060840152608083015260a082015260c001610341565b610337600080516020614ce683398151915281565b6105516106bb36600461489f565b612b4d565b6103376106ce366004614874565b612b5d565b6103866106e13660046148b7565b612be3565b6103d1612c0c565b610337612c19565b61033761070436600461489f565b612e56565b600c5461038690610100900460ff1681565b610337600081565b61033761073136600461469a565b612f95565b610386610744366004614874565b600092915050565b61033761075a366004614a1f565b6132a5565b61033761076d3660046146d2565b6132f8565b610337600b5481565b61033760015481565b6103a961079236600461469a565b613304565b6103376107a536600461470a565b6134b8565b600454610551906001600160a01b031681565b6103376107cb36600461469a565b61353f565b61047f6107de3660046148b7565b613589565b6103376107443660046146d2565b6103376107ff36600461469a565b6135af565b6103a96108123660046149de565b6135be565b61033761370c565b61033761082d3660046146d2565b613947565b60006001600160e01b03198216637965db0b60e01b148061086357506301ffc9a760e01b6001600160e01b03198316145b92915050565b600354604051634c063c1960e01b815260009182918291829182916001600160a01b031690634c063c19906108a2908a90600401614abf565b60206040518083038186803b1580156108ba57600080fd5b505afa1580156108ce573d6000803e3d6000fd5b505050506040513d601f19601f820116820180604052508101906108f291906146b6565b90506001600160a01b0381166109235760405162461bcd60e51b815260040161091a90614b06565b60405180910390fd5b6040516370a0823160e01b81526001600160a01b038216906370a082319061094f908990600401614abf565b60206040518083038186803b15801561096757600080fd5b505afa15801561097b573d6000803e3d6000fd5b505050506040513d601f19601f8201168201806040525081019061099f91906149c6565b94506000816001600160a01b03166327e235e3886040518263ffffffff1660e01b81526004016109cf9190614abf565b60606040518083038186803b1580156109e757600080fd5b505afa1580156109fb573d6000803e3d6000fd5b505050506040513d601f19601f82011682018060405250810190610a1f919061496c565b80516020820151604090920151979a909950909750945050505050565b60108054610a4990614c31565b80601f0160208091040260200160405190810160405280929190818152602001828054610a7590614c31565b8015610ac25780601f10610a9757610100808354040283529160200191610ac2565b820191906000526020600020905b815481529060010190602001808311610aa557829003601f168201915b505050505081565b600354604051634c063c1960e01b8152600091829182918291829182918291829182916001600160a01b031690634c063c1990610b0b908e90600401614abf565b60206040518083038186803b158015610b2357600080fd5b505afa158015610b37573d6000803e3d6000fd5b505050506040513d601f19601f82011682018060405250810190610b5b91906146b6565b90506001600160a01b038116610b835760405162461bcd60e51b815260040161091a90614b06565b6040516370a0823160e01b81526001600160a01b038216906370a0823190610baf908d90600401614abf565b60206040518083038186803b158015610bc757600080fd5b505afa158015610bdb573d6000803e3d6000fd5b505050506040513d601f19601f82011682018060405250810190610bff91906149c6565b94506000816001600160a01b03166327e235e38c6040518263ffffffff1660e01b8152600401610c2f9190614abf565b60606040518083038186803b158015610c4757600080fd5b505afa158015610c5b573d6000803e3d6000fd5b505050506040513d601f19601f82011682018060405250810190610c7f919061496c565b8051602082015160408301519197509550935090506000610c9f8d610e54565b90506000600560008f6001600160a01b03166001600160a01b0316815260200190815260200160002060008e6001600160a01b03166001600160a01b031681526020019081526020016000209050610cf88e8383613957565b809c50819d50829e50839f5050505050505050509295985092959890939650565b6004805460408051630d42d49760e01b8152905160009384936001600160a01b031692630d42d4979281830192602092829003018186803b158015610d5d57600080fd5b505afa158015610d71573d6000803e3d6000fd5b505050506040513d601f19601f82011682018060405250810190610d9591906149c6565b90506000805b82811015610e4d576004805460405163b7ffb17960e01b81529182018390526000916001600160a01b039091169063b7ffb1799060240160206040518083038186803b158015610dea57600080fd5b505afa158015610dfe573d6000803e3d6000fd5b505050506040513d601f19601f82011682018060405250810190610e2291906146b6565b9050610e2d816135af565b610e379084614b80565b9250508080610e4590614c66565b915050610d9b565b5092915050565b6001600160a01b031660009081526008602052604090205490565b600080516020614ce6833981519152610e888133613ae4565b8351610e9b9060109060208701906143dc565b508251610eaf9060119060208601906143dc565b50506012555050565b60005b9392505050565b60007f5fdbd35e8da83ee755d5e62a539e5ed7f47126abede0b8b10f9ea43dc6eed07f610eef8133613ae4565b610ef883613b48565b91505b50919050565b600354604051634c063c1960e01b815260009182916001600160a01b0390911690634c063c1990610f36908790600401614abf565b60206040518083038186803b158015610f4e57600080fd5b505afa158015610f62573d6000803e3d6000fd5b505050506040513d601f19601f82011682018060405250810190610f8691906146b6565b90506001600160a01b038116610fae5760405162461bcd60e51b815260040161091a90614b06565b6000835111610fef5760405162461bcd60e51b815260206004820152600d60248201526c7a65726f206163636f756e747360981b604482015260640161091a565b6000610ffa85613b48565b905060005b8451811015611212576000836001600160a01b03166327e235e387848151811061103957634e487b7160e01b600052603260045260246000fd5b60200260200101516040518263ffffffff1660e01b815260040161105d9190614abf565b60606040518083038186803b15801561107557600080fd5b505afa158015611089573d6000803e3d6000fd5b505050506040513d601f19601f820116820180604052508101906110ad919061496c565b90506110ef878784815181106110d357634e487b7160e01b600052603260045260246000fd5b6020026020010151836000015184602001518560400151613bf3565b6016600087848151811061111357634e487b7160e01b600052603260045260246000fd5b6020908102919091018101516001600160a01b031682528101919091526040016000205460ff166112015760016016600088858151811061116457634e487b7160e01b600052603260045260246000fd5b60200260200101516001600160a01b03166001600160a01b0316815260200190815260200160002060006101000a81548160ff02191690831515021790555060158683815181106111c557634e487b7160e01b600052603260045260246000fd5b60209081029190910181015182546001810184556000938452919092200180546001600160a01b0319166001600160a01b039092169190911790555b5061120b81614c66565b9050610fff565b506000826001600160a01b0316633eaaf86b6040518163ffffffff1660e01b815260040160606040518083038186803b15801561124e57600080fd5b505afa158015611262573d6000803e3d6000fd5b505050506040513d601f19601f82011682018060405250810190611286919061496c565b90506000816000015190506000826020015190506000836040015190506000866001600160a01b0316636d1506116040518163ffffffff1660e01b815260040160206040518083038186803b1580156112de57600080fd5b505afa1580156112f2573d6000803e3d6000fd5b505050506040513d601f19601f8201168201806040525081019061131691906149c6565b90506000876001600160a01b031663a7ac30b06040518163ffffffff1660e01b815260040160206040518083038186803b15801561135357600080fd5b505afa158015611367573d6000803e3d6000fd5b505050506040513d601f19601f8201168201806040525081019061138b91906149c6565b6001600160a01b038c1660009081526014602052604090205490915060ff16611402576001600160a01b038b166000818152601460205260408120805460ff19166001908117909155601380549182018155909152600080516020614cc68339815191520180546001600160a01b03191690911790555b61140e8b868686613c2d565b6114198b8383613c59565b8a6001600160a01b03167f55c675196fb2f6a62aefac4a6cd8dce7b495b583a899d94e3d8943d1412979938860405161145491815260200190565b60405180910390a250949998505050505050505050565b600b5460009081908311611655576000838152600a602090815260408083208151815460609481028201850184529281018381529093919284928491908401828280156114e157602002820191906000526020600020905b81546001600160a01b031681526001909101906020018083116114c3575b505050505081526020016001820180548060200260200160405190810160405280929190818152602001828054801561153957602002820191906000526020600020905b815481526020019060010190808311611525575b5050509190925250508151519192505061155a576000809250925050611655565b60005b815151811015611652576115c88260000151828151811061158e57634e487b7160e01b600052603260045260246000fd5b602002602001015187846020015184815181106115bb57634e487b7160e01b600052603260045260246000fd5b60200260200101516134b8565b6115d29085614b80565b9350611634826000015182815181106115fb57634e487b7160e01b600052603260045260246000fd5b60200260200101518360200151838151811061162757634e487b7160e01b600052603260045260246000fd5b6020026020010151612b5d565b61163e9084614b80565b92508061164a81614c66565b91505061155d565b50505b9250929050565b6000828152602081905260409020600101546116788133613ae4565b6116828383613c7e565b505050565b600354604051634c063c1960e01b8152600091829182918291829182918291829182916001600160a01b031690634c063c19906116c8908d90600401614abf565b60206040518083038186803b1580156116e057600080fd5b505afa1580156116f4573d6000803e3d6000fd5b505050506040513d601f19601f8201168201806040525081019061171891906146b6565b90506001600160a01b0381166117405760405162461bcd60e51b815260040161091a90614b06565b806001600160a01b03166318160ddd6040518163ffffffff1660e01b815260040160206040518083038186803b15801561177957600080fd5b505afa15801561178d573d6000803e3d6000fd5b505050506040513d601f19601f820116820180604052508101906117b191906149c6565b94506000816001600160a01b0316633eaaf86b6040518163ffffffff1660e01b815260040160606040518083038186803b1580156117ee57600080fd5b505afa158015611802573d6000803e3d6000fd5b505050506040513d601f19601f82011682018060405250810190611826919061496c565b80516020820151604083015191975095509350905060006118468c610e54565b6001600160a01b038d16600090815260066020526040902090915061186c8d8383613957565b809c50819d50829e50839f505050505050505050919395975091939597565b600354604051634c063c1960e01b815260009182916001600160a01b0390911690634c063c19906118c0908790600401614abf565b60206040518083038186803b1580156118d857600080fd5b505afa1580156118ec573d6000803e3d6000fd5b505050506040513d601f19601f8201168201806040525081019061191091906146b6565b90506001600160a01b0381166119385760405162461bcd60e51b815260040161091a90614b06565b6001600160a01b03831661197d5760405162461bcd60e51b815260206004820152600c60248201526b1e995c9bc81858d8dbdd5b9d60a21b604482015260640161091a565b6040516327e235e360e01b81526000906001600160a01b038316906327e235e3906119ac908790600401614abf565b60606040518083038186803b1580156119c457600080fd5b505afa1580156119d8573d6000803e3d6000fd5b505050506040513d601f19601f820116820180604052508101906119fc919061496c565b90506000816000015190506000826020015190506000836040015190506000856001600160a01b0316633eaaf86b6040518163ffffffff1660e01b815260040160606040518083038186803b158015611a5457600080fd5b505afa158015611a68573d6000803e3d6000fd5b505050506040513d601f19601f82011682018060405250810190611a8c919061496c565b90506000816000015190506000826020015190506000836040015190506000896001600160a01b0316636d1506116040518163ffffffff1660e01b815260040160206040518083038186803b158015611ae457600080fd5b505afa158015611af8573d6000803e3d6000fd5b505050506040513d601f19601f82011682018060405250810190611b1c91906149c6565b905060008a6001600160a01b031663a7ac30b06040518163ffffffff1660e01b815260040160206040518083038186803b158015611b5957600080fd5b505afa158015611b6d573d6000803e3d6000fd5b505050506040513d601f19601f82011682018060405250810190611b9191906149c6565b90506000611b9e8f613b48565b9050611bad8f8f8c8c8c613bf3565b611bb98f878787613c2d565b611bc48f8484613c59565b6001600160a01b038f166000908152601460205260409020548f9060ff16611c3a576001600160a01b0381166000818152601460205260408120805460ff19166001908117909155601380549182018155909152600080516020614cc68339815191520180546001600160a01b03191690911790555b6001600160a01b038f166000908152601660205260409020548f9060ff16611cc2576001600160a01b0381166000818152601660205260408120805460ff191660019081179091556015805491820181559091527f55f448fdea98c4d29eb340757ef0a66cd03dbb9538908a6a81d96026b71ec4750180546001600160a01b03191690911790555b604080516001600160a01b038381168252602082018690528416917feaf565aec332d7cd567bfa2b743a7bdace638ac19ef7900d4c4d103a95be5beb910160405180910390a250909f9e505050505050505050505050505050565b60158181548110611d2d57600080fd5b6000918252602090912001546001600160a01b0316905081565b6001600160a01b0381163314611db75760405162461bcd60e51b815260206004820152602f60248201527f416363657373436f6e74726f6c3a2063616e206f6e6c792072656e6f756e636560448201526e103937b632b9903337b91039b2b63360891b606482015260840161091a565b611dc18282613d02565b5050565b600080516020614ce6833981519152611dde8133613ae4565b6001600160a01b03831615801590611dfe57506001600160a01b03821615155b611e395760405162461bcd60e51b815260206004820152600c60248201526b7a65726f206164647265737360a01b604482015260640161091a565b50600380546001600160a01b039384166001600160a01b03199182161790915560048054929093169116179055565b6001600160a01b03808316600090815260056020908152604080832093851683529281528282208351815460a0938102820184019095526080810185815293948594859485948594939092849290918491840182828015611ee857602002820191906000526020600020905b815481526020019060010190808311611ed4575b5050505050815260200160018201805480602002602001604051908101604052809291908181526020018280548015611f4057602002820191906000526020600020905b815481526020019060010190808311611f2c575b5050505050815260200160028201805480602002602001604051908101604052809291908181526020018280548015611f9857602002820191906000526020600020905b815481526020019060010190808311611f84575b5050505050815260200160038201805480602002602001604051908101604052809291908181526020018280548015611ff057602002820191906000526020600020905b815481526020019060010190808311611fdc575b505050919092525050815151919250508089106120c457815180518290811061202957634e487b7160e01b600052603260045260246000fd5b60200260200101518260200151828151811061205557634e487b7160e01b600052603260045260246000fd5b60200260200101518360400151838151811061208157634e487b7160e01b600052603260045260246000fd5b6020026020010151846060015184815181106120ad57634e487b7160e01b600052603260045260246000fd5b60200260200101519550955095509550505061217d565b815180518a9081106120e657634e487b7160e01b600052603260045260246000fd5b602002602001015182602001518a8151811061211257634e487b7160e01b600052603260045260246000fd5b602002602001015183604001518b8151811061213e57634e487b7160e01b600052603260045260246000fd5b602002602001015184606001518c8151811061216a57634e487b7160e01b600052603260045260246000fd5b6020026020010151955095509550955050505b93509350935093565b6000600b548211610863576000828152600a602090815260408083208151815460609481028201850184529281018381529093919284928491908401828280156121f957602002820191906000526020600020905b81546001600160a01b031681526001909101906020018083116121db575b505050505081526020016001820180548060200260200160405190810160405280929190818152602001828054801561225157602002820191906000526020600020905b81548152602001906001019080831161223d575b5050509190925250508151519192505061226f576000915050610863565b60005b8151518110156122ee576122d0826000015182815181106122a357634e487b7160e01b600052603260045260246000fd5b602002602001015186846020015184815181106115bb57634e487b7160e01b600052603260045260246000fd5b6122da9084614b80565b9250806122e681614c66565b915050612272565b505092915050565b60007f3ee192ac25847473237ced4bba57f848e1fd794930ff85b428232905809672056123238133613ae4565b865188511461236e5760405162461bcd60e51b815260206004820152601760248201527609cde40c4c2d8c2dcc6cae640e6c2daca40d8cadccee8d604b1b604482015260640161091a565b85518851146123bf5760405162461bcd60e51b815260206004820152601f60248201527f4e6f207265666163746f726564436f756e74732073616d65206c656e67746800604482015260640161091a565b84518851146124095760405162461bcd60e51b815260206004820152601660248201527509cde40e4cadac2d2dce640e6c2daca40d8cadccee8d60531b604482015260640161091a565b61241289613b48565b5060005b88518110156124d8576124c88a8a838151811061244357634e487b7160e01b600052603260045260246000fd5b60200260200101518a848151811061246b57634e487b7160e01b600052603260045260246000fd5b60200260200101518a858151811061249357634e487b7160e01b600052603260045260246000fd5b60200260200101518a86815181106124bb57634e487b7160e01b600052603260045260246000fd5b6020026020010151613bf3565b6124d181614c66565b9050612416565b508351602085015160408601516124f2928c929091613c2d565b82516020840151612504918b91613c59565b50600198975050505050505050565b6004805460408051630d42d49760e01b8152905160009384936001600160a01b031692630d42d4979281830192602092829003018186803b15801561255757600080fd5b505afa15801561256b573d6000803e3d6000fd5b505050506040513d601f19601f8201168201806040525081019061258f91906149c6565b90506000915060005b81811015612754576004805460405163b7ffb17960e01b81529182018390526000916001600160a01b039091169063b7ffb1799060240160206040518083038186803b1580156125e757600080fd5b505afa1580156125fb573d6000803e3d6000fd5b505050506040513d601f19601f8201168201806040525081019061261f91906146b6565b600354604051634c063c1960e01b81529192506000916001600160a01b0390911690634c063c1990612655908590600401614abf565b60206040518083038186803b15801561266d57600080fd5b505afa158015612681573d6000803e3d6000fd5b505050506040513d601f19601f820116820180604052508101906126a591906146b6565b90506001600160a01b0381161561273f576040516370a0823160e01b81526001600160a01b038216906370a08231906126e2908990600401614abf565b60206040518083038186803b1580156126fa57600080fd5b505afa15801561270e573d6000803e3d6000fd5b505050506040513d601f19601f8201168201806040525081019061273291906149c6565b61273c9086614b80565b94505b5050808061274c90614c66565b915050612598565b5050919050565b6004805460408051630d42d49760e01b8152905160009384936001600160a01b031692630d42d4979281830192602092829003018186803b15801561279f57600080fd5b505afa1580156127b3573d6000803e3d6000fd5b505050506040513d601f19601f820116820180604052508101906127d791906149c6565b90506000805b8281101561290b576004805460405163b7ffb17960e01b81529182018390526000916001600160a01b039091169063b7ffb1799060240160206040518083038186803b15801561282c57600080fd5b505afa158015612840573d6000803e3d6000fd5b505050506040513d601f19601f8201168201806040525081019061286491906146b6565b6003546040516367265c3b60e11b81526001600160a01b038084166004830152898116602483015292935091169063ce4cb8769060440160206040518083038186803b1580156128b357600080fd5b505afa1580156128c7573d6000803e3d6000fd5b505050506040513d601f19601f820116820180604052508101906128eb91906149c6565b6128f59084614b80565b925050808061290390614c66565b9150506127dd565b509392505050565b600354604051634c063c1960e01b81526000918291829182918291829182916001600160a01b031690634c063c1990612950908b90600401614abf565b60206040518083038186803b15801561296857600080fd5b505afa15801561297c573d6000803e3d6000fd5b505050506040513d601f19601f820116820180604052508101906129a091906146b6565b90506001600160a01b0381166129c85760405162461bcd60e51b815260040161091a90614b06565b806001600160a01b03166354f703f86040518163ffffffff1660e01b815260040160206040518083038186803b158015612a0157600080fd5b505afa158015612a15573d6000803e3d6000fd5b505050506040513d601f19601f82011682018060405250810190612a3991906149c6565b9350806001600160a01b0316636d1506116040518163ffffffff1660e01b815260040160206040518083038186803b158015612a7457600080fd5b505afa158015612a88573d6000803e3d6000fd5b505050506040513d601f19601f82011682018060405250810190612aac91906149c6565b9250806001600160a01b031663a7ac30b06040518163ffffffff1660e01b815260040160206040518083038186803b158015612ae757600080fd5b505afa158015612afb573d6000803e3d6000fd5b505050506040513d601f19601f82011682018060405250810190612b1f91906149c6565b91506000612b2c89610e54565b9050612b388982613d67565b919b909a509098509496509294509092915050565b60138181548110611d2d57600080fd5b60008115612bdb57600080600080612b758787613e48565b93509350935093506000806000612b8c8a8a613d67565b925092509250868015612b9c5750825b15612bcb576000612baf878785856132a5565b9050612bbb8582614b80565b9850610863975050505050505050565b6000975050505050505050610863565b506000610863565b6000918252602082815260408084206001600160a01b0393909316845291905290205460ff1690565b60118054610a4990614c31565b600b805460009182612c2a83614c66565b91905055506000600460009054906101000a90046001600160a01b03166001600160a01b0316630d42d4976040518163ffffffff1660e01b815260040160206040518083038186803b158015612c7f57600080fd5b505afa158015612c93573d6000803e3d6000fd5b505050506040513d601f19601f82011682018060405250810190612cb791906149c6565b905060005b81811015612e4c576004805460405163b7ffb17960e01b81529182018390526000916001600160a01b039091169063b7ffb1799060240160206040518083038186803b158015612d0b57600080fd5b505afa158015612d1f573d6000803e3d6000fd5b505050506040513d601f19601f82011682018060405250810190612d4391906146b6565b600354604051634c063c1960e01b81529192506000916001600160a01b0390911690634c063c1990612d79908590600401614abf565b60206040518083038186803b158015612d9157600080fd5b505afa158015612da5573d6000803e3d6000fd5b505050506040513d601f19601f82011682018060405250810190612dc991906146b6565b6001600160a01b031614612e3957600b546000908152600a6020908152604082208054600180820183558285529290932090920180546001600160a01b0319166001600160a01b0385161790558101612e2183610e54565b81546001810183556000928352602090922090910155505b5080612e4481614c66565b915050612cbc565b50600b5491505090565b6000600b548211612f90576000828152600a60209081526040808320815181546060948102820185018452928101838152909391928492849190840182828015612ec957602002820191906000526020600020905b81546001600160a01b03168152600190910190602001808311612eab575b5050505050815260200160018201805480602002602001604051908101604052809291908181526020018280548015612f2157602002820191906000526020600020905b815481526020019060010190808311612f0d575b50505091909252505081515191925050612f3e5750600092915050565b60005b81515181101561275457612f72826000015182815181106115fb57634e487b7160e01b600052603260045260246000fd5b612f7c9084614b80565b925080612f8881614c66565b915050612f41565b919050565b600354604051634c063c1960e01b815260009182916001600160a01b0390911690634c063c1990612fca908690600401614abf565b60206040518083038186803b158015612fe257600080fd5b505afa158015612ff6573d6000803e3d6000fd5b505050506040513d601f19601f8201168201806040525081019061301a91906146b6565b90506001600160a01b0381166130425760405162461bcd60e51b815260040161091a90614b06565b6000816001600160a01b0316633eaaf86b6040518163ffffffff1660e01b815260040160606040518083038186803b15801561307d57600080fd5b505afa158015613091573d6000803e3d6000fd5b505050506040513d601f19601f820116820180604052508101906130b5919061496c565b90506000816000015190506000826020015190506000836040015190506000856001600160a01b0316636d1506116040518163ffffffff1660e01b815260040160206040518083038186803b15801561310d57600080fd5b505afa158015613121573d6000803e3d6000fd5b505050506040513d601f19601f8201168201806040525081019061314591906149c6565b90506000866001600160a01b031663a7ac30b06040518163ffffffff1660e01b815260040160206040518083038186803b15801561318257600080fd5b505afa158015613196573d6000803e3d6000fd5b505050506040513d601f19601f820116820180604052508101906131ba91906149c6565b6001600160a01b038a1660009081526014602052604090205490915060ff16613231576001600160a01b0389166000818152601460205260408120805460ff19166001908117909155601380549182018155909152600080516020614cc68339815191520180546001600160a01b03191690911790555b600061323c8a613b48565b905061324a8a878787613c2d565b6132558a8484613c59565b896001600160a01b03167f32a9d63c5300e91cc9c633e57c9a98fdaa33b189311e7cbe14859ad9958ecd158260405161329091815260200190565b60405180910390a29998505050505050505050565b6000846132b4575060006132f0565b6132be8584613e97565b9450835b828110156132eb576002546132d79087614bb8565b9550806132e381614c66565b9150506132c2565b508490505b949350505050565b6000610ebb838361188b565b600354604051634c063c1960e01b815260009182918291829182916001600160a01b031690634c063c199061333d908990600401614abf565b60206040518083038186803b15801561335557600080fd5b505afa158015613369573d6000803e3d6000fd5b505050506040513d601f19601f8201168201806040525081019061338d91906146b6565b90506001600160a01b0381166133b55760405162461bcd60e51b815260040161091a90614b06565b806001600160a01b03166318160ddd6040518163ffffffff1660e01b815260040160206040518083038186803b1580156133ee57600080fd5b505afa158015613402573d6000803e3d6000fd5b505050506040513d601f19601f8201168201806040525081019061342691906149c6565b94506000816001600160a01b0316633eaaf86b6040518163ffffffff1660e01b815260040160606040518083038186803b15801561346357600080fd5b505afa158015613477573d6000803e3d6000fd5b505050506040513d601f19601f8201168201806040525081019061349b919061496c565b805160208201516040909201519799909850909695509350505050565b60008115613537576000806000806134d1888888613eba565b935093509350935060008060006134e88b8a613d67565b9250925092508680156134f85750825b1561352757600061350b878785856132a5565b90506135178582614b80565b9850610ebb975050505050505050565b6000975050505050505050610ebb565b506000610ebb565b6001600160a01b03811660009081526006602052604081205461356457506000919050565b6001600160a01b03821660009081526006602052604090205461086390600190614bd7565b6000828152602081905260409020600101546135a58133613ae4565b6116828383613d02565b6000610863826106ce84610e54565b6001600160a01b03808316600090815260056020908152604080832093851683529290529081208054829182918291906136065760008060008094509450945094505061217d565b60008811801561361e575061361a87610e54565b8811155b156136f857600061362f828a613f2d565b905081600001818154811061365457634e487b7160e01b600052603260045260246000fd5b906000526020600020015482600101828154811061368257634e487b7160e01b600052603260045260246000fd5b90600052602060002001548360020183815481106136b057634e487b7160e01b600052603260045260246000fd5b90600052602060002001548460030184815481106136de57634e487b7160e01b600052603260045260246000fd5b90600052602060002001549550955095509550505061217d565b60008060008094509450945094505061217d565b6004805460408051630d42d49760e01b8152905160009384936001600160a01b031692630d42d4979281830192602092829003018186803b15801561375057600080fd5b505afa158015613764573d6000803e3d6000fd5b505050506040513d601f19601f8201168201806040525081019061378891906149c6565b90506000915060005b81811015613942576004805460405163b7ffb17960e01b81529182018390526000916001600160a01b039091169063b7ffb1799060240160206040518083038186803b1580156137e057600080fd5b505afa1580156137f4573d6000803e3d6000fd5b505050506040513d601f19601f8201168201806040525081019061381891906146b6565b600354604051634c063c1960e01b81529192506000916001600160a01b0390911690634c063c199061384e908590600401614abf565b60206040518083038186803b15801561386657600080fd5b505afa15801561387a573d6000803e3d6000fd5b505050506040513d601f19601f8201168201806040525081019061389e91906146b6565b90506001600160a01b0381161561392d57806001600160a01b03166318160ddd6040518163ffffffff1660e01b815260040160206040518083038186803b1580156138e857600080fd5b505afa1580156138fc573d6000803e3d6000fd5b505050506040513d601f19601f8201168201806040525081019061392091906149c6565b61392a9086614b80565b94505b5050808061393a90614c66565b915050613791565b505090565b6000610ebb83836107a586610e54565b600080600080600086118015613975575061397187610e54565b8611155b15613ad35760006139868688613f2d565b8654909150811415613a525780156136f85760018681016139a78284614bd7565b815481106139c557634e487b7160e01b600052603260045260246000fd5b9060005260206000200154876002016001846139e19190614bd7565b815481106139ff57634e487b7160e01b600052603260045260246000fd5b906000526020600020015488600301600185613a1b9190614bd7565b81548110613a3957634e487b7160e01b600052603260045260246000fd5b906000526020600020015494509450945094505061217d565b6001866001018281548110613a7757634e487b7160e01b600052603260045260246000fd5b9060005260206000200154876002018381548110613aa557634e487b7160e01b600052603260045260246000fd5b9060005260206000200154886003018481548110613a3957634e487b7160e01b600052603260045260246000fd5b50600092508291508190508061217d565b613aee8282612be3565b611dc157613b06816001600160a01b0316601461405d565b613b1183602061405d565b604051602001613b22929190614a50565b60408051601f198184030181529082905262461bcd60e51b825261091a91600401614ad3565b6001600160a01b038116600090815260086020526040812080549082613b6d83614c66565b90915550506001600160a01b0382166000908152600960209081526040808320600883528184205484529091528120439055613ba883610e54565b9050826001600160a01b03167f9140ca8dada2f5d654a9719f873254e8caca2580b6b78d4944151727d6207bb182604051613be591815260200190565b60405180910390a292915050565b6001600160a01b038086166000908152600560209081526040808320938816835292905220613c2690869085858561423e565b5050505050565b6001600160a01b0384166000908152600660205260409020613c5390859085858561423e565b50505050565b6001600160a01b038316600090815260076020526040902061168290849084846142c1565b613c888282612be3565b611dc1576000828152602081815260408083206001600160a01b03851684529091529020805460ff19166001179055613cbe3390565b6001600160a01b0316816001600160a01b0316837f2f8788117e7eff1d82e926ec794901d17c78024a50270940304540a733656f0d60405160405180910390a45050565b613d0c8282612be3565b15611dc1576000828152602081815260408083206001600160a01b0385168085529252808320805460ff1916905551339285917ff6391f5c32d9c69d2a47ea670b442974b53935d1edc7fd64eb21e047a839171b9190a45050565b6001600160a01b0382166000908152600760205260408120819081908415801590613d9a5750613d9686610e54565b8511155b15613e34576000613dab8287613f2d565b8254909150811415613dc95760008060009450945094505050613e41565b6001826001018281548110613dee57634e487b7160e01b600052603260045260246000fd5b9060005260206000200154836002018381548110613e1c57634e487b7160e01b600052603260045260246000fd5b90600052602060002001549450945094505050613e41565b6000806000935093509350505b9250925092565b600080600080600080600080613e838a8a600660008e6001600160a01b03166001600160a01b03168152602001908152602001600020613957565b929d919c509a509098509650505050505050565b60006b033b2e3c9fd0803ce8000000613eb08484614324565b610ebb9190614b98565b600080600080600080600080613f188b8a600560008f6001600160a01b03166001600160a01b0316815260200190815260200160002060008e6001600160a01b03166001600160a01b03168152602001908152602001600020613957565b929e919d509b50909950975050505050505050565b8154600090613f3e57506000610863565b82548390613f4e90600190614bd7565b81548110613f6c57634e487b7160e01b600052603260045260246000fd5b90600052602060002001548210613f92578254613f8b90600190614bd7565b9050610863565b82600081548110613fb357634e487b7160e01b600052603260045260246000fd5b9060005260206000200154821015613fcd57506000610863565b82546000908190613fe090600190614bd7565b90505b8181111561290b5760006002613ff98484614b80565b614004906001614b80565b61400e9190614b98565b90508486828154811061403157634e487b7160e01b600052603260045260246000fd5b90600052602060002001541161404957809250614057565b614054600182614bd7565b91505b50613fe3565b6060600061406c836002614bb8565b614077906002614b80565b6001600160401b0381111561409c57634e487b7160e01b600052604160045260246000fd5b6040519080825280601f01601f1916602001820160405280156140c6576020820181803683370190505b509050600360fc1b816000815181106140ef57634e487b7160e01b600052603260045260246000fd5b60200101906001600160f81b031916908160001a905350600f60fb1b8160018151811061412c57634e487b7160e01b600052603260045260246000fd5b60200101906001600160f81b031916908160001a9053506000614150846002614bb8565b61415b906001614b80565b90505b60018111156141ef576f181899199a1a9b1b9c1cb0b131b232b360811b85600f166010811061419d57634e487b7160e01b600052603260045260246000fd5b1a60f81b8282815181106141c157634e487b7160e01b600052603260045260246000fd5b60200101906001600160f81b031916908160001a90535060049490941c936141e881614c1a565b905061415e565b508315610ebb5760405162461bcd60e51b815260206004820181905260248201527f537472696e67733a20686578206c656e67746820696e73756666696369656e74604482015260640161091a565b600061424986610e54565b905060006142568661438b565b9050818110156142b8578554600181810188556000888152602080822090930185905581890180548084018255908252838220018890556002890180548084018255908252838220018790556003890180549283018155815291909120018390555b50505050505050565b60006142cc85610e54565b9050806142d88561438b565b1015613c26578354600180820186556000868152602080822090930193909355808601805480830182559084528284200194909455600290940180549384018155815292909220015550565b60008115806143485750828261433a8183614bb8565b92506143469083614b98565b145b6108635760405162461bcd60e51b815260206004820152601460248201527364732d6d6174682d6d756c2d6f766572666c6f7760601b604482015260640161091a565b805460009061439c57506000919050565b815482906143ac90600190614bd7565b815481106143ca57634e487b7160e01b600052603260045260246000fd5b90600052602060002001549050919050565b8280546143e890614c31565b90600052602060002090601f01602090048101928261440a5760008555614450565b82601f1061442357805160ff1916838001178555614450565b82800160010185558215614450579182015b82811115614450578251825591602001919060010190614435565b5061445c929150614460565b5090565b5b8082111561445c5760008155600101614461565b8035612f9081614cad565b600082601f830112614490578081fd5b813560206144a56144a083614b5d565b614b2d565b80838252828201915082860187848660051b89010111156144c4578586fd5b855b858110156144eb5781356144d981614cad565b845292840192908401906001016144c6565b5090979650505050505050565b600082601f830112614508578081fd5b604051604081018181106001600160401b038211171561452a5761452a614c97565b8060405250808385604086011115614540578384fd5b835b6002811015614561578135835260209283019290910190600101614542565b509195945050505050565b600082601f83011261457c578081fd5b604051606081018181106001600160401b038211171561459e5761459e614c97565b6040528083606081018610156145b2578384fd5b835b60038110156145615781358352602092830192909101906001016145b4565b600082601f8301126145e3578081fd5b813560206145f36144a083614b5d565b80838252828201915082860187848660051b8901011115614612578586fd5b855b858110156144eb57813584529284019290840190600101614614565b600082601f830112614640578081fd5b81356001600160401b0381111561465957614659614c97565b61466c601f8201601f1916602001614b2d565b818152846020838601011115614680578283fd5b816020850160208301379081016020019190915292915050565b6000602082840312156146ab578081fd5b8135610ebb81614cad565b6000602082840312156146c7578081fd5b8151610ebb81614cad565b600080604083850312156146e4578081fd5b82356146ef81614cad565b915060208301356146ff81614cad565b809150509250929050565b60008060006060848603121561471e578081fd5b833561472981614cad565b9250602084013561473981614cad565b929592945050506040919091013590565b6000806040838503121561475c578182fd5b823561476781614cad565b915060208301356001600160401b03811115614781578182fd5b61478d85828601614480565b9150509250929050565b6000806000806000806000610140888a0312156147b2578485fd5b6147bb88614475565b965060208801356001600160401b03808211156147d6578687fd5b6147e28b838c01614480565b975060408a01359150808211156147f7578687fd5b6148038b838c016145d3565b965060608a0135915080821115614818578485fd5b6148248b838c016145d3565b955060808a0135915080821115614839578485fd5b506148468a828b016145d3565b9350506148568960a08a0161456c565b9150614866896101008a016144f8565b905092959891949750929550565b60008060408385031215614886578182fd5b823561489181614cad565b946020939093013593505050565b6000602082840312156148b0578081fd5b5035919050565b600080604083850312156148c9578182fd5b8235915060208301356146ff81614cad565b6000602082840312156148ec578081fd5b81356001600160e01b031981168114610ebb578182fd5b600080600060608486031215614917578081fd5b83356001600160401b038082111561492d578283fd5b61493987838801614630565b9450602086013591508082111561494e578283fd5b5061495b86828701614630565b925050604084013590509250925092565b60006060828403121561497d578081fd5b604051606081018181106001600160401b038211171561499f5761499f614c97565b80604052508251815260208301516020820152604083015160408201528091505092915050565b6000602082840312156149d7578081fd5b5051919050565b6000806000606084860312156149f2578081fd5b833592506020840135614a0481614cad565b91506040840135614a1481614cad565b809150509250925092565b60008060008060808587031215614a34578182fd5b5050823594602084013594506040840135936060013592509050565b76020b1b1b2b9b9a1b7b73a3937b61d1030b1b1b7bab73a1604d1b815260008351614a82816017850160208801614bee565b7001034b99036b4b9b9b4b733903937b6329607d1b6017918401918201528351614ab3816028840160208801614bee565b01602801949350505050565b6001600160a01b0391909116815260200190565b6020815260008251806020840152614af2816040850160208701614bee565b601f01601f19169190910160400192915050565b6020808252600d908201526c7a65726f20636f696e6167657360981b604082015260600190565b604051601f8201601f191681016001600160401b0381118282101715614b5557614b55614c97565b604052919050565b60006001600160401b03821115614b7657614b76614c97565b5060051b60200190565b60008219821115614b9357614b93614c81565b500190565b600082614bb357634e487b7160e01b81526012600452602481fd5b500490565b6000816000190483118215151615614bd257614bd2614c81565b500290565b600082821015614be957614be9614c81565b500390565b60005b83811015614c09578181015183820152602001614bf1565b83811115613c535750506000910152565b600081614c2957614c29614c81565b506000190190565b600181811c90821680614c4557607f821691505b60208210811415610efb57634e487b7160e01b600052602260045260246000fd5b6000600019821415614c7a57614c7a614c81565b5060010190565b634e487b7160e01b600052601160045260246000fd5b634e487b7160e01b600052604160045260246000fd5b6001600160a01b0381168114614cc257600080fd5b5056fe66de8ffda797e3de9c05e8fc57b3bf0ec28a930d40b0d285d93c06501cf6a090a49807205ce4d355092ef5a8a18f56e8913cf4a201fbe287825b095693c21775a26469706673582212202af40f4511abd1402f92ba9259d9aabe40775d813815ed71a638ea48757ade2564736f6c63430008040033",
  "linkReferences": {},
  "deployedLinkReferences": {}
}