{
  "_format": "hh-sol-artifact-1",
  "contractName": "AutoCoinageSnapshot2",
  "sourceName": "contracts/tokens/AutoCoinageSnapshot2.sol",
  "abi": [
    {
      "inputs": [],
      "stateMutability": "nonpayable",
      "type": "constructor"
    },
    {
      "anonymous": false,
      "inputs": [
        {
          "indexed": true,
          "internalType": "address",
          "name": "layer2",
          "type": "address"
        },
        {
          "indexed": true,
          "internalType": "address",
          "name": "account",
          "type": "address"
        }
      ],
      "name": "AddSync",
      "type": "event"
    },
    {
      "anonymous": false,
      "inputs": [
        {
          "indexed": true,
          "internalType": "bytes32",
          "name": "role",
          "type": "bytes32"
        },
        {
          "indexed": true,
          "internalType": "bytes32",
          "name": "previousAdminRole",
          "type": "bytes32"
        },
        {
          "indexed": true,
          "internalType": "bytes32",
          "name": "newAdminRole",
          "type": "bytes32"
        }
      ],
      "name": "RoleAdminChanged",
      "type": "event"
    },
    {
      "anonymous": false,
      "inputs": [
        {
          "indexed": true,
          "internalType": "bytes32",
          "name": "role",
          "type": "bytes32"
        },
        {
          "indexed": true,
          "internalType": "address",
          "name": "account",
          "type": "address"
        },
        {
          "indexed": true,
          "internalType": "address",
          "name": "sender",
          "type": "address"
        }
      ],
      "name": "RoleGranted",
      "type": "event"
    },
    {
      "anonymous": false,
      "inputs": [
        {
          "indexed": true,
          "internalType": "bytes32",
          "name": "role",
          "type": "bytes32"
        },
        {
          "indexed": true,
          "internalType": "address",
          "name": "account",
          "type": "address"
        },
        {
          "indexed": true,
          "internalType": "address",
          "name": "sender",
          "type": "address"
        }
      ],
      "name": "RoleRevoked",
      "type": "event"
    },
    {
      "anonymous": false,
      "inputs": [
        {
          "indexed": false,
          "internalType": "uint256",
          "name": "snashotAggregatorId",
          "type": "uint256"
        }
      ],
      "name": "Snapshot",
      "type": "event"
    },
    {
      "anonymous": false,
      "inputs": [
        {
          "indexed": true,
          "internalType": "address",
          "name": "layer2",
          "type": "address"
        },
        {
          "indexed": false,
          "internalType": "uint256",
          "name": "id",
          "type": "uint256"
        }
      ],
      "name": "SnapshotLayer2",
      "type": "event"
    },
    {
      "anonymous": false,
      "inputs": [
        {
          "indexed": true,
          "internalType": "address",
          "name": "layer2",
          "type": "address"
        },
        {
          "indexed": false,
          "internalType": "uint256",
          "name": "id",
          "type": "uint256"
        }
      ],
      "name": "SyncLayer2",
      "type": "event"
    },
    {
      "anonymous": false,
      "inputs": [
        {
          "indexed": true,
          "internalType": "address",
          "name": "layer2",
          "type": "address"
        },
        {
          "indexed": false,
          "internalType": "address",
          "name": "account",
          "type": "address"
        },
        {
          "indexed": false,
          "internalType": "uint256",
          "name": "id",
          "type": "uint256"
        }
      ],
      "name": "SyncLayer2Address",
      "type": "event"
    },
    {
      "anonymous": false,
      "inputs": [
        {
          "indexed": true,
          "internalType": "address",
          "name": "layer2",
          "type": "address"
        },
        {
          "indexed": false,
          "internalType": "uint256",
          "name": "id",
          "type": "uint256"
        }
      ],
      "name": "SyncLayer2Batch",
      "type": "event"
    },
    {
      "inputs": [],
      "name": "ADMIN_ROLE",
      "outputs": [
        {
          "internalType": "bytes32",
          "name": "",
          "type": "bytes32"
        }
      ],
      "stateMutability": "view",
      "type": "function"
    },
    {
      "inputs": [],
      "name": "DEFAULT_ADMIN_ROLE",
      "outputs": [
        {
          "internalType": "bytes32",
          "name": "",
          "type": "bytes32"
        }
      ],
      "stateMutability": "view",
      "type": "function"
    },
    {
      "inputs": [],
      "name": "REFACTOR_BOUNDARY",
      "outputs": [
        {
          "internalType": "uint256",
          "name": "",
          "type": "uint256"
        }
      ],
      "stateMutability": "view",
      "type": "function"
    },
    {
      "inputs": [],
      "name": "REFACTOR_DIVIDER",
      "outputs": [
        {
          "internalType": "uint256",
          "name": "",
          "type": "uint256"
        }
      ],
      "stateMutability": "view",
      "type": "function"
    },
    {
      "inputs": [
        {
          "internalType": "address[]",
          "name": "_layers",
          "type": "address[]"
        }
      ],
      "name": "addLayer2s",
      "outputs": [],
      "stateMutability": "nonpayable",
      "type": "function"
    },
    {
      "inputs": [
        {
          "internalType": "address",
          "name": "layer2",
          "type": "address"
        },
        {
          "internalType": "address",
          "name": "account",
          "type": "address"
        }
      ],
      "name": "addSync",
      "outputs": [
        {
          "internalType": "uint256",
          "name": "",
          "type": "uint256"
        }
      ],
      "stateMutability": "nonpayable",
      "type": "function"
    },
    {
      "inputs": [
        {
          "internalType": "address",
          "name": "owner",
          "type": "address"
        },
        {
          "internalType": "address",
          "name": "spender",
          "type": "address"
        }
      ],
      "name": "allowance",
      "outputs": [
        {
          "internalType": "uint256",
          "name": "",
          "type": "uint256"
        }
      ],
      "stateMutability": "view",
      "type": "function"
    },
    {
      "inputs": [
        {
          "internalType": "uint256",
          "name": "v",
          "type": "uint256"
        },
        {
          "internalType": "uint256",
          "name": "refactoredCount",
          "type": "uint256"
        },
        {
          "internalType": "uint256",
          "name": "_factor",
          "type": "uint256"
        },
        {
          "internalType": "uint256",
          "name": "refactorCount",
          "type": "uint256"
        }
      ],
      "name": "applyFactor",
      "outputs": [
        {
          "internalType": "uint256",
          "name": "",
          "type": "uint256"
        }
      ],
      "stateMutability": "view",
      "type": "function"
    },
    {
      "inputs": [
        {
          "internalType": "address",
          "name": "account",
          "type": "address"
        }
      ],
      "name": "balanceOf",
      "outputs": [
        {
          "internalType": "uint256",
          "name": "",
          "type": "uint256"
        }
      ],
      "stateMutability": "view",
      "type": "function"
    },
    {
      "inputs": [
        {
          "internalType": "address",
          "name": "layer2",
          "type": "address"
        },
        {
          "internalType": "address",
          "name": "account",
          "type": "address"
        }
      ],
      "name": "balanceOf",
      "outputs": [
        {
          "internalType": "uint256",
          "name": "",
          "type": "uint256"
        }
      ],
      "stateMutability": "view",
      "type": "function"
    },
    {
      "inputs": [
        {
          "internalType": "address",
          "name": "account",
          "type": "address"
        },
        {
          "internalType": "uint256",
          "name": "snashotAggregatorId",
          "type": "uint256"
        }
      ],
      "name": "balanceOfAt",
      "outputs": [
        {
          "internalType": "uint256",
          "name": "accountStaked",
          "type": "uint256"
        }
      ],
      "stateMutability": "view",
      "type": "function"
    },
    {
      "inputs": [
        {
          "internalType": "address",
          "name": "layer2",
          "type": "address"
        },
        {
          "internalType": "address",
          "name": "account",
          "type": "address"
        },
        {
          "internalType": "uint256",
          "name": "snapshotId",
          "type": "uint256"
        }
      ],
      "name": "balanceOfAt",
      "outputs": [
        {
          "internalType": "uint256",
          "name": "",
          "type": "uint256"
        }
      ],
      "stateMutability": "view",
      "type": "function"
    },
    {
      "inputs": [
        {
          "internalType": "address",
          "name": "layer2",
          "type": "address"
        },
        {
          "internalType": "address",
          "name": "account",
          "type": "address"
        }
      ],
      "name": "currentAccountBalanceSnapshots",
      "outputs": [
        {
          "internalType": "bool",
          "name": "",
          "type": "bool"
        },
        {
          "internalType": "uint256",
          "name": "",
          "type": "uint256"
        },
        {
          "internalType": "uint256",
          "name": "",
          "type": "uint256"
        },
        {
          "internalType": "uint256",
          "name": "",
          "type": "uint256"
        },
        {
          "internalType": "uint256",
          "name": "",
          "type": "uint256"
        },
        {
          "components": [
            {
              "internalType": "uint256",
              "name": "balance",
              "type": "uint256"
            },
            {
              "internalType": "uint256",
              "name": "refactoredCount",
              "type": "uint256"
            },
            {
              "internalType": "uint256",
              "name": "remain",
              "type": "uint256"
            }
          ],
          "internalType": "struct AutoRefactorCoinageI.Balance",
          "name": "",
          "type": "tuple"
        }
      ],
      "stateMutability": "view",
      "type": "function"
    },
    {
      "inputs": [
        {
          "internalType": "address",
          "name": "layer2",
          "type": "address"
        }
      ],
      "name": "currentFactorSnapshots",
      "outputs": [
        {
          "internalType": "bool",
          "name": "snapshotted",
          "type": "bool"
        },
        {
          "internalType": "uint256",
          "name": "snapShotFactor",
          "type": "uint256"
        },
        {
          "internalType": "uint256",
          "name": "snapShotRefactorCount",
          "type": "uint256"
        },
        {
          "internalType": "uint256",
          "name": "curFactorValue",
          "type": "uint256"
        },
        {
          "internalType": "uint256",
          "name": "curFactor",
          "type": "uint256"
        },
        {
          "internalType": "uint256",
          "name": "curRefactorCount",
          "type": "uint256"
        }
      ],
      "stateMutability": "view",
      "type": "function"
    },
    {
      "inputs": [
        {
          "internalType": "address",
          "name": "",
          "type": "address"
        }
      ],
      "name": "currentLayer2SnapshotId",
      "outputs": [
        {
          "internalType": "uint256",
          "name": "",
          "type": "uint256"
        }
      ],
      "stateMutability": "view",
      "type": "function"
    },
    {
      "inputs": [
        {
          "internalType": "address",
          "name": "layer2",
          "type": "address"
        }
      ],
      "name": "currentTotalSupplySnapshots",
      "outputs": [
        {
          "internalType": "bool",
          "name": "",
          "type": "bool"
        },
        {
          "internalType": "uint256",
          "name": "",
          "type": "uint256"
        },
        {
          "internalType": "uint256",
          "name": "",
          "type": "uint256"
        },
        {
          "internalType": "uint256",
          "name": "",
          "type": "uint256"
        },
        {
          "internalType": "uint256",
          "name": "",
          "type": "uint256"
        },
        {
          "components": [
            {
              "internalType": "uint256",
              "name": "balance",
              "type": "uint256"
            },
            {
              "internalType": "uint256",
              "name": "refactoredCount",
              "type": "uint256"
            },
            {
              "internalType": "uint256",
              "name": "remain",
              "type": "uint256"
            }
          ],
          "internalType": "struct AutoRefactorCoinageI.Balance",
          "name": "",
          "type": "tuple"
        }
      ],
      "stateMutability": "view",
      "type": "function"
    },
    {
      "inputs": [],
      "name": "decimals",
      "outputs": [
        {
          "internalType": "uint256",
          "name": "",
          "type": "uint256"
        }
      ],
      "stateMutability": "view",
      "type": "function"
    },
    {
      "inputs": [
        {
          "internalType": "address",
          "name": "_layer",
          "type": "address"
        }
      ],
      "name": "delLayer2",
      "outputs": [],
      "stateMutability": "nonpayable",
      "type": "function"
    },
    {
      "inputs": [
        {
          "internalType": "address",
          "name": "",
          "type": "address"
        }
      ],
      "name": "existLayer2s",
      "outputs": [
        {
          "internalType": "bool",
          "name": "",
          "type": "bool"
        }
      ],
      "stateMutability": "view",
      "type": "function"
    },
    {
      "inputs": [
        {
          "internalType": "uint256",
          "name": "id",
          "type": "uint256"
        },
        {
          "internalType": "address",
          "name": "layer2",
          "type": "address"
        },
        {
          "internalType": "address",
          "name": "account",
          "type": "address"
        }
      ],
      "name": "getAccountBalanceSnapsByIds",
      "outputs": [
        {
          "internalType": "uint256",
          "name": "",
          "type": "uint256"
        },
        {
          "internalType": "uint256",
          "name": "",
          "type": "uint256"
        },
        {
          "internalType": "uint256",
          "name": "",
          "type": "uint256"
        },
        {
          "internalType": "uint256",
          "name": "",
          "type": "uint256"
        }
      ],
      "stateMutability": "view",
      "type": "function"
    },
    {
      "inputs": [
        {
          "internalType": "uint256",
          "name": "snapshotId",
          "type": "uint256"
        },
        {
          "internalType": "address",
          "name": "layer2",
          "type": "address"
        },
        {
          "internalType": "address",
          "name": "account",
          "type": "address"
        }
      ],
      "name": "getAccountBalanceSnapsBySnapshotId",
      "outputs": [
        {
          "internalType": "uint256",
          "name": "",
          "type": "uint256"
        },
        {
          "internalType": "uint256",
          "name": "",
          "type": "uint256"
        },
        {
          "internalType": "uint256",
          "name": "",
          "type": "uint256"
        },
        {
          "internalType": "uint256",
          "name": "",
          "type": "uint256"
        }
      ],
      "stateMutability": "view",
      "type": "function"
    },
    {
      "inputs": [
        {
          "internalType": "address",
          "name": "account",
          "type": "address"
        }
      ],
      "name": "getBalanceOfInTokamak",
      "outputs": [
        {
          "internalType": "uint256",
          "name": "accountAmount",
          "type": "uint256"
        }
      ],
      "stateMutability": "view",
      "type": "function"
    },
    {
      "inputs": [
        {
          "internalType": "address",
          "name": "layer2",
          "type": "address"
        }
      ],
      "name": "getCurrentLayer2SnapshotId",
      "outputs": [
        {
          "internalType": "uint256",
          "name": "",
          "type": "uint256"
        }
      ],
      "stateMutability": "view",
      "type": "function"
    },
    {
      "inputs": [
        {
          "internalType": "address",
          "name": "layer2",
          "type": "address"
        },
        {
          "internalType": "address",
          "name": "user",
          "type": "address"
        }
      ],
      "name": "getLayer2BalanceOfInTokamak",
      "outputs": [
        {
          "internalType": "uint256",
          "name": "balanceOfLayer2Amount",
          "type": "uint256"
        },
        {
          "internalType": "uint256",
          "name": "balance",
          "type": "uint256"
        },
        {
          "internalType": "uint256",
          "name": "refactoredCount",
          "type": "uint256"
        },
        {
          "internalType": "uint256",
          "name": "remain",
          "type": "uint256"
        }
      ],
      "stateMutability": "view",
      "type": "function"
    },
    {
      "inputs": [
        {
          "internalType": "address",
          "name": "layer2",
          "type": "address"
        }
      ],
      "name": "getLayer2TotalSupplyInTokamak",
      "outputs": [
        {
          "internalType": "uint256",
          "name": "totalSupplyLayer2",
          "type": "uint256"
        },
        {
          "internalType": "uint256",
          "name": "balance",
          "type": "uint256"
        },
        {
          "internalType": "uint256",
          "name": "refactoredCount",
          "type": "uint256"
        },
        {
          "internalType": "uint256",
          "name": "remain",
          "type": "uint256"
        }
      ],
      "stateMutability": "view",
      "type": "function"
    },
    {
      "inputs": [
        {
          "internalType": "bytes32",
          "name": "role",
          "type": "bytes32"
        }
      ],
      "name": "getRoleAdmin",
      "outputs": [
        {
          "internalType": "bytes32",
          "name": "",
          "type": "bytes32"
        }
      ],
      "stateMutability": "view",
      "type": "function"
    },
    {
      "inputs": [],
      "name": "getTotalStakedInTokamak",
      "outputs": [
        {
          "internalType": "uint256",
          "name": "accountAmount",
          "type": "uint256"
        }
      ],
      "stateMutability": "view",
      "type": "function"
    },
    {
      "inputs": [
        {
          "internalType": "bytes32",
          "name": "role",
          "type": "bytes32"
        },
        {
          "internalType": "address",
          "name": "account",
          "type": "address"
        }
      ],
      "name": "grantRole",
      "outputs": [],
      "stateMutability": "nonpayable",
      "type": "function"
    },
    {
      "inputs": [
        {
          "internalType": "bytes32",
          "name": "role",
          "type": "bytes32"
        },
        {
          "internalType": "address",
          "name": "account",
          "type": "address"
        }
      ],
      "name": "hasRole",
      "outputs": [
        {
          "internalType": "bool",
          "name": "",
          "type": "bool"
        }
      ],
      "stateMutability": "view",
      "type": "function"
    },
    {
      "inputs": [
        {
          "internalType": "address",
          "name": "layer2",
          "type": "address"
        }
      ],
      "name": "lastSnapShotIndex",
      "outputs": [
        {
          "internalType": "uint256",
          "name": "",
          "type": "uint256"
        }
      ],
      "stateMutability": "view",
      "type": "function"
    },
    {
      "inputs": [],
      "name": "layer2Registry",
      "outputs": [
        {
          "internalType": "address",
          "name": "",
          "type": "address"
        }
      ],
      "stateMutability": "view",
      "type": "function"
    },
    {
      "inputs": [
        {
          "internalType": "uint256",
          "name": "",
          "type": "uint256"
        }
      ],
      "name": "layer2s",
      "outputs": [
        {
          "internalType": "address",
          "name": "",
          "type": "address"
        }
      ],
      "stateMutability": "view",
      "type": "function"
    },
    {
      "inputs": [
        {
          "internalType": "uint256",
          "name": "snashotAggregatorId",
          "type": "uint256"
        }
      ],
      "name": "layerSnapshotIds",
      "outputs": [
        {
          "internalType": "address[]",
          "name": "",
          "type": "address[]"
        },
        {
          "internalType": "uint256[]",
          "name": "",
          "type": "uint256[]"
        }
      ],
      "stateMutability": "view",
      "type": "function"
    },
    {
      "inputs": [],
      "name": "migratedL2",
      "outputs": [
        {
          "internalType": "bool",
          "name": "",
          "type": "bool"
        }
      ],
      "stateMutability": "view",
      "type": "function"
    },
    {
      "inputs": [],
      "name": "name",
      "outputs": [
        {
          "internalType": "string",
          "name": "",
          "type": "string"
        }
      ],
      "stateMutability": "view",
      "type": "function"
    },
    {
      "inputs": [
        {
          "internalType": "address",
          "name": "",
          "type": "address"
        },
        {
          "internalType": "uint256",
          "name": "",
          "type": "uint256"
        }
      ],
      "name": "needSyncs",
      "outputs": [
        {
          "internalType": "address",
          "name": "",
          "type": "address"
        }
      ],
      "stateMutability": "view",
      "type": "function"
    },
    {
      "inputs": [],
      "name": "pauseProxy",
      "outputs": [
        {
          "internalType": "bool",
          "name": "",
          "type": "bool"
        }
      ],
      "stateMutability": "view",
      "type": "function"
    },
    {
      "inputs": [
        {
          "internalType": "bytes32",
          "name": "role",
          "type": "bytes32"
        },
        {
          "internalType": "address",
          "name": "account",
          "type": "address"
        }
      ],
      "name": "renounceRole",
      "outputs": [],
      "stateMutability": "nonpayable",
      "type": "function"
    },
    {
      "inputs": [
        {
          "internalType": "bytes32",
          "name": "role",
          "type": "bytes32"
        },
        {
          "internalType": "address",
          "name": "account",
          "type": "address"
        }
      ],
      "name": "revokeRole",
      "outputs": [],
      "stateMutability": "nonpayable",
      "type": "function"
    },
    {
      "inputs": [],
      "name": "seigManager",
      "outputs": [
        {
          "internalType": "address",
          "name": "",
          "type": "address"
        }
      ],
      "stateMutability": "view",
      "type": "function"
    },
    {
      "inputs": [
        {
          "internalType": "address",
          "name": "_seigManager",
          "type": "address"
        },
        {
          "internalType": "address",
          "name": "_layer2Registry",
          "type": "address"
        }
      ],
      "name": "setAddress",
      "outputs": [],
      "stateMutability": "nonpayable",
      "type": "function"
    },
    {
      "inputs": [
        {
          "internalType": "string",
          "name": "name_",
          "type": "string"
        },
        {
          "internalType": "string",
          "name": "symbol_",
          "type": "string"
        },
        {
          "internalType": "uint256",
          "name": "decimals_",
          "type": "uint256"
        }
      ],
      "name": "setNameSymbolDecimals",
      "outputs": [],
      "stateMutability": "nonpayable",
      "type": "function"
    },
    {
      "inputs": [
        {
          "internalType": "address",
          "name": "layer2",
          "type": "address"
        }
      ],
      "name": "snapshot",
      "outputs": [
        {
          "internalType": "uint256",
          "name": "",
          "type": "uint256"
        }
      ],
      "stateMutability": "nonpayable",
      "type": "function"
    },
    {
      "inputs": [],
      "name": "snapshot",
      "outputs": [
        {
          "internalType": "uint256",
          "name": "",
          "type": "uint256"
        }
      ],
      "stateMutability": "nonpayable",
      "type": "function"
    },
    {
      "inputs": [],
      "name": "snashotAggregatorTotal",
      "outputs": [
        {
          "internalType": "uint256",
          "name": "",
          "type": "uint256"
        }
      ],
      "stateMutability": "view",
      "type": "function"
    },
    {
      "inputs": [
        {
          "internalType": "address",
          "name": "account",
          "type": "address"
        },
        {
          "internalType": "uint256",
          "name": "snashotAggregatorId",
          "type": "uint256"
        }
      ],
      "name": "stakedAmountWithSnashotAggregator",
      "outputs": [
        {
          "internalType": "uint256",
          "name": "accountStaked",
          "type": "uint256"
        },
        {
          "internalType": "uint256",
          "name": "totalStaked",
          "type": "uint256"
        }
      ],
      "stateMutability": "view",
      "type": "function"
    },
    {
      "inputs": [
        {
          "internalType": "bytes4",
          "name": "interfaceId",
          "type": "bytes4"
        }
      ],
      "name": "supportsInterface",
      "outputs": [
        {
          "internalType": "bool",
          "name": "",
          "type": "bool"
        }
      ],
      "stateMutability": "view",
      "type": "function"
    },
    {
      "inputs": [],
      "name": "symbol",
      "outputs": [
        {
          "internalType": "string",
          "name": "",
          "type": "string"
        }
      ],
      "stateMutability": "view",
      "type": "function"
    },
    {
      "inputs": [
        {
          "internalType": "address",
          "name": "layer2",
          "type": "address"
        },
        {
          "internalType": "address",
          "name": "account",
          "type": "address"
        }
      ],
      "name": "sync",
      "outputs": [
        {
          "internalType": "uint256",
          "name": "",
          "type": "uint256"
        }
      ],
      "stateMutability": "nonpayable",
      "type": "function"
    },
    {
      "inputs": [
        {
          "internalType": "address",
          "name": "layer2",
          "type": "address"
        }
      ],
      "name": "sync",
      "outputs": [
        {
          "internalType": "uint256",
          "name": "",
          "type": "uint256"
        }
      ],
      "stateMutability": "nonpayable",
      "type": "function"
    },
    {
      "inputs": [
        {
          "internalType": "address",
          "name": "layer2",
          "type": "address"
        },
        {
          "internalType": "address[]",
          "name": "accounts",
          "type": "address[]"
        },
        {
          "internalType": "uint256[]",
          "name": "balances",
          "type": "uint256[]"
        },
        {
          "internalType": "uint256[]",
          "name": "refactoredCounts",
          "type": "uint256[]"
        },
        {
          "internalType": "uint256[]",
          "name": "remains",
          "type": "uint256[]"
        },
        {
          "internalType": "uint256[3]",
          "name": "layerTotal",
          "type": "uint256[3]"
        },
        {
          "internalType": "uint256[2]",
          "name": "layerFactor",
          "type": "uint256[2]"
        }
      ],
      "name": "syncBactchOffline",
      "outputs": [
        {
          "internalType": "bool",
          "name": "",
          "type": "bool"
        }
      ],
      "stateMutability": "nonpayable",
      "type": "function"
    },
    {
      "inputs": [
        {
          "internalType": "address",
          "name": "layer2",
          "type": "address"
        },
        {
          "internalType": "address[]",
          "name": "accounts",
          "type": "address[]"
        }
      ],
      "name": "syncBatch",
      "outputs": [
        {
          "internalType": "uint256",
          "name": "",
          "type": "uint256"
        }
      ],
      "stateMutability": "nonpayable",
      "type": "function"
    },
    {
      "inputs": [],
      "name": "totalSupply",
      "outputs": [
        {
          "internalType": "uint256",
          "name": "",
          "type": "uint256"
        }
      ],
      "stateMutability": "view",
      "type": "function"
    },
    {
      "inputs": [
        {
          "internalType": "address",
          "name": "layer2",
          "type": "address"
        }
      ],
      "name": "totalSupply",
      "outputs": [
        {
          "internalType": "uint256",
          "name": "",
          "type": "uint256"
        }
      ],
      "stateMutability": "view",
      "type": "function"
    },
    {
      "inputs": [
        {
          "internalType": "address",
          "name": "layer2",
          "type": "address"
        },
        {
          "internalType": "uint256",
          "name": "snapshotId",
          "type": "uint256"
        }
      ],
      "name": "totalSupplyAt",
      "outputs": [
        {
          "internalType": "uint256",
          "name": "",
          "type": "uint256"
        }
      ],
      "stateMutability": "view",
      "type": "function"
    },
    {
      "inputs": [
        {
          "internalType": "uint256",
          "name": "snashotAggregatorId",
          "type": "uint256"
        }
      ],
      "name": "totalSupplyAt",
      "outputs": [
        {
          "internalType": "uint256",
          "name": "totalStaked",
          "type": "uint256"
        }
      ],
      "stateMutability": "view",
      "type": "function"
    },
    {
      "inputs": [
        {
          "internalType": "address",
          "name": "recipient",
          "type": "address"
        },
        {
          "internalType": "uint256",
          "name": "amount",
          "type": "uint256"
        }
      ],
      "name": "transfer",
      "outputs": [
        {
          "internalType": "bool",
          "name": "",
          "type": "bool"
        }
      ],
      "stateMutability": "nonpayable",
      "type": "function"
    },
    {
      "inputs": [
        {
          "internalType": "address",
          "name": "sender",
          "type": "address"
        },
        {
          "internalType": "address",
          "name": "recipient",
          "type": "address"
        },
        {
          "internalType": "uint256",
          "name": "amount",
          "type": "uint256"
        }
      ],
      "name": "transferFrom",
      "outputs": [
        {
          "internalType": "bool",
          "name": "",
          "type": "bool"
        }
      ],
      "stateMutability": "nonpayable",
      "type": "function"
    }
  ],
  "bytecode": "0x60806040526b204fce5e3e25026110000000600155600280553480156200002557600080fd5b506200003360003362000065565b6200005f7fa49807205ce4d355092ef5a8a18f56e8913cf4a201fbe287825b095693c217753362000065565b62000115565b62000071828262000075565b5050565b6000828152602081815260408083206001600160a01b038516845290915290205460ff1662000071576000828152602081815260408083206001600160a01b03851684529091529020805460ff19166001179055620000d13390565b6001600160a01b0316816001600160a01b0316837f2f8788117e7eff1d82e926ec794901d17c78024a50270940304540a733656f0d60405160405180910390a45050565b61567480620001256000396000f3fe608060405234801561001057600080fd5b506004361061030c5760003560e01c806370a082311161019e578063ac16cd23116100ef578063d0e0707b1161009d578063d0e0707b1461078a578063d547741f1461079d578063dd62ed3e146107b0578063dfb1387b146107be578063e4dc2aa4146107d1578063ec477a90146107e4578063f59e8bb9146107f7578063f7888aec146107ff57600080fd5b8063ac16cd2314610719578063adc7e4f11461072c578063addf90901461073f578063b7c246d714610748578063bc5f878914610751578063bfe64c6614610764578063cf2a239c1461077757600080fd5b806395d89b411161014c57806395d89b41146106b35780639711715a146106bb578063981b24d0146106c3578063a1f5f50e146106d6578063a217fddf146106e8578063a5841194146106f0578063a9059cbb1461070357600080fd5b806370a08231146105fd57806373ba69881461061057806375b238fc146106525780637ae392631461066757806382799e371461067a5780638d51c0e21461068d57806391d14854146106a057600080fd5b80632f2ff15d11610263578063407faa9611610211578063407faa961461054e5780634ee2cd7e146105615780635cd3b6d714610574578063614daee41461059757806363a8fd89146105aa578063657db629146105b75780636ec0b7f2146105ca5780636fb7f558146105dd57600080fd5b80632f2ff15d146104c55780632f5eddcb146104d85780633041949b146104eb578063313ce567146104fe57806336568abe146105075780633a30d6d71461051a5780633b58524d1461053b57600080fd5b80631e3a0ddd116102c05780631e3a0ddd146104195780631e4d15f71461042c57806323b872dd14610441578063248a9ca31461045457806326512160146104775780632bd1f9481461048a5780632d1197731461049d57600080fd5b8062d87a9c14610311578062f08e461461032d57806301ffc9a71461034d578063043cd82f1461037057806306fdde03146103a35780630d55c7ac146103b857806318160ddd14610411575b600080fd5b61031a60025481565b6040519081526020015b60405180910390f35b61031a61033b366004614f28565b600c6020526000908152604090205481565b61036061035b36600461519b565b610812565b6040519015158152602001610324565b61038361037e366004614f60565b610849565b604080519485526020850193909352918301526060820152608001610324565b6103ab610a1c565b6040516103249190615409565b6103cb6103c6366004614f60565b610aaa565b6040805196151587526020808801969096528681019490945260608601929092526080850152805160a08501529182015160c0840152015160e082015261010001610324565b61031a610cf1565b61031a610427366004614f28565b610e2c565b61043f61043a3660046151c3565b610e47565b005b61036061044f366004614f98565b610e90565b61031a61046236600461515f565b60009081526020819052604090206001015490565b61031a610485366004614f28565b610e9a565b61031a610498366004614fd8565b610ea5565b6104b06104ab366004615102565b6112ec565b60408051928352602083019190915201610324565b61043f6104d3366004615177565b6114dd565b6103cb6104e6366004614f28565b611508565b61031a6104f9366004614f60565b611726565b61031a60165481565b61043f610515366004615177565b611b07565b61052d61052836600461515f565b611b85565b604051610324929190615393565b61043f610549366004614f60565b611c6a565b61038361055c36600461529e565b611d0d565b61031a61056f366004615102565b611f17565b610360610582366004614f28565b60186020526000908152604090205460ff1681565b61043f6105a5366004614f28565b612087565b6010546103609060ff1681565b6103606105c5366004615025565b612469565b61031a6105d8366004614f28565b6126ea565b6003546105f0906001600160a01b031681565b604051610324919061537f565b61031a61060b366004614f28565b612932565b61062361061e366004614f28565b612aea565b6040805196151587526020870195909552938501929092526060840152608083015260a082015260c001610324565b61031a60008051602061561f83398151915281565b6105f061067536600461515f565b612d24565b61031a610688366004615102565b612d4e565b6105f061069b366004615102565b612ee1565b6103606106ae366004615177565b612f19565b6103ab612f42565b61031a612f4f565b61031a6106d136600461515f565b613143565b60105461036090610100900460ff1681565b61031a600081565b61031a6106fe366004614f28565b613282565b610360610711366004615102565b600092915050565b61031a6107273660046152df565b613592565b61031a61073a366004614f60565b6135e5565b61031a600f5481565b61031a60015481565b61038361075f366004614f28565b6137ec565b61031a610772366004614f98565b6139a0565b6004546105f0906001600160a01b031681565b61031a610798366004614f28565b613a27565b61043f6107ab366004615177565b613a71565b61031a610711366004614f60565b61043f6107cc36600461512d565b613a97565b61031a6107df366004614f28565b613be0565b6103836107f236600461529e565b613bef565b61031a613cf7565b61031a61080d366004614f60565b613f32565b60006001600160e01b03198216637965db0b60e01b148061084357506301ffc9a760e01b6001600160e01b03198316145b92915050565b600354604051634c063c1960e01b815260009182918291829182916001600160a01b031690634c063c1990610882908a9060040161537f565b60206040518083038186803b15801561089a57600080fd5b505afa1580156108ae573d6000803e3d6000fd5b505050506040513d601f19601f820116820180604052508101906108d29190614f44565b90506001600160a01b0381166109035760405162461bcd60e51b81526004016108fa9061543c565b60405180910390fd5b6040516370a0823160e01b81526001600160a01b038216906370a082319061092f90899060040161537f565b60206040518083038186803b15801561094757600080fd5b505afa15801561095b573d6000803e3d6000fd5b505050506040513d601f19601f8201168201806040525081019061097f9190615286565b94506000816001600160a01b03166327e235e3886040518263ffffffff1660e01b81526004016109af919061537f565b60606040518083038186803b1580156109c757600080fd5b505afa1580156109db573d6000803e3d6000fd5b505050506040513d601f19601f820116820180604052508101906109ff919061522c565b80516020820151604090920151979a909950909750945050505050565b60148054610a2990615567565b80601f0160208091040260200160405190810160405280929190818152602001828054610a5590615567565b8015610aa25780601f10610a7757610100808354040283529160200191610aa2565b820191906000526020600020905b815481529060010190602001808311610a8557829003601f168201915b505050505081565b6000806000806000610ad660405180606001604052806000815260200160008152602001600081525090565b600354604051634c063c1960e01b81526000916001600160a01b031690634c063c1990610b07908c9060040161537f565b60206040518083038186803b158015610b1f57600080fd5b505afa158015610b33573d6000803e3d6000fd5b505050506040513d601f19601f82011682018060405250810190610b579190614f44565b90506001600160a01b038116610b7f5760405162461bcd60e51b81526004016108fa9061543c565b6040516370a0823160e01b81526000906001600160a01b038316906370a0823190610bae908c9060040161537f565b60206040518083038186803b158015610bc657600080fd5b505afa158015610bda573d6000803e3d6000fd5b505050506040513d601f19601f82011682018060405250810190610bfe9190615286565b90506000826001600160a01b03166327e235e38b6040518263ffffffff1660e01b8152600401610c2e919061537f565b60606040518083038186803b158015610c4657600080fd5b505afa158015610c5a573d6000803e3d6000fd5b505050506040513d601f19601f82011682018060405250810190610c7e919061522c565b6001600160a01b03808d166000908152600560209081526040808320938f1683529290529081209192508b908d90808080610cc385610cbc81610e2c565b8989613f42565b9350935093509350838383838c8c9f509f509f509f509f509f50505050505050505050509295509295509295565b6004805460408051630d42d49760e01b8152905160009384936001600160a01b031692630d42d4979281830192602092829003018186803b158015610d3557600080fd5b505afa158015610d49573d6000803e3d6000fd5b505050506040513d601f19601f82011682018060405250810190610d6d9190615286565b90506000805b82811015610e25576004805460405163b7ffb17960e01b81529182018390526000916001600160a01b039091169063b7ffb1799060240160206040518083038186803b158015610dc257600080fd5b505afa158015610dd6573d6000803e3d6000fd5b505050506040513d601f19601f82011682018060405250810190610dfa9190614f44565b9050610e0581613be0565b610e0f90846154b6565b9250508080610e1d906155a2565b915050610d73565b5092915050565b6001600160a01b03166000908152600c602052604090205490565b60008051602061561f833981519152610e608133614048565b8351610e73906014906020870190614c49565b508251610e87906015906020860190614c49565b50506016555050565b60005b9392505050565b6000610843826140ac565b600354604051634c063c1960e01b815260009182916001600160a01b0390911690634c063c1990610eda90879060040161537f565b60206040518083038186803b158015610ef257600080fd5b505afa158015610f06573d6000803e3d6000fd5b505050506040513d601f19601f82011682018060405250810190610f2a9190614f44565b90506001600160a01b038116610f525760405162461bcd60e51b81526004016108fa9061543c565b6000835111610f935760405162461bcd60e51b815260206004820152600d60248201526c7a65726f206163636f756e747360981b60448201526064016108fa565b6000610f9e856140ac565b905060005b84518110156110a6576000836001600160a01b03166327e235e3878481518110610fdd57634e487b7160e01b600052603260045260246000fd5b60200260200101516040518263ffffffff1660e01b8152600401611001919061537f565b60606040518083038186803b15801561101957600080fd5b505afa15801561102d573d6000803e3d6000fd5b505050506040513d601f19601f82011682018060405250810190611051919061522c565b90506110938787848151811061107757634e487b7160e01b600052603260045260246000fd5b602002602001015183600001518460200151856040015161412c565b508061109e816155a2565b915050610fa3565b506000826001600160a01b0316633eaaf86b6040518163ffffffff1660e01b815260040160606040518083038186803b1580156110e257600080fd5b505afa1580156110f6573d6000803e3d6000fd5b505050506040513d601f19601f8201168201806040525081019061111a919061522c565b90506000836001600160a01b0316636d1506116040518163ffffffff1660e01b815260040160206040518083038186803b15801561115757600080fd5b505afa15801561116b573d6000803e3d6000fd5b505050506040513d601f19601f8201168201806040525081019061118f9190615286565b90506000846001600160a01b031663a7ac30b06040518163ffffffff1660e01b815260040160206040518083038186803b1580156111cc57600080fd5b505afa1580156111e0573d6000803e3d6000fd5b505050506040513d601f19601f820116820180604052508101906112049190615286565b905061121e88846000015185602001518660400151614167565b61122988838361419a565b6001600160a01b03881660009081526018602052604090205460ff1661129d576001600160a01b0388166000818152601860205260408120805460ff191660019081179091556017805491820181559091526000805160206155ff8339815191520180546001600160a01b03191690911790555b876001600160a01b03167f54b36655ff56a4809739822494dc31812800269f5898e01b2b0304b07292e9b5856040516112d891815260200190565b60405180910390a250919695505050505050565b600f54600090819083116114d6576000838152600e6020908152604080832081518154606094810282018501845292810183815290939192849284919084018282801561136257602002820191906000526020600020905b81546001600160a01b03168152600190910190602001808311611344575b50505050508152602001600182018054806020026020016040519081016040528092919081815260200182805480156113ba57602002820191906000526020600020905b8154815260200190600101908083116113a6575b505050919092525050815151919250506113db5760008092509250506114d6565b60005b8151518110156114d3576114498260000151828151811061140f57634e487b7160e01b600052603260045260246000fd5b6020026020010151878460200151848151811061143c57634e487b7160e01b600052603260045260246000fd5b60200260200101516139a0565b61145390856154b6565b93506114b58260000151828151811061147c57634e487b7160e01b600052603260045260246000fd5b6020026020010151836020015183815181106114a857634e487b7160e01b600052603260045260246000fd5b6020026020010151612d4e565b6114bf90846154b6565b9250806114cb816155a2565b9150506113de565b50505b9250929050565b6000828152602081905260409020600101546114f98133614048565b61150383836141bf565b505050565b600080600080600061153460405180606001604052806000815260200160008152602001600081525090565b600354604051634c063c1960e01b81526000916001600160a01b031690634c063c1990611565908b9060040161537f565b60206040518083038186803b15801561157d57600080fd5b505afa158015611591573d6000803e3d6000fd5b505050506040513d601f19601f820116820180604052508101906115b59190614f44565b90506001600160a01b0381166115dd5760405162461bcd60e51b81526004016108fa9061543c565b6000816001600160a01b03166318160ddd6040518163ffffffff1660e01b815260040160206040518083038186803b15801561161857600080fd5b505afa15801561162c573d6000803e3d6000fd5b505050506040513d601f19601f820116820180604052508101906116509190615286565b90506000826001600160a01b0316633eaaf86b6040518163ffffffff1660e01b815260040160606040518083038186803b15801561168d57600080fd5b505afa1580156116a1573d6000803e3d6000fd5b505050506040513d601f19601f820116820180604052508101906116c5919061522c565b6001600160a01b038b1660009081526008602052604081209192508b908080806116fa856116f281610e2c565b886000613f42565b9350935093509350838383838b8b9e509e509e509e509e509e5050505050505050505091939550919395565b600354604051634c063c1960e01b815260009182916001600160a01b0390911690634c063c199061175b90879060040161537f565b60206040518083038186803b15801561177357600080fd5b505afa158015611787573d6000803e3d6000fd5b505050506040513d601f19601f820116820180604052508101906117ab9190614f44565b90506001600160a01b0381166117d35760405162461bcd60e51b81526004016108fa9061543c565b6001600160a01b0383166118185760405162461bcd60e51b815260206004820152600c60248201526b1e995c9bc81858d8dbdd5b9d60a21b60448201526064016108fa565b6040516327e235e360e01b81526000906001600160a01b038316906327e235e39061184790879060040161537f565b60606040518083038186803b15801561185f57600080fd5b505afa158015611873573d6000803e3d6000fd5b505050506040513d601f19601f82011682018060405250810190611897919061522c565b90506000826001600160a01b0316633eaaf86b6040518163ffffffff1660e01b815260040160606040518083038186803b1580156118d457600080fd5b505afa1580156118e8573d6000803e3d6000fd5b505050506040513d601f19601f8201168201806040525081019061190c919061522c565b90506000836001600160a01b0316636d1506116040518163ffffffff1660e01b815260040160206040518083038186803b15801561194957600080fd5b505afa15801561195d573d6000803e3d6000fd5b505050506040513d601f19601f820116820180604052508101906119819190615286565b90506000846001600160a01b031663a7ac30b06040518163ffffffff1660e01b815260040160206040518083038186803b1580156119be57600080fd5b505afa1580156119d2573d6000803e3d6000fd5b505050506040513d601f19601f820116820180604052508101906119f69190615286565b90506000611a03896140ac565b9050611a1e898987600001518860200151896040015161412c565b611a3689856000015186602001518760400151614167565b611a4189848461419a565b6001600160a01b03891660009081526018602052604090205460ff16611ab5576001600160a01b0389166000818152601860205260408120805460ff191660019081179091556017805491820181559091526000805160206155ff8339815191520180546001600160a01b03191690911790555b604080516001600160a01b038a81168252602082018490528b16917f7fdf6eb9c935ea2cf79bd25cb607af02c6a7b56b043719f9c85fb3ef40f46591910160405180910390a298975050505050505050565b6001600160a01b0381163314611b775760405162461bcd60e51b815260206004820152602f60248201527f416363657373436f6e74726f6c3a2063616e206f6e6c792072656e6f756e636560448201526e103937b632b9903337b91039b2b63360891b60648201526084016108fa565b611b818282614243565b5050565b6000818152600e60209081526040808320815181549384028101606090810184529281018481529294859490939192918391839083880182828015611bf357602002820191906000526020600020905b81546001600160a01b03168152600190910190602001808311611bd5575b5050505050815260200160018201805480602002602001604051908101604052809291908181526020018280548015611c4b57602002820191906000526020600020905b815481526020019060010190808311611c37575b5050505050815250509050806000015181602001519250925050915091565b60008051602061561f833981519152611c838133614048565b6001600160a01b03831615801590611ca357506001600160a01b03821615155b611cde5760405162461bcd60e51b815260206004820152600c60248201526b7a65726f206164647265737360a01b60448201526064016108fa565b50600380546001600160a01b039384166001600160a01b03199182161790915560048054929093169116179055565b6001600160a01b038083166000908152600560209081526040808320938516835292815282822083518154606093810282018401865294810185815293948594859485948594939092849290918491840182828015611d8b57602002820191906000526020600020905b815481526020019060010190808311611d77575b5050505050815260200160018201805480602002602001604051908101604052809291908181526020018280548015611de357602002820191906000526020600020905b815481526020019060010190808311611dcf575b50505091909252505081515191925050808910611e9557600080611e128a8a611e0d60018761550d565b6142a8565b85519193509150611e2460018561550d565b81518110611e4257634e487b7160e01b600052603260045260246000fd5b60200260200101518460200151600185611e5c919061550d565b81518110611e7a57634e487b7160e01b600052603260045260246000fd5b60200260200101518383975097509750975050505050611f0e565b600080611ea38a8a8d6142a8565b9150915083600001518b81518110611ecb57634e487b7160e01b600052603260045260246000fd5b602002602001015184602001518c81518110611ef757634e487b7160e01b600052603260045260246000fd5b602002602001015183839750975097509750505050505b93509350935093565b6000600f548211610843576000828152600e60209081526040808320815181546060948102820185018452928101838152909391928492849190840182828015611f8a57602002820191906000526020600020905b81546001600160a01b03168152600190910190602001808311611f6c575b5050505050815260200160018201805480602002602001604051908101604052809291908181526020018280548015611fe257602002820191906000526020600020905b815481526020019060010190808311611fce575b50505091909252505081515191925050612000576000915050610843565b60005b81515181101561207f576120618260000151828151811061203457634e487b7160e01b600052603260045260246000fd5b6020026020010151868460200151848151811061143c57634e487b7160e01b600052603260045260246000fd5b61206b90846154b6565b925080612077816155a2565b915050612003565b505092915050565b60008051602061561f8339815191526120a08133614048565b6001600160a01b03821660009081526018602052604090205460ff1615611b81576001600160a01b0382166000908152601860205260409020805460ff1916905560175415611b8157816001600160a01b0316601760008154811061211557634e487b7160e01b600052603260045260246000fd5b6000918252602090912001546001600160a01b031614801561213957506017546001145b1561218357601780548061215d57634e487b7160e01b600052603160045260246000fd5b600082815260209020810160001990810180546001600160a01b03191690550190555050565b816001600160a01b031660176000815481106121af57634e487b7160e01b600052603260045260246000fd5b6000918252602090912001546001600160a01b0316141561227c57601780546121da9060019061550d565b815481106121f857634e487b7160e01b600052603260045260246000fd5b6000918252602082200154601780546001600160a01b0390921692909161222f57634e487b7160e01b600052603260045260246000fd5b9060005260206000200160006101000a8154816001600160a01b0302191690836001600160a01b03160217905550601780548061215d57634e487b7160e01b600052603160045260246000fd5b60175460009061228e9060019061550d565b9050805b801561246357836001600160a01b0316601782815481106122c357634e487b7160e01b600052603260045260246000fd5b6000918252602090912001546001600160a01b03161480156122f257506017546122ef9060019061550d565b81105b156123d357601780546123079060019061550d565b8154811061232557634e487b7160e01b600052603260045260246000fd5b600091825260209091200154601780546001600160a01b03909216918390811061235f57634e487b7160e01b600052603260045260246000fd5b9060005260206000200160006101000a8154816001600160a01b0302191690836001600160a01b0316021790555060178054806123ac57634e487b7160e01b600052603160045260246000fd5b600082815260209020810160001990810180546001600160a01b0319169055019055612463565b836001600160a01b0316601782815481106123fe57634e487b7160e01b600052603260045260246000fd5b6000918252602090912001546001600160a01b031614801561242d575060175461242a9060019061550d565b81145b156124515760178054806123ac57634e487b7160e01b600052603160045260246000fd5b8061245b81615550565b915050612292565b50505050565b600060008051602061561f8339815191526124848133614048565b86518851146124cf5760405162461bcd60e51b815260206004820152601760248201527609cde40c4c2d8c2dcc6cae640e6c2daca40d8cadccee8d604b1b60448201526064016108fa565b85518851146125205760405162461bcd60e51b815260206004820152601f60248201527f4e6f207265666163746f726564436f756e74732073616d65206c656e6774680060448201526064016108fa565b845188511461256a5760405162461bcd60e51b815260206004820152601660248201527509cde40e4cadac2d2dce640e6c2daca40d8cadccee8d60531b60448201526064016108fa565b6001600160a01b03891660009081526018602052604090205460ff166125de576001600160a01b0389166000818152601860205260408120805460ff191660019081179091556017805491820181559091526000805160206155ff8339815191520180546001600160a01b03191690911790555b6125e7896140ac565b5060005b88518110156126af5761269d8a8a838151811061261857634e487b7160e01b600052603260045260246000fd5b60200260200101518a848151811061264057634e487b7160e01b600052603260045260246000fd5b60200260200101518a858151811061266857634e487b7160e01b600052603260045260246000fd5b60200260200101518a868151811061269057634e487b7160e01b600052603260045260246000fd5b602002602001015161412c565b806126a7816155a2565b9150506125eb565b508351602085015160408601516126c9928c929091614167565b825160208401516126db918b9161419a565b50600198975050505050505050565b6004805460408051630d42d49760e01b8152905160009384936001600160a01b031692630d42d4979281830192602092829003018186803b15801561272e57600080fd5b505afa158015612742573d6000803e3d6000fd5b505050506040513d601f19601f820116820180604052508101906127669190615286565b90506000915060005b8181101561292b576004805460405163b7ffb17960e01b81529182018390526000916001600160a01b039091169063b7ffb1799060240160206040518083038186803b1580156127be57600080fd5b505afa1580156127d2573d6000803e3d6000fd5b505050506040513d601f19601f820116820180604052508101906127f69190614f44565b600354604051634c063c1960e01b81529192506000916001600160a01b0390911690634c063c199061282c90859060040161537f565b60206040518083038186803b15801561284457600080fd5b505afa158015612858573d6000803e3d6000fd5b505050506040513d601f19601f8201168201806040525081019061287c9190614f44565b90506001600160a01b03811615612916576040516370a0823160e01b81526001600160a01b038216906370a08231906128b990899060040161537f565b60206040518083038186803b1580156128d157600080fd5b505afa1580156128e5573d6000803e3d6000fd5b505050506040513d601f19601f820116820180604052508101906129099190615286565b61291390866154b6565b94505b50508080612923906155a2565b91505061276f565b5050919050565b6004805460408051630d42d49760e01b8152905160009384936001600160a01b031692630d42d4979281830192602092829003018186803b15801561297657600080fd5b505afa15801561298a573d6000803e3d6000fd5b505050506040513d601f19601f820116820180604052508101906129ae9190615286565b90506000805b82811015612ae2576004805460405163b7ffb17960e01b81529182018390526000916001600160a01b039091169063b7ffb1799060240160206040518083038186803b158015612a0357600080fd5b505afa158015612a17573d6000803e3d6000fd5b505050506040513d601f19601f82011682018060405250810190612a3b9190614f44565b6003546040516367265c3b60e11b81526001600160a01b038084166004830152898116602483015292935091169063ce4cb8769060440160206040518083038186803b158015612a8a57600080fd5b505afa158015612a9e573d6000803e3d6000fd5b505050506040513d601f19601f82011682018060405250810190612ac29190615286565b612acc90846154b6565b9250508080612ada906155a2565b9150506129b4565b509392505050565b600354604051634c063c1960e01b81526000918291829182918291829182916001600160a01b031690634c063c1990612b27908b9060040161537f565b60206040518083038186803b158015612b3f57600080fd5b505afa158015612b53573d6000803e3d6000fd5b505050506040513d601f19601f82011682018060405250810190612b779190614f44565b90506001600160a01b038116612b9f5760405162461bcd60e51b81526004016108fa9061543c565b806001600160a01b03166354f703f86040518163ffffffff1660e01b815260040160206040518083038186803b158015612bd857600080fd5b505afa158015612bec573d6000803e3d6000fd5b505050506040513d601f19601f82011682018060405250810190612c109190615286565b9350806001600160a01b0316636d1506116040518163ffffffff1660e01b815260040160206040518083038186803b158015612c4b57600080fd5b505afa158015612c5f573d6000803e3d6000fd5b505050506040513d601f19601f82011682018060405250810190612c839190615286565b9250806001600160a01b031663a7ac30b06040518163ffffffff1660e01b815260040160206040518083038186803b158015612cbe57600080fd5b505afa158015612cd2573d6000803e3d6000fd5b505050506040513d601f19601f82011682018060405250810190612cf69190615286565b91506000612d0389610e2c565b9050612d0f8982614478565b919b909a509098509496509294509092915050565b60178181548110612d3457600080fd5b6000918252602090912001546001600160a01b0316905081565b60008115612dcc57600080600080612d668787614559565b93509350935093506000806000612d7d8a8a614478565b925092509250868015612d8d5750825b15612dbc576000612da087878585613592565b9050612dac85826154b6565b9850610843975050505050505050565b6000975050505050505050610843565b600354604051634c063c1960e01b81526000916001600160a01b031690634c063c1990612dfd90879060040161537f565b60206040518083038186803b158015612e1557600080fd5b505afa158015612e29573d6000803e3d6000fd5b505050506040513d601f19601f82011682018060405250810190612e4d9190614f44565b90506001600160a01b03811615612ed757806001600160a01b03166318160ddd6040518163ffffffff1660e01b815260040160206040518083038186803b158015612e9757600080fd5b505afa158015612eab573d6000803e3d6000fd5b505050506040513d601f19601f82011682018060405250810190612ecf9190615286565b915050610843565b6000915050610843565b60196020528160005260406000208181548110612efd57600080fd5b6000918252602090912001546001600160a01b03169150829050565b6000918252602082815260408084206001600160a01b0393909316845291905290205460ff1690565b60158054610a2990615567565b600f805460009182612f60836155a2565b919050555060005b60175481101561310057600f546000908152600e602052604081206017805491929184908110612fa857634e487b7160e01b600052603260045260246000fd5b60009182526020808320909101546001600160a01b031680835260199091526040909120549091501561305e5761305c8160196000846001600160a01b03166001600160a01b0316815260200190815260200160002080548060200260200160405190810160405280929190818152602001828054801561305257602002820191906000526020600020905b81546001600160a01b03168152600190910190602001808311613034575b5050505050610ea5565b505b81546001808201845560008481526020902090910180546001600160a01b0319166001600160a01b038416179055820161309782610e2c565b815460018101835560009283526020808420909101919091556001600160a01b0383168252601990526040902054156130eb576001600160a01b03811660009081526019602052604081206130eb91614ccd565b505080806130f8906155a2565b915050612f68565b507f8030e83b04d87bef53480e26263266d6ca66863aa8506aca6f2559d18aa1cb67600f5460405161313491815260200190565b60405180910390a150600f5490565b6000600f54821161327d576000828152600e602090815260408083208151815460609481028201850184529281018381529093919284928491908401828280156131b657602002820191906000526020600020905b81546001600160a01b03168152600190910190602001808311613198575b505050505081526020016001820180548060200260200160405190810160405280929190818152602001828054801561320e57602002820191906000526020600020905b8154815260200190600101908083116131fa575b5050509190925250508151519192505061322b5750600092915050565b60005b81515181101561292b5761325f8260000151828151811061147c57634e487b7160e01b600052603260045260246000fd5b61326990846154b6565b925080613275816155a2565b91505061322e565b919050565b600354604051634c063c1960e01b815260009182916001600160a01b0390911690634c063c19906132b790869060040161537f565b60206040518083038186803b1580156132cf57600080fd5b505afa1580156132e3573d6000803e3d6000fd5b505050506040513d601f19601f820116820180604052508101906133079190614f44565b90506001600160a01b03811661332f5760405162461bcd60e51b81526004016108fa9061543c565b6000816001600160a01b0316633eaaf86b6040518163ffffffff1660e01b815260040160606040518083038186803b15801561336a57600080fd5b505afa15801561337e573d6000803e3d6000fd5b505050506040513d601f19601f820116820180604052508101906133a2919061522c565b90506000816000015190506000826020015190506000836040015190506000856001600160a01b0316636d1506116040518163ffffffff1660e01b815260040160206040518083038186803b1580156133fa57600080fd5b505afa15801561340e573d6000803e3d6000fd5b505050506040513d601f19601f820116820180604052508101906134329190615286565b90506000866001600160a01b031663a7ac30b06040518163ffffffff1660e01b815260040160206040518083038186803b15801561346f57600080fd5b505afa158015613483573d6000803e3d6000fd5b505050506040513d601f19601f820116820180604052508101906134a79190615286565b6001600160a01b038a1660009081526018602052604090205490915060ff1661351e576001600160a01b0389166000818152601860205260408120805460ff191660019081179091556017805491820181559091526000805160206155ff8339815191520180546001600160a01b03191690911790555b60006135298a6140ac565b90506135378a878787614167565b6135428a848461419a565b896001600160a01b03167fe139f378fc973ae310737105ff3843c7852c0e3f90d34fcb5252038e0d206a2a8260405161357d91815260200190565b60405180910390a29998505050505050505050565b6000846135a1575060006135dd565b6135ab85846145aa565b9450835b828110156135d8576002546135c490876154ee565b9550806135d0816155a2565b9150506135af565b508490505b949350505050565b600060008051602061561f8339815191526136008133614048565b6001600160a01b03841660009081526018602052604090205460ff16613674576001600160a01b0384166000818152601860205260408120805460ff191660019081179091556017805491820181559091526000805160206155ff8339815191520180546001600160a01b03191690911790555b6001600160a01b0384166000908152601960209081526040808320805482518185028101850190935280835291929091908301828280156136de57602002820191906000526020600020905b81546001600160a01b031681526001909101906020018083116136c0575b5050505050905060005b815181101561376657846001600160a01b031682828151811061371b57634e487b7160e01b600052603260045260246000fd5b60200260200101516001600160a01b031614156137545750506001600160a01b0384166000908152601960205260409020549150610e25565b8061375e816155a2565b9150506136e8565b506001600160a01b038581166000818152601960209081526040808320805460018101825590845291832090910180546001600160a01b0319169489169485179055517f4ffca0776989e4cc364d956bdf7e244819b0d0c044ee155726107f9ab1a9c9189190a3505050506001600160a01b031660009081526019602052604090205490565b600354604051634c063c1960e01b815260009182918291829182916001600160a01b031690634c063c199061382590899060040161537f565b60206040518083038186803b15801561383d57600080fd5b505afa158015613851573d6000803e3d6000fd5b505050506040513d601f19601f820116820180604052508101906138759190614f44565b90506001600160a01b03811661389d5760405162461bcd60e51b81526004016108fa9061543c565b806001600160a01b03166318160ddd6040518163ffffffff1660e01b815260040160206040518083038186803b1580156138d657600080fd5b505afa1580156138ea573d6000803e3d6000fd5b505050506040513d601f19601f8201168201806040525081019061390e9190615286565b94506000816001600160a01b0316633eaaf86b6040518163ffffffff1660e01b815260040160606040518083038186803b15801561394b57600080fd5b505afa15801561395f573d6000803e3d6000fd5b505050506040513d601f19601f82011682018060405250810190613983919061522c565b805160208201516040909201519799909850909695509350505050565b60008115613a1f576000806000806139b98888886145cd565b935093509350935060008060006139d08b8a614478565b9250925092508680156139e05750825b15613a0f5760006139f387878585613592565b90506139ff85826154b6565b9850610e93975050505050505050565b6000975050505050505050610e93565b506000610e93565b6001600160a01b038116600090815260086020526040812054613a4c57506000919050565b6001600160a01b0382166000908152600860205260409020546108439060019061550d565b600082815260208190526040902060010154613a8d8133614048565b6115038383614243565b60008051602061561f833981519152613ab08133614048565b60005b82518110156115035760186000848381518110613ae057634e487b7160e01b600052603260045260246000fd5b6020908102919091018101516001600160a01b031682528101919091526040016000205460ff16613bce57600160186000858481518110613b3157634e487b7160e01b600052603260045260246000fd5b60200260200101516001600160a01b03166001600160a01b0316815260200190815260200160002060006101000a81548160ff0219169083151502179055506017838281518110613b9257634e487b7160e01b600052603260045260246000fd5b60209081029190910181015182546001810184556000938452919092200180546001600160a01b0319166001600160a01b039092169190911790555b80613bd8816155a2565b915050613ab3565b60006108438261068884610e2c565b6001600160a01b0380831660009081526005602090815260408083209385168352929052908120805482918291829190613c3757600080600080945094509450945050611f0e565b600088118015613c4f5750613c4b87610e2c565b8811155b15613ce3576000613c60828a614641565b9050600080613c708a8a856142a8565b91509150836000018381548110613c9757634e487b7160e01b600052603260045260246000fd5b9060005260206000200154846001018481548110613cc557634e487b7160e01b600052603260045260246000fd5b90600052602060002001548383975097509750975050505050611f0e565b600080600080945094509450945050611f0e565b6004805460408051630d42d49760e01b8152905160009384936001600160a01b031692630d42d4979281830192602092829003018186803b158015613d3b57600080fd5b505afa158015613d4f573d6000803e3d6000fd5b505050506040513d601f19601f82011682018060405250810190613d739190615286565b90506000915060005b81811015613f2d576004805460405163b7ffb17960e01b81529182018390526000916001600160a01b039091169063b7ffb1799060240160206040518083038186803b158015613dcb57600080fd5b505afa158015613ddf573d6000803e3d6000fd5b505050506040513d601f19601f82011682018060405250810190613e039190614f44565b600354604051634c063c1960e01b81529192506000916001600160a01b0390911690634c063c1990613e3990859060040161537f565b60206040518083038186803b158015613e5157600080fd5b505afa158015613e65573d6000803e3d6000fd5b505050506040513d601f19601f82011682018060405250810190613e899190614f44565b90506001600160a01b03811615613f1857806001600160a01b03166318160ddd6040518163ffffffff1660e01b815260040160206040518083038186803b158015613ed357600080fd5b505afa158015613ee7573d6000803e3d6000fd5b505050506040513d601f19601f82011682018060405250810190613f0b9190615286565b613f1590866154b6565b94505b50508080613f25906155a2565b915050613d7c565b505090565b6000610e93838361077286610e2c565b600080600080600087118015613f605750613f5c88610e2c565b8711155b15614030576000613f718789614641565b8754909150811415613ff9578015613fe557600080613f968b89611e0d60018761550d565b90925090506001898101613faa828661550d565b81548110613fc857634e487b7160e01b600052603260045260246000fd5b90600052602060002001548383965096509650965050505061403d565b60008060008094509450945094505061403d565b6000806140078b89856142a8565b915091506001896001018481548110613fc857634e487b7160e01b600052603260045260246000fd5b5060009250829150819050805b945094509450949050565b6140528282612f19565b611b815761406a816001600160a01b03166014614771565b614075836020614771565b604051602001614086929190615310565b60408051601f198184030181529082905262461bcd60e51b82526108fa91600401615409565b6001600160a01b0381166000908152600c60205260408120805490826140d1836155a2565b919050555060006140e183610e2c565b9050826001600160a01b03167fe0c22d2a58b4d5f2deade46cc3a0d4dd70def702dde2bb72f79e53981e1c5b208260405161411e91815260200190565b60405180910390a292915050565b6001600160a01b03808616600090815260056020908152604080832093881683529290522061416090869085858589614952565b5050505050565b6124638460086000876001600160a01b03166001600160a01b031681526020019081526020016000208585856000614952565b6001600160a01b0383166000908152600b602052604090206115039084908484614b2e565b6141c98282612f19565b611b81576000828152602081815260408083206001600160a01b03851684529091529020805460ff191660011790556141ff3390565b6001600160a01b0316816001600160a01b0316837f2f8788117e7eff1d82e926ec794901d17c78024a50270940304540a733656f0d60405160405180910390a45050565b61424d8282612f19565b15611b81576000828152602081815260408083206001600160a01b0385168085529252808320805460ff1916905551339285917ff6391f5c32d9c69d2a47ea670b442974b53935d1edc7fd64eb21e047a839171b9190a45050565b6000806001600160a01b038416158015906142ef57506001600160a01b03808616600090815260066020908152604080832093881683529281528282208683529052205415155b15614329576001600160a01b038086166000908152600660209081526040808320938816835292815282822086835290522054915061438e565b6001600160a01b03841615801561436257506001600160a01b038516600090815260096020908152604080832086845290915290205415155b1561438e576001600160a01b038516600090815260096020908152604080832086845290915290205491505b6001600160a01b038416158015906143d257506001600160a01b03808616600090815260076020908152604080832093881683529281528282208683529052205415155b1561440b57506001600160a01b038085166000908152600760209081526040808320938716835292815282822085835290522054614470565b6001600160a01b0384161580159061444557506001600160a01b0385166000908152600a6020908152604080832086845290915290205415155b1561447057506001600160a01b0384166000908152600a602090815260408083208584529091529020545b935093915050565b6001600160a01b0382166000908152600b602052604081208190819084158015906144ab57506144a786610e2c565b8511155b156145455760006144bc8287614641565b82549091508114156144da5760008060009450945094505050614552565b60018260010182815481106144ff57634e487b7160e01b600052603260045260246000fd5b906000526020600020015483600201838154811061452d57634e487b7160e01b600052603260045260246000fd5b90600052602060002001549450945094505050614552565b6000806000935093509350505b9250925092565b6000806000806000806000806145968a8a600860008e6001600160a01b03166001600160a01b031681526020019081526020016000206000613f42565b929d919c509a509098509650505050505050565b60006b033b2e3c9fd0803ce80000006145c38484614b91565b610e9391906154ce565b60008060008060008060008061462c8b8a600560008f6001600160a01b03166001600160a01b0316815260200190815260200160002060008e6001600160a01b03166001600160a01b031681526020019081526020016000208d613f42565b929e919d509b50909950975050505050505050565b815460009061465257506000610843565b825483906146629060019061550d565b8154811061468057634e487b7160e01b600052603260045260246000fd5b906000526020600020015482106146a657825461469f9060019061550d565b9050610843565b826000815481106146c757634e487b7160e01b600052603260045260246000fd5b90600052602060002001548210156146e157506000610843565b825460009081906146f49060019061550d565b90505b81811115612ae2576000600261470d84846154b6565b6147189060016154b6565b61472291906154ce565b90508486828154811061474557634e487b7160e01b600052603260045260246000fd5b90600052602060002001541161475d5780925061476b565b61476860018261550d565b91505b506146f7565b606060006147808360026154ee565b61478b9060026154b6565b6001600160401b038111156147b057634e487b7160e01b600052604160045260246000fd5b6040519080825280601f01601f1916602001820160405280156147da576020820181803683370190505b509050600360fc1b8160008151811061480357634e487b7160e01b600052603260045260246000fd5b60200101906001600160f81b031916908160001a905350600f60fb1b8160018151811061484057634e487b7160e01b600052603260045260246000fd5b60200101906001600160f81b031916908160001a90535060006148648460026154ee565b61486f9060016154b6565b90505b6001811115614903576f181899199a1a9b1b9c1cb0b131b232b360811b85600f16601081106148b157634e487b7160e01b600052603260045260246000fd5b1a60f81b8282815181106148d557634e487b7160e01b600052603260045260246000fd5b60200101906001600160f81b031916908160001a90535060049490941c936148fc81615550565b9050614872565b508315610e935760405162461bcd60e51b815260206004820181905260248201527f537472696e67733a20686578206c656e67746820696e73756666696369656e7460448201526064016108fa565b600061495d87610e2c565b9050600061496a87614bf8565b905081811015614b245786546001818101895560008981526020808220909301859055818a01805492830181558152919091200186905584158015906149b857506001600160a01b03831615155b15614a0b576001600160a01b038089166000908152600660209081526040808320938716835292905290812088548792906149f59060019061550d565b8152602081019190915260400160002055614a62565b600085118015614a2257506001600160a01b038316155b15614a62576001600160a01b03881660009081526009602052604081208854879290614a509060019061550d565b81526020810191909152604001600020555b600084118015614a7a57506001600160a01b03831615155b15614acd576001600160a01b03808916600090815260076020908152604080832093871683529290529081208854869290614ab79060019061550d565b8152602081019190915260400160002055614b24565b600084118015614ae457506001600160a01b038316155b15614b24576001600160a01b0388166000908152600a602052604081208854869290614b129060019061550d565b81526020810191909152604001600020555b5050505050505050565b6000614b3985610e2c565b905080614b4585614bf8565b1015614160578354600180820186556000868152602080822090930193909355808601805480830182559084528284200194909455600290940180549384018155815292909220015550565b6000811580614bb557508282614ba781836154ee565b9250614bb390836154ce565b145b6108435760405162461bcd60e51b815260206004820152601460248201527364732d6d6174682d6d756c2d6f766572666c6f7760601b60448201526064016108fa565b8054600090614c0957506000919050565b81548290614c199060019061550d565b81548110614c3757634e487b7160e01b600052603260045260246000fd5b90600052602060002001549050919050565b828054614c5590615567565b90600052602060002090601f016020900481019282614c775760008555614cbd565b82601f10614c9057805160ff1916838001178555614cbd565b82800160010185558215614cbd579182015b82811115614cbd578251825591602001919060010190614ca2565b50614cc9929150614cee565b5090565b5080546000825590600052602060002090810190614ceb9190614cee565b50565b5b80821115614cc95760008155600101614cef565b803561327d816155e9565b600082601f830112614d1e578081fd5b81356020614d33614d2e83615493565b615463565b80838252828201915082860187848660051b8901011115614d52578586fd5b855b85811015614d79578135614d67816155e9565b84529284019290840190600101614d54565b5090979650505050505050565b600082601f830112614d96578081fd5b604051604081018181106001600160401b0382111715614db857614db86155d3565b8060405250808385604086011115614dce578384fd5b835b6002811015614def578135835260209283019290910190600101614dd0565b509195945050505050565b600082601f830112614e0a578081fd5b604051606081018181106001600160401b0382111715614e2c57614e2c6155d3565b604052808360608101861015614e40578384fd5b835b6003811015614def578135835260209283019290910190600101614e42565b600082601f830112614e71578081fd5b81356020614e81614d2e83615493565b80838252828201915082860187848660051b8901011115614ea0578586fd5b855b85811015614d7957813584529284019290840190600101614ea2565b600082601f830112614ece578081fd5b81356001600160401b03811115614ee757614ee76155d3565b614efa601f8201601f1916602001615463565b818152846020838601011115614f0e578283fd5b816020850160208301379081016020019190915292915050565b600060208284031215614f39578081fd5b8135610e93816155e9565b600060208284031215614f55578081fd5b8151610e93816155e9565b60008060408385031215614f72578081fd5b8235614f7d816155e9565b91506020830135614f8d816155e9565b809150509250929050565b600080600060608486031215614fac578081fd5b8335614fb7816155e9565b92506020840135614fc7816155e9565b929592945050506040919091013590565b60008060408385031215614fea578182fd5b8235614ff5816155e9565b915060208301356001600160401b0381111561500f578182fd5b61501b85828601614d0e565b9150509250929050565b6000806000806000806000610140888a031215615040578485fd5b61504988614d03565b965060208801356001600160401b0380821115615064578687fd5b6150708b838c01614d0e565b975060408a0135915080821115615085578687fd5b6150918b838c01614e61565b965060608a01359150808211156150a6578485fd5b6150b28b838c01614e61565b955060808a01359150808211156150c7578485fd5b506150d48a828b01614e61565b9350506150e48960a08a01614dfa565b91506150f4896101008a01614d86565b905092959891949750929550565b60008060408385031215615114578182fd5b823561511f816155e9565b946020939093013593505050565b60006020828403121561513e578081fd5b81356001600160401b03811115615153578182fd5b6135dd84828501614d0e565b600060208284031215615170578081fd5b5035919050565b60008060408385031215615189578182fd5b823591506020830135614f8d816155e9565b6000602082840312156151ac578081fd5b81356001600160e01b031981168114610e93578182fd5b6000806000606084860312156151d7578081fd5b83356001600160401b03808211156151ed578283fd5b6151f987838801614ebe565b9450602086013591508082111561520e578283fd5b5061521b86828701614ebe565b925050604084013590509250925092565b60006060828403121561523d578081fd5b604051606081018181106001600160401b038211171561525f5761525f6155d3565b80604052508251815260208301516020820152604083015160408201528091505092915050565b600060208284031215615297578081fd5b5051919050565b6000806000606084860312156152b2578081fd5b8335925060208401356152c4816155e9565b915060408401356152d4816155e9565b809150509250925092565b600080600080608085870312156152f4578182fd5b5050823594602084013594506040840135936060013592509050565b76020b1b1b2b9b9a1b7b73a3937b61d1030b1b1b7bab73a1604d1b815260008351615342816017850160208801615524565b7001034b99036b4b9b9b4b733903937b6329607d1b6017918401918201528351615373816028840160208801615524565b01602801949350505050565b6001600160a01b0391909116815260200190565b604080825283519082018190526000906020906060840190828701845b828110156153d55781516001600160a01b0316845292840192908401906001016153b0565b50505083810382850152845180825285830191830190845b81811015614d79578351835292840192918401916001016153ed565b6020815260008251806020840152615428816040850160208701615524565b601f01601f19169190910160400192915050565b6020808252600d908201526c7a65726f20636f696e6167657360981b604082015260600190565b604051601f8201601f191681016001600160401b038111828210171561548b5761548b6155d3565b604052919050565b60006001600160401b038211156154ac576154ac6155d3565b5060051b60200190565b600082198211156154c9576154c96155bd565b500190565b6000826154e957634e487b7160e01b81526012600452602481fd5b500490565b6000816000190483118215151615615508576155086155bd565b500290565b60008282101561551f5761551f6155bd565b500390565b60005b8381101561553f578181015183820152602001615527565b838111156124635750506000910152565b60008161555f5761555f6155bd565b506000190190565b600181811c9082168061557b57607f821691505b6020821081141561559c57634e487b7160e01b600052602260045260246000fd5b50919050565b60006000198214156155b6576155b66155bd565b5060010190565b634e487b7160e01b600052601160045260246000fd5b634e487b7160e01b600052604160045260246000fd5b6001600160a01b0381168114614ceb57600080fdfec624b66cc0138b8fabc209247f72d758e1cf3343756d543badbf24212bed8c15a49807205ce4d355092ef5a8a18f56e8913cf4a201fbe287825b095693c21775a26469706673582212207a703df1da38369a2b0f442621abce8f660a42383494aba56ad35df747758d9864736f6c63430008040033",
  "linkReferences": {},
  "deployedLinkReferences": {}
}