{
  "_format": "hh-sol-artifact-1",
  "contractName": "LockTOS",
  "sourceName": "contracts/stake/LockTOS.sol",
  "abi": [
    {
      "anonymous": false,
      "inputs": [
        {
          "indexed": false,
          "internalType": "address",
          "name": "account",
          "type": "address"
        },
        {
          "indexed": false,
          "internalType": "uint256",
          "name": "lockId",
          "type": "uint256"
        },
        {
          "indexed": false,
          "internalType": "uint256",
          "name": "value",
          "type": "uint256"
        }
      ],
      "name": "LockAmountIncreased",
      "type": "event"
    },
    {
      "anonymous": false,
      "inputs": [
        {
          "indexed": false,
          "internalType": "address",
          "name": "account",
          "type": "address"
        },
        {
          "indexed": false,
          "internalType": "uint256",
          "name": "lockId",
          "type": "uint256"
        },
        {
          "indexed": false,
          "internalType": "uint256",
          "name": "value",
          "type": "uint256"
        },
        {
          "indexed": false,
          "internalType": "uint256",
          "name": "unlockTime",
          "type": "uint256"
        }
      ],
      "name": "LockCreated",
      "type": "event"
    },
    {
      "anonymous": false,
      "inputs": [
        {
          "indexed": false,
          "internalType": "address",
          "name": "account",
          "type": "address"
        },
        {
          "indexed": false,
          "internalType": "uint256",
          "name": "lockId",
          "type": "uint256"
        },
        {
          "indexed": false,
          "internalType": "uint256",
          "name": "value",
          "type": "uint256"
        }
      ],
      "name": "LockDeposited",
      "type": "event"
    },
    {
      "anonymous": false,
      "inputs": [
        {
          "indexed": false,
          "internalType": "address",
          "name": "account",
          "type": "address"
        },
        {
          "indexed": false,
          "internalType": "uint256",
          "name": "lockId",
          "type": "uint256"
        },
        {
          "indexed": false,
          "internalType": "uint256",
          "name": "unlockTime",
          "type": "uint256"
        }
      ],
      "name": "LockUnlockTimeIncreased",
      "type": "event"
    },
    {
      "anonymous": false,
      "inputs": [
        {
          "indexed": false,
          "internalType": "address",
          "name": "account",
          "type": "address"
        },
        {
          "indexed": false,
          "internalType": "uint256",
          "name": "lockId",
          "type": "uint256"
        },
        {
          "indexed": false,
          "internalType": "uint256",
          "name": "value",
          "type": "uint256"
        }
      ],
      "name": "LockWithdrawn",
      "type": "event"
    },
    {
      "anonymous": false,
      "inputs": [
        {
          "indexed": true,
          "internalType": "bytes32",
          "name": "role",
          "type": "bytes32"
        },
        {
          "indexed": true,
          "internalType": "bytes32",
          "name": "previousAdminRole",
          "type": "bytes32"
        },
        {
          "indexed": true,
          "internalType": "bytes32",
          "name": "newAdminRole",
          "type": "bytes32"
        }
      ],
      "name": "RoleAdminChanged",
      "type": "event"
    },
    {
      "anonymous": false,
      "inputs": [
        {
          "indexed": true,
          "internalType": "bytes32",
          "name": "role",
          "type": "bytes32"
        },
        {
          "indexed": true,
          "internalType": "address",
          "name": "account",
          "type": "address"
        },
        {
          "indexed": true,
          "internalType": "address",
          "name": "sender",
          "type": "address"
        }
      ],
      "name": "RoleGranted",
      "type": "event"
    },
    {
      "anonymous": false,
      "inputs": [
        {
          "indexed": true,
          "internalType": "bytes32",
          "name": "role",
          "type": "bytes32"
        },
        {
          "indexed": true,
          "internalType": "address",
          "name": "account",
          "type": "address"
        },
        {
          "indexed": true,
          "internalType": "address",
          "name": "sender",
          "type": "address"
        }
      ],
      "name": "RoleRevoked",
      "type": "event"
    },
    {
      "inputs": [],
      "name": "ADMIN_ROLE",
      "outputs": [
        {
          "internalType": "bytes32",
          "name": "",
          "type": "bytes32"
        }
      ],
      "stateMutability": "view",
      "type": "function"
    },
    {
      "inputs": [],
      "name": "BURNER_ROLE",
      "outputs": [
        {
          "internalType": "bytes32",
          "name": "",
          "type": "bytes32"
        }
      ],
      "stateMutability": "view",
      "type": "function"
    },
    {
      "inputs": [],
      "name": "DEFAULT_ADMIN_ROLE",
      "outputs": [
        {
          "internalType": "bytes32",
          "name": "",
          "type": "bytes32"
        }
      ],
      "stateMutability": "view",
      "type": "function"
    },
    {
      "inputs": [],
      "name": "MINTER_ROLE",
      "outputs": [
        {
          "internalType": "bytes32",
          "name": "",
          "type": "bytes32"
        }
      ],
      "stateMutability": "view",
      "type": "function"
    },
    {
      "inputs": [],
      "name": "MULTIPLIER",
      "outputs": [
        {
          "internalType": "uint256",
          "name": "",
          "type": "uint256"
        }
      ],
      "stateMutability": "view",
      "type": "function"
    },
    {
      "inputs": [],
      "name": "PROJECT_ADMIN_ROLE",
      "outputs": [
        {
          "internalType": "bytes32",
          "name": "",
          "type": "bytes32"
        }
      ],
      "stateMutability": "view",
      "type": "function"
    },
    {
      "inputs": [],
      "name": "activeHolders",
      "outputs": [
        {
          "internalType": "address[]",
          "name": "",
          "type": "address[]"
        }
      ],
      "stateMutability": "view",
      "type": "function"
    },
    {
      "inputs": [
        {
          "internalType": "address",
          "name": "_addr",
          "type": "address"
        }
      ],
      "name": "activeLocksOf",
      "outputs": [
        {
          "internalType": "uint256[]",
          "name": "",
          "type": "uint256[]"
        }
      ],
      "stateMutability": "view",
      "type": "function"
    },
    {
      "inputs": [
        {
          "internalType": "address",
          "name": "account",
          "type": "address"
        }
      ],
      "name": "addAdmin",
      "outputs": [],
      "stateMutability": "nonpayable",
      "type": "function"
    },
    {
      "inputs": [],
      "name": "allHolders",
      "outputs": [
        {
          "internalType": "address[]",
          "name": "",
          "type": "address[]"
        }
      ],
      "stateMutability": "view",
      "type": "function"
    },
    {
      "inputs": [
        {
          "internalType": "uint256",
          "name": "",
          "type": "uint256"
        }
      ],
      "name": "allLocks",
      "outputs": [
        {
          "internalType": "uint256",
          "name": "start",
          "type": "uint256"
        },
        {
          "internalType": "uint256",
          "name": "end",
          "type": "uint256"
        },
        {
          "internalType": "uint256",
          "name": "amount",
          "type": "uint256"
        },
        {
          "internalType": "bool",
          "name": "withdrawn",
          "type": "bool"
        }
      ],
      "stateMutability": "view",
      "type": "function"
    },
    {
      "inputs": [
        {
          "internalType": "address",
          "name": "_addr",
          "type": "address"
        }
      ],
      "name": "balanceOf",
      "outputs": [
        {
          "internalType": "uint256",
          "name": "balance",
          "type": "uint256"
        }
      ],
      "stateMutability": "view",
      "type": "function"
    },
    {
      "inputs": [
        {
          "internalType": "address",
          "name": "_addr",
          "type": "address"
        },
        {
          "internalType": "uint256",
          "name": "_timestamp",
          "type": "uint256"
        }
      ],
      "name": "balanceOfAt",
      "outputs": [
        {
          "internalType": "uint256",
          "name": "balance",
          "type": "uint256"
        }
      ],
      "stateMutability": "view",
      "type": "function"
    },
    {
      "inputs": [
        {
          "internalType": "uint256",
          "name": "_lockId",
          "type": "uint256"
        }
      ],
      "name": "balanceOfLock",
      "outputs": [
        {
          "internalType": "uint256",
          "name": "",
          "type": "uint256"
        }
      ],
      "stateMutability": "view",
      "type": "function"
    },
    {
      "inputs": [
        {
          "internalType": "uint256",
          "name": "_lockId",
          "type": "uint256"
        },
        {
          "internalType": "uint256",
          "name": "_timestamp",
          "type": "uint256"
        }
      ],
      "name": "balanceOfLockAt",
      "outputs": [
        {
          "internalType": "uint256",
          "name": "",
          "type": "uint256"
        }
      ],
      "stateMutability": "view",
      "type": "function"
    },
    {
      "inputs": [
        {
          "internalType": "uint256",
          "name": "_value",
          "type": "uint256"
        },
        {
          "internalType": "uint256",
          "name": "_unlockWeeks",
          "type": "uint256"
        }
      ],
      "name": "createLock",
      "outputs": [
        {
          "internalType": "uint256",
          "name": "lockId",
          "type": "uint256"
        }
      ],
      "stateMutability": "nonpayable",
      "type": "function"
    },
    {
      "inputs": [
        {
          "internalType": "uint256",
          "name": "_value",
          "type": "uint256"
        },
        {
          "internalType": "uint256",
          "name": "_unlockWeeks",
          "type": "uint256"
        },
        {
          "internalType": "uint256",
          "name": "_deadline",
          "type": "uint256"
        },
        {
          "internalType": "uint8",
          "name": "_v",
          "type": "uint8"
        },
        {
          "internalType": "bytes32",
          "name": "_r",
          "type": "bytes32"
        },
        {
          "internalType": "bytes32",
          "name": "_s",
          "type": "bytes32"
        }
      ],
      "name": "createLockWithPermit",
      "outputs": [
        {
          "internalType": "uint256",
          "name": "lockId",
          "type": "uint256"
        }
      ],
      "stateMutability": "nonpayable",
      "type": "function"
    },
    {
      "inputs": [],
      "name": "cumulativeEpochUnit",
      "outputs": [
        {
          "internalType": "uint256",
          "name": "",
          "type": "uint256"
        }
      ],
      "stateMutability": "view",
      "type": "function"
    },
    {
      "inputs": [],
      "name": "cumulativeTOSAmount",
      "outputs": [
        {
          "internalType": "uint256",
          "name": "",
          "type": "uint256"
        }
      ],
      "stateMutability": "view",
      "type": "function"
    },
    {
      "inputs": [],
      "name": "currentStakedTotalTOS",
      "outputs": [
        {
          "internalType": "uint256",
          "name": "",
          "type": "uint256"
        }
      ],
      "stateMutability": "view",
      "type": "function"
    },
    {
      "inputs": [
        {
          "internalType": "address",
          "name": "_addr",
          "type": "address"
        },
        {
          "internalType": "uint256",
          "name": "_lockId",
          "type": "uint256"
        },
        {
          "internalType": "uint256",
          "name": "_value",
          "type": "uint256"
        }
      ],
      "name": "depositFor",
      "outputs": [],
      "stateMutability": "nonpayable",
      "type": "function"
    },
    {
      "inputs": [],
      "name": "epochUnit",
      "outputs": [
        {
          "internalType": "uint256",
          "name": "",
          "type": "uint256"
        }
      ],
      "stateMutability": "view",
      "type": "function"
    },
    {
      "inputs": [],
      "name": "getCurrentTime",
      "outputs": [
        {
          "internalType": "uint256",
          "name": "",
          "type": "uint256"
        }
      ],
      "stateMutability": "view",
      "type": "function"
    },
    {
      "inputs": [
        {
          "internalType": "bytes32",
          "name": "role",
          "type": "bytes32"
        }
      ],
      "name": "getRoleAdmin",
      "outputs": [
        {
          "internalType": "bytes32",
          "name": "",
          "type": "bytes32"
        }
      ],
      "stateMutability": "view",
      "type": "function"
    },
    {
      "inputs": [
        {
          "internalType": "bytes32",
          "name": "role",
          "type": "bytes32"
        },
        {
          "internalType": "uint256",
          "name": "index",
          "type": "uint256"
        }
      ],
      "name": "getRoleMember",
      "outputs": [
        {
          "internalType": "address",
          "name": "",
          "type": "address"
        }
      ],
      "stateMutability": "view",
      "type": "function"
    },
    {
      "inputs": [
        {
          "internalType": "bytes32",
          "name": "role",
          "type": "bytes32"
        }
      ],
      "name": "getRoleMemberCount",
      "outputs": [
        {
          "internalType": "uint256",
          "name": "",
          "type": "uint256"
        }
      ],
      "stateMutability": "view",
      "type": "function"
    },
    {
      "inputs": [],
      "name": "globalCheckpoint",
      "outputs": [],
      "stateMutability": "nonpayable",
      "type": "function"
    },
    {
      "inputs": [
        {
          "internalType": "bytes32",
          "name": "role",
          "type": "bytes32"
        },
        {
          "internalType": "address",
          "name": "account",
          "type": "address"
        }
      ],
      "name": "grantRole",
      "outputs": [],
      "stateMutability": "nonpayable",
      "type": "function"
    },
    {
      "inputs": [
        {
          "internalType": "bytes32",
          "name": "role",
          "type": "bytes32"
        },
        {
          "internalType": "address",
          "name": "account",
          "type": "address"
        }
      ],
      "name": "hasRole",
      "outputs": [
        {
          "internalType": "bool",
          "name": "",
          "type": "bool"
        }
      ],
      "stateMutability": "view",
      "type": "function"
    },
    {
      "inputs": [
        {
          "internalType": "uint256",
          "name": "",
          "type": "uint256"
        }
      ],
      "name": "inUse",
      "outputs": [
        {
          "internalType": "bool",
          "name": "",
          "type": "bool"
        }
      ],
      "stateMutability": "view",
      "type": "function"
    },
    {
      "inputs": [
        {
          "internalType": "uint256",
          "name": "_lockId",
          "type": "uint256"
        },
        {
          "internalType": "uint256",
          "name": "_value",
          "type": "uint256"
        }
      ],
      "name": "increaseAmount",
      "outputs": [],
      "stateMutability": "nonpayable",
      "type": "function"
    },
    {
      "inputs": [
        {
          "internalType": "uint256",
          "name": "_lockId",
          "type": "uint256"
        },
        {
          "internalType": "uint256",
          "name": "_unlockWeeks",
          "type": "uint256"
        }
      ],
      "name": "increaseUnlockTime",
      "outputs": [],
      "stateMutability": "nonpayable",
      "type": "function"
    },
    {
      "inputs": [
        {
          "internalType": "address",
          "name": "account",
          "type": "address"
        }
      ],
      "name": "isAdmin",
      "outputs": [
        {
          "internalType": "bool",
          "name": "",
          "type": "bool"
        }
      ],
      "stateMutability": "view",
      "type": "function"
    },
    {
      "inputs": [],
      "name": "lockIdCounter",
      "outputs": [
        {
          "internalType": "uint256",
          "name": "",
          "type": "uint256"
        }
      ],
      "stateMutability": "view",
      "type": "function"
    },
    {
      "inputs": [
        {
          "internalType": "uint256",
          "name": "",
          "type": "uint256"
        },
        {
          "internalType": "uint256",
          "name": "",
          "type": "uint256"
        }
      ],
      "name": "lockPointHistory",
      "outputs": [
        {
          "internalType": "int256",
          "name": "bias",
          "type": "int256"
        },
        {
          "internalType": "int256",
          "name": "slope",
          "type": "int256"
        },
        {
          "internalType": "uint256",
          "name": "timestamp",
          "type": "uint256"
        }
      ],
      "stateMutability": "view",
      "type": "function"
    },
    {
      "inputs": [
        {
          "internalType": "address",
          "name": "",
          "type": "address"
        },
        {
          "internalType": "uint256",
          "name": "",
          "type": "uint256"
        }
      ],
      "name": "lockedBalances",
      "outputs": [
        {
          "internalType": "uint256",
          "name": "start",
          "type": "uint256"
        },
        {
          "internalType": "uint256",
          "name": "end",
          "type": "uint256"
        },
        {
          "internalType": "uint256",
          "name": "amount",
          "type": "uint256"
        },
        {
          "internalType": "bool",
          "name": "withdrawn",
          "type": "bool"
        }
      ],
      "stateMutability": "view",
      "type": "function"
    },
    {
      "inputs": [
        {
          "internalType": "uint256",
          "name": "_lockId",
          "type": "uint256"
        }
      ],
      "name": "locksInfo",
      "outputs": [
        {
          "internalType": "uint256",
          "name": "start",
          "type": "uint256"
        },
        {
          "internalType": "uint256",
          "name": "end",
          "type": "uint256"
        },
        {
          "internalType": "uint256",
          "name": "amount",
          "type": "uint256"
        }
      ],
      "stateMutability": "view",
      "type": "function"
    },
    {
      "inputs": [
        {
          "internalType": "address",
          "name": "_addr",
          "type": "address"
        }
      ],
      "name": "locksOf",
      "outputs": [
        {
          "internalType": "uint256[]",
          "name": "",
          "type": "uint256[]"
        }
      ],
      "stateMutability": "view",
      "type": "function"
    },
    {
      "inputs": [],
      "name": "maxTime",
      "outputs": [
        {
          "internalType": "uint256",
          "name": "",
          "type": "uint256"
        }
      ],
      "stateMutability": "view",
      "type": "function"
    },
    {
      "inputs": [],
      "name": "migratedL2",
      "outputs": [
        {
          "internalType": "bool",
          "name": "",
          "type": "bool"
        }
      ],
      "stateMutability": "view",
      "type": "function"
    },
    {
      "inputs": [],
      "name": "needCheckpoint",
      "outputs": [
        {
          "internalType": "bool",
          "name": "need",
          "type": "bool"
        }
      ],
      "stateMutability": "view",
      "type": "function"
    },
    {
      "inputs": [],
      "name": "pauseProxy",
      "outputs": [
        {
          "internalType": "bool",
          "name": "",
          "type": "bool"
        }
      ],
      "stateMutability": "view",
      "type": "function"
    },
    {
      "inputs": [
        {
          "internalType": "uint256",
          "name": "",
          "type": "uint256"
        }
      ],
      "name": "pointHistory",
      "outputs": [
        {
          "internalType": "int256",
          "name": "bias",
          "type": "int256"
        },
        {
          "internalType": "int256",
          "name": "slope",
          "type": "int256"
        },
        {
          "internalType": "uint256",
          "name": "timestamp",
          "type": "uint256"
        }
      ],
      "stateMutability": "view",
      "type": "function"
    },
    {
      "inputs": [
        {
          "internalType": "uint256",
          "name": "_lockId",
          "type": "uint256"
        }
      ],
      "name": "pointHistoryOf",
      "outputs": [
        {
          "components": [
            {
              "internalType": "int256",
              "name": "bias",
              "type": "int256"
            },
            {
              "internalType": "int256",
              "name": "slope",
              "type": "int256"
            },
            {
              "internalType": "uint256",
              "name": "timestamp",
              "type": "uint256"
            }
          ],
          "internalType": "struct LibLockTOS.Point[]",
          "name": "",
          "type": "tuple[]"
        }
      ],
      "stateMutability": "view",
      "type": "function"
    },
    {
      "inputs": [
        {
          "internalType": "address",
          "name": "account",
          "type": "address"
        }
      ],
      "name": "removeAdmin",
      "outputs": [],
      "stateMutability": "nonpayable",
      "type": "function"
    },
    {
      "inputs": [
        {
          "internalType": "bytes32",
          "name": "role",
          "type": "bytes32"
        },
        {
          "internalType": "address",
          "name": "account",
          "type": "address"
        }
      ],
      "name": "renounceRole",
      "outputs": [],
      "stateMutability": "nonpayable",
      "type": "function"
    },
    {
      "inputs": [
        {
          "internalType": "bytes32",
          "name": "role",
          "type": "bytes32"
        },
        {
          "internalType": "address",
          "name": "account",
          "type": "address"
        }
      ],
      "name": "revokeRole",
      "outputs": [],
      "stateMutability": "nonpayable",
      "type": "function"
    },
    {
      "inputs": [
        {
          "internalType": "uint256",
          "name": "_maxTime",
          "type": "uint256"
        }
      ],
      "name": "setMaxTime",
      "outputs": [],
      "stateMutability": "nonpayable",
      "type": "function"
    },
    {
      "inputs": [
        {
          "internalType": "uint256",
          "name": "",
          "type": "uint256"
        }
      ],
      "name": "slopeChanges",
      "outputs": [
        {
          "internalType": "int256",
          "name": "",
          "type": "int256"
        }
      ],
      "stateMutability": "view",
      "type": "function"
    },
    {
      "inputs": [],
      "name": "stakeRegistry",
      "outputs": [
        {
          "internalType": "address",
          "name": "",
          "type": "address"
        }
      ],
      "stateMutability": "view",
      "type": "function"
    },
    {
      "inputs": [],
      "name": "tos",
      "outputs": [
        {
          "internalType": "address",
          "name": "",
          "type": "address"
        }
      ],
      "stateMutability": "view",
      "type": "function"
    },
    {
      "inputs": [
        {
          "internalType": "address",
          "name": "_addr",
          "type": "address"
        }
      ],
      "name": "totalLockedAmountOf",
      "outputs": [
        {
          "internalType": "uint256",
          "name": "",
          "type": "uint256"
        }
      ],
      "stateMutability": "view",
      "type": "function"
    },
    {
      "inputs": [],
      "name": "totalSupply",
      "outputs": [
        {
          "internalType": "uint256",
          "name": "",
          "type": "uint256"
        }
      ],
      "stateMutability": "view",
      "type": "function"
    },
    {
      "inputs": [
        {
          "internalType": "uint256",
          "name": "_timestamp",
          "type": "uint256"
        }
      ],
      "name": "totalSupplyAt",
      "outputs": [
        {
          "internalType": "uint256",
          "name": "",
          "type": "uint256"
        }
      ],
      "stateMutability": "view",
      "type": "function"
    },
    {
      "inputs": [
        {
          "internalType": "address",
          "name": "newAdmin",
          "type": "address"
        }
      ],
      "name": "transferAdmin",
      "outputs": [],
      "stateMutability": "nonpayable",
      "type": "function"
    },
    {
      "inputs": [
        {
          "internalType": "uint256",
          "name": "",
          "type": "uint256"
        }
      ],
      "name": "uniqueUsers",
      "outputs": [
        {
          "internalType": "address",
          "name": "",
          "type": "address"
        }
      ],
      "stateMutability": "view",
      "type": "function"
    },
    {
      "inputs": [
        {
          "internalType": "address",
          "name": "",
          "type": "address"
        },
        {
          "internalType": "uint256",
          "name": "",
          "type": "uint256"
        }
      ],
      "name": "userLocks",
      "outputs": [
        {
          "internalType": "uint256",
          "name": "",
          "type": "uint256"
        }
      ],
      "stateMutability": "view",
      "type": "function"
    },
    {
      "inputs": [
        {
          "internalType": "uint256",
          "name": "_lockId",
          "type": "uint256"
        }
      ],
      "name": "withdraw",
      "outputs": [],
      "stateMutability": "nonpayable",
      "type": "function"
    },
    {
      "inputs": [],
      "name": "withdrawAll",
      "outputs": [],
      "stateMutability": "nonpayable",
      "type": "function"
    },
    {
      "inputs": [
        {
          "internalType": "address",
          "name": "_addr",
          "type": "address"
        }
      ],
      "name": "withdrawableAmountOf",
      "outputs": [
        {
          "internalType": "uint256",
          "name": "",
          "type": "uint256"
        }
      ],
      "stateMutability": "view",
      "type": "function"
    },
    {
      "inputs": [
        {
          "internalType": "address",
          "name": "_addr",
          "type": "address"
        }
      ],
      "name": "withdrawableLocksOf",
      "outputs": [
        {
          "internalType": "uint256[]",
          "name": "",
          "type": "uint256[]"
        }
      ],
      "stateMutability": "view",
      "type": "function"
    }
  ],
  "bytecode": "0x6080604052600160075534801561001557600080fd5b50613bf1806100256000396000f3fe608060405234801561001057600080fd5b506004361061032f5760003560e01c80638ad4c447116101b4578063c3f9ab58116100fa578063d547741f1161009d578063d547741f146106b4578063dd383394146106c7578063e43cb666146106da578063ea31e895146106ed578063eb86b342146106f5578063ed50c69914610708578063f52a36f71461071b578063fd2dcecf1461072e5761032f565b8063c3f9ab5814610621578063c577365614610641578063c5dc1e5f14610656578063c79acdda14610676578063c80a3aa614610689578063ca15c87314610691578063cd29ca0e146106a4578063d5391393146106ac5761032f565b8063a1f5f50e11610162578063a1f5f50e146105b5578063a217fddf146105bd578063aa33fedb146105c5578063afae883e146105d8578063b2383e55146105e0578063b52c05fe146105f3578063b534ad5614610606578063b94419e01461060e5761032f565b80638ad4c447146105305780639010d07c1461054357806391d1485414610556578063981b24d01461056957806398b777e71461057c5780639ce563051461058f5780639d507b8b146105a25761032f565b806341c04d5e11610279578063683048351161022757806368304835146104b757806370480275146104cc57806370a08231146104df57806375829def146104f257806375b238fc146105055780638372cd7e1461050d578063853828b61461052057806389f395de146105285761032f565b806341c04d5e146104385780634cf5fbf5146104405780634ee2cd7e146104535780635d16a6f91461046657806363a8fd891461048957806363d5a3d914610491578063642cf649146104a45761032f565b8063248a9ca3116102e1578063248a9ca3146103a757806324d7806c146103ba578063282c51f3146103cd57806329cb924d146103d55780632e1a7d4d146103dd5780632f2ff15d146103f057806336568abe14610403578063367b7b23146104165761032f565b8063059f8b1614610334578063086c46f4146103525780630b7858ba146103655780631785f53c1461037a57806318160ddd1461038f5780631ac40e661461039757806322e67e711461039f575b600080fd5b61033c610736565b60405161034991906136f2565b60405180910390f35b61033c6103603660046133c8565b610742565b61036d61080e565b60405161034991906136e7565b61038d6103883660046133c8565b610852565b005b61033c6108b1565b61038d610983565b61033c61098b565b61033c6103b536600461345d565b610991565b61036d6103c83660046133c8565b6109a6565b61033c6109c6565b61033c6109ea565b61038d6103eb36600461345d565b6109ee565b61038d6103fe366004613475565b610a4c565b61038d610411366004613475565b610ab3565b6104296104243660046134a0565b610b14565b604051610349939291906136fb565b61033c610b56565b61038d61044e36600461340b565b610b7a565b61033c6104613660046133e2565b610cae565b6104796104743660046133e2565b610d6b565b60405161034994939291906139f7565b61036d610da0565b61047961049f36600461345d565b610da9565b61033c6104b23660046134a0565b610dd3565b6104bf610e4c565b6040516103499190613530565b61038d6104da3660046133c8565b610e60565b61033c6104ed3660046133c8565b610ebc565b61038d6105003660046133c8565b610f70565b61033c611091565b61033c61051b3660046134d9565b6110a3565b61038d611127565b6104bf61126f565b61042961053e36600461345d565b61127e565b6104bf6105513660046134a0565b6112b1565b61036d610564366004613475565b6112d0565b61033c61057736600461345d565b6112e8565b61038d61058a36600461345d565b61137e565b61042961059d36600461345d565b6113c7565b61038d6105b03660046134a0565b6113e6565b61036d61156b565b61033c61157b565b61033c6105d33660046133e2565b611580565b61033c6115b1565b61038d6105ee3660046134a0565b6115b7565b61033c6106013660046134a0565b6115c2565b61033c611757565b61033c61061c36600461345d565b61175d565b61063461062f3660046133c8565b611811565b60405161034991906136af565b61064961187d565b6040516103499190613609565b61066961066436600461345d565b611a14565b6040516103499190613656565b61036d61068436600461345d565b611aa4565b610649611ab9565b61033c61069f36600461345d565b611b1b565b61033c611b32565b61033c611b38565b61038d6106c2366004613475565b611b5c565b6106346106d53660046133c8565b611bb5565b6106346106e83660046133c8565b611dc7565b61033c611f92565b61033c6107033660046133c8565b612018565b6104bf61071636600461345d565b612102565b61033c61072936600461345d565b61212c565b61033c61213e565b670de0b6b3a764000081565b6001600160a01b0381166000908152600d602052604081205481805b82811015610804576001600160a01b0385166000908152600d6020526040812080548390811061078a57fe5b60009182526020808320909101546001600160a01b0389168352600b8252604080842082855283529283902083516080810185528154815260018201549381019390935260028101549383018490526003015460ff16151560608301529250906107f5908590612144565b9350505080600101905061075e565b509150505b919050565b6009546000908061082357600191505061084f565b6001546009600183038154811061083657fe5b9060005260206000209060030201600201544203119150505b90565b61085b336109a6565b6108965760405162461bcd60e51b8152600401808060200182810382526022815260200180613a666022913960400191505060405180910390fd5b6108ae600080516020613afa83398151915282610ab3565b50565b6009546000906108c35750600061084f565b600980546000916109199160001981019081106108dc57fe5b906000526020600020906003020160405180606001604052908160008201548152602001600182015481526020016002820154815250504261219e565b9050600061094a61093f61093a84604001514261229d90919063ffffffff16565b6122df565b602084015190612327565b905061097c670de0b6b3a76400008284600001511361096a576000610976565b835161097690846123d0565b90612435565b9250505090565b6108ae612477565b60025481565b60009081526010602052604090206002015490565b60006109c0600080516020613afa833981519152836112d0565b92915050565b7f9667e80708b6eeeb0053fa0cca44e028ff548e2a9f029edfeac87c118b08b7c881565b4290565b600754600114610a195760405162461bcd60e51b8152600401610a1090613998565b60405180910390fd5b600060075580610a3b5760405162461bcd60e51b8152600401610a10906137a7565b610a4481612670565b506001600755565b600082815260106020526040902060020154610a6a906105646128a8565b610aa55760405162461bcd60e51b815260040180806020018281038252602f815260200180613a37602f913960400191505060405180910390fd5b610aaf82826128ac565b5050565b610abb6128a8565b6001600160a01b0316816001600160a01b031614610b0a5760405162461bcd60e51b815260040180806020018281038252602f815260200180613b8d602f913960400191505060405180910390fd5b610aaf8282612915565b600a6020528160005260406000208181548110610b3057600080fd5b600091825260209091206003909102018054600182015460029092015490935090915083565b7f52eafc11f6f81f86878bffd31109a0d92f37506527754f00788853ff9f63b13081565b60008111610b9a5760405162461bcd60e51b8152600401610a1090613855565b6001600160a01b0383166000908152600b6020908152604080832085845282529182902082516080810184528154815260018201549281019290925260028101549282019290925260039091015460ff161580156060830152610c0f5760405162461bcd60e51b8152600401610a109061382a565b8051610c2d5760405162461bcd60e51b8152600401610a10906139ca565b42816020015111610c505760405162461bcd60e51b8152600401610a10906137d0565b600654610c5d9083612144565b600655610c6d848484600061297e565b7fea44bc904f77b1be47cd5b840b00f19b7238f88d7524fa5a86629282bfe6bcc5338484604051610ca0939291906135c2565b60405180910390a150505050565b6001600160a01b0382166000908152600d6020908152604080832080548251818502810185019093528083528493830182828015610d0b57602002820191906000526020600020905b815481526020019060010190808311610cf7575b50505050509050805160001415610d265760009150506109c0565b60005b8151811015610d6357610d59610d52838381518110610d4457fe5b602002602001015186610dd3565b8490612144565b9250600101610d29565b505092915050565b600b60209081526000928352604080842090915290825290208054600182015460028301546003909301549192909160ff1684565b60005460ff1681565b600c6020526000908152604090208054600182015460028301546003909301549192909160ff1684565b6000828152600a6020526040812081908190610def9085612c2a565b9150915081610e03576000925050506109c0565b6000610e2261093f61093a84604001518861229d90919063ffffffff16565b9050610e42670de0b6b3a76400008284600001511361096a576000610976565b9695505050505050565b60005461010090046001600160a01b031681565b610e69336109a6565b610ea45760405162461bcd60e51b8152600401808060200182810382526022815260200180613a666022913960400191505060405180910390fd5b6108ae600080516020613afa83398151915282610a4c565b6001600160a01b0381166000908152600d6020908152604080832080548251818502810185019093528083528493830182828015610f1957602002820191906000526020600020905b815481526020019060010190808311610f05575b50505050509050805160001415610f34576000915050610809565b60005b8151811015610f6957610f5f610d52838381518110610f5257fe5b602002602001015161175d565b9250600101610f37565b5050919050565b610f79336109a6565b610fb45760405162461bcd60e51b8152600401808060200182810382526022815260200180613a666022913960400191505060405180910390fd5b6001600160a01b03811661100a576040805162461bcd60e51b815260206004820152601860248201527741636365737369626c653a207a65726f206164647265737360401b604482015290519081900360640190fd5b336001600160a01b0382161415611061576040805162461bcd60e51b815260206004820152601660248201527520b1b1b2b9b9b4b136329d1039b0b6b29030b236b4b760511b604482015290519081900360640190fd5b611079600080516020613afa83398151915282610a4c565b6108ae600080516020613afa83398151915233610ab3565b600080516020613afa83398151915281565b60035460405163d505accf60e01b81526000916001600160a01b03169063d505accf906110e090339030908c908b908b908b908b90600401613568565b600060405180830381600087803b1580156110fa57600080fd5b505af115801561110e573d6000803e3d6000fd5b5050505061111c87876115c2565b979650505050505050565b6007546001146111495760405162461bcd60e51b8152600401610a1090613998565b60006007819055338152600d6020526040902080546111685750611268565b60005b8154811015611265576000600c600084848154811061118657fe5b6000918252602080832090910154835282810193909352604091820190208151608081018352815481526001820154938101939093526002810154918301919091526003015460ff1615801560608301819052919250906111fd575060008383815481106111f057fe5b9060005260206000200154115b801561120d575060008160400151115b80156112195750805115155b8015611229575060008160200151115b80156112385750428160200151105b1561125c5761125c83838154811061124c57fe5b9060005260206000200154612670565b5060010161116b565b50505b6001600755565b6003546001600160a01b031681565b6009818154811061128e57600080fd5b600091825260209091206003909102018054600182015460029092015490925083565b60008281526010602052604081206112c99083612d22565b9392505050565b60008281526010602052604081206112c99083612d2e565b6009546000906112fa57506000610809565b600080611308600985612c2a565b915091508161131c57600092505050610809565b611326818561219e565b9050600061134461093a83604001518761229d90919063ffffffff16565b8260200151029050611375670de0b6b3a76400008284600001511361136a576000610976565b835183900390612435565b95945050505050565b611387336109a6565b6113c25760405162461bcd60e51b8152600401808060200182810382526022815260200180613a666022913960400191505060405180910390fd5b600255565b6000908152600c60205260409020805460018201546002909201549092565b600081116114065760405162461bcd60e51b8152600401610a1090613931565b6005546114139082612144565b600555336000908152600b602090815260408083208584528252808320815160808101835281548152600180830154948201949094526002820154928101929092526003015460ff1615156060820152905490919061148290611477908590612d43565b602084015190612144565b60015490915061149c906114968382612435565b90612d43565b9050600254428203106114c15760405162461bcd60e51b8152600401610a1090613770565b428260200151116114e45760405162461bcd60e51b8152600401610a109061388c565b808260200151106115075760405162461bcd60e51b8152600401610a10906138c3565b600082604001511161152b5760405162461bcd60e51b8152600401610a1090613740565b611538338560008461297e565b7fb8596b0e78133666b86648f60233cc2d078144d06df7874ea9f612a3ccc3e2fb338583604051610ca0939291906135c2565b600054600160a81b900460ff1681565b600081565b600d602052816000526040600020818154811061159c57600080fd5b90600052602060002001600091509150505481565b60045481565b610aaf338383610b7a565b60008083116115e35760405162461bcd60e51b8152600401610a1090613855565b600082116116035760405162461bcd60e51b8152600401610a1090613931565b6005546116109083612144565b6005556006546116209084612144565b60065560015460009061163f90611638908590612d43565b4290612144565b600154909150611653906114968382612435565b905060025442820311156116795760405162461bcd60e51b8152600401610a1090613770565b336000908152600d60205260409020546116d057600880546001810182556000919091527ff3f7a9fe364faab93b216da50a3214154f22a0a2b415b23a84c8169e8b636ee30180546001600160a01b031916331790555b6004546116de906001612144565b600481905591506116f13383868461297e565b336000818152600d6020908152604080832080546001810182559084529190922001849055517f71fc552ee832a9004ea0bdb07cb6dd9d641eb2cb53b3cfe88c8fdcff886734a091611748918590889086906135e3565b60405180910390a15092915050565b60055481565b6000818152600a60205260408120548061177b576000915050610809565b6000838152600a602052604081208054600019840190811061179957fe5b90600052602060002090600302016040518060600160405290816000820154815260200160018201548152602001600282015481525050905060006117f161093f61093a84604001514261229d90919063ffffffff16565b9050611375670de0b6b3a76400008284600001511361096a576000610976565b6001600160a01b0381166000908152600d602090815260409182902080548351818402810184019094528084526060939283018282801561187157602002820191906000526020600020905b81548152602001906001019080831161185d575b50505050509050919050565b60085460609060009067ffffffffffffffff8111801561189c57600080fd5b506040519080825280602002602001820160405280156118c6578160200160208202803683370190505b5090506000805b60085481101561193d576000611903600883815481106118e957fe5b6000918252602090912001546001600160a01b0316611dc7565b805190915015611934578280600101935050600184838151811061192357fe5b911515602092830291909101909101525b506001016118cd565b5060008167ffffffffffffffff8111801561195757600080fd5b50604051908082528060200260200182016040528015611981578160200160208202803683370190505b5090506000805b600854811015611a0a5784818151811061199e57fe5b602002602001015115611a0257600881815481106119b857fe5b600091825260209091200154835160018401936001600160a01b0390921691859181106119e157fe5b60200260200101906001600160a01b031690816001600160a01b0316815250505b600101611988565b5090935050505090565b6060600a6000838152602001908152602001600020805480602002602001604051908101604052809291908181526020016000905b82821015611a995783829060005260206000209060030201604051806060016040529081600082015481526020016001820154815260200160028201548152505081526020019060010190611a49565b505050509050919050565b600f6020526000908152604090205460ff1681565b60606008805480602002602001604051908101604052809291908181526020018280548015611b1157602002820191906000526020600020905b81546001600160a01b03168152600190910190602001808311611af3575b5050505050905090565b60008181526010602052604081206109c090612d9c565b60065481565b7ff0887ba65ee2024ea881d91b74c2450ef19e1557f03bed3ea9f16b037cbe2dc981565b600082815260106020526040902060020154611b7a906105646128a8565b610b0a5760405162461bcd60e51b8152600401808060200182810382526030815260200180613aa96030913960400191505060405180910390fd5b6001600160a01b0381166000908152600d6020526040812054606091805b82811015611c95576001600160a01b0385166000908152600d60205260408120805483908110611bff57fe5b60009182526020808320909101546001600160a01b0389168352600b8252604080842082855283529283902083516080810185528154815260018201549381018490526002820154948101949094526003015460ff161515606084015292504210801590611c71575060008160400151115b8015611c7f57506060810151155b15611c8b576001909301925b5050600101611bd3565b5060008167ffffffffffffffff81118015611caf57600080fd5b50604051908082528060200260200182016040528015611cd9578160200160208202803683370190505b5090506000915060005b83811015611dbe576001600160a01b0386166000908152600d60205260408120805483908110611d0f57fe5b60009182526020808320909101546001600160a01b038a168352600b8252604080842082855283529283902083516080810185528154815260018201549381018490526002820154948101949094526003015460ff161515606084015292504210801590611d81575060008160400151115b8015611d8f57506060810151155b15611db45781848680600101975081518110611da757fe5b6020026020010181815250505b5050600101611ce3565b50949350505050565b6001600160a01b0381166000908152600d6020526040812054606091805b82811015611e88576001600160a01b0385166000908152600d60205260408120805483908110611e1157fe5b60009182526020808320909101546001600160a01b0389168352600b8252604080842082855283529283902083516080810185528154815260018201549381018490526002820154948101949094526003015460ff16151560608401529250421015611e7e576001909301925b5050600101611de5565b5060008167ffffffffffffffff81118015611ea257600080fd5b50604051908082528060200260200182016040528015611ecc578160200160208202803683370190505b5090506000915060005b83811015611dbe576001600160a01b0386166000908152600d60205260408120805483908110611f0257fe5b60009182526020808320909101546001600160a01b038a168352600b8252604080842082855283529283902083516080810185528154815260018201549381018490526002820154948101949094526003015460ff16151560608401529250421015611f885781848680600101975081518110611f7b57fe5b6020026020010181815250505b5050600101611ed6565b6003546040516370a0823160e01b81526000916001600160a01b0316906370a0823190611fc3903090600401613530565b60206040518083038186803b158015611fdb57600080fd5b505afa158015611fef573d6000803e3d6000fd5b505050506040513d601f19601f8201168201806040525081019061201391906134c1565b905090565b6001600160a01b0381166000908152600d602052604081205481805b82811015610804576001600160a01b0385166000908152600d6020526040812080548390811061206057fe5b60009182526020808320909101546001600160a01b0389168352600b8252604080842082855283529283902083516080810185528154815260018201549381018490526002820154948101949094526003015460ff1615156060840152925042108015906120d2575060008160400151115b80156120e057506060810151155b156120f85760408101516120f5908590612144565b93505b5050600101612034565b6008818154811061211257600080fd5b6000918252602090912001546001600160a01b0316905081565b600e6020526000908152604090205481565b60015481565b6000828201838110156112c9576040805162461bcd60e51b815260206004820152601b60248201527f536166654d6174683a206164646974696f6e206f766572666c6f770000000000604482015290519081900360640190fd5b6121a6613390565b60015460408401516000916121bf916114969082612435565b90505b828114612295576121e76121e16001548361214490919063ffffffff16565b84612da7565b6000818152600e602052604080822054908701519293509161221a9061093a9061221290869061229d565b600154612da7565b905061223e61223682886020015161232790919063ffffffff16565b8751906123d0565b8652602086015161224f9083612dbd565b60208701528551600012612264576000612267565b85515b8652602086015160001261227c576000612282565b85602001515b60208701525050604084018190526121c2565b509192915050565b60006112c983836040518060400160405280601e81526020017f536166654d6174683a207375627472616374696f6e206f766572666c6f770000815250612e22565b6000600160ff1b82106123235760405162461bcd60e51b8152600401808060200182810382526028815260200180613b416028913960400191505060405180910390fd5b5090565b600082612336575060006109c0565b8260001914801561234a5750600160ff1b82145b156123865760405162461bcd60e51b8152600401808060200182810382526027815260200180613b1a6027913960400191505060405180910390fd5b8282028284828161239357fe5b05146112c95760405162461bcd60e51b8152600401808060200182810382526027815260200180613b1a6027913960400191505060405180910390fd5b60008183038183128015906123e55750838113155b806123fa57506000831280156123fa57508381135b6112c95760405162461bcd60e51b8152600401808060200182810382526024815260200180613b696024913960400191505060405180910390fd5b60006112c983836040518060400160405280601a81526020017f536166654d6174683a206469766973696f6e206279207a65726f000000000000815250612eb9565b61247f613390565b6009544290156124d95760098054600019810190811061249b57fe5b9060005260206000209060030201604051806060016040529081600082015481526020016001820154815260200160028201548152505091506124f9565b604051806060016040528060008152602001600081526020018281525091505b6001546040830151600091612512916114969082612435565b90505b81811461266b5761253a6125346001548361214490919063ffffffff16565b83612da7565b6000818152600e60205260408082205490860151929350916125659061093a9061221290869061229d565b905061258961258182876020015161232790919063ffffffff16565b8651906123d0565b8552602085015161259a9083612dbd565b602086015284516000126125af5760006125b2565b84515b855260208501516000126125c75760006125cd565b84602001515b60208601908152604086018481526009805460018101825560009190915287517f6e1540171b6c0c960b71a7020d9f60077f6af931a8bbf590da0223dacf75c7af60039092029182015591517f6e1540171b6c0c960b71a7020d9f60077f6af931a8bbf590da0223dacf75c7b0830155517f6e1540171b6c0c960b71a7020d9f60077f6af931a8bbf590da0223dacf75c7b190910155506125159050565b505090565b336000908152600b6020908152604080832084845282529182902082516080810184528154815260018201549281019290925260028101549282019290925260039091015460ff1615801560608301526126dc5760405162461bcd60e51b8152600401610a10906137ff565b80516126fa5760405162461bcd60e51b8152600401610a10906139ca565b4281602001511061271d5760405162461bcd60e51b8152600401610a1090613968565b60008160400151116127415760405162461bcd60e51b8152600401610a1090613711565b60408051608081018252600080825260208201819052918101919091526001606082015261276f8183612f1e565b604080830151336000818152600b60209081528482208883528152848220865181558187018051600180840191909155888801805160028086019190915560608b0180516003968701805491151560ff19928316179055600c909752968a90208b5181559351928401929092555190820155925192810180549315159390921692909217905554925163a9059cbb60e01b815291926001600160a01b03169163a9059cbb916128229185906004016135a9565b602060405180830381600087803b15801561283c57600080fd5b505af1158015612850573d6000803e3d6000fd5b505050506040513d601f19601f82011682018060405250810190612874919061343d565b507ff1206247bdd5e2e0cfc00bea4cf05fb8dc479ebee686f9549043179cc7013b30338583604051610ca0939291906135c2565b3390565b60008281526010602052604090206128c49082613114565b15610aaf576128d16128a8565b6001600160a01b0316816001600160a01b0316837f2f8788117e7eff1d82e926ec794901d17c78024a50270940304540a733656f0d60405160405180910390a45050565b600082815260106020526040902061292d9082613129565b15610aaf5761293a6128a8565b6001600160a01b0316816001600160a01b0316837ff6391f5c32d9c69d2a47ea670b442974b53935d1edc7fd64eb21e047a839171b60405160405180910390a45050565b6007546001146129a05760405162461bcd60e51b8152600401610a1090613998565b600060078190556001600160a01b0385168152600b602090815260408083208684528252808320815160808082018452825482526001830154828601908152600284015483860190815260039094015460ff1615156060808501919091528551928301865283518352905195820195909552915192820183905292810193909352909190612a2e9085612144565b60408201528215612a4157602081018390525b8051612a4b574281525b612a558183612f1e565b6001600160a01b0386166000908152600b60209081526040808320888452825280832084518155828501805160018084019190915583870180516002808601919091556060890180516003968701805491151560ff19928316179055600c9098529588208951815593519284019290925551828201819055935191909201805491151591909416179092559054612afd9161093a919061097690670de0b6b3a7640000612d43565b90506000612b25612b1e61093a42866020015161229d90919063ffffffff16565b8390612327565b6040805160608101825282815260208082018681524283850190815260008d8152600a84528581208054600181810183559183529490912085516003958602909101908155925190830155516002909101555491516323b872dd60e01b8152929350916001600160a01b03909116906323b872dd90612bac90339030908c90600401613544565b602060405180830381600087803b158015612bc657600080fd5b505af1158015612bda573d6000803e3d6000fd5b505050506040513d601f19601f82011682018060405250810190612bfe919061343d565b612c1a5760405162461bcd60e51b8152600401610a10906138fa565b5050600160075550505050505050565b6000612c34613390565b8354612c435760009150612d1b565b83546000905b80826001011015612c9d576000612c6560026109768585612144565b905085878281548110612c7457fe5b90600052602060002090600302016002015411612c9357809250612c97565b8091505b50612c49565b84868381548110612caa57fe5b90600052602060002090600302016002015411612d14576001868381548110612ccf57fe5b90600052602060002090600302018060405180606001604052908160008201548152602001600182015481526020016002820154815250509050935093505050612d1b565b6000935050505b9250929050565b60006112c9838361313e565b60006112c9836001600160a01b0384166131a2565b600082612d52575060006109c0565b82820282848281612d5f57fe5b04146112c95760405162461bcd60e51b8152600401808060200182810382526021815260200180613ad96021913960400191505060405180910390fd5b60006109c0826131ba565b6000818310612db657816112c9565b5090919050565b6000828201818312801590612dd25750838112155b80612de75750600083128015612de757508381125b6112c95760405162461bcd60e51b8152600401808060200182810382526021815260200180613a886021913960400191505060405180910390fd5b60008184841115612eb15760405162461bcd60e51b81526004018080602001828103825283818151815260200191508051906020019080838360005b83811015612e76578181015183820152602001612e5e565b50505050905090810190601f168015612ea35780820380516001836020036101000a031916815260200191505b509250505060405180910390fd5b505050900390565b60008183612f085760405162461bcd60e51b8152602060048201818152835160248401528351909283926044909101919085019080838360008315612e76578181015183820152602001612e5e565b506000838581612f1457fe5b0495945050505050565b60408051606080820183526000808352602080840182905283850182905284519283018552818352828101829052938201529184015142929083108015612f69575060008560400151115b15612fc157612f9661093a600254610976670de0b6b3a76400008960400151612d4390919063ffffffff16565b602080840191909152850151612fb49061093f9061093a908661229d565b8252602085015160408301525b828460200151118015612fd8575060008460400151115b1561303b5761300561093a600254610976670de0b6b3a76400008860400151612d4390919063ffffffff16565b60208083019190915284015161302e906130239061093a908661229d565b602083015190612327565b8152602084015160408201525b6000613045612477565b8251845191925061306191613059916123d0565b825190612dbd565b8152602080830151908401516130869161307b91906123d0565b602083015190612dbd565b6020820152805160001261309b57600061309e565b80515b815260208101516000126130b35760006130b9565b80602001515b60208201526009805482919060001981019081106130d357fe5b906000526020600020906003020160008201518160000155602082015181600101556040820151816002015590505061310c83836131be565b505050505050565b60006112c9836001600160a01b038416613280565b60006112c9836001600160a01b0384166132ca565b815460009082106131805760405162461bcd60e51b8152600401808060200182810382526022815260200180613a156022913960400191505060405180910390fd5b82600001828154811061318f57fe5b9060005260206000200154905092915050565b60009081526001919091016020526040902054151590565b5490565b6040808301516000908152600e6020528181205483830180518352929091205491519091904210156132345760208301516131fa908290612dbd565b905083604001518360400151141561321f57602084015161321c9082906123d0565b90505b6040808401516000908152600e602052208190555b42846040015111801561324e575082604001518460400151115b1561327a5760208401516132639083906123d0565b6040808601516000908152600e6020522081905591505b50505050565b600061328c83836131a2565b6132c2575081546001818101845560008481526020808220909301849055845484825282860190935260409020919091556109c0565b5060006109c0565b6000818152600183016020526040812054801561338657835460001980830191908101906000908790839081106132fd57fe5b906000526020600020015490508087600001848154811061331a57fe5b60009182526020808320909101929092558281526001898101909252604090209084019055865487908061334a57fe5b600190038181906000526020600020016000905590558660010160008781526020019081526020016000206000905560019450505050506109c0565b60009150506109c0565b60405180606001604052806000815260200160008152602001600081525090565b80356001600160a01b038116811461080957600080fd5b6000602082840312156133d9578081fd5b6112c9826133b1565b600080604083850312156133f4578081fd5b6133fd836133b1565b946020939093013593505050565b60008060006060848603121561341f578081fd5b613428846133b1565b95602085013595506040909401359392505050565b60006020828403121561344e578081fd5b815180151581146112c9578182fd5b60006020828403121561346e578081fd5b5035919050565b60008060408385031215613487578182fd5b82359150613497602084016133b1565b90509250929050565b600080604083850312156134b2578182fd5b50508035926020909101359150565b6000602082840312156134d2578081fd5b5051919050565b60008060008060008060c087890312156134f1578182fd5b863595506020870135945060408701359350606087013560ff81168114613516578283fd5b9598949750929560808101359460a0909101359350915050565b6001600160a01b0391909116815260200190565b6001600160a01b039384168152919092166020820152604081019190915260600190565b6001600160a01b0397881681529590961660208601526040850193909352606084019190915260ff16608083015260a082015260c081019190915260e00190565b6001600160a01b03929092168252602082015260400190565b6001600160a01b039390931683526020830191909152604082015260600190565b6001600160a01b0394909416845260208401929092526040830152606082015260800190565b6020808252825182820181905260009190848201906040850190845b8181101561364a5783516001600160a01b031683529284019291840191600101613625565b50909695505050505050565b602080825282518282018190526000919060409081850190868401855b828110156136a25781518051855286810151878601528501518585015260609093019290850190600101613673565b5091979650505050505050565b6020808252825182820181905260009190848201906040850190845b8181101561364a578351835292840192918401916001016136cb565b901515815260200190565b90815260200190565b9283526020830191909152604082015260600190565b6020808252601590820152744e6f20616d6f756e7420746f20776974686472617760581b604082015260600190565b6020808252601690820152754e6f206578697374696e67206c6f636b656420544f5360501b604082015260600190565b6020808252601a908201527f4d617820756e6c6f636b2074696d652069732033207965617273000000000000604082015260600190565b6020808252600f908201526e5f6c6f636b4964206973207a65726f60881b604082015260600190565b602080825260159082015274131bd8dac81d1a5b59481a5cc8199a5b9a5cda1959605a1b604082015260600190565b60208082526011908201527020b63932b0b23c903bb4ba34323930bbb760791b604082015260600190565b6020808252601190820152702637b1b59034b9903bb4ba34323930bbb760791b604082015260600190565b6020808252601f908201527f56616c7565206c6f636b65642073686f756c64206265206e6f6e2d7a65726f00604082015260600190565b6020808252601a908201527f4c6f636b2074696d6520616c72656164792066696e6973686564000000000000604082015260600190565b6020808252601d908201527f4e6577206c6f636b2074696d65206d7573742062652067726561746572000000604082015260600190565b6020808252601a908201527f4c6f636b544f533a206661696c207472616e7366657246726f6d000000000000604082015260600190565b6020808252601e908201527f556e6c6f636b20706572696f64206c657373207468616e2061207765656b0000604082015260600190565b602080825260169082015275131bd8dac81d1a5b59481b9bdd08199a5b9a5cda195960521b604082015260600190565b6020808252601890820152774c6f636b496420697320616c726561647920696e2075736560401b604082015260600190565b602080825260139082015272131bd8dac8191bd95cc81b9bdd08195e1a5cdd606a1b604082015260600190565b93845260208401929092526040830152151560608201526080019056fe456e756d657261626c655365743a20696e646578206f7574206f6620626f756e6473416363657373436f6e74726f6c3a2073656e646572206d75737420626520616e2061646d696e20746f206772616e7441636365737369626c653a2043616c6c6572206973206e6f7420616e2061646d696e5369676e6564536166654d6174683a206164646974696f6e206f766572666c6f77416363657373436f6e74726f6c3a2073656e646572206d75737420626520616e2061646d696e20746f207265766f6b65536166654d6174683a206d756c7469706c69636174696f6e206f766572666c6f77df8b4c520ffe197c5343c6f5aec59570151ef9a492f2c624fd45ddde6135ec425369676e6564536166654d6174683a206d756c7469706c69636174696f6e206f766572666c6f7753616665436173743a2076616c756520646f65736e27742066697420696e20616e20696e743235365369676e6564536166654d6174683a207375627472616374696f6e206f766572666c6f77416363657373436f6e74726f6c3a2063616e206f6e6c792072656e6f756e636520726f6c657320666f722073656c66a2646970667358221220cc006a17ee50721411def9d1a9ac9f530c71c7854b12635b6bd13c21d2d5217a64736f6c63430007060033",
  "linkReferences": {},
  "deployedLinkReferences": {}
}