{
  "_format": "hh-sol-artifact-1",
  "contractName": "LockTOSDividend",
  "sourceName": "contracts/stake/LockTOSDividend.sol",
  "abi": [
    {
      "anonymous": false,
      "inputs": [
        {
          "indexed": true,
          "internalType": "address",
          "name": "token",
          "type": "address"
        },
        {
          "indexed": false,
          "internalType": "uint256",
          "name": "amount",
          "type": "uint256"
        },
        {
          "indexed": false,
          "internalType": "uint256",
          "name": "timestamp",
          "type": "uint256"
        }
      ],
      "name": "Claim",
      "type": "event"
    },
    {
      "anonymous": false,
      "inputs": [
        {
          "indexed": true,
          "internalType": "address",
          "name": "token",
          "type": "address"
        },
        {
          "indexed": false,
          "internalType": "uint256",
          "name": "amount",
          "type": "uint256"
        }
      ],
      "name": "Distribute",
      "type": "event"
    },
    {
      "anonymous": false,
      "inputs": [
        {
          "indexed": true,
          "internalType": "address",
          "name": "token",
          "type": "address"
        },
        {
          "indexed": false,
          "internalType": "uint256",
          "name": "oldEpoch",
          "type": "uint256"
        },
        {
          "indexed": false,
          "internalType": "uint256",
          "name": "newEpoch",
          "type": "uint256"
        }
      ],
      "name": "Redistribute",
      "type": "event"
    },
    {
      "anonymous": false,
      "inputs": [
        {
          "indexed": true,
          "internalType": "bytes32",
          "name": "role",
          "type": "bytes32"
        },
        {
          "indexed": true,
          "internalType": "bytes32",
          "name": "previousAdminRole",
          "type": "bytes32"
        },
        {
          "indexed": true,
          "internalType": "bytes32",
          "name": "newAdminRole",
          "type": "bytes32"
        }
      ],
      "name": "RoleAdminChanged",
      "type": "event"
    },
    {
      "anonymous": false,
      "inputs": [
        {
          "indexed": true,
          "internalType": "bytes32",
          "name": "role",
          "type": "bytes32"
        },
        {
          "indexed": true,
          "internalType": "address",
          "name": "account",
          "type": "address"
        },
        {
          "indexed": true,
          "internalType": "address",
          "name": "sender",
          "type": "address"
        }
      ],
      "name": "RoleGranted",
      "type": "event"
    },
    {
      "anonymous": false,
      "inputs": [
        {
          "indexed": true,
          "internalType": "bytes32",
          "name": "role",
          "type": "bytes32"
        },
        {
          "indexed": true,
          "internalType": "address",
          "name": "account",
          "type": "address"
        },
        {
          "indexed": true,
          "internalType": "address",
          "name": "sender",
          "type": "address"
        }
      ],
      "name": "RoleRevoked",
      "type": "event"
    },
    {
      "inputs": [],
      "name": "ADMIN_ROLE",
      "outputs": [
        {
          "internalType": "bytes32",
          "name": "",
          "type": "bytes32"
        }
      ],
      "stateMutability": "view",
      "type": "function"
    },
    {
      "inputs": [],
      "name": "BURNER_ROLE",
      "outputs": [
        {
          "internalType": "bytes32",
          "name": "",
          "type": "bytes32"
        }
      ],
      "stateMutability": "view",
      "type": "function"
    },
    {
      "inputs": [],
      "name": "DEFAULT_ADMIN_ROLE",
      "outputs": [
        {
          "internalType": "bytes32",
          "name": "",
          "type": "bytes32"
        }
      ],
      "stateMutability": "view",
      "type": "function"
    },
    {
      "inputs": [],
      "name": "MINTER_ROLE",
      "outputs": [
        {
          "internalType": "bytes32",
          "name": "",
          "type": "bytes32"
        }
      ],
      "stateMutability": "view",
      "type": "function"
    },
    {
      "inputs": [],
      "name": "PROJECT_ADMIN_ROLE",
      "outputs": [
        {
          "internalType": "bytes32",
          "name": "",
          "type": "bytes32"
        }
      ],
      "stateMutability": "view",
      "type": "function"
    },
    {
      "inputs": [
        {
          "internalType": "address",
          "name": "account",
          "type": "address"
        }
      ],
      "name": "addAdmin",
      "outputs": [],
      "stateMutability": "nonpayable",
      "type": "function"
    },
    {
      "inputs": [
        {
          "internalType": "address",
          "name": "_token",
          "type": "address"
        }
      ],
      "name": "claim",
      "outputs": [],
      "stateMutability": "nonpayable",
      "type": "function"
    },
    {
      "inputs": [
        {
          "internalType": "address[]",
          "name": "_tokens",
          "type": "address[]"
        }
      ],
      "name": "claimBatch",
      "outputs": [],
      "stateMutability": "nonpayable",
      "type": "function"
    },
    {
      "inputs": [
        {
          "internalType": "address",
          "name": "_token",
          "type": "address"
        },
        {
          "internalType": "uint256",
          "name": "_lockId",
          "type": "uint256"
        }
      ],
      "name": "claimStartWeeklyEpoch",
      "outputs": [
        {
          "internalType": "uint256",
          "name": "",
          "type": "uint256"
        }
      ],
      "stateMutability": "view",
      "type": "function"
    },
    {
      "inputs": [
        {
          "internalType": "address",
          "name": "_token",
          "type": "address"
        },
        {
          "internalType": "uint256",
          "name": "_timestamp",
          "type": "uint256"
        }
      ],
      "name": "claimUpTo",
      "outputs": [],
      "stateMutability": "nonpayable",
      "type": "function"
    },
    {
      "inputs": [
        {
          "internalType": "address",
          "name": "_account",
          "type": "address"
        },
        {
          "internalType": "address",
          "name": "_token",
          "type": "address"
        }
      ],
      "name": "claimable",
      "outputs": [
        {
          "internalType": "uint256",
          "name": "",
          "type": "uint256"
        }
      ],
      "stateMutability": "view",
      "type": "function"
    },
    {
      "inputs": [
        {
          "internalType": "address",
          "name": "_account",
          "type": "address"
        },
        {
          "internalType": "address",
          "name": "_token",
          "type": "address"
        },
        {
          "internalType": "uint256",
          "name": "_timeStart",
          "type": "uint256"
        },
        {
          "internalType": "uint256",
          "name": "_timeEnd",
          "type": "uint256"
        }
      ],
      "name": "claimableForPeriod",
      "outputs": [
        {
          "internalType": "uint256",
          "name": "",
          "type": "uint256"
        }
      ],
      "stateMutability": "view",
      "type": "function"
    },
    {
      "inputs": [
        {
          "internalType": "address",
          "name": "_token",
          "type": "address"
        },
        {
          "internalType": "uint256",
          "name": "_amount",
          "type": "uint256"
        }
      ],
      "name": "distribute",
      "outputs": [],
      "stateMutability": "nonpayable",
      "type": "function"
    },
    {
      "inputs": [
        {
          "internalType": "uint256",
          "name": "",
          "type": "uint256"
        }
      ],
      "name": "distributedTokens",
      "outputs": [
        {
          "internalType": "address",
          "name": "",
          "type": "address"
        }
      ],
      "stateMutability": "view",
      "type": "function"
    },
    {
      "inputs": [
        {
          "internalType": "address",
          "name": "",
          "type": "address"
        }
      ],
      "name": "distributions",
      "outputs": [
        {
          "internalType": "bool",
          "name": "exists",
          "type": "bool"
        },
        {
          "internalType": "uint256",
          "name": "totalDistribution",
          "type": "uint256"
        },
        {
          "internalType": "uint256",
          "name": "lastBalance",
          "type": "uint256"
        }
      ],
      "stateMutability": "view",
      "type": "function"
    },
    {
      "inputs": [
        {
          "internalType": "uint256",
          "name": "_epoch",
          "type": "uint256"
        }
      ],
      "name": "epochToTimestamp",
      "outputs": [
        {
          "internalType": "uint256",
          "name": "",
          "type": "uint256"
        }
      ],
      "stateMutability": "view",
      "type": "function"
    },
    {
      "inputs": [],
      "name": "epochUnit",
      "outputs": [
        {
          "internalType": "uint256",
          "name": "",
          "type": "uint256"
        }
      ],
      "stateMutability": "view",
      "type": "function"
    },
    {
      "inputs": [],
      "name": "genesis",
      "outputs": [
        {
          "internalType": "uint256",
          "name": "",
          "type": "uint256"
        }
      ],
      "stateMutability": "view",
      "type": "function"
    },
    {
      "inputs": [
        {
          "internalType": "address",
          "name": "_account",
          "type": "address"
        }
      ],
      "name": "getAvailableClaims",
      "outputs": [
        {
          "internalType": "address[]",
          "name": "claimableTokens",
          "type": "address[]"
        },
        {
          "internalType": "uint256[]",
          "name": "claimableAmounts",
          "type": "uint256[]"
        }
      ],
      "stateMutability": "view",
      "type": "function"
    },
    {
      "inputs": [],
      "name": "getCurrentWeeklyEpoch",
      "outputs": [
        {
          "internalType": "uint256",
          "name": "",
          "type": "uint256"
        }
      ],
      "stateMutability": "view",
      "type": "function"
    },
    {
      "inputs": [],
      "name": "getCurrentWeeklyEpochTimestamp",
      "outputs": [
        {
          "internalType": "uint256",
          "name": "",
          "type": "uint256"
        }
      ],
      "stateMutability": "view",
      "type": "function"
    },
    {
      "inputs": [
        {
          "internalType": "bytes32",
          "name": "role",
          "type": "bytes32"
        }
      ],
      "name": "getRoleAdmin",
      "outputs": [
        {
          "internalType": "bytes32",
          "name": "",
          "type": "bytes32"
        }
      ],
      "stateMutability": "view",
      "type": "function"
    },
    {
      "inputs": [
        {
          "internalType": "bytes32",
          "name": "role",
          "type": "bytes32"
        },
        {
          "internalType": "uint256",
          "name": "index",
          "type": "uint256"
        }
      ],
      "name": "getRoleMember",
      "outputs": [
        {
          "internalType": "address",
          "name": "",
          "type": "address"
        }
      ],
      "stateMutability": "view",
      "type": "function"
    },
    {
      "inputs": [
        {
          "internalType": "bytes32",
          "name": "role",
          "type": "bytes32"
        }
      ],
      "name": "getRoleMemberCount",
      "outputs": [
        {
          "internalType": "uint256",
          "name": "",
          "type": "uint256"
        }
      ],
      "stateMutability": "view",
      "type": "function"
    },
    {
      "inputs": [
        {
          "internalType": "uint256",
          "name": "_timestamp",
          "type": "uint256"
        }
      ],
      "name": "getWeeklyEpoch",
      "outputs": [
        {
          "internalType": "uint256",
          "name": "",
          "type": "uint256"
        }
      ],
      "stateMutability": "view",
      "type": "function"
    },
    {
      "inputs": [
        {
          "internalType": "bytes32",
          "name": "role",
          "type": "bytes32"
        },
        {
          "internalType": "address",
          "name": "account",
          "type": "address"
        }
      ],
      "name": "grantRole",
      "outputs": [],
      "stateMutability": "nonpayable",
      "type": "function"
    },
    {
      "inputs": [
        {
          "internalType": "bytes32",
          "name": "role",
          "type": "bytes32"
        },
        {
          "internalType": "address",
          "name": "account",
          "type": "address"
        }
      ],
      "name": "hasRole",
      "outputs": [
        {
          "internalType": "bool",
          "name": "",
          "type": "bool"
        }
      ],
      "stateMutability": "view",
      "type": "function"
    },
    {
      "inputs": [],
      "name": "ifDistributionPossible",
      "outputs": [
        {
          "internalType": "bool",
          "name": "",
          "type": "bool"
        }
      ],
      "stateMutability": "view",
      "type": "function"
    },
    {
      "inputs": [
        {
          "internalType": "address",
          "name": "account",
          "type": "address"
        }
      ],
      "name": "isAdmin",
      "outputs": [
        {
          "internalType": "bool",
          "name": "",
          "type": "bool"
        }
      ],
      "stateMutability": "view",
      "type": "function"
    },
    {
      "inputs": [],
      "name": "lockTOS",
      "outputs": [
        {
          "internalType": "address",
          "name": "",
          "type": "address"
        }
      ],
      "stateMutability": "view",
      "type": "function"
    },
    {
      "inputs": [],
      "name": "migratedL2",
      "outputs": [
        {
          "internalType": "bool",
          "name": "",
          "type": "bool"
        }
      ],
      "stateMutability": "view",
      "type": "function"
    },
    {
      "inputs": [],
      "name": "pauseProxy",
      "outputs": [
        {
          "internalType": "bool",
          "name": "",
          "type": "bool"
        }
      ],
      "stateMutability": "view",
      "type": "function"
    },
    {
      "inputs": [
        {
          "internalType": "address",
          "name": "_token",
          "type": "address"
        },
        {
          "internalType": "uint256",
          "name": "_weeklyEpoch",
          "type": "uint256"
        }
      ],
      "name": "redistribute",
      "outputs": [],
      "stateMutability": "nonpayable",
      "type": "function"
    },
    {
      "inputs": [
        {
          "internalType": "address",
          "name": "account",
          "type": "address"
        }
      ],
      "name": "removeAdmin",
      "outputs": [],
      "stateMutability": "nonpayable",
      "type": "function"
    },
    {
      "inputs": [
        {
          "internalType": "bytes32",
          "name": "role",
          "type": "bytes32"
        },
        {
          "internalType": "address",
          "name": "account",
          "type": "address"
        }
      ],
      "name": "renounceRole",
      "outputs": [],
      "stateMutability": "nonpayable",
      "type": "function"
    },
    {
      "inputs": [
        {
          "internalType": "bytes32",
          "name": "role",
          "type": "bytes32"
        },
        {
          "internalType": "address",
          "name": "account",
          "type": "address"
        }
      ],
      "name": "revokeRole",
      "outputs": [],
      "stateMutability": "nonpayable",
      "type": "function"
    },
    {
      "inputs": [],
      "name": "stakeRegistry",
      "outputs": [
        {
          "internalType": "address",
          "name": "",
          "type": "address"
        }
      ],
      "stateMutability": "view",
      "type": "function"
    },
    {
      "inputs": [
        {
          "internalType": "address",
          "name": "_token",
          "type": "address"
        },
        {
          "internalType": "uint256",
          "name": "_timestamp",
          "type": "uint256"
        }
      ],
      "name": "tokensPerWeekAt",
      "outputs": [
        {
          "internalType": "uint256",
          "name": "",
          "type": "uint256"
        }
      ],
      "stateMutability": "view",
      "type": "function"
    },
    {
      "inputs": [
        {
          "internalType": "address",
          "name": "newAdmin",
          "type": "address"
        }
      ],
      "name": "transferAdmin",
      "outputs": [],
      "stateMutability": "nonpayable",
      "type": "function"
    }
  ],
  "bytecode": "0x6080604052600160065534801561001557600080fd5b506123b7806100256000396000f3fe608060405234801561001057600080fd5b506004361061022d5760003560e01c806375b238fc1161013b578063d4570c1c116100b8578063e3ba18a51161007c578063e3ba18a51461073c578063ed40055d14610768578063eff7913914610770578063fb9321081461078d578063fd2dcecf146107b95761022d565b8063d4570c1c14610640578063d4abe7171461066e578063d5391393146106dc578063d547741f146106e4578063e1de599b146107105761022d565b8063a1f5f50e116100ff578063a1f5f50e146105cf578063a217fddf146105d7578063a7f0b3de146105df578063bb1d03e3146105e7578063ca15c873146106235761022d565b806375b238fc146105065780637b7eb2e21461050e5780639010d07c1461053a57806391d148541461055d5780639353b9df146105895761022d565b806341c04d5e116101c957806363a8fd891161018d57806363a8fd891461048d5780636830483514610495578063704802751461049d57806372b86489146104c357806375829def146104e05761022d565b806341c04d5e1461038a5780634ae6b266146103925780634dfd60761461039a5780634e6c4466146103c657806362e40c24146103ce5761022d565b80631785f53c146102325780631e83409a1461025a578063248a9ca31461028057806324d7806c146102af578063269546ff146102e9578063282c51f3146102f15780632f2ff15d146102f957806336568abe1461032557806337a1550314610351575b600080fd5b6102586004803603602081101561024857600080fd5b50356001600160a01b03166107c1565b005b6102586004803603602081101561027057600080fd5b50356001600160a01b0316610820565b61029d6004803603602081101561029657600080fd5b5035610833565b60408051918252519081900360200190f35b6102d5600480360360208110156102c557600080fd5b50356001600160a01b0316610848565b604080519115158252519081900360200190f35b6102d5610868565b61029d6108f8565b6102586004803603604081101561030f57600080fd5b50803590602001356001600160a01b031661091c565b6102586004803603604081101561033b57600080fd5b50803590602001356001600160a01b0316610984565b61036e6004803603602081101561036757600080fd5b50356109e5565b604080516001600160a01b039092168252519081900360200190f35b61029d610a0f565b61029d610a33565b61029d600480360360408110156103b057600080fd5b506001600160a01b038135169060200135610a65565b61036e610a90565b6103f4600480360360208110156103e457600080fd5b50356001600160a01b0316610a9f565b604051808060200180602001838103835285818151815260200191508051906020019060200280838360005b83811015610438578181015183820152602001610420565b50505050905001838103825284818151815260200191508051906020019060200280838360005b8381101561047757818101518382015260200161045f565b5050505090500194505050505060405180910390f35b6102d5610caf565b61036e610cb8565b610258600480360360208110156104b357600080fd5b50356001600160a01b0316610ccc565b61029d600480360360208110156104d957600080fd5b5035610d28565b610258600480360360208110156104f657600080fd5b50356001600160a01b0316610d45565b61029d610e66565b61029d6004803603604081101561052457600080fd5b506001600160a01b038135169060200135610e78565b61036e6004803603604081101561055057600080fd5b5080359060200135610eb4565b6102d56004803603604081101561057357600080fd5b50803590602001356001600160a01b0316610ed3565b6105af6004803603602081101561059f57600080fd5b50356001600160a01b0316610eeb565b604080519315158452602084019290925282820152519081900360600190f35b6102d5610f10565b61029d610f20565b61029d610f25565b61029d600480360360808110156105fd57600080fd5b506001600160a01b03813581169160208101359091169060408101359060600135610f2b565b61029d6004803603602081101561063957600080fd5b503561110d565b61029d6004803603604081101561065657600080fd5b506001600160a01b0381358116916020013516611124565b6102586004803603602081101561068457600080fd5b810190602081018135600160201b81111561069e57600080fd5b8201836020820111156106b057600080fd5b803590602001918460208302840111600160201b831117156106d157600080fd5b509092509050611134565b61029d611170565b610258600480360360408110156106fa57600080fd5b50803590602001356001600160a01b0316611194565b6102586004803603604081101561072657600080fd5b506001600160a01b0381351690602001356111ed565b6102586004803603604081101561075257600080fd5b506001600160a01b038135169060200135611486565b61029d6114a2565b61029d6004803603602081101561078657600080fd5b50356114b2565b610258600480360360408110156107a357600080fd5b506001600160a01b0381351690602001356114e5565b61029d61175f565b6107ca33610848565b6108055760405162461bcd60e51b815260040180806020018281038252602281526020018061229f6022913960400191505060405180910390fd5b61081d60008051602061233383398151915282610984565b50565b600154420361082f8282611765565b5050565b60009081526007602052604090206002015490565b600061086260008051602061233383398151915283610ed3565b92915050565b600080610873610a33565b60025460408051630981b24d60e41b81526004810184905290519293506000926001600160a01b039092169163981b24d091602480820192602092909190829003018186803b1580156108c557600080fd5b505afa1580156108d9573d6000803e3d6000fd5b505050506040513d60208110156108ef57600080fd5b50511191505090565b7f9667e80708b6eeeb0053fa0cca44e028ff548e2a9f029edfeac87c118b08b7c881565b60008281526007602052604090206002015461093f9061093a611a3f565b610ed3565b61097a5760405162461bcd60e51b815260040180806020018281038252602f815260200180612270602f913960400191505060405180910390fd5b61082f8282611a43565b61098c611a3f565b6001600160a01b0316816001600160a01b0316146109db5760405162461bcd60e51b815260040180806020018281038252602f815260200180612353602f913960400191505060405180910390fd5b61082f8282611aac565b600581815481106109f557600080fd5b6000918252602090912001546001600160a01b0316905081565b7f52eafc11f6f81f86878bffd31109a0d92f37506527754f00788853ff9f63b13081565b600080610a3e6114a2565b600154909150600090610a5d610a548483611b15565b60035490611b6e565b019250505090565b6001600160a01b03919091166000908152600460208181526040808420948452939091019052205490565b6002546001600160a01b031681565b606080600060058054905067ffffffffffffffff81118015610ac057600080fd5b50604051908082528060200260200182016040528015610aea578160200160208202803683370190505b5090506000805b600554811015610b6957610b268660058381548110610b0c57fe5b6000918252602090912001546001600160a01b0316611124565b838281518110610b3257fe5b6020026020010181815250506000838281518110610b4c57fe5b60200260200101511115610b61576001820191505b600101610af1565b508067ffffffffffffffff81118015610b8157600080fd5b50604051908082528060200260200182016040528015610bab578160200160208202803683370190505b5092508067ffffffffffffffff81118015610bc557600080fd5b50604051908082528060200260200182016040528015610bef578160200160208202803683370190505b5093506000805b600554811015610ca6576000848281518110610c0e57fe5b60200260200101511115610c9e57838181518110610c2857fe5b6020026020010151858381518110610c3c57fe5b60200260200101818152505060058181548110610c5557fe5b9060005260206000200160009054906101000a90046001600160a01b0316868381518110610c7f57fe5b6001600160a01b03909216602092830291909101909101526001909101905b600101610bf6565b50505050915091565b60005460ff1681565b60005461010090046001600160a01b031681565b610cd533610848565b610d105760405162461bcd60e51b815260040180806020018281038252602281526020018061229f6022913960400191505060405180910390fd5b61081d6000805160206123338339815191528261091c565b60015460009061086290610d3f610a548583611b15565b90611b6e565b610d4e33610848565b610d895760405162461bcd60e51b815260040180806020018281038252602281526020018061229f6022913960400191505060405180910390fd5b6001600160a01b038116610ddf576040805162461bcd60e51b815260206004820152601860248201527741636365737369626c653a207a65726f206164647265737360401b604482015290519081900360640190fd5b336001600160a01b0382161415610e36576040805162461bcd60e51b815260206004820152601660248201527520b1b1b2b9b9b4b136329d1039b0b6b29030b236b4b760511b604482015290519081900360640190fd5b610e4e6000805160206123338339815191528261091c565b61081d60008051602061233383398151915233610984565b60008051602061233383398151915281565b600080610e84836114b2565b6001600160a01b038516600090815260046020908152604080832093835260039093019052205491505092915050565b6000828152600760205260408120610ecc9083611bc8565b9392505050565b6000828152600760205260408120610ecc9083611bd4565b60046020526000908152604090208054600182015460029092015460ff909116919083565b600054600160a81b900460ff1681565b600081565b60035481565b600080610f37846114b2565b90506000610f49846001544203611be9565b90506000610f56826114b2565b905080610f695760009350505050611105565b6002546040805163187f356b60e31b81526001600160a01b038b811660048301529151600093929092169163c3f9ab58916024808201928692909190829003018186803b158015610fb957600080fd5b505afa158015610fcd573d6000803e3d6000fd5b505050506040513d6000823e601f3d908101601f191682016040526020811015610ff657600080fd5b8101908080516040519392919084600160201b82111561101557600080fd5b90830190602082018581111561102a57600080fd5b82518660208202830111600160201b8211171561104657600080fd5b82525081516020918201928201910280838360005b8381101561107357818101518382015260200161105b565b505050509190910160409081526001600160a01b038e166000908152600460205290812095965094935084925050505b83518110156110fb5760008482815181106110ba57fe5b602002602001015190506110ee83826110e88b87600401600087815260200190815260200160002054611bff565b89611c0f565b90930192506001016110a3565b5090955050505050505b949350505050565b600081815260076020526040812061086290611d1b565b6000610ecc838360035442610f2b565b60005b8181101561116b5761116383838381811061114e57fe5b905060200201356001600160a01b0316610820565b600101611137565b505050565b7ff0887ba65ee2024ea881d91b74c2450ef19e1557f03bed3ea9f16b037cbe2dc981565b6000828152600760205260409020600201546111b29061093a611a3f565b6109db5760405162461bcd60e51b81526004018080602001828103825260308152602001806122c16030913960400191505060405180910390fd5b6111f56114a2565b811061120057600080fd5b60015460009061121790610d3f610a548583611b15565b60025460408051630981b24d60e41b81526004810184905290519293506001600160a01b039091169163981b24d091602480820192602092909190829003018186803b15801561126657600080fd5b505afa15801561127a573d6000803e3d6000fd5b505050506040513d602081101561129057600080fd5b5051156112ce5760405162461bcd60e51b815260040180806020018281038252602281526020018061224e6022913960400191505060405180910390fd5b60006112db836001611b6e565b905060006112f460015484611b6e90919063ffffffff16565b90505b4281116113a35760025460408051630981b24d60e41b81526004810184905290516000926001600160a01b03169163981b24d0916024808301926020929190829003018186803b15801561134a57600080fd5b505afa15801561135e573d6000803e3d6000fd5b505050506040513d602081101561137457600080fd5b50511115611381576113a3565b60015461138f908290611b6e565b905061139c826001611b6e565b91506112f7565b428111156113e25760405162461bcd60e51b81526004018080602001828103825260218152602001806122f16021913960400191505060405180910390fd5b6001600160a01b03851660009081526004602090815260408083208784526003810190925280832054858452922054909161141d9190611b6e565b600084815260038301602090815260408083209390935587825282822091909155815187815290810185905281516001600160a01b038916927fef062f2cfe573f04f4ee55033c8617fc1cd60d84502925156dc2c291e2f6ab0f928290030190a2505050505050565b6000611496826001544203611be9565b905061116b8382611765565b60006114ad426114b2565b905090565b600060035482116114c4576000610862565b6108626001546114df60035485611d2690919063ffffffff16565b90611d68565b600654600114611537576040805162461bcd60e51b81526020600482015260186024820152774c6f636b496420697320616c726561647920696e2075736560401b604482015290519081900360640190fd5b600060068190556115466114a2565b6001600160a01b038416600081815260046020818152604080842081516323b872dd60e01b81523394810194909452306024850152604484018990529051959650946323b872dd936064808501948390030190829087803b1580156115aa57600080fd5b505af11580156115be573d6000803e3d6000fd5b505050506040513d60208110156115d457600080fd5b5050805460ff1661162b57600580546001810182556000919091527f036b6384b5eca791c62761152d0c79bb0604c104a5fb6f4eb0703f3154bb3db00180546001600160a01b0319166001600160a01b0386161790555b6000846001600160a01b03166370a08231306040518263ffffffff1660e01b815260040180826001600160a01b0316815260200191505060206040518083038186803b15801561167a57600080fd5b505afa15801561168e573d6000803e3d6000fd5b505050506040513d60208110156116a457600080fd5b505160028301549091506000906116bc908390611d26565b835460ff191660019081178555600285018490558401549091506116e09082611b6e565b600184015560008481526003840160205260409020546117009082611b6e565b600085815260038501602090815260409182902092909255805187815290516001600160a01b038916927fc1d32ad5cca423e7dda2123dbf8c482f8e77d00b631c06e903a47f2cec1334df928290030190a25050600160065550505050565b60015481565b6006546001146117b7576040805162461bcd60e51b81526020600482015260186024820152774c6f636b496420697320616c726561647920696e2075736560401b604482015290519081900360640190fd5b600060068190556117c7826114b2565b6002546040805163187f356b60e31b815233600482015290519293506000926001600160a01b039092169163c3f9ab58916024808201928692909190829003018186803b15801561181757600080fd5b505afa15801561182b573d6000803e3d6000fd5b505050506040513d6000823e601f3d908101601f19168201604052602081101561185457600080fd5b8101908080516040519392919084600160201b82111561187357600080fd5b90830190602082018581111561188857600080fd5b82518660208202830111600160201b821117156118a457600080fd5b82525081516020918201928201910280838360005b838110156118d15781810151838201526020016118b9565b5050505090500160405250505090506000805b825181101561191f5761191561190e8785848151811061190057fe5b602002602001015187611daa565b8390611b6e565b91506001016118e4565b5060008111611975576040805162461bcd60e51b815260206004820152601c60248201527f416d6f756e7420746f20626520636c61696d6564206973207a65726f00000000604482015290519081900360640190fd5b6040805163a9059cbb60e01b81523360048201526024810183905290516001600160a01b0387169163a9059cbb9160448083019260209291908290030181600087803b1580156119c457600080fd5b505af11580156119d8573d6000803e3d6000fd5b505050506040513d60208110156119ee57600080fd5b5050604080518281526020810186905281516001600160a01b038816927f34fcbac0073d7c3d388e51312faf357774904998eeb8fca628b9e6f65ee1cbf7928290030190a250506001600655505050565b3390565b6000828152600760205260409020611a5b9082611e19565b1561082f57611a68611a3f565b6001600160a01b0316816001600160a01b0316837f2f8788117e7eff1d82e926ec794901d17c78024a50270940304540a733656f0d60405160405180910390a45050565b6000828152600760205260409020611ac49082611e2e565b1561082f57611ad1611a3f565b6001600160a01b0316816001600160a01b0316837ff6391f5c32d9c69d2a47ea670b442974b53935d1edc7fd64eb21e047a839171b60405160405180910390a45050565b600082611b2457506000610862565b82820282848281611b3157fe5b0414610ecc5760405162461bcd60e51b81526004018080602001828103825260218152602001806123126021913960400191505060405180910390fd5b600082820183811015610ecc576040805162461bcd60e51b815260206004820152601b60248201527f536166654d6174683a206164646974696f6e206f766572666c6f770000000000604482015290519081900360640190fd5b6000610ecc8383611e43565b6000610ecc836001600160a01b038416611ea7565b6000818310611bf85781610ecc565b5090919050565b600081831015611bf85781610ecc565b60025460408051639ce5630560e01b8152600481018690529051600092839283926001600160a01b0390921691639ce5630591602480820192606092909190829003018186803b158015611c6257600080fd5b505afa158015611c76573d6000803e3d6000fd5b505050506040513d6060811015611c8c57600080fd5b50805160209091015190925090506000611cae86611ca9856114b2565b611bff565b90506000611cc486611cbf856114b2565b611be9565b905060005b818311611d0e57611cfa611cf38a858d600301600088815260200190815260200160002054611ebf565b8290611b6e565b9050611d07836001611b6e565b9250611cc9565b9998505050505050505050565b60006108628261201b565b6000610ecc83836040518060400160405280601e81526020017f536166654d6174683a207375627472616374696f6e206f766572666c6f77000081525061201f565b6000610ecc83836040518060400160405280601a81526020017f536166654d6174683a206469766973696f6e206279207a65726f0000000000008152506120b6565b6001600160a01b0383166000908152600460208181526040808420868552928301909152822054611ddf908290869086611c0f565b9150611dec836001611b6e565b60008581526004830160205260409020556002810154611e0c9083611d26565b6002909101559392505050565b6000610ecc836001600160a01b03841661211b565b6000610ecc836001600160a01b038416612165565b81546000908210611e855760405162461bcd60e51b815260040180806020018281038252602281526020018061222c6022913960400191505060405180910390fd5b826000018281548110611e9457fe5b9060005260206000200154905092915050565b60009081526001919091016020526040902054151590565b6001546000908190611ed4610a548683611b15565b0190506000600260009054906101000a90046001600160a01b03166001600160a01b031663642cf64987846040518363ffffffff1660e01b8152600401808381526020018281526020019250505060206040518083038186803b158015611f3a57600080fd5b505afa158015611f4e573d6000803e3d6000fd5b505050506040513d6020811015611f6457600080fd5b505160025460408051630981b24d60e41b81526004810186905290519293506000926001600160a01b039092169163981b24d091602480820192602092909190829003018186803b158015611fb857600080fd5b505afa158015611fcc573d6000803e3d6000fd5b505050506040513d6020811015611fe257600080fd5b50519050811580611ff1575080155b156120025760009350505050610ecc565b612010816114df8785611b15565b979650505050505050565b5490565b600081848411156120ae5760405162461bcd60e51b81526004018080602001828103825283818151815260200191508051906020019080838360005b8381101561207357818101518382015260200161205b565b50505050905090810190601f1680156120a05780820380516001836020036101000a031916815260200191505b509250505060405180910390fd5b505050900390565b600081836121055760405162461bcd60e51b815260206004820181815283516024840152835190928392604490910191908501908083836000831561207357818101518382015260200161205b565b50600083858161211157fe5b0495945050505050565b60006121278383611ea7565b61215d57508154600181810184556000848152602080822090930184905584548482528286019093526040902091909155610862565b506000610862565b60008181526001830160205260408120548015612221578354600019808301919081019060009087908390811061219857fe5b90600052602060002001549050808760000184815481106121b557fe5b6000918252602080832090910192909255828152600189810190925260409020908401905586548790806121e557fe5b60019003818190600052602060002001600090559055866001016000878152602001908152602001600020600090556001945050505050610862565b600091505061086256fe456e756d657261626c655365743a20696e646578206f7574206f6620626f756e64734c6f636b656420546f6b656e2065786973747320666f7220746861742065706f6368416363657373436f6e74726f6c3a2073656e646572206d75737420626520616e2061646d696e20746f206772616e7441636365737369626c653a2043616c6c6572206973206e6f7420616e2061646d696e416363657373436f6e74726f6c3a2073656e646572206d75737420626520616e2061646d696e20746f207265766f6b6543616e6e6f742066696e642065706f636820746f20726564697374726962757465536166654d6174683a206d756c7469706c69636174696f6e206f766572666c6f77df8b4c520ffe197c5343c6f5aec59570151ef9a492f2c624fd45ddde6135ec42416363657373436f6e74726f6c3a2063616e206f6e6c792072656e6f756e636520726f6c657320666f722073656c66a26469706673582212208f9354cea6f6348121fe14719905a6d10a873889c123e9ffafcebb34802746d364736f6c63430007060033",
  "linkReferences": {},
  "deployedLinkReferences": {}
}