{
  "_format": "hh-sol-artifact-1",
  "contractName": "MultiDelegateCallSample",
  "sourceName": "contracts/stake/MultiDelegateCallSample.sol",
  "abi": [
    {
      "anonymous": false,
      "inputs": [
        {
          "indexed": false,
          "internalType": "address",
          "name": "target",
          "type": "address"
        },
        {
          "indexed": false,
          "internalType": "address",
          "name": "sender",
          "type": "address"
        }
      ],
      "name": "CallFunction",
      "type": "event"
    },
    {
      "anonymous": false,
      "inputs": [
        {
          "indexed": false,
          "internalType": "address",
          "name": "target",
          "type": "address"
        },
        {
          "indexed": false,
          "internalType": "address",
          "name": "sender",
          "type": "address"
        },
        {
          "indexed": false,
          "internalType": "uint256",
          "name": "userGas",
          "type": "uint256"
        },
        {
          "indexed": false,
          "internalType": "uint256",
          "name": "gasUsed",
          "type": "uint256"
        }
      ],
      "name": "CallMultiCall",
      "type": "event"
    },
    {
      "anonymous": false,
      "inputs": [
        {
          "indexed": false,
          "internalType": "address",
          "name": "target",
          "type": "address"
        },
        {
          "indexed": false,
          "internalType": "uint256",
          "name": "gasLimit",
          "type": "uint256"
        },
        {
          "indexed": false,
          "internalType": "bytes",
          "name": "_data",
          "type": "bytes"
        },
        {
          "indexed": false,
          "internalType": "address",
          "name": "sender",
          "type": "address"
        },
        {
          "indexed": false,
          "internalType": "uint256",
          "name": "gasUsed",
          "type": "uint256"
        }
      ],
      "name": "CallMultiOnce",
      "type": "event"
    },
    {
      "inputs": [
        {
          "internalType": "address",
          "name": "target",
          "type": "address"
        },
        {
          "internalType": "bytes",
          "name": "data",
          "type": "bytes"
        }
      ],
      "name": "callFunction",
      "outputs": [],
      "stateMutability": "nonpayable",
      "type": "function"
    },
    {
      "inputs": [
        {
          "internalType": "address",
          "name": "_target",
          "type": "address"
        },
        {
          "internalType": "uint256",
          "name": "_gas",
          "type": "uint256"
        },
        {
          "internalType": "address",
          "name": "_token",
          "type": "address"
        }
      ],
      "name": "claim",
      "outputs": [],
      "stateMutability": "nonpayable",
      "type": "function"
    },
    {
      "inputs": [
        {
          "components": [
            {
              "internalType": "address",
              "name": "target",
              "type": "address"
            },
            {
              "internalType": "uint256",
              "name": "gasLimit",
              "type": "uint256"
            },
            {
              "internalType": "bytes",
              "name": "callData",
              "type": "bytes"
            }
          ],
          "internalType": "struct MultiDelegateCallSample.Call[]",
          "name": "calls",
          "type": "tuple[]"
        }
      ],
      "name": "multicall",
      "outputs": [
        {
          "internalType": "uint256",
          "name": "blockNumber",
          "type": "uint256"
        },
        {
          "components": [
            {
              "internalType": "bool",
              "name": "success",
              "type": "bool"
            },
            {
              "internalType": "uint256",
              "name": "gasUsed",
              "type": "uint256"
            },
            {
              "internalType": "bytes",
              "name": "returnData",
              "type": "bytes"
            }
          ],
          "internalType": "struct MultiDelegateCallSample.Result[]",
          "name": "returnData",
          "type": "tuple[]"
        }
      ],
      "stateMutability": "nonpayable",
      "type": "function"
    }
  ],
  "bytecode": "0x608060405234801561001057600080fd5b50610903806100206000396000f3fe608060405234801561001057600080fd5b50600436106100415760003560e01c80631749e1e3146100465780639c23da50146100705780639e96a26014610085575b600080fd5b610059610054366004610662565b610098565b60405161006792919061076b565b60405180910390f35b61008361007e3660046105db565b610352565b005b610083610093366004610627565b610416565b6000606060008351116100e65760405162461bcd60e51b81526020600482015260116024820152700f4cae4de40c6c2d8d8e65cd8cadccee8d607b1b60448201526064015b60405180910390fd5b439150825167ffffffffffffffff81111561011157634e487b7160e01b600052604160045260246000fd5b60405190808252806020026020018201604052801561015e57816020015b6040805160608082018352600080835260208301529181019190915281526020019060019003908161012f5790505b50905060005a905060005b845181101561034b57600080600087848151811061019757634e487b7160e01b600052603260045260246000fd5b6020026020010151600001518885815181106101c357634e487b7160e01b600052603260045260246000fd5b6020026020010151602001518986815181106101ef57634e487b7160e01b600052603260045260246000fd5b60200260200101516040015192509250925060005a9050600080856001600160a01b031685856040516102229190610724565b6000604051808303818686f4925050503d806000811461025e576040519150601f19603f3d011682016040523d82523d6000602084013e610263565b606091505b5091509150816102855760405162461bcd60e51b81526004016100dd90610740565b60005a610292908561083f565b905060405180606001604052808415158152602001828152602001838152508a89815181106102d157634e487b7160e01b600052603260045260246000fd5b602090810291909101810191909152604080516001600160a01b038a168152339281019290925281018a9052606081018290527f10076a4a4156288a080b0e896a7fdb22fa3f1decde396aa4f9d901c44f5cef469060800160405180910390a150505050505050808061034390610886565b915050610169565b5050915091565b600080836001600160a01b03168360405161036d9190610724565b600060405180830381855af49150503d80600081146103a8576040519150601f19603f3d011682016040523d82523d6000602084013e6103ad565b606091505b5091509150816103cf5760405162461bcd60e51b81526004016100dd90610740565b604080516001600160a01b03861681523360208201527fa374203823574997eb75f593fb8314ea3c1d73de43264ad624d99a6b39c893b9910160405180910390a150505050565b6040516001600160a01b0382811660248301526000918291861690859060440160408051601f198184030181529181526020820180516001600160e01b0316630f41a04d60e11b1790525161046b9190610724565b6000604051808303818686f4925050503d80600081146104a7576040519150601f19603f3d011682016040523d82523d6000602084013e6104ac565b606091505b5091509150816104ce5760405162461bcd60e51b81526004016100dd90610740565b5050505050565b80356001600160a01b03811681146104ec57600080fd5b919050565b600082601f830112610501578081fd5b813567ffffffffffffffff81111561051b5761051b6108b7565b61052e601f8201601f191660200161080e565b818152846020838601011115610542578283fd5b816020850160208301379081016020019190915292915050565b60006060828403121561056d578081fd5b6040516060810167ffffffffffffffff8282108183111715610591576105916108b7565b816040528293506105a1856104d5565b83526020850135602084015260408501359150808211156105c157600080fd5b506105ce858286016104f1565b6040830152505092915050565b600080604083850312156105ed578182fd5b6105f6836104d5565b9150602083013567ffffffffffffffff811115610611578182fd5b61061d858286016104f1565b9150509250929050565b60008060006060848603121561063b578081fd5b610644846104d5565b925060208401359150610659604085016104d5565b90509250925092565b60006020808385031215610674578182fd5b823567ffffffffffffffff8082111561068b578384fd5b818501915085601f83011261069e578384fd5b8135818111156106b0576106b06108b7565b8060051b6106bf85820161080e565b8281528581019085870183870188018b10156106d9578889fd5b8893505b84841015610716578035868111156106f357898afd5b6107018c8a838b010161055c565b845250600193909301929187019187016106dd565b509998505050505050505050565b60008251610736818460208701610856565b9190910192915050565b60208082526011908201527019195b1959d85d1958d85b1b0819985a5b607a1b604082015260600190565b6000604080830185845260208281860152818651808452606093508387019150838160051b880101838901875b838110156107fe57898303605f1901855281518051151584528681015187850152880151888401889052805188850181905260806107db82828801858c01610856565b96880196601f91909101601f191694909401909301925090850190600101610798565b50909a9950505050505050505050565b604051601f8201601f1916810167ffffffffffffffff81118282101715610837576108376108b7565b604052919050565b600082821015610851576108516108a1565b500390565b60005b83811015610871578181015183820152602001610859565b83811115610880576000848401525b50505050565b600060001982141561089a5761089a6108a1565b5060010190565b634e487b7160e01b600052601160045260246000fd5b634e487b7160e01b600052604160045260246000fdfea2646970667358221220c4ecb47d63ac7caf4c796e2f32f2c0feec756fd3f0f8407603e600a82adeaa7964736f6c63430008040033",
  "linkReferences": {},
  "deployedLinkReferences": {}
}