{
  "_format": "hh-sol-artifact-1",
  "contractName": "MultiDelegateCall",
  "sourceName": "contracts/stake/MultiDelegateCall.sol",
  "abi": [
    {
      "inputs": [
        {
          "components": [
            {
              "internalType": "address",
              "name": "target",
              "type": "address"
            },
            {
              "internalType": "bytes",
              "name": "callData",
              "type": "bytes"
            }
          ],
          "internalType": "struct MultiDelegateCall.Call[]",
          "name": "calls",
          "type": "tuple[]"
        }
      ],
      "name": "multicall",
      "outputs": [
        {
          "internalType": "uint256",
          "name": "blockNumber",
          "type": "uint256"
        },
        {
          "components": [
            {
              "internalType": "bool",
              "name": "success",
              "type": "bool"
            },
            {
              "internalType": "bytes",
              "name": "returnData",
              "type": "bytes"
            }
          ],
          "internalType": "struct MultiDelegateCall.Result[]",
          "name": "returnData",
          "type": "tuple[]"
        }
      ],
      "stateMutability": "nonpayable",
      "type": "function"
    }
  ],
  "bytecode": "0x608060405234801561001057600080fd5b506105b3806100206000396000f3fe608060405234801561001057600080fd5b506004361061002b5760003560e01c8063caa5c23f14610030575b600080fd5b61004361003e366004610343565b61005a565b604051610051929190610421565b60405180910390f35b6000606060008351116100a85760405162461bcd60e51b81526020600482015260116024820152700f4cae4de40c6c2d8d8e65cd8cadccee8d607b1b60448201526064015b60405180910390fd5b439150825167ffffffffffffffff8111156100d357634e487b7160e01b600052604160045260246000fd5b60405190808252806020026020018201604052801561011957816020015b6040805180820190915260008152606060208201528152602001906001900390816100f15790505b50905060005b83518110156102815760008085838151811061014b57634e487b7160e01b600052603260045260246000fd5b60200260200101516000015186848151811061017757634e487b7160e01b600052603260045260246000fd5b60200260200101516020015191509150600080836001600160a01b0316836040516101a29190610405565b600060405180830381855af49150503d80600081146101dd576040519150601f19603f3d011682016040523d82523d6000602084013e6101e2565b606091505b5091509150816102285760405162461bcd60e51b815260206004820152601160248201527019195b1959d85d1958d85b1b0819985a5b607a1b604482015260640161009f565b604051806040016040528083151581526020018281525086868151811061025f57634e487b7160e01b600052603260045260246000fd5b602002602001018190525050505050808061027990610540565b91505061011f565b50915091565b600060408284031215610298578081fd5b6102a06104b6565b905081356001600160a01b03811681146102b957600080fd5b815260208281013567ffffffffffffffff808211156102d757600080fd5b818501915085601f8301126102eb57600080fd5b8135818111156102fd576102fd610567565b61030f601f8201601f191685016104df565b9150808252868482850101111561032557600080fd5b80848401858401376000908201840152918301919091525092915050565b60006020808385031215610355578182fd5b823567ffffffffffffffff8082111561036c578384fd5b818501915085601f83011261037f578384fd5b81358181111561039157610391610567565b8060051b6103a08582016104df565b8281528581019085870183870188018b10156103ba578889fd5b8893505b848410156103f7578035868111156103d457898afd5b6103e28c8a838b0101610287565b845250600193909301929187019187016103be565b509998505050505050505050565b60008251610417818460208701610510565b9190910192915050565b6000604080830185845260208281860152818651808452606093508387019150838160051b880101838901875b838110156104a657898303605f1901855281518051151584528601518684018990528051898501819052610487818a8701848b01610510565b95870195601f01601f191693909301870192509085019060010161044e565b50909a9950505050505050505050565b6040805190810167ffffffffffffffff811182821017156104d9576104d9610567565b60405290565b604051601f8201601f1916810167ffffffffffffffff8111828210171561050857610508610567565b604052919050565b60005b8381101561052b578181015183820152602001610513565b8381111561053a576000848401525b50505050565b600060001982141561056057634e487b7160e01b81526011600452602481fd5b5060010190565b634e487b7160e01b600052604160045260246000fdfea2646970667358221220cd659024f2f8932e82838f4bba40c542efdfc23d5c3c680a88a874785e99d8b964736f6c63430008040033",
  "linkReferences": {},
  "deployedLinkReferences": {}
}