{
  "_format": "hh-sol-artifact-1",
  "contractName": "MultiDelegateCall",
  "sourceName": "contracts/stake/MultiDelegateCall.sol",
  "abi": [
    {
      "inputs": [
        {
          "components": [
            {
              "internalType": "address",
              "name": "target",
              "type": "address"
            },
            {
              "internalType": "uint256",
              "name": "gasLimit",
              "type": "uint256"
            },
            {
              "internalType": "bytes",
              "name": "callData",
              "type": "bytes"
            }
          ],
          "internalType": "struct MultiDelegateCall.Call[]",
          "name": "calls",
          "type": "tuple[]"
        }
      ],
      "name": "multicall",
      "outputs": [
        {
          "internalType": "uint256",
          "name": "blockNumber",
          "type": "uint256"
        },
        {
          "components": [
            {
              "internalType": "bool",
              "name": "success",
              "type": "bool"
            },
            {
              "internalType": "uint256",
              "name": "gasUsed",
              "type": "uint256"
            },
            {
              "internalType": "bytes",
              "name": "returnData",
              "type": "bytes"
            }
          ],
          "internalType": "struct MultiDelegateCall.Result[]",
          "name": "returnData",
          "type": "tuple[]"
        }
      ],
      "stateMutability": "nonpayable",
      "type": "function"
    }
  ],
  "bytecode": "0x608060405234801561001057600080fd5b50610643806100206000396000f3fe608060405234801561001057600080fd5b506004361061002b5760003560e01c80631749e1e314610030575b600080fd5b61004361003e3660046103a4565b61005a565b604051610051929190610482565b60405180910390f35b6000606060008351116100a85760405162461bcd60e51b81526020600482015260116024820152700f4cae4de40c6c2d8d8e65cd8cadccee8d607b1b60448201526064015b60405180910390fd5b439150825167ffffffffffffffff8111156100d357634e487b7160e01b600052604160045260246000fd5b60405190808252806020026020018201604052801561012057816020015b604080516060808201835260008083526020830152918101919091528152602001906001900390816100f15790505b50905060005b83518110156102d757600080600086848151811061015457634e487b7160e01b600052603260045260246000fd5b60200260200101516000015187858151811061018057634e487b7160e01b600052603260045260246000fd5b6020026020010151602001518886815181106101ac57634e487b7160e01b600052603260045260246000fd5b60200260200101516040015192509250925060005a9050600080856001600160a01b031685856040516101df9190610466565b6000604051808303818686f4925050503d806000811461021b576040519150601f19603f3d011682016040523d82523d6000602084013e610220565b606091505b509150915060005a610232908561057f565b9050826102755760405162461bcd60e51b815260206004820152601160248201527019195b1959d85d1958d85b1b0819985a5b607a1b604482015260640161009f565b60405180606001604052808415158152602001828152602001838152508989815181106102b257634e487b7160e01b600052603260045260246000fd5b60200260200101819052505050505050505080806102cf906105c6565b915050610126565b50915091565b6000606082840312156102ee578081fd5b6102f6610525565b905081356001600160a01b038116811461030f57600080fd5b815260208281013581830152604083013567ffffffffffffffff8082111561033657600080fd5b818501915085601f83011261034a57600080fd5b81358181111561035c5761035c6105f7565b61036e601f8201601f1916850161054e565b9150808252868482850101111561038457600080fd5b808484018584013760008482840101525080604085015250505092915050565b600060208083850312156103b6578182fd5b823567ffffffffffffffff808211156103cd578384fd5b818501915085601f8301126103e0578384fd5b8135818111156103f2576103f26105f7565b8060051b61040185820161054e565b8281528581019085870183870188018b101561041b578889fd5b8893505b848410156104585780358681111561043557898afd5b6104438c8a838b01016102dd565b8452506001939093019291870191870161041f565b509998505050505050505050565b60008251610478818460208701610596565b9190910192915050565b6000604080830185845260208281860152818651808452606093508387019150838160051b880101838901875b8381101561051557898303605f1901855281518051151584528681015187850152880151888401889052805188850181905260806104f282828801858c01610596565b96880196601f91909101601f1916949094019093019250908501906001016104af565b50909a9950505050505050505050565b6040516060810167ffffffffffffffff81118282101715610548576105486105f7565b60405290565b604051601f8201601f1916810167ffffffffffffffff81118282101715610577576105776105f7565b604052919050565b600082821015610591576105916105e1565b500390565b60005b838110156105b1578181015183820152602001610599565b838111156105c0576000848401525b50505050565b60006000198214156105da576105da6105e1565b5060010190565b634e487b7160e01b600052601160045260246000fd5b634e487b7160e01b600052604160045260246000fdfea2646970667358221220c87449f0e0d1699d63509317f78cae8675037b7fa04f5850145a5376b3d1872764736f6c63430008040033",
  "linkReferences": {},
  "deployedLinkReferences": {}
}