{
  "_format": "hh-sol-artifact-1",
  "contractName": "PowerTONSwapper1",
  "sourceName": "contracts/powerton/PowerTONSwapper1.sol",
  "abi": [
    {
      "inputs": [],
      "stateMutability": "nonpayable",
      "type": "constructor"
    },
    {
      "anonymous": false,
      "inputs": [
        {
          "indexed": true,
          "internalType": "address",
          "name": "account",
          "type": "address"
        },
        {
          "indexed": false,
          "internalType": "uint256",
          "name": "amountToMint",
          "type": "uint256"
        },
        {
          "indexed": false,
          "internalType": "uint256",
          "name": "amountToBurn",
          "type": "uint256"
        }
      ],
      "name": "OnChangeAmountInRecoder",
      "type": "event"
    },
    {
      "anonymous": false,
      "inputs": [
        {
          "indexed": false,
          "internalType": "address",
          "name": "layer2",
          "type": "address"
        },
        {
          "indexed": true,
          "internalType": "address",
          "name": "account",
          "type": "address"
        },
        {
          "indexed": false,
          "internalType": "uint256",
          "name": "amount",
          "type": "uint256"
        }
      ],
      "name": "OnDeposit",
      "type": "event"
    },
    {
      "anonymous": false,
      "inputs": [
        {
          "indexed": false,
          "internalType": "address",
          "name": "layer2",
          "type": "address"
        },
        {
          "indexed": true,
          "internalType": "address",
          "name": "account",
          "type": "address"
        },
        {
          "indexed": false,
          "internalType": "uint256",
          "name": "amount",
          "type": "uint256"
        }
      ],
      "name": "OnWithdraw",
      "type": "event"
    },
    {
      "anonymous": false,
      "inputs": [
        {
          "indexed": true,
          "internalType": "bytes32",
          "name": "role",
          "type": "bytes32"
        },
        {
          "indexed": true,
          "internalType": "bytes32",
          "name": "previousAdminRole",
          "type": "bytes32"
        },
        {
          "indexed": true,
          "internalType": "bytes32",
          "name": "newAdminRole",
          "type": "bytes32"
        }
      ],
      "name": "RoleAdminChanged",
      "type": "event"
    },
    {
      "anonymous": false,
      "inputs": [
        {
          "indexed": true,
          "internalType": "bytes32",
          "name": "role",
          "type": "bytes32"
        },
        {
          "indexed": true,
          "internalType": "address",
          "name": "account",
          "type": "address"
        },
        {
          "indexed": true,
          "internalType": "address",
          "name": "sender",
          "type": "address"
        }
      ],
      "name": "RoleGranted",
      "type": "event"
    },
    {
      "anonymous": false,
      "inputs": [
        {
          "indexed": true,
          "internalType": "bytes32",
          "name": "role",
          "type": "bytes32"
        },
        {
          "indexed": true,
          "internalType": "address",
          "name": "account",
          "type": "address"
        },
        {
          "indexed": true,
          "internalType": "address",
          "name": "sender",
          "type": "address"
        }
      ],
      "name": "RoleRevoked",
      "type": "event"
    },
    {
      "anonymous": false,
      "inputs": [
        {
          "indexed": false,
          "internalType": "uint256",
          "name": "amount",
          "type": "uint256"
        }
      ],
      "name": "Swapped",
      "type": "event"
    },
    {
      "inputs": [],
      "name": "ADMIN_ROLE",
      "outputs": [
        {
          "internalType": "bytes32",
          "name": "",
          "type": "bytes32"
        }
      ],
      "stateMutability": "view",
      "type": "function"
    },
    {
      "inputs": [],
      "name": "BURNER_ROLE",
      "outputs": [
        {
          "internalType": "bytes32",
          "name": "",
          "type": "bytes32"
        }
      ],
      "stateMutability": "view",
      "type": "function"
    },
    {
      "inputs": [],
      "name": "DEFAULT_ADMIN_ROLE",
      "outputs": [
        {
          "internalType": "bytes32",
          "name": "",
          "type": "bytes32"
        }
      ],
      "stateMutability": "view",
      "type": "function"
    },
    {
      "inputs": [],
      "name": "MINTER_ROLE",
      "outputs": [
        {
          "internalType": "bytes32",
          "name": "",
          "type": "bytes32"
        }
      ],
      "stateMutability": "view",
      "type": "function"
    },
    {
      "inputs": [],
      "name": "SLIPPAGE_LIMIT",
      "outputs": [
        {
          "internalType": "uint8",
          "name": "",
          "type": "uint8"
        }
      ],
      "stateMutability": "view",
      "type": "function"
    },
    {
      "inputs": [
        {
          "internalType": "address",
          "name": "account",
          "type": "address"
        }
      ],
      "name": "addAdmin",
      "outputs": [],
      "stateMutability": "nonpayable",
      "type": "function"
    },
    {
      "inputs": [],
      "name": "approveToUniswap",
      "outputs": [],
      "stateMutability": "nonpayable",
      "type": "function"
    },
    {
      "inputs": [],
      "name": "autocoinageSnapshot",
      "outputs": [
        {
          "internalType": "address",
          "name": "",
          "type": "address"
        }
      ],
      "stateMutability": "view",
      "type": "function"
    },
    {
      "inputs": [],
      "name": "currentRound",
      "outputs": [
        {
          "internalType": "uint256",
          "name": "",
          "type": "uint256"
        }
      ],
      "stateMutability": "pure",
      "type": "function"
    },
    {
      "inputs": [],
      "name": "currentTick",
      "outputs": [
        {
          "internalType": "uint160",
          "name": "sqrtPriceX96",
          "type": "uint160"
        },
        {
          "internalType": "int24",
          "name": "tick",
          "type": "int24"
        }
      ],
      "stateMutability": "view",
      "type": "function"
    },
    {
      "inputs": [],
      "name": "endRound",
      "outputs": [],
      "stateMutability": "nonpayable",
      "type": "function"
    },
    {
      "inputs": [
        {
          "internalType": "address",
          "name": "token0",
          "type": "address"
        },
        {
          "internalType": "address",
          "name": "token1",
          "type": "address"
        }
      ],
      "name": "getDecimals",
      "outputs": [
        {
          "internalType": "uint256",
          "name": "token0Decimals",
          "type": "uint256"
        },
        {
          "internalType": "uint256",
          "name": "token1Decimals",
          "type": "uint256"
        }
      ],
      "stateMutability": "view",
      "type": "function"
    },
    {
      "inputs": [],
      "name": "getPoolAddress",
      "outputs": [
        {
          "internalType": "address",
          "name": "",
          "type": "address"
        }
      ],
      "stateMutability": "view",
      "type": "function"
    },
    {
      "inputs": [
        {
          "internalType": "uint160",
          "name": "sqrtPriceX96",
          "type": "uint160"
        }
      ],
      "name": "getPriceX96FromSqrtPriceX96",
      "outputs": [
        {
          "internalType": "uint256",
          "name": "priceX96",
          "type": "uint256"
        }
      ],
      "stateMutability": "pure",
      "type": "function"
    },
    {
      "inputs": [
        {
          "internalType": "bytes32",
          "name": "role",
          "type": "bytes32"
        }
      ],
      "name": "getRoleAdmin",
      "outputs": [
        {
          "internalType": "bytes32",
          "name": "",
          "type": "bytes32"
        }
      ],
      "stateMutability": "view",
      "type": "function"
    },
    {
      "inputs": [],
      "name": "getWTONBalance",
      "outputs": [
        {
          "internalType": "uint256",
          "name": "",
          "type": "uint256"
        }
      ],
      "stateMutability": "view",
      "type": "function"
    },
    {
      "inputs": [
        {
          "internalType": "bytes32",
          "name": "role",
          "type": "bytes32"
        },
        {
          "internalType": "address",
          "name": "account",
          "type": "address"
        }
      ],
      "name": "grantRole",
      "outputs": [],
      "stateMutability": "nonpayable",
      "type": "function"
    },
    {
      "inputs": [
        {
          "internalType": "bytes32",
          "name": "role",
          "type": "bytes32"
        },
        {
          "internalType": "address",
          "name": "account",
          "type": "address"
        }
      ],
      "name": "hasRole",
      "outputs": [
        {
          "internalType": "bool",
          "name": "",
          "type": "bool"
        }
      ],
      "stateMutability": "view",
      "type": "function"
    },
    {
      "inputs": [],
      "name": "init",
      "outputs": [],
      "stateMutability": "nonpayable",
      "type": "function"
    },
    {
      "inputs": [
        {
          "internalType": "address",
          "name": "account",
          "type": "address"
        }
      ],
      "name": "isAdmin",
      "outputs": [
        {
          "internalType": "bool",
          "name": "",
          "type": "bool"
        }
      ],
      "stateMutability": "view",
      "type": "function"
    },
    {
      "inputs": [],
      "name": "layer2Registry",
      "outputs": [
        {
          "internalType": "address",
          "name": "",
          "type": "address"
        }
      ],
      "stateMutability": "view",
      "type": "function"
    },
    {
      "inputs": [],
      "name": "migratedL2",
      "outputs": [
        {
          "internalType": "bool",
          "name": "",
          "type": "bool"
        }
      ],
      "stateMutability": "view",
      "type": "function"
    },
    {
      "inputs": [
        {
          "internalType": "address",
          "name": "layer2",
          "type": "address"
        },
        {
          "internalType": "address",
          "name": "account",
          "type": "address"
        },
        {
          "internalType": "uint256",
          "name": "amount",
          "type": "uint256"
        }
      ],
      "name": "onDeposit",
      "outputs": [],
      "stateMutability": "nonpayable",
      "type": "function"
    },
    {
      "inputs": [
        {
          "internalType": "address",
          "name": "layer2",
          "type": "address"
        },
        {
          "internalType": "address",
          "name": "account",
          "type": "address"
        },
        {
          "internalType": "uint256",
          "name": "amount",
          "type": "uint256"
        }
      ],
      "name": "onWithdraw",
      "outputs": [],
      "stateMutability": "nonpayable",
      "type": "function"
    },
    {
      "inputs": [],
      "name": "pauseProxy",
      "outputs": [
        {
          "internalType": "bool",
          "name": "",
          "type": "bool"
        }
      ],
      "stateMutability": "view",
      "type": "function"
    },
    {
      "inputs": [
        {
          "internalType": "address",
          "name": "account",
          "type": "address"
        }
      ],
      "name": "powerOf",
      "outputs": [
        {
          "internalType": "uint256",
          "name": "",
          "type": "uint256"
        }
      ],
      "stateMutability": "pure",
      "type": "function"
    },
    {
      "inputs": [
        {
          "internalType": "address",
          "name": "account",
          "type": "address"
        }
      ],
      "name": "removeAdmin",
      "outputs": [],
      "stateMutability": "nonpayable",
      "type": "function"
    },
    {
      "inputs": [
        {
          "internalType": "bytes32",
          "name": "role",
          "type": "bytes32"
        },
        {
          "internalType": "address",
          "name": "account",
          "type": "address"
        }
      ],
      "name": "renounceRole",
      "outputs": [],
      "stateMutability": "nonpayable",
      "type": "function"
    },
    {
      "inputs": [
        {
          "internalType": "bytes32",
          "name": "role",
          "type": "bytes32"
        },
        {
          "internalType": "address",
          "name": "account",
          "type": "address"
        }
      ],
      "name": "revokeRole",
      "outputs": [],
      "stateMutability": "nonpayable",
      "type": "function"
    },
    {
      "inputs": [],
      "name": "roundDuration",
      "outputs": [
        {
          "internalType": "uint256",
          "name": "",
          "type": "uint256"
        }
      ],
      "stateMutability": "pure",
      "type": "function"
    },
    {
      "inputs": [],
      "name": "seigManager",
      "outputs": [
        {
          "internalType": "address",
          "name": "",
          "type": "address"
        }
      ],
      "stateMutability": "view",
      "type": "function"
    },
    {
      "inputs": [
        {
          "internalType": "address",
          "name": "_autocoinageSnapshot",
          "type": "address"
        }
      ],
      "name": "setAutocoinageSnapshot",
      "outputs": [],
      "stateMutability": "nonpayable",
      "type": "function"
    },
    {
      "inputs": [
        {
          "internalType": "address",
          "name": "_wton",
          "type": "address"
        },
        {
          "internalType": "address",
          "name": "_tos",
          "type": "address"
        },
        {
          "internalType": "address",
          "name": "_uniswapRouter",
          "type": "address"
        },
        {
          "internalType": "address",
          "name": "_autocoinageSnapshot",
          "type": "address"
        },
        {
          "internalType": "address",
          "name": "_layer2Registry",
          "type": "address"
        },
        {
          "internalType": "address",
          "name": "_seigManager",
          "type": "address"
        }
      ],
      "name": "setInfo",
      "outputs": [],
      "stateMutability": "nonpayable",
      "type": "function"
    },
    {
      "inputs": [
        {
          "internalType": "uint8",
          "name": "slippage",
          "type": "uint8"
        }
      ],
      "name": "setSlippageLimit",
      "outputs": [],
      "stateMutability": "nonpayable",
      "type": "function"
    },
    {
      "inputs": [],
      "name": "start",
      "outputs": [],
      "stateMutability": "nonpayable",
      "type": "function"
    },
    {
      "inputs": [
        {
          "internalType": "bytes4",
          "name": "interfaceId",
          "type": "bytes4"
        }
      ],
      "name": "supportsInterface",
      "outputs": [
        {
          "internalType": "bool",
          "name": "",
          "type": "bool"
        }
      ],
      "stateMutability": "view",
      "type": "function"
    },
    {
      "inputs": [
        {
          "internalType": "uint24",
          "name": "_fee",
          "type": "uint24"
        },
        {
          "internalType": "uint256",
          "name": "_deadline",
          "type": "uint256"
        },
        {
          "internalType": "uint256",
          "name": "_amountOutMinimum",
          "type": "uint256"
        },
        {
          "internalType": "uint160",
          "name": "_sqrtPriceLimitX96",
          "type": "uint160"
        },
        {
          "internalType": "uint8",
          "name": "slippage",
          "type": "uint8"
        },
        {
          "internalType": "int24",
          "name": "curTick",
          "type": "int24"
        }
      ],
      "name": "swap",
      "outputs": [],
      "stateMutability": "nonpayable",
      "type": "function"
    },
    {
      "inputs": [],
      "name": "tos",
      "outputs": [
        {
          "internalType": "contract ITOS",
          "name": "",
          "type": "address"
        }
      ],
      "stateMutability": "view",
      "type": "function"
    },
    {
      "inputs": [],
      "name": "totalDeposits",
      "outputs": [
        {
          "internalType": "uint256",
          "name": "",
          "type": "uint256"
        }
      ],
      "stateMutability": "pure",
      "type": "function"
    },
    {
      "inputs": [
        {
          "internalType": "address",
          "name": "newAdmin",
          "type": "address"
        }
      ],
      "name": "transferAdmin",
      "outputs": [],
      "stateMutability": "nonpayable",
      "type": "function"
    },
    {
      "inputs": [],
      "name": "uniswapRouter",
      "outputs": [
        {
          "internalType": "contract ISwapRouter",
          "name": "",
          "type": "address"
        }
      ],
      "stateMutability": "view",
      "type": "function"
    },
    {
      "inputs": [
        {
          "internalType": "uint256",
          "name": "round",
          "type": "uint256"
        }
      ],
      "name": "winnerOf",
      "outputs": [
        {
          "internalType": "address",
          "name": "",
          "type": "address"
        }
      ],
      "stateMutability": "pure",
      "type": "function"
    },
    {
      "inputs": [],
      "name": "wton",
      "outputs": [
        {
          "internalType": "address",
          "name": "",
          "type": "address"
        }
      ],
      "stateMutability": "view",
      "type": "function"
    }
  ],
  "bytecode": "0x608060405234801561001057600080fd5b50611e16806100206000396000f3fe608060405234801561001057600080fd5b50600436106102695760003560e01c8063735de9f711610151578063a0e9b3e5116100c3578063d539139311610087578063d539139314610553578063d547741f1461057a578063e1c7392a146102d3578063f586c6d91461058d578063f7cb789a146104be578063f850ffaa146103d457600080fd5b8063a0e9b3e514610511578063a1f5f50e14610524578063a217fddf14610538578063be9a6555146102d3578063cf2a239c1461054057600080fd5b80637d882097116101155780637d882097146104be57806389f395de146104c55780638a19c8bc146104be5780638cb5d700146104d85780638d62d949146104e657806391d14854146104fe57600080fd5b8063735de9f71461045b578063740fcd201461046e578063749aa2d9146102d357806375829def1461049657806375b238fc146104a957600080fd5b80633452f3c5116101ea5780634e09a610116101ae5780634e09a610146103ef578063591666bb1461040257806363a8fd89146104155780636fb7f558146104225780637048027514610435578063705ce4d01461044857600080fd5b80633452f3c51461039a57806336568abe146103a25780633a1253df146103b5578063412c6d50146103d4578063442ff62d146103e757600080fd5b8063248a9ca311610231578063248a9ca31461030a57806324d7806c1461032d578063282c51f3146103405780632f2ff15d14610367578063309d72731461037a57600080fd5b806301ffc9a71461026e578063065e5360146102965780631373fa94146102c05780631785f53c146102d55780631ac84690146102e8575b600080fd5b61028161027c366004611a7e565b610595565b60405190151581526020015b60405180910390f35b61029e6105cc565b604080516001600160a01b03909316835260029190910b60208301520161028d565b6102d36102ce3660046118f7565b61067b565b005b6102d36102e33660046118f7565b6106cb565b6102fc6102f63660046118f7565b50600090565b60405190815260200161028d565b6102fc610318366004611a42565b60009081526006602052604090206001015490565b61028161033b3660046118f7565b61070b565b6102fc7f9667e80708b6eeeb0053fa0cca44e028ff548e2a9f029edfeac87c118b08b7c881565b6102d3610375366004611a5a565b610725565b60035461038d906001600160a01b031681565b60405161028d9190611c3d565b6102d3610750565b6102d36103b0366004611a5a565b6107de565b6007546103c29060ff1681565b60405160ff909116815260200161028d565b6102d36103e23660046119e8565b61085c565b6102fc610973565b6102fc6103fd3660046118f7565b6109fd565b6102d3610410366004611967565b610a17565b6000546102819060ff1681565b60055461038d906001600160a01b031681565b6102d36104433660046118f7565b610ab6565b6102d3610456366004611bb2565b610af3565b60025461038d906001600160a01b031681565b61048161047c36600461192f565b610bb9565b6040805192835260208301919091520161028d565b6102d36104a43660046118f7565b610ca9565b6102fc600080516020611dc183398151915281565b60006102fc565b60015461038d906001600160a01b031681565b61038d6102f6366004611a42565b60005461038d9061010090046001600160a01b031681565b61028161050c366004611a5a565b610da1565b6102d361051f366004611b32565b610dcc565b60055461028190600160a01b900460ff1681565b6102fc600081565b60045461038d906001600160a01b031681565b6102fc7ff0887ba65ee2024ea881d91b74c2450ef19e1557f03bed3ea9f16b037cbe2dc981565b6102d3610588366004611a5a565b6113fe565b61038d611424565b60006001600160e01b03198216637965db0b60e01b14806105c657506301ffc9a760e01b6001600160e01b03198316145b92915050565b60008060006105d9611424565b90506001600160a01b0381161561067057600080826001600160a01b0316633850c7bd6040518163ffffffff1660e01b815260040160e06040518083038186803b15801561062657600080fd5b505afa15801561063a573d6000803e3d6000fd5b505050506040513d601f19601f8201168201806040525081019061065e9190611aa6565b50949a93995092975050505050505050565b506000928392509050565b6106843361070b565b6106a95760405162461bcd60e51b81526004016106a090611c84565b60405180910390fd5b600380546001600160a01b0319166001600160a01b0392909216919091179055565b6106d43361070b565b6106f05760405162461bcd60e51b81526004016106a090611c84565b610708600080516020611dc1833981519152826107de565b50565b60006105c6600080516020611dc183398151915283610da1565b60008281526006602052604090206001015461074181336114d3565b61074b8383611537565b505050565b60005460025460405163095ea7b360e01b81526001600160a01b0391821660048201526000196024820152610100909204169063095ea7b390604401602060405180830381600087803b1580156107a657600080fd5b505af11580156107ba573d6000803e3d6000fd5b505050506040513d601f19601f820116820180604052508101906107089190611a28565b6001600160a01b038116331461084e5760405162461bcd60e51b815260206004820152602f60248201527f416363657373436f6e74726f6c3a2063616e206f6e6c792072656e6f756e636560448201526e103937b632b9903337b91039b2b63360891b60648201526084016106a0565b61085882826115bd565b5050565b6108653361070b565b8061087a57506005546001600160a01b031633145b6108e65760405162461bcd60e51b815260206004820152603760248201527f506f776572544f4e537761707065723a2073656e646572206973206e6f74207360448201527632b4b3a6b0b730b3b2b91037b9103737ba1030b236b4b760491b60648201526084016106a0565b60035460405163adc7e4f160e01b81526001600160a01b03858116600483015284811660248301529091169063adc7e4f190604401602060405180830381600087803b15801561093557600080fd5b505af1158015610949573d6000803e3d6000fd5b505050506040513d601f19601f8201168201806040525081019061096d9190611b9a565b50505050565b600080546040516370a0823160e01b81526101009091046001600160a01b0316906370a08231906109a8903090600401611c3d565b60206040518083038186803b1580156109c057600080fd5b505afa1580156109d4573d6000803e3d6000fd5b505050506040513d601f19601f820116820180604052508101906109f89190611b9a565b905090565b60006105c66001600160a01b03831680600160601b611624565b610a203361070b565b610a3c5760405162461bcd60e51b81526004016106a090611c84565b600080546001600160a01b0397881661010002610100600160a81b0319909116179055600180549587166001600160a01b0319968716179055600280549487169486169490941790935560038054928616928516929092179091556004805491851691841691909117905560058054919093169116179055565b610abf3361070b565b610adb5760405162461bcd60e51b81526004016106a090611c84565b610708600080516020611dc183398151915282610725565b610afc3361070b565b610b185760405162461bcd60e51b81526004016106a090611c84565b60008160ff1611610b5b5760405162461bcd60e51b815260206004820152600d60248201526c7a65726f20736c69707061676560981b60448201526064016106a0565b60075460ff82811691161415610ba35760405162461bcd60e51b815260206004820152600d60248201526c73616d6520736c69707061676560981b60448201526064016106a0565b6007805460ff191660ff92909216919091179055565b600080836001600160a01b031663313ce5676040518163ffffffff1660e01b815260040160206040518083038186803b158015610bf557600080fd5b505afa158015610c09573d6000803e3d6000fd5b505050506040513d601f19601f82011682018060405250810190610c2d9190611b9a565b836001600160a01b031663313ce5676040518163ffffffff1660e01b815260040160206040518083038186803b158015610c6657600080fd5b505afa158015610c7a573d6000803e3d6000fd5b505050506040513d601f19601f82011682018060405250810190610c9e9190611b9a565b915091509250929050565b610cb23361070b565b610cce5760405162461bcd60e51b81526004016106a090611c84565b6001600160a01b038116610d1f5760405162461bcd60e51b815260206004820152601860248201527741636365737369626c653a207a65726f206164647265737360401b60448201526064016106a0565b336001600160a01b0382161415610d715760405162461bcd60e51b815260206004820152601660248201527520b1b1b2b9b9b4b136329d1039b0b6b29030b236b4b760511b60448201526064016106a0565b610d89600080516020611dc183398151915282610725565b610708600080516020611dc1833981519152336107de565b60009182526006602090815260408084206001600160a01b0393909316845291905290205460ff1690565b60075460ff16610de4576007805460ff1916600a1790555b60008260ff16118015610e00575060075460ff90811690831611155b610e4c5760405162461bcd60e51b815260206004820152601b60248201527f4974206973206e6f7420616c6c6f77656420736c6970706167652e000000000060448201526064016106a0565b6000610e56611424565b90506001600160a01b038116610ea25760405162461bcd60e51b81526020600482015260116024820152701c1bdbdb08191a591b89dd08195e1a5cdd607a1b60448201526064016106a0565b6000819050600080826001600160a01b0316633850c7bd6040518163ffffffff1660e01b815260040160e06040518083038186803b158015610ee357600080fd5b505afa158015610ef7573d6000803e3d6000fd5b505050506040513d601f19601f82011682018060405250810190610f1b9190611aa6565b5050505050915091506000826001600160a01b031611610f775760405162461bcd60e51b81526020600482015260176024820152761c1bdbdb081a5cc81b9bdd081a5b9a5d1a585b1a5e9959604a1b60448201526064016106a0565b8460020b8160020b14610fc85760405162461bcd60e51b815260206004820152601960248201527830b63932b0b23c903a34b1b5903bb0b99031b430b733b2b21760391b60448201526064016106a0565b6000610fd3836109fd565b90506000610fdf610973565b90506000604051806101000160405280600060019054906101000a90046001600160a01b03166001600160a01b03168152602001600160009054906101000a90046001600160a01b03166001600160a01b031681526020018e62ffffff168152602001306001600160a01b031681526020018d4261105d9190611cc6565b8152602080820185905260408083018f90526001600160a01b038e8116606094850152600254825163414bf38960e01b815286518316600482015293860151821660248501529185015162ffffff16604484015292840151831660648301526080840151608483015260a084015160a483015260c084015160c483015260e0840151831660e483015292935091169063414bf3899061010401602060405180830381600087803b15801561111057600080fd5b505af1158015611124573d6000803e3d6000fd5b505050506040513d601f19601f820116820180604052508101906111489190611b9a565b506000866001600160a01b0316633850c7bd6040518163ffffffff1660e01b815260040160e06040518083038186803b15801561118457600080fd5b505afa158015611198573d6000803e3d6000fd5b505050506040513d601f19601f820116820180604052508101906111bc9190611aa6565b505050505050905060006111cf826109fd565b905060006103e860c86111e560ff8f1683611cfe565b6111ef9190611cde565b6111fb906103e8611d1d565b6112059088611cfe565b61120f9190611cde565b905060006103e860c88e60ff166103e86112299190611cfe565b6112339190611cde565b61123f906103e8611cc6565b6112499089611cfe565b6112539190611cde565b905082821115801561126457508083105b6112b05760405162461bcd60e51b815260206004820152601d60248201527f6f7574206f662061636365707461626c652070726963652072616e676500000060448201526064016106a0565b6001546040516370a0823160e01b81526000916001600160a01b0316906370a08231906112e1903090600401611c3d565b60206040518083038186803b1580156112f957600080fd5b505afa15801561130d573d6000803e3d6000fd5b505050506040513d601f19601f820116820180604052508101906113319190611b9a565b600154604051632770a7eb60e21b8152306004820152602481018390529192506001600160a01b031690639dc29fac90604401602060405180830381600087803b15801561137e57600080fd5b505af1158015611392573d6000803e3d6000fd5b505050506040513d601f19601f820116820180604052508101906113b69190611a28565b506040518181527f0ce6b316c91b55b8b3890333c26dd18cc635e11e8188ddba7f72ffffca64ce6f9060200160405180910390a1505050505050505050505050505050505050565b60008281526006602052604090206001015461141a81336114d3565b61074b83836115bd565b60008054600154604051630b4c774160e11b81526001600160a01b036101009093048316600482015291166024820152610bb86044820152731f98431c8ad98523631ae4a59f267346ea31f984908190631698ee829060640160206040518083038186803b15801561149557600080fd5b505afa1580156114a9573d6000803e3d6000fd5b505050506040513d601f19601f820116820180604052508101906114cd9190611913565b91505090565b6114dd8282610da1565b610858576114f5816001600160a01b031660146116ee565b6115008360206116ee565b604051602001611511929190611bce565b60408051601f198184030181529082905262461bcd60e51b82526106a091600401611c51565b6115418282610da1565b6108585760008281526006602090815260408083206001600160a01b03851684529091529020805460ff191660011790556115793390565b6001600160a01b0316816001600160a01b0316837f2f8788117e7eff1d82e926ec794901d17c78024a50270940304540a733656f0d60405160405180910390a45050565b6115c78282610da1565b156108585760008281526006602090815260408083206001600160a01b0385168085529252808320805460ff1916905551339285917ff6391f5c32d9c69d2a47ea670b442974b53935d1edc7fd64eb21e047a839171b9190a45050565b600080821161163257600080fd5b600080600019858709858702925082811083820303915050806000141561165e575082900490506116e7565b80841161166a57600080fd5b60008486880980840393811190920391905060008561168b81600019611d1d565b611696906001611cc6565b16958690049560026003880281188089028203028089028203028089028203028089028203028089028203028089029091030260008290038290046001019490940294049390931791909102925050505b9392505050565b606060006116fd836002611cfe565b611708906002611cc6565b67ffffffffffffffff81111561172e57634e487b7160e01b600052604160045260246000fd5b6040519080825280601f01601f191660200182016040528015611758576020820181803683370190505b509050600360fc1b8160008151811061178157634e487b7160e01b600052603260045260246000fd5b60200101906001600160f81b031916908160001a905350600f60fb1b816001815181106117be57634e487b7160e01b600052603260045260246000fd5b60200101906001600160f81b031916908160001a90535060006117e2846002611cfe565b6117ed906001611cc6565b90505b6001811115611881576f181899199a1a9b1b9c1cb0b131b232b360811b85600f166010811061182f57634e487b7160e01b600052603260045260246000fd5b1a60f81b82828151811061185357634e487b7160e01b600052603260045260246000fd5b60200101906001600160f81b031916908160001a90535060049490941c9361187a81611d60565b90506117f0565b5083156116e75760405162461bcd60e51b815260206004820181905260248201527f537472696e67733a20686578206c656e67746820696e73756666696369656e7460448201526064016106a0565b805180151581146118e057600080fd5b919050565b805161ffff811681146118e057600080fd5b600060208284031215611908578081fd5b81356116e781611d8d565b600060208284031215611924578081fd5b81516116e781611d8d565b60008060408385031215611941578081fd5b823561194c81611d8d565b9150602083013561195c81611d8d565b809150509250929050565b60008060008060008060c0878903121561197f578182fd5b863561198a81611d8d565b9550602087013561199a81611d8d565b945060408701356119aa81611d8d565b935060608701356119ba81611d8d565b925060808701356119ca81611d8d565b915060a08701356119da81611d8d565b809150509295509295509295565b6000806000606084860312156119fc578283fd5b8335611a0781611d8d565b92506020840135611a1781611d8d565b929592945050506040919091013590565b600060208284031215611a39578081fd5b6116e7826118d0565b600060208284031215611a53578081fd5b5035919050565b60008060408385031215611a6c578182fd5b82359150602083013561195c81611d8d565b600060208284031215611a8f578081fd5b81356001600160e01b0319811681146116e7578182fd5b600080600080600080600060e0888a031215611ac0578081fd5b8751611acb81611d8d565b6020890151909750611adc81611da2565b9550611aea604089016118e5565b9450611af8606089016118e5565b9350611b06608089016118e5565b925060a0880151611b1681611db1565b9150611b2460c089016118d0565b905092959891949750929550565b60008060008060008060c08789031215611b4a578384fd5b863562ffffff81168114611b5c578485fd5b955060208701359450604087013593506060870135611b7a81611d8d565b92506080870135611b8a81611db1565b915060a08701356119da81611da2565b600060208284031215611bab578081fd5b5051919050565b600060208284031215611bc3578081fd5b81356116e781611db1565b76020b1b1b2b9b9a1b7b73a3937b61d1030b1b1b7bab73a1604d1b815260008351611c00816017850160208801611d34565b7001034b99036b4b9b9b4b733903937b6329607d1b6017918401918201528351611c31816028840160208801611d34565b01602801949350505050565b6001600160a01b0391909116815260200190565b6020815260008251806020840152611c70816040850160208701611d34565b601f01601f19169190910160400192915050565b60208082526022908201527f41636365737369626c653a2043616c6c6572206973206e6f7420616e2061646d60408201526134b760f11b606082015260800190565b60008219821115611cd957611cd9611d77565b500190565b600082611cf957634e487b7160e01b81526012600452602481fd5b500490565b6000816000190483118215151615611d1857611d18611d77565b500290565b600082821015611d2f57611d2f611d77565b500390565b60005b83811015611d4f578181015183820152602001611d37565b8381111561096d5750506000910152565b600081611d6f57611d6f611d77565b506000190190565b634e487b7160e01b600052601160045260246000fd5b6001600160a01b038116811461070857600080fd5b8060020b811461070857600080fd5b60ff8116811461070857600080fdfedf8b4c520ffe197c5343c6f5aec59570151ef9a492f2c624fd45ddde6135ec42a2646970667358221220aec70f040601149c6fbbc1238fd180cad8f380328d6f350ed4f145dffc4eb88f64736f6c63430008040033",
  "linkReferences": {},
  "deployedLinkReferences": {}
}